{
	"contracts/Blog-Modifiers.sol": {
		"Blog": {
			"abi": [
				{
					"inputs": [
						{
							"internalType": "string",
							"name": "_title",
							"type": "string"
						},
						{
							"internalType": "string",
							"name": "_content",
							"type": "string"
						}
					],
					"name": "createPost",
					"outputs": [],
					"stateMutability": "nonpayable",
					"type": "function"
				},
				{
					"inputs": [
						{
							"internalType": "address",
							"name": "_owner",
							"type": "address"
						}
					],
					"name": "getAllPosts",
					"outputs": [
						{
							"components": [
								{
									"internalType": "address",
									"name": "author",
									"type": "address"
								},
								{
									"internalType": "string",
									"name": "title",
									"type": "string"
								},
								{
									"internalType": "string",
									"name": "content",
									"type": "string"
								},
								{
									"internalType": "uint256",
									"name": "timestamp",
									"type": "uint256"
								},
								{
									"internalType": "uint256",
									"name": "likes",
									"type": "uint256"
								}
							],
							"internalType": "struct Blog.Post[]",
							"name": "",
							"type": "tuple[]"
						}
					],
					"stateMutability": "view",
					"type": "function"
				},
				{
					"inputs": [
						{
							"internalType": "uint256",
							"name": "_i",
							"type": "uint256"
						}
					],
					"name": "getPost",
					"outputs": [
						{
							"components": [
								{
									"internalType": "address",
									"name": "author",
									"type": "address"
								},
								{
									"internalType": "string",
									"name": "title",
									"type": "string"
								},
								{
									"internalType": "string",
									"name": "content",
									"type": "string"
								},
								{
									"internalType": "uint256",
									"name": "timestamp",
									"type": "uint256"
								},
								{
									"internalType": "uint256",
									"name": "likes",
									"type": "uint256"
								}
							],
							"internalType": "struct Blog.Post",
							"name": "",
							"type": "tuple"
						}
					],
					"stateMutability": "view",
					"type": "function"
				}
			],
			"devdoc": {
				"kind": "dev",
				"methods": {},
				"version": 1
			},
			"evm": {
				"assembly": "    /* \"contracts/Blog-Modifiers.sol\":58:1075  contract Blog {... */\n  mstore(0x40, 0x80)\n  callvalue\n  dup1\n  iszero\n  tag_1\n  jumpi\n  0x00\n  dup1\n  revert\ntag_1:\n  pop\n  dataSize(sub_0)\n  dup1\n  dataOffset(sub_0)\n  0x00\n  codecopy\n  0x00\n  return\nstop\n\nsub_0: assembly {\n        /* \"contracts/Blog-Modifiers.sol\":58:1075  contract Blog {... */\n      mstore(0x40, 0x80)\n      callvalue\n      dup1\n      iszero\n      tag_1\n      jumpi\n      0x00\n      dup1\n      revert\n    tag_1:\n      pop\n      jumpi(tag_2, lt(calldatasize, 0x04))\n      shr(0xe0, calldataload(0x00))\n      dup1\n      0x392338f5\n      eq\n      tag_3\n      jumpi\n      dup1\n      0x40731c24\n      eq\n      tag_4\n      jumpi\n      dup1\n      0x77d2765c\n      eq\n      tag_5\n      jumpi\n    tag_2:\n      0x00\n      dup1\n      revert\n        /* \"contracts/Blog-Modifiers.sol\":363:845  function createPost(string memory _title, string memory _content) public {... */\n    tag_3:\n      tag_6\n      0x04\n      dup1\n      calldatasize\n      sub\n      dup2\n      add\n      swap1\n      tag_7\n      swap2\n      swap1\n      tag_8\n      jump\t// in\n    tag_7:\n      tag_9\n      jump\t// in\n    tag_6:\n      stop\n        /* \"contracts/Blog-Modifiers.sol\":851:956  function getPost(uint _i) public view returns (Post memory) {... */\n    tag_4:\n      tag_10\n      0x04\n      dup1\n      calldatasize\n      sub\n      dup2\n      add\n      swap1\n      tag_11\n      swap2\n      swap1\n      tag_12\n      jump\t// in\n    tag_11:\n      tag_13\n      jump\t// in\n    tag_10:\n      mload(0x40)\n      tag_14\n      swap2\n      swap1\n      tag_15\n      jump\t// in\n    tag_14:\n      mload(0x40)\n      dup1\n      swap2\n      sub\n      swap1\n      return\n        /* \"contracts/Blog-Modifiers.sol\":962:1072  function getAllPosts(address _owner) public view returns (Post[] memory) {... */\n    tag_5:\n      tag_16\n      0x04\n      dup1\n      calldatasize\n      sub\n      dup2\n      add\n      swap1\n      tag_17\n      swap2\n      swap1\n      tag_18\n      jump\t// in\n    tag_17:\n      tag_19\n      jump\t// in\n    tag_16:\n      mload(0x40)\n      tag_20\n      swap2\n      swap1\n      tag_21\n      jump\t// in\n    tag_20:\n      mload(0x40)\n      dup1\n      swap2\n      sub\n      swap1\n      return\n        /* \"contracts/Blog-Modifiers.sol\":363:845  function createPost(string memory _title, string memory _content) public {... */\n    tag_9:\n        /* \"contracts/Blog-Modifiers.sol\":113:116  128 */\n      0x80\n        /* \"contracts/Blog-Modifiers.sol\":454:494  bytes(_title).length <= MAX_TITLE_LENGTH */\n      0xff\n      and\n        /* \"contracts/Blog-Modifiers.sol\":460:466  _title */\n      dup3\n        /* \"contracts/Blog-Modifiers.sol\":454:474  bytes(_title).length */\n      mload\n        /* \"contracts/Blog-Modifiers.sol\":454:494  bytes(_title).length <= MAX_TITLE_LENGTH */\n      gt\n      iszero\n        /* \"contracts/Blog-Modifiers.sol\":446:513  require(bytes(_title).length <= MAX_TITLE_LENGTH, \"Title too long\") */\n      tag_23\n      jumpi\n      mload(0x40)\n      0x08c379a000000000000000000000000000000000000000000000000000000000\n      dup2\n      mstore\n      0x04\n      add\n      tag_24\n      swap1\n      tag_25\n      jump\t// in\n    tag_24:\n      mload(0x40)\n      dup1\n      swap2\n      sub\n      swap1\n      revert\n    tag_23:\n        /* \"contracts/Blog-Modifiers.sol\":159:163  6000 */\n      0x1770\n        /* \"contracts/Blog-Modifiers.sol\":531:575  bytes(_content).length <= MAX_CONTENT_LENGTH */\n      0xffff\n      and\n        /* \"contracts/Blog-Modifiers.sol\":537:545  _content */\n      dup2\n        /* \"contracts/Blog-Modifiers.sol\":531:553  bytes(_content).length */\n      mload\n        /* \"contracts/Blog-Modifiers.sol\":531:575  bytes(_content).length <= MAX_CONTENT_LENGTH */\n      gt\n      iszero\n        /* \"contracts/Blog-Modifiers.sol\":523:596  require(bytes(_content).length <= MAX_CONTENT_LENGTH, \"Content too long\") */\n      tag_26\n      jumpi\n      mload(0x40)\n      0x08c379a000000000000000000000000000000000000000000000000000000000\n      dup2\n      mstore\n      0x04\n      add\n      tag_27\n      swap1\n      tag_28\n      jump\t// in\n    tag_27:\n      mload(0x40)\n      dup1\n      swap2\n      sub\n      swap1\n      revert\n    tag_26:\n        /* \"contracts/Blog-Modifiers.sol\":606:625  Post memory newPost */\n      0x00\n        /* \"contracts/Blog-Modifiers.sol\":628:796  Post({... */\n      mload(0x40)\n      dup1\n      0xa0\n      add\n      0x40\n      mstore\n      dup1\n        /* \"contracts/Blog-Modifiers.sol\":655:665  msg.sender */\n      caller\n        /* \"contracts/Blog-Modifiers.sol\":628:796  Post({... */\n      0xffffffffffffffffffffffffffffffffffffffff\n      and\n      dup2\n      mstore\n      0x20\n      add\n        /* \"contracts/Blog-Modifiers.sol\":686:692  _title */\n      dup5\n        /* \"contracts/Blog-Modifiers.sol\":628:796  Post({... */\n      dup2\n      mstore\n      0x20\n      add\n        /* \"contracts/Blog-Modifiers.sol\":715:723  _content */\n      dup4\n        /* \"contracts/Blog-Modifiers.sol\":628:796  Post({... */\n      dup2\n      mstore\n      0x20\n      add\n        /* \"contracts/Blog-Modifiers.sol\":748:763  block.timestamp */\n      timestamp\n        /* \"contracts/Blog-Modifiers.sol\":628:796  Post({... */\n      dup2\n      mstore\n      0x20\n      add\n        /* \"contracts/Blog-Modifiers.sol\":784:785  0 */\n      0x00\n        /* \"contracts/Blog-Modifiers.sol\":628:796  Post({... */\n      dup2\n      mstore\n      pop\n        /* \"contracts/Blog-Modifiers.sol\":606:796  Post memory newPost = Post({... */\n      swap1\n      pop\n        /* \"contracts/Blog-Modifiers.sol\":807:812  posts */\n      0x00\n        /* \"contracts/Blog-Modifiers.sol\":807:824  posts[msg.sender] */\n      dup1\n        /* \"contracts/Blog-Modifiers.sol\":813:823  msg.sender */\n      caller\n        /* \"contracts/Blog-Modifiers.sol\":807:824  posts[msg.sender] */\n      0xffffffffffffffffffffffffffffffffffffffff\n      and\n      0xffffffffffffffffffffffffffffffffffffffff\n      and\n      dup2\n      mstore\n      0x20\n      add\n      swap1\n      dup2\n      mstore\n      0x20\n      add\n      0x00\n      keccak256\n        /* \"contracts/Blog-Modifiers.sol\":830:837  newPost */\n      dup2\n        /* \"contracts/Blog-Modifiers.sol\":807:838  posts[msg.sender].push(newPost) */\n      swap1\n      dup1\n      0x01\n      dup2\n      sload\n      add\n      dup1\n      dup3\n      sstore\n      dup1\n      swap2\n      pop\n      pop\n      0x01\n      swap1\n      sub\n      swap1\n      0x00\n      mstore\n      keccak256(0x00, 0x20)\n      swap1\n      0x05\n      mul\n      add\n      0x00\n      swap1\n      swap2\n      swap1\n      swap2\n      swap1\n      swap2\n      pop\n      0x00\n      dup3\n      add\n      mload\n      dup2\n      0x00\n      add\n      exp(0x0100, 0x00)\n      dup2\n      sload\n      dup2\n      0xffffffffffffffffffffffffffffffffffffffff\n      mul\n      not\n      and\n      swap1\n      dup4\n      0xffffffffffffffffffffffffffffffffffffffff\n      and\n      mul\n      or\n      swap1\n      sstore\n      pop\n      0x20\n      dup3\n      add\n      mload\n      dup2\n      0x01\n      add\n      swap1\n      dup2\n      tag_30\n      swap2\n      swap1\n      tag_31\n      jump\t// in\n    tag_30:\n      pop\n      0x40\n      dup3\n      add\n      mload\n      dup2\n      0x02\n      add\n      swap1\n      dup2\n      tag_32\n      swap2\n      swap1\n      tag_31\n      jump\t// in\n    tag_32:\n      pop\n      0x60\n      dup3\n      add\n      mload\n      dup2\n      0x03\n      add\n      sstore\n      0x80\n      dup3\n      add\n      mload\n      dup2\n      0x04\n      add\n      sstore\n      pop\n      pop\n        /* \"contracts/Blog-Modifiers.sol\":436:845  {... */\n      pop\n        /* \"contracts/Blog-Modifiers.sol\":363:845  function createPost(string memory _title, string memory _content) public {... */\n      pop\n      pop\n      jump\t// out\n        /* \"contracts/Blog-Modifiers.sol\":851:956  function getPost(uint _i) public view returns (Post memory) {... */\n    tag_13:\n        /* \"contracts/Blog-Modifiers.sol\":898:909  Post memory */\n      tag_33\n      tag_34\n      jump\t// in\n    tag_33:\n        /* \"contracts/Blog-Modifiers.sol\":928:933  posts */\n      0x00\n        /* \"contracts/Blog-Modifiers.sol\":928:945  posts[msg.sender] */\n      dup1\n        /* \"contracts/Blog-Modifiers.sol\":934:944  msg.sender */\n      caller\n        /* \"contracts/Blog-Modifiers.sol\":928:945  posts[msg.sender] */\n      0xffffffffffffffffffffffffffffffffffffffff\n      and\n      0xffffffffffffffffffffffffffffffffffffffff\n      and\n      dup2\n      mstore\n      0x20\n      add\n      swap1\n      dup2\n      mstore\n      0x20\n      add\n      0x00\n      keccak256\n        /* \"contracts/Blog-Modifiers.sol\":946:948  _i */\n      dup3\n        /* \"contracts/Blog-Modifiers.sol\":928:949  posts[msg.sender][_i] */\n      dup2\n      sload\n      dup2\n      lt\n      tag_36\n      jumpi\n      tag_37\n      tag_38\n      jump\t// in\n    tag_37:\n    tag_36:\n      swap1\n      0x00\n      mstore\n      keccak256(0x00, 0x20)\n      swap1\n      0x05\n      mul\n      add\n        /* \"contracts/Blog-Modifiers.sol\":921:949  return posts[msg.sender][_i] */\n      mload(0x40)\n      dup1\n      0xa0\n      add\n      0x40\n      mstore\n      swap1\n      dup2\n      0x00\n      dup3\n      add\n      0x00\n      swap1\n      sload\n      swap1\n      0x0100\n      exp\n      swap1\n      div\n      0xffffffffffffffffffffffffffffffffffffffff\n      and\n      0xffffffffffffffffffffffffffffffffffffffff\n      and\n      0xffffffffffffffffffffffffffffffffffffffff\n      and\n      dup2\n      mstore\n      0x20\n      add\n      0x01\n      dup3\n      add\n      dup1\n      sload\n      tag_40\n      swap1\n      tag_41\n      jump\t// in\n    tag_40:\n      dup1\n      0x1f\n      add\n      0x20\n      dup1\n      swap2\n      div\n      mul\n      0x20\n      add\n      mload(0x40)\n      swap1\n      dup2\n      add\n      0x40\n      mstore\n      dup1\n      swap3\n      swap2\n      swap1\n      dup2\n      dup2\n      mstore\n      0x20\n      add\n      dup3\n      dup1\n      sload\n      tag_42\n      swap1\n      tag_41\n      jump\t// in\n    tag_42:\n      dup1\n      iszero\n      tag_43\n      jumpi\n      dup1\n      0x1f\n      lt\n      tag_44\n      jumpi\n      0x0100\n      dup1\n      dup4\n      sload\n      div\n      mul\n      dup4\n      mstore\n      swap2\n      0x20\n      add\n      swap2\n      jump(tag_43)\n    tag_44:\n      dup3\n      add\n      swap2\n      swap1\n      0x00\n      mstore\n      keccak256(0x00, 0x20)\n      swap1\n    tag_45:\n      dup2\n      sload\n      dup2\n      mstore\n      swap1\n      0x01\n      add\n      swap1\n      0x20\n      add\n      dup1\n      dup4\n      gt\n      tag_45\n      jumpi\n      dup3\n      swap1\n      sub\n      0x1f\n      and\n      dup3\n      add\n      swap2\n    tag_43:\n      pop\n      pop\n      pop\n      pop\n      pop\n      dup2\n      mstore\n      0x20\n      add\n      0x02\n      dup3\n      add\n      dup1\n      sload\n      tag_46\n      swap1\n      tag_41\n      jump\t// in\n    tag_46:\n      dup1\n      0x1f\n      add\n      0x20\n      dup1\n      swap2\n      div\n      mul\n      0x20\n      add\n      mload(0x40)\n      swap1\n      dup2\n      add\n      0x40\n      mstore\n      dup1\n      swap3\n      swap2\n      swap1\n      dup2\n      dup2\n      mstore\n      0x20\n      add\n      dup3\n      dup1\n      sload\n      tag_47\n      swap1\n      tag_41\n      jump\t// in\n    tag_47:\n      dup1\n      iszero\n      tag_48\n      jumpi\n      dup1\n      0x1f\n      lt\n      tag_49\n      jumpi\n      0x0100\n      dup1\n      dup4\n      sload\n      div\n      mul\n      dup4\n      mstore\n      swap2\n      0x20\n      add\n      swap2\n      jump(tag_48)\n    tag_49:\n      dup3\n      add\n      swap2\n      swap1\n      0x00\n      mstore\n      keccak256(0x00, 0x20)\n      swap1\n    tag_50:\n      dup2\n      sload\n      dup2\n      mstore\n      swap1\n      0x01\n      add\n      swap1\n      0x20\n      add\n      dup1\n      dup4\n      gt\n      tag_50\n      jumpi\n      dup3\n      swap1\n      sub\n      0x1f\n      and\n      dup3\n      add\n      swap2\n    tag_48:\n      pop\n      pop\n      pop\n      pop\n      pop\n      dup2\n      mstore\n      0x20\n      add\n      0x03\n      dup3\n      add\n      sload\n      dup2\n      mstore\n      0x20\n      add\n      0x04\n      dup3\n      add\n      sload\n      dup2\n      mstore\n      pop\n      pop\n      swap1\n      pop\n        /* \"contracts/Blog-Modifiers.sol\":851:956  function getPost(uint _i) public view returns (Post memory) {... */\n      swap2\n      swap1\n      pop\n      jump\t// out\n        /* \"contracts/Blog-Modifiers.sol\":962:1072  function getAllPosts(address _owner) public view returns (Post[] memory) {... */\n    tag_19:\n        /* \"contracts/Blog-Modifiers.sol\":1020:1033  Post[] memory */\n      0x60\n        /* \"contracts/Blog-Modifiers.sol\":1052:1057  posts */\n      0x00\n        /* \"contracts/Blog-Modifiers.sol\":1052:1065  posts[_owner] */\n      dup1\n        /* \"contracts/Blog-Modifiers.sol\":1058:1064  _owner */\n      dup4\n        /* \"contracts/Blog-Modifiers.sol\":1052:1065  posts[_owner] */\n      0xffffffffffffffffffffffffffffffffffffffff\n      and\n      0xffffffffffffffffffffffffffffffffffffffff\n      and\n      dup2\n      mstore\n      0x20\n      add\n      swap1\n      dup2\n      mstore\n      0x20\n      add\n      0x00\n      keccak256\n        /* \"contracts/Blog-Modifiers.sol\":1045:1065  return posts[_owner] */\n      dup1\n      sload\n      dup1\n      0x20\n      mul\n      0x20\n      add\n      mload(0x40)\n      swap1\n      dup2\n      add\n      0x40\n      mstore\n      dup1\n      swap3\n      swap2\n      swap1\n      dup2\n      dup2\n      mstore\n      0x20\n      add\n      0x00\n      swap1\n    tag_52:\n      dup3\n      dup3\n      lt\n      iszero\n      tag_53\n      jumpi\n      dup4\n      dup3\n      swap1\n      0x00\n      mstore\n      keccak256(0x00, 0x20)\n      swap1\n      0x05\n      mul\n      add\n      mload(0x40)\n      dup1\n      0xa0\n      add\n      0x40\n      mstore\n      swap1\n      dup2\n      0x00\n      dup3\n      add\n      0x00\n      swap1\n      sload\n      swap1\n      0x0100\n      exp\n      swap1\n      div\n      0xffffffffffffffffffffffffffffffffffffffff\n      and\n      0xffffffffffffffffffffffffffffffffffffffff\n      and\n      0xffffffffffffffffffffffffffffffffffffffff\n      and\n      dup2\n      mstore\n      0x20\n      add\n      0x01\n      dup3\n      add\n      dup1\n      sload\n      tag_55\n      swap1\n      tag_41\n      jump\t// in\n    tag_55:\n      dup1\n      0x1f\n      add\n      0x20\n      dup1\n      swap2\n      div\n      mul\n      0x20\n      add\n      mload(0x40)\n      swap1\n      dup2\n      add\n      0x40\n      mstore\n      dup1\n      swap3\n      swap2\n      swap1\n      dup2\n      dup2\n      mstore\n      0x20\n      add\n      dup3\n      dup1\n      sload\n      tag_56\n      swap1\n      tag_41\n      jump\t// in\n    tag_56:\n      dup1\n      iszero\n      tag_57\n      jumpi\n      dup1\n      0x1f\n      lt\n      tag_58\n      jumpi\n      0x0100\n      dup1\n      dup4\n      sload\n      div\n      mul\n      dup4\n      mstore\n      swap2\n      0x20\n      add\n      swap2\n      jump(tag_57)\n    tag_58:\n      dup3\n      add\n      swap2\n      swap1\n      0x00\n      mstore\n      keccak256(0x00, 0x20)\n      swap1\n    tag_59:\n      dup2\n      sload\n      dup2\n      mstore\n      swap1\n      0x01\n      add\n      swap1\n      0x20\n      add\n      dup1\n      dup4\n      gt\n      tag_59\n      jumpi\n      dup3\n      swap1\n      sub\n      0x1f\n      and\n      dup3\n      add\n      swap2\n    tag_57:\n      pop\n      pop\n      pop\n      pop\n      pop\n      dup2\n      mstore\n      0x20\n      add\n      0x02\n      dup3\n      add\n      dup1\n      sload\n      tag_60\n      swap1\n      tag_41\n      jump\t// in\n    tag_60:\n      dup1\n      0x1f\n      add\n      0x20\n      dup1\n      swap2\n      div\n      mul\n      0x20\n      add\n      mload(0x40)\n      swap1\n      dup2\n      add\n      0x40\n      mstore\n      dup1\n      swap3\n      swap2\n      swap1\n      dup2\n      dup2\n      mstore\n      0x20\n      add\n      dup3\n      dup1\n      sload\n      tag_61\n      swap1\n      tag_41\n      jump\t// in\n    tag_61:\n      dup1\n      iszero\n      tag_62\n      jumpi\n      dup1\n      0x1f\n      lt\n      tag_63\n      jumpi\n      0x0100\n      dup1\n      dup4\n      sload\n      div\n      mul\n      dup4\n      mstore\n      swap2\n      0x20\n      add\n      swap2\n      jump(tag_62)\n    tag_63:\n      dup3\n      add\n      swap2\n      swap1\n      0x00\n      mstore\n      keccak256(0x00, 0x20)\n      swap1\n    tag_64:\n      dup2\n      sload\n      dup2\n      mstore\n      swap1\n      0x01\n      add\n      swap1\n      0x20\n      add\n      dup1\n      dup4\n      gt\n      tag_64\n      jumpi\n      dup3\n      swap1\n      sub\n      0x1f\n      and\n      dup3\n      add\n      swap2\n    tag_62:\n      pop\n      pop\n      pop\n      pop\n      pop\n      dup2\n      mstore\n      0x20\n      add\n      0x03\n      dup3\n      add\n      sload\n      dup2\n      mstore\n      0x20\n      add\n      0x04\n      dup3\n      add\n      sload\n      dup2\n      mstore\n      pop\n      pop\n      dup2\n      mstore\n      0x20\n      add\n      swap1\n      0x01\n      add\n      swap1\n      jump(tag_52)\n    tag_53:\n      pop\n      pop\n      pop\n      pop\n      swap1\n      pop\n        /* \"contracts/Blog-Modifiers.sol\":962:1072  function getAllPosts(address _owner) public view returns (Post[] memory) {... */\n      swap2\n      swap1\n      pop\n      jump\t// out\n    tag_34:\n      mload(0x40)\n      dup1\n      0xa0\n      add\n      0x40\n      mstore\n      dup1\n      and(0xffffffffffffffffffffffffffffffffffffffff, 0x00)\n      dup2\n      mstore\n      0x20\n      add\n      0x60\n      dup2\n      mstore\n      0x20\n      add\n      0x60\n      dup2\n      mstore\n      0x20\n      add\n      0x00\n      dup2\n      mstore\n      0x20\n      add\n      0x00\n      dup2\n      mstore\n      pop\n      swap1\n      jump\t// out\n        /* \"#utility.yul\":7:82   */\n    tag_65:\n        /* \"#utility.yul\":40:46   */\n      0x00\n        /* \"#utility.yul\":73:75   */\n      0x40\n        /* \"#utility.yul\":67:76   */\n      mload\n        /* \"#utility.yul\":57:76   */\n      swap1\n      pop\n        /* \"#utility.yul\":7:82   */\n      swap1\n      jump\t// out\n        /* \"#utility.yul\":88:205   */\n    tag_66:\n        /* \"#utility.yul\":197:198   */\n      0x00\n        /* \"#utility.yul\":194:195   */\n      dup1\n        /* \"#utility.yul\":187:199   */\n      revert\n        /* \"#utility.yul\":211:328   */\n    tag_67:\n        /* \"#utility.yul\":320:321   */\n      0x00\n        /* \"#utility.yul\":317:318   */\n      dup1\n        /* \"#utility.yul\":310:322   */\n      revert\n        /* \"#utility.yul\":334:451   */\n    tag_68:\n        /* \"#utility.yul\":443:444   */\n      0x00\n        /* \"#utility.yul\":440:441   */\n      dup1\n        /* \"#utility.yul\":433:445   */\n      revert\n        /* \"#utility.yul\":457:574   */\n    tag_69:\n        /* \"#utility.yul\":566:567   */\n      0x00\n        /* \"#utility.yul\":563:564   */\n      dup1\n        /* \"#utility.yul\":556:568   */\n      revert\n        /* \"#utility.yul\":580:682   */\n    tag_70:\n        /* \"#utility.yul\":621:627   */\n      0x00\n        /* \"#utility.yul\":672:674   */\n      0x1f\n        /* \"#utility.yul\":668:675   */\n      not\n        /* \"#utility.yul\":663:665   */\n      0x1f\n        /* \"#utility.yul\":656:661   */\n      dup4\n        /* \"#utility.yul\":652:666   */\n      add\n        /* \"#utility.yul\":648:676   */\n      and\n        /* \"#utility.yul\":638:676   */\n      swap1\n      pop\n        /* \"#utility.yul\":580:682   */\n      swap2\n      swap1\n      pop\n      jump\t// out\n        /* \"#utility.yul\":688:868   */\n    tag_71:\n        /* \"#utility.yul\":736:813   */\n      0x4e487b7100000000000000000000000000000000000000000000000000000000\n        /* \"#utility.yul\":733:734   */\n      0x00\n        /* \"#utility.yul\":726:814   */\n      mstore\n        /* \"#utility.yul\":833:837   */\n      0x41\n        /* \"#utility.yul\":830:831   */\n      0x04\n        /* \"#utility.yul\":823:838   */\n      mstore\n        /* \"#utility.yul\":857:861   */\n      0x24\n        /* \"#utility.yul\":854:855   */\n      0x00\n        /* \"#utility.yul\":847:862   */\n      revert\n        /* \"#utility.yul\":874:1155   */\n    tag_72:\n        /* \"#utility.yul\":957:984   */\n      tag_129\n        /* \"#utility.yul\":979:983   */\n      dup3\n        /* \"#utility.yul\":957:984   */\n      tag_70\n      jump\t// in\n    tag_129:\n        /* \"#utility.yul\":949:955   */\n      dup2\n        /* \"#utility.yul\":945:985   */\n      add\n        /* \"#utility.yul\":1087:1093   */\n      dup2\n        /* \"#utility.yul\":1075:1085   */\n      dup2\n        /* \"#utility.yul\":1072:1094   */\n      lt\n        /* \"#utility.yul\":1051:1069   */\n      0xffffffffffffffff\n        /* \"#utility.yul\":1039:1049   */\n      dup3\n        /* \"#utility.yul\":1036:1070   */\n      gt\n        /* \"#utility.yul\":1033:1095   */\n      or\n        /* \"#utility.yul\":1030:1118   */\n      iszero\n      tag_130\n      jumpi\n        /* \"#utility.yul\":1098:1116   */\n      tag_131\n      tag_71\n      jump\t// in\n    tag_131:\n        /* \"#utility.yul\":1030:1118   */\n    tag_130:\n        /* \"#utility.yul\":1138:1148   */\n      dup1\n        /* \"#utility.yul\":1134:1136   */\n      0x40\n        /* \"#utility.yul\":1127:1149   */\n      mstore\n        /* \"#utility.yul\":917:1155   */\n      pop\n        /* \"#utility.yul\":874:1155   */\n      pop\n      pop\n      jump\t// out\n        /* \"#utility.yul\":1161:1290   */\n    tag_73:\n        /* \"#utility.yul\":1195:1201   */\n      0x00\n        /* \"#utility.yul\":1222:1242   */\n      tag_133\n      tag_65\n      jump\t// in\n    tag_133:\n        /* \"#utility.yul\":1212:1242   */\n      swap1\n      pop\n        /* \"#utility.yul\":1251:1284   */\n      tag_134\n        /* \"#utility.yul\":1279:1283   */\n      dup3\n        /* \"#utility.yul\":1271:1277   */\n      dup3\n        /* \"#utility.yul\":1251:1284   */\n      tag_72\n      jump\t// in\n    tag_134:\n        /* \"#utility.yul\":1161:1290   */\n      swap2\n      swap1\n      pop\n      jump\t// out\n        /* \"#utility.yul\":1296:1604   */\n    tag_74:\n        /* \"#utility.yul\":1358:1362   */\n      0x00\n        /* \"#utility.yul\":1448:1466   */\n      0xffffffffffffffff\n        /* \"#utility.yul\":1440:1446   */\n      dup3\n        /* \"#utility.yul\":1437:1467   */\n      gt\n        /* \"#utility.yul\":1434:1490   */\n      iszero\n      tag_136\n      jumpi\n        /* \"#utility.yul\":1470:1488   */\n      tag_137\n      tag_71\n      jump\t// in\n    tag_137:\n        /* \"#utility.yul\":1434:1490   */\n    tag_136:\n        /* \"#utility.yul\":1508:1537   */\n      tag_138\n        /* \"#utility.yul\":1530:1536   */\n      dup3\n        /* \"#utility.yul\":1508:1537   */\n      tag_70\n      jump\t// in\n    tag_138:\n        /* \"#utility.yul\":1500:1537   */\n      swap1\n      pop\n        /* \"#utility.yul\":1592:1596   */\n      0x20\n        /* \"#utility.yul\":1586:1590   */\n      dup2\n        /* \"#utility.yul\":1582:1597   */\n      add\n        /* \"#utility.yul\":1574:1597   */\n      swap1\n      pop\n        /* \"#utility.yul\":1296:1604   */\n      swap2\n      swap1\n      pop\n      jump\t// out\n        /* \"#utility.yul\":1610:1756   */\n    tag_75:\n        /* \"#utility.yul\":1707:1713   */\n      dup3\n        /* \"#utility.yul\":1702:1705   */\n      dup2\n        /* \"#utility.yul\":1697:1700   */\n      dup4\n        /* \"#utility.yul\":1684:1714   */\n      calldatacopy\n        /* \"#utility.yul\":1748:1749   */\n      0x00\n        /* \"#utility.yul\":1739:1745   */\n      dup4\n        /* \"#utility.yul\":1734:1737   */\n      dup4\n        /* \"#utility.yul\":1730:1746   */\n      add\n        /* \"#utility.yul\":1723:1750   */\n      mstore\n        /* \"#utility.yul\":1610:1756   */\n      pop\n      pop\n      pop\n      jump\t// out\n        /* \"#utility.yul\":1762:2187   */\n    tag_76:\n        /* \"#utility.yul\":1840:1845   */\n      0x00\n        /* \"#utility.yul\":1865:1931   */\n      tag_141\n        /* \"#utility.yul\":1881:1930   */\n      tag_142\n        /* \"#utility.yul\":1923:1929   */\n      dup5\n        /* \"#utility.yul\":1881:1930   */\n      tag_74\n      jump\t// in\n    tag_142:\n        /* \"#utility.yul\":1865:1931   */\n      tag_73\n      jump\t// in\n    tag_141:\n        /* \"#utility.yul\":1856:1931   */\n      swap1\n      pop\n        /* \"#utility.yul\":1954:1960   */\n      dup3\n        /* \"#utility.yul\":1947:1952   */\n      dup2\n        /* \"#utility.yul\":1940:1961   */\n      mstore\n        /* \"#utility.yul\":1992:1996   */\n      0x20\n        /* \"#utility.yul\":1985:1990   */\n      dup2\n        /* \"#utility.yul\":1981:1997   */\n      add\n        /* \"#utility.yul\":2030:2033   */\n      dup5\n        /* \"#utility.yul\":2021:2027   */\n      dup5\n        /* \"#utility.yul\":2016:2019   */\n      dup5\n        /* \"#utility.yul\":2012:2028   */\n      add\n        /* \"#utility.yul\":2009:2034   */\n      gt\n        /* \"#utility.yul\":2006:2118   */\n      iszero\n      tag_143\n      jumpi\n        /* \"#utility.yul\":2037:2116   */\n      tag_144\n      tag_69\n      jump\t// in\n    tag_144:\n        /* \"#utility.yul\":2006:2118   */\n    tag_143:\n        /* \"#utility.yul\":2127:2181   */\n      tag_145\n        /* \"#utility.yul\":2174:2180   */\n      dup5\n        /* \"#utility.yul\":2169:2172   */\n      dup3\n        /* \"#utility.yul\":2164:2167   */\n      dup6\n        /* \"#utility.yul\":2127:2181   */\n      tag_75\n      jump\t// in\n    tag_145:\n        /* \"#utility.yul\":1846:2187   */\n      pop\n        /* \"#utility.yul\":1762:2187   */\n      swap4\n      swap3\n      pop\n      pop\n      pop\n      jump\t// out\n        /* \"#utility.yul\":2207:2547   */\n    tag_77:\n        /* \"#utility.yul\":2263:2268   */\n      0x00\n        /* \"#utility.yul\":2312:2315   */\n      dup3\n        /* \"#utility.yul\":2305:2309   */\n      0x1f\n        /* \"#utility.yul\":2297:2303   */\n      dup4\n        /* \"#utility.yul\":2293:2310   */\n      add\n        /* \"#utility.yul\":2289:2316   */\n      slt\n        /* \"#utility.yul\":2279:2401   */\n      tag_147\n      jumpi\n        /* \"#utility.yul\":2320:2399   */\n      tag_148\n      tag_68\n      jump\t// in\n    tag_148:\n        /* \"#utility.yul\":2279:2401   */\n    tag_147:\n        /* \"#utility.yul\":2437:2443   */\n      dup2\n        /* \"#utility.yul\":2424:2444   */\n      calldataload\n        /* \"#utility.yul\":2462:2541   */\n      tag_149\n        /* \"#utility.yul\":2537:2540   */\n      dup5\n        /* \"#utility.yul\":2529:2535   */\n      dup3\n        /* \"#utility.yul\":2522:2526   */\n      0x20\n        /* \"#utility.yul\":2514:2520   */\n      dup7\n        /* \"#utility.yul\":2510:2527   */\n      add\n        /* \"#utility.yul\":2462:2541   */\n      tag_76\n      jump\t// in\n    tag_149:\n        /* \"#utility.yul\":2453:2541   */\n      swap2\n      pop\n        /* \"#utility.yul\":2269:2547   */\n      pop\n        /* \"#utility.yul\":2207:2547   */\n      swap3\n      swap2\n      pop\n      pop\n      jump\t// out\n        /* \"#utility.yul\":2553:3387   */\n    tag_8:\n        /* \"#utility.yul\":2641:2647   */\n      0x00\n        /* \"#utility.yul\":2649:2655   */\n      dup1\n        /* \"#utility.yul\":2698:2700   */\n      0x40\n        /* \"#utility.yul\":2686:2695   */\n      dup4\n        /* \"#utility.yul\":2677:2684   */\n      dup6\n        /* \"#utility.yul\":2673:2696   */\n      sub\n        /* \"#utility.yul\":2669:2701   */\n      slt\n        /* \"#utility.yul\":2666:2785   */\n      iszero\n      tag_151\n      jumpi\n        /* \"#utility.yul\":2704:2783   */\n      tag_152\n      tag_66\n      jump\t// in\n    tag_152:\n        /* \"#utility.yul\":2666:2785   */\n    tag_151:\n        /* \"#utility.yul\":2852:2853   */\n      0x00\n        /* \"#utility.yul\":2841:2850   */\n      dup4\n        /* \"#utility.yul\":2837:2854   */\n      add\n        /* \"#utility.yul\":2824:2855   */\n      calldataload\n        /* \"#utility.yul\":2882:2900   */\n      0xffffffffffffffff\n        /* \"#utility.yul\":2874:2880   */\n      dup2\n        /* \"#utility.yul\":2871:2901   */\n      gt\n        /* \"#utility.yul\":2868:2985   */\n      iszero\n      tag_153\n      jumpi\n        /* \"#utility.yul\":2904:2983   */\n      tag_154\n      tag_67\n      jump\t// in\n    tag_154:\n        /* \"#utility.yul\":2868:2985   */\n    tag_153:\n        /* \"#utility.yul\":3009:3072   */\n      tag_155\n        /* \"#utility.yul\":3064:3071   */\n      dup6\n        /* \"#utility.yul\":3055:3061   */\n      dup3\n        /* \"#utility.yul\":3044:3053   */\n      dup7\n        /* \"#utility.yul\":3040:3062   */\n      add\n        /* \"#utility.yul\":3009:3072   */\n      tag_77\n      jump\t// in\n    tag_155:\n        /* \"#utility.yul\":2999:3072   */\n      swap3\n      pop\n        /* \"#utility.yul\":2795:3082   */\n      pop\n        /* \"#utility.yul\":3149:3151   */\n      0x20\n        /* \"#utility.yul\":3138:3147   */\n      dup4\n        /* \"#utility.yul\":3134:3152   */\n      add\n        /* \"#utility.yul\":3121:3153   */\n      calldataload\n        /* \"#utility.yul\":3180:3198   */\n      0xffffffffffffffff\n        /* \"#utility.yul\":3172:3178   */\n      dup2\n        /* \"#utility.yul\":3169:3199   */\n      gt\n        /* \"#utility.yul\":3166:3283   */\n      iszero\n      tag_156\n      jumpi\n        /* \"#utility.yul\":3202:3281   */\n      tag_157\n      tag_67\n      jump\t// in\n    tag_157:\n        /* \"#utility.yul\":3166:3283   */\n    tag_156:\n        /* \"#utility.yul\":3307:3370   */\n      tag_158\n        /* \"#utility.yul\":3362:3369   */\n      dup6\n        /* \"#utility.yul\":3353:3359   */\n      dup3\n        /* \"#utility.yul\":3342:3351   */\n      dup7\n        /* \"#utility.yul\":3338:3360   */\n      add\n        /* \"#utility.yul\":3307:3370   */\n      tag_77\n      jump\t// in\n    tag_158:\n        /* \"#utility.yul\":3297:3370   */\n      swap2\n      pop\n        /* \"#utility.yul\":3092:3380   */\n      pop\n        /* \"#utility.yul\":2553:3387   */\n      swap3\n      pop\n      swap3\n      swap1\n      pop\n      jump\t// out\n        /* \"#utility.yul\":3393:3470   */\n    tag_78:\n        /* \"#utility.yul\":3430:3437   */\n      0x00\n        /* \"#utility.yul\":3459:3464   */\n      dup2\n        /* \"#utility.yul\":3448:3464   */\n      swap1\n      pop\n        /* \"#utility.yul\":3393:3470   */\n      swap2\n      swap1\n      pop\n      jump\t// out\n        /* \"#utility.yul\":3476:3598   */\n    tag_79:\n        /* \"#utility.yul\":3549:3573   */\n      tag_161\n        /* \"#utility.yul\":3567:3572   */\n      dup2\n        /* \"#utility.yul\":3549:3573   */\n      tag_78\n      jump\t// in\n    tag_161:\n        /* \"#utility.yul\":3542:3547   */\n      dup2\n        /* \"#utility.yul\":3539:3574   */\n      eq\n        /* \"#utility.yul\":3529:3592   */\n      tag_162\n      jumpi\n        /* \"#utility.yul\":3588:3589   */\n      0x00\n        /* \"#utility.yul\":3585:3586   */\n      dup1\n        /* \"#utility.yul\":3578:3590   */\n      revert\n        /* \"#utility.yul\":3529:3592   */\n    tag_162:\n        /* \"#utility.yul\":3476:3598   */\n      pop\n      jump\t// out\n        /* \"#utility.yul\":3604:3743   */\n    tag_80:\n        /* \"#utility.yul\":3650:3655   */\n      0x00\n        /* \"#utility.yul\":3688:3694   */\n      dup2\n        /* \"#utility.yul\":3675:3695   */\n      calldataload\n        /* \"#utility.yul\":3666:3695   */\n      swap1\n      pop\n        /* \"#utility.yul\":3704:3737   */\n      tag_164\n        /* \"#utility.yul\":3731:3736   */\n      dup2\n        /* \"#utility.yul\":3704:3737   */\n      tag_79\n      jump\t// in\n    tag_164:\n        /* \"#utility.yul\":3604:3743   */\n      swap3\n      swap2\n      pop\n      pop\n      jump\t// out\n        /* \"#utility.yul\":3749:4078   */\n    tag_12:\n        /* \"#utility.yul\":3808:3814   */\n      0x00\n        /* \"#utility.yul\":3857:3859   */\n      0x20\n        /* \"#utility.yul\":3845:3854   */\n      dup3\n        /* \"#utility.yul\":3836:3843   */\n      dup5\n        /* \"#utility.yul\":3832:3855   */\n      sub\n        /* \"#utility.yul\":3828:3860   */\n      slt\n        /* \"#utility.yul\":3825:3944   */\n      iszero\n      tag_166\n      jumpi\n        /* \"#utility.yul\":3863:3942   */\n      tag_167\n      tag_66\n      jump\t// in\n    tag_167:\n        /* \"#utility.yul\":3825:3944   */\n    tag_166:\n        /* \"#utility.yul\":3983:3984   */\n      0x00\n        /* \"#utility.yul\":4008:4061   */\n      tag_168\n        /* \"#utility.yul\":4053:4060   */\n      dup5\n        /* \"#utility.yul\":4044:4050   */\n      dup3\n        /* \"#utility.yul\":4033:4042   */\n      dup6\n        /* \"#utility.yul\":4029:4051   */\n      add\n        /* \"#utility.yul\":4008:4061   */\n      tag_80\n      jump\t// in\n    tag_168:\n        /* \"#utility.yul\":3998:4061   */\n      swap2\n      pop\n        /* \"#utility.yul\":3954:4071   */\n      pop\n        /* \"#utility.yul\":3749:4078   */\n      swap3\n      swap2\n      pop\n      pop\n      jump\t// out\n        /* \"#utility.yul\":4084:4210   */\n    tag_81:\n        /* \"#utility.yul\":4121:4128   */\n      0x00\n        /* \"#utility.yul\":4161:4203   */\n      0xffffffffffffffffffffffffffffffffffffffff\n        /* \"#utility.yul\":4154:4159   */\n      dup3\n        /* \"#utility.yul\":4150:4204   */\n      and\n        /* \"#utility.yul\":4139:4204   */\n      swap1\n      pop\n        /* \"#utility.yul\":4084:4210   */\n      swap2\n      swap1\n      pop\n      jump\t// out\n        /* \"#utility.yul\":4216:4312   */\n    tag_82:\n        /* \"#utility.yul\":4253:4260   */\n      0x00\n        /* \"#utility.yul\":4282:4306   */\n      tag_171\n        /* \"#utility.yul\":4300:4305   */\n      dup3\n        /* \"#utility.yul\":4282:4306   */\n      tag_81\n      jump\t// in\n    tag_171:\n        /* \"#utility.yul\":4271:4306   */\n      swap1\n      pop\n        /* \"#utility.yul\":4216:4312   */\n      swap2\n      swap1\n      pop\n      jump\t// out\n        /* \"#utility.yul\":4318:4426   */\n    tag_83:\n        /* \"#utility.yul\":4395:4419   */\n      tag_173\n        /* \"#utility.yul\":4413:4418   */\n      dup2\n        /* \"#utility.yul\":4395:4419   */\n      tag_82\n      jump\t// in\n    tag_173:\n        /* \"#utility.yul\":4390:4393   */\n      dup3\n        /* \"#utility.yul\":4383:4420   */\n      mstore\n        /* \"#utility.yul\":4318:4426   */\n      pop\n      pop\n      jump\t// out\n        /* \"#utility.yul\":4432:4531   */\n    tag_84:\n        /* \"#utility.yul\":4484:4490   */\n      0x00\n        /* \"#utility.yul\":4518:4523   */\n      dup2\n        /* \"#utility.yul\":4512:4524   */\n      mload\n        /* \"#utility.yul\":4502:4524   */\n      swap1\n      pop\n        /* \"#utility.yul\":4432:4531   */\n      swap2\n      swap1\n      pop\n      jump\t// out\n        /* \"#utility.yul\":4537:4696   */\n    tag_85:\n        /* \"#utility.yul\":4611:4622   */\n      0x00\n        /* \"#utility.yul\":4645:4651   */\n      dup3\n        /* \"#utility.yul\":4640:4643   */\n      dup3\n        /* \"#utility.yul\":4633:4652   */\n      mstore\n        /* \"#utility.yul\":4685:4689   */\n      0x20\n        /* \"#utility.yul\":4680:4683   */\n      dup3\n        /* \"#utility.yul\":4676:4690   */\n      add\n        /* \"#utility.yul\":4661:4690   */\n      swap1\n      pop\n        /* \"#utility.yul\":4537:4696   */\n      swap3\n      swap2\n      pop\n      pop\n      jump\t// out\n        /* \"#utility.yul\":4702:4948   */\n    tag_86:\n        /* \"#utility.yul\":4783:4784   */\n      0x00\n        /* \"#utility.yul\":4793:4906   */\n    tag_177:\n        /* \"#utility.yul\":4807:4813   */\n      dup4\n        /* \"#utility.yul\":4804:4805   */\n      dup2\n        /* \"#utility.yul\":4801:4814   */\n      lt\n        /* \"#utility.yul\":4793:4906   */\n      iszero\n      tag_179\n      jumpi\n        /* \"#utility.yul\":4892:4893   */\n      dup1\n        /* \"#utility.yul\":4887:4890   */\n      dup3\n        /* \"#utility.yul\":4883:4894   */\n      add\n        /* \"#utility.yul\":4877:4895   */\n      mload\n        /* \"#utility.yul\":4873:4874   */\n      dup2\n        /* \"#utility.yul\":4868:4871   */\n      dup5\n        /* \"#utility.yul\":4864:4875   */\n      add\n        /* \"#utility.yul\":4857:4896   */\n      mstore\n        /* \"#utility.yul\":4829:4831   */\n      0x20\n        /* \"#utility.yul\":4826:4827   */\n      dup2\n        /* \"#utility.yul\":4822:4832   */\n      add\n        /* \"#utility.yul\":4817:4832   */\n      swap1\n      pop\n        /* \"#utility.yul\":4793:4906   */\n      jump(tag_177)\n    tag_179:\n        /* \"#utility.yul\":4940:4941   */\n      0x00\n        /* \"#utility.yul\":4931:4937   */\n      dup5\n        /* \"#utility.yul\":4926:4929   */\n      dup5\n        /* \"#utility.yul\":4922:4938   */\n      add\n        /* \"#utility.yul\":4915:4942   */\n      mstore\n        /* \"#utility.yul\":4764:4948   */\n      pop\n        /* \"#utility.yul\":4702:4948   */\n      pop\n      pop\n      pop\n      jump\t// out\n        /* \"#utility.yul\":4954:5311   */\n    tag_87:\n        /* \"#utility.yul\":5032:5035   */\n      0x00\n        /* \"#utility.yul\":5060:5099   */\n      tag_181\n        /* \"#utility.yul\":5093:5098   */\n      dup3\n        /* \"#utility.yul\":5060:5099   */\n      tag_84\n      jump\t// in\n    tag_181:\n        /* \"#utility.yul\":5115:5176   */\n      tag_182\n        /* \"#utility.yul\":5169:5175   */\n      dup2\n        /* \"#utility.yul\":5164:5167   */\n      dup6\n        /* \"#utility.yul\":5115:5176   */\n      tag_85\n      jump\t// in\n    tag_182:\n        /* \"#utility.yul\":5108:5176   */\n      swap4\n      pop\n        /* \"#utility.yul\":5185:5250   */\n      tag_183\n        /* \"#utility.yul\":5243:5249   */\n      dup2\n        /* \"#utility.yul\":5238:5241   */\n      dup6\n        /* \"#utility.yul\":5231:5235   */\n      0x20\n        /* \"#utility.yul\":5224:5229   */\n      dup7\n        /* \"#utility.yul\":5220:5236   */\n      add\n        /* \"#utility.yul\":5185:5250   */\n      tag_86\n      jump\t// in\n    tag_183:\n        /* \"#utility.yul\":5275:5304   */\n      tag_184\n        /* \"#utility.yul\":5297:5303   */\n      dup2\n        /* \"#utility.yul\":5275:5304   */\n      tag_70\n      jump\t// in\n    tag_184:\n        /* \"#utility.yul\":5270:5273   */\n      dup5\n        /* \"#utility.yul\":5266:5305   */\n      add\n        /* \"#utility.yul\":5259:5305   */\n      swap2\n      pop\n        /* \"#utility.yul\":5036:5311   */\n      pop\n        /* \"#utility.yul\":4954:5311   */\n      swap3\n      swap2\n      pop\n      pop\n      jump\t// out\n        /* \"#utility.yul\":5317:5425   */\n    tag_88:\n        /* \"#utility.yul\":5394:5418   */\n      tag_186\n        /* \"#utility.yul\":5412:5417   */\n      dup2\n        /* \"#utility.yul\":5394:5418   */\n      tag_78\n      jump\t// in\n    tag_186:\n        /* \"#utility.yul\":5389:5392   */\n      dup3\n        /* \"#utility.yul\":5382:5419   */\n      mstore\n        /* \"#utility.yul\":5317:5425   */\n      pop\n      pop\n      jump\t// out\n        /* \"#utility.yul\":5475:6676   */\n    tag_89:\n        /* \"#utility.yul\":5584:5587   */\n      0x00\n        /* \"#utility.yul\":5620:5624   */\n      0xa0\n        /* \"#utility.yul\":5615:5618   */\n      dup4\n        /* \"#utility.yul\":5611:5625   */\n      add\n        /* \"#utility.yul\":5709:5713   */\n      0x00\n        /* \"#utility.yul\":5702:5707   */\n      dup4\n        /* \"#utility.yul\":5698:5714   */\n      add\n        /* \"#utility.yul\":5692:5715   */\n      mload\n        /* \"#utility.yul\":5728:5791   */\n      tag_188\n        /* \"#utility.yul\":5785:5789   */\n      0x00\n        /* \"#utility.yul\":5780:5783   */\n      dup7\n        /* \"#utility.yul\":5776:5790   */\n      add\n        /* \"#utility.yul\":5762:5774   */\n      dup3\n        /* \"#utility.yul\":5728:5791   */\n      tag_83\n      jump\t// in\n    tag_188:\n        /* \"#utility.yul\":5635:5801   */\n      pop\n        /* \"#utility.yul\":5884:5888   */\n      0x20\n        /* \"#utility.yul\":5877:5882   */\n      dup4\n        /* \"#utility.yul\":5873:5889   */\n      add\n        /* \"#utility.yul\":5867:5890   */\n      mload\n        /* \"#utility.yul\":5937:5940   */\n      dup5\n        /* \"#utility.yul\":5931:5935   */\n      dup3\n        /* \"#utility.yul\":5927:5941   */\n      sub\n        /* \"#utility.yul\":5920:5924   */\n      0x20\n        /* \"#utility.yul\":5915:5918   */\n      dup7\n        /* \"#utility.yul\":5911:5925   */\n      add\n        /* \"#utility.yul\":5904:5942   */\n      mstore\n        /* \"#utility.yul\":5963:6036   */\n      tag_189\n        /* \"#utility.yul\":6031:6035   */\n      dup3\n        /* \"#utility.yul\":6017:6029   */\n      dup3\n        /* \"#utility.yul\":5963:6036   */\n      tag_87\n      jump\t// in\n    tag_189:\n        /* \"#utility.yul\":5955:6036   */\n      swap2\n      pop\n        /* \"#utility.yul\":5811:6047   */\n      pop\n        /* \"#utility.yul\":6132:6136   */\n      0x40\n        /* \"#utility.yul\":6125:6130   */\n      dup4\n        /* \"#utility.yul\":6121:6137   */\n      add\n        /* \"#utility.yul\":6115:6138   */\n      mload\n        /* \"#utility.yul\":6185:6188   */\n      dup5\n        /* \"#utility.yul\":6179:6183   */\n      dup3\n        /* \"#utility.yul\":6175:6189   */\n      sub\n        /* \"#utility.yul\":6168:6172   */\n      0x40\n        /* \"#utility.yul\":6163:6166   */\n      dup7\n        /* \"#utility.yul\":6159:6173   */\n      add\n        /* \"#utility.yul\":6152:6190   */\n      mstore\n        /* \"#utility.yul\":6211:6284   */\n      tag_190\n        /* \"#utility.yul\":6279:6283   */\n      dup3\n        /* \"#utility.yul\":6265:6277   */\n      dup3\n        /* \"#utility.yul\":6211:6284   */\n      tag_87\n      jump\t// in\n    tag_190:\n        /* \"#utility.yul\":6203:6284   */\n      swap2\n      pop\n        /* \"#utility.yul\":6057:6295   */\n      pop\n        /* \"#utility.yul\":6382:6386   */\n      0x60\n        /* \"#utility.yul\":6375:6380   */\n      dup4\n        /* \"#utility.yul\":6371:6387   */\n      add\n        /* \"#utility.yul\":6365:6388   */\n      mload\n        /* \"#utility.yul\":6401:6464   */\n      tag_191\n        /* \"#utility.yul\":6458:6462   */\n      0x60\n        /* \"#utility.yul\":6453:6456   */\n      dup7\n        /* \"#utility.yul\":6449:6463   */\n      add\n        /* \"#utility.yul\":6435:6447   */\n      dup3\n        /* \"#utility.yul\":6401:6464   */\n      tag_88\n      jump\t// in\n    tag_191:\n        /* \"#utility.yul\":6305:6474   */\n      pop\n        /* \"#utility.yul\":6557:6561   */\n      0x80\n        /* \"#utility.yul\":6550:6555   */\n      dup4\n        /* \"#utility.yul\":6546:6562   */\n      add\n        /* \"#utility.yul\":6540:6563   */\n      mload\n        /* \"#utility.yul\":6576:6639   */\n      tag_192\n        /* \"#utility.yul\":6633:6637   */\n      0x80\n        /* \"#utility.yul\":6628:6631   */\n      dup7\n        /* \"#utility.yul\":6624:6638   */\n      add\n        /* \"#utility.yul\":6610:6622   */\n      dup3\n        /* \"#utility.yul\":6576:6639   */\n      tag_88\n      jump\t// in\n    tag_192:\n        /* \"#utility.yul\":6484:6649   */\n      pop\n        /* \"#utility.yul\":6666:6670   */\n      dup1\n        /* \"#utility.yul\":6659:6670   */\n      swap2\n      pop\n        /* \"#utility.yul\":5589:6676   */\n      pop\n        /* \"#utility.yul\":5475:6676   */\n      swap3\n      swap2\n      pop\n      pop\n      jump\t// out\n        /* \"#utility.yul\":6682:7035   */\n    tag_15:\n        /* \"#utility.yul\":6815:6819   */\n      0x00\n        /* \"#utility.yul\":6853:6855   */\n      0x20\n        /* \"#utility.yul\":6842:6851   */\n      dup3\n        /* \"#utility.yul\":6838:6856   */\n      add\n        /* \"#utility.yul\":6830:6856   */\n      swap1\n      pop\n        /* \"#utility.yul\":6902:6911   */\n      dup2\n        /* \"#utility.yul\":6896:6900   */\n      dup2\n        /* \"#utility.yul\":6892:6912   */\n      sub\n        /* \"#utility.yul\":6888:6889   */\n      0x00\n        /* \"#utility.yul\":6877:6886   */\n      dup4\n        /* \"#utility.yul\":6873:6890   */\n      add\n        /* \"#utility.yul\":6866:6913   */\n      mstore\n        /* \"#utility.yul\":6930:7028   */\n      tag_194\n        /* \"#utility.yul\":7023:7027   */\n      dup2\n        /* \"#utility.yul\":7014:7020   */\n      dup5\n        /* \"#utility.yul\":6930:7028   */\n      tag_89\n      jump\t// in\n    tag_194:\n        /* \"#utility.yul\":6922:7028   */\n      swap1\n      pop\n        /* \"#utility.yul\":6682:7035   */\n      swap3\n      swap2\n      pop\n      pop\n      jump\t// out\n        /* \"#utility.yul\":7041:7163   */\n    tag_90:\n        /* \"#utility.yul\":7114:7138   */\n      tag_196\n        /* \"#utility.yul\":7132:7137   */\n      dup2\n        /* \"#utility.yul\":7114:7138   */\n      tag_82\n      jump\t// in\n    tag_196:\n        /* \"#utility.yul\":7107:7112   */\n      dup2\n        /* \"#utility.yul\":7104:7139   */\n      eq\n        /* \"#utility.yul\":7094:7157   */\n      tag_197\n      jumpi\n        /* \"#utility.yul\":7153:7154   */\n      0x00\n        /* \"#utility.yul\":7150:7151   */\n      dup1\n        /* \"#utility.yul\":7143:7155   */\n      revert\n        /* \"#utility.yul\":7094:7157   */\n    tag_197:\n        /* \"#utility.yul\":7041:7163   */\n      pop\n      jump\t// out\n        /* \"#utility.yul\":7169:7308   */\n    tag_91:\n        /* \"#utility.yul\":7215:7220   */\n      0x00\n        /* \"#utility.yul\":7253:7259   */\n      dup2\n        /* \"#utility.yul\":7240:7260   */\n      calldataload\n        /* \"#utility.yul\":7231:7260   */\n      swap1\n      pop\n        /* \"#utility.yul\":7269:7302   */\n      tag_199\n        /* \"#utility.yul\":7296:7301   */\n      dup2\n        /* \"#utility.yul\":7269:7302   */\n      tag_90\n      jump\t// in\n    tag_199:\n        /* \"#utility.yul\":7169:7308   */\n      swap3\n      swap2\n      pop\n      pop\n      jump\t// out\n        /* \"#utility.yul\":7314:7643   */\n    tag_18:\n        /* \"#utility.yul\":7373:7379   */\n      0x00\n        /* \"#utility.yul\":7422:7424   */\n      0x20\n        /* \"#utility.yul\":7410:7419   */\n      dup3\n        /* \"#utility.yul\":7401:7408   */\n      dup5\n        /* \"#utility.yul\":7397:7420   */\n      sub\n        /* \"#utility.yul\":7393:7425   */\n      slt\n        /* \"#utility.yul\":7390:7509   */\n      iszero\n      tag_201\n      jumpi\n        /* \"#utility.yul\":7428:7507   */\n      tag_202\n      tag_66\n      jump\t// in\n    tag_202:\n        /* \"#utility.yul\":7390:7509   */\n    tag_201:\n        /* \"#utility.yul\":7548:7549   */\n      0x00\n        /* \"#utility.yul\":7573:7626   */\n      tag_203\n        /* \"#utility.yul\":7618:7625   */\n      dup5\n        /* \"#utility.yul\":7609:7615   */\n      dup3\n        /* \"#utility.yul\":7598:7607   */\n      dup6\n        /* \"#utility.yul\":7594:7616   */\n      add\n        /* \"#utility.yul\":7573:7626   */\n      tag_91\n      jump\t// in\n    tag_203:\n        /* \"#utility.yul\":7563:7626   */\n      swap2\n      pop\n        /* \"#utility.yul\":7519:7636   */\n      pop\n        /* \"#utility.yul\":7314:7643   */\n      swap3\n      swap2\n      pop\n      pop\n      jump\t// out\n        /* \"#utility.yul\":7649:7783   */\n    tag_92:\n        /* \"#utility.yul\":7736:7742   */\n      0x00\n        /* \"#utility.yul\":7770:7775   */\n      dup2\n        /* \"#utility.yul\":7764:7776   */\n      mload\n        /* \"#utility.yul\":7754:7776   */\n      swap1\n      pop\n        /* \"#utility.yul\":7649:7783   */\n      swap2\n      swap1\n      pop\n      jump\t// out\n        /* \"#utility.yul\":7789:7993   */\n    tag_93:\n        /* \"#utility.yul\":7908:7919   */\n      0x00\n        /* \"#utility.yul\":7942:7948   */\n      dup3\n        /* \"#utility.yul\":7937:7940   */\n      dup3\n        /* \"#utility.yul\":7930:7949   */\n      mstore\n        /* \"#utility.yul\":7982:7986   */\n      0x20\n        /* \"#utility.yul\":7977:7980   */\n      dup3\n        /* \"#utility.yul\":7973:7987   */\n      add\n        /* \"#utility.yul\":7958:7987   */\n      swap1\n      pop\n        /* \"#utility.yul\":7789:7993   */\n      swap3\n      swap2\n      pop\n      pop\n      jump\t// out\n        /* \"#utility.yul\":7999:8151   */\n    tag_94:\n        /* \"#utility.yul\":8086:8090   */\n      0x00\n        /* \"#utility.yul\":8109:8112   */\n      dup2\n        /* \"#utility.yul\":8101:8112   */\n      swap1\n      pop\n        /* \"#utility.yul\":8139:8143   */\n      0x20\n        /* \"#utility.yul\":8134:8137   */\n      dup3\n        /* \"#utility.yul\":8130:8144   */\n      add\n        /* \"#utility.yul\":8122:8144   */\n      swap1\n      pop\n        /* \"#utility.yul\":7999:8151   */\n      swap2\n      swap1\n      pop\n      jump\t// out\n        /* \"#utility.yul\":8201:9392   */\n    tag_95:\n        /* \"#utility.yul\":8300:8303   */\n      0x00\n        /* \"#utility.yul\":8336:8340   */\n      0xa0\n        /* \"#utility.yul\":8331:8334   */\n      dup4\n        /* \"#utility.yul\":8327:8341   */\n      add\n        /* \"#utility.yul\":8425:8429   */\n      0x00\n        /* \"#utility.yul\":8418:8423   */\n      dup4\n        /* \"#utility.yul\":8414:8430   */\n      add\n        /* \"#utility.yul\":8408:8431   */\n      mload\n        /* \"#utility.yul\":8444:8507   */\n      tag_208\n        /* \"#utility.yul\":8501:8505   */\n      0x00\n        /* \"#utility.yul\":8496:8499   */\n      dup7\n        /* \"#utility.yul\":8492:8506   */\n      add\n        /* \"#utility.yul\":8478:8490   */\n      dup3\n        /* \"#utility.yul\":8444:8507   */\n      tag_83\n      jump\t// in\n    tag_208:\n        /* \"#utility.yul\":8351:8517   */\n      pop\n        /* \"#utility.yul\":8600:8604   */\n      0x20\n        /* \"#utility.yul\":8593:8598   */\n      dup4\n        /* \"#utility.yul\":8589:8605   */\n      add\n        /* \"#utility.yul\":8583:8606   */\n      mload\n        /* \"#utility.yul\":8653:8656   */\n      dup5\n        /* \"#utility.yul\":8647:8651   */\n      dup3\n        /* \"#utility.yul\":8643:8657   */\n      sub\n        /* \"#utility.yul\":8636:8640   */\n      0x20\n        /* \"#utility.yul\":8631:8634   */\n      dup7\n        /* \"#utility.yul\":8627:8641   */\n      add\n        /* \"#utility.yul\":8620:8658   */\n      mstore\n        /* \"#utility.yul\":8679:8752   */\n      tag_209\n        /* \"#utility.yul\":8747:8751   */\n      dup3\n        /* \"#utility.yul\":8733:8745   */\n      dup3\n        /* \"#utility.yul\":8679:8752   */\n      tag_87\n      jump\t// in\n    tag_209:\n        /* \"#utility.yul\":8671:8752   */\n      swap2\n      pop\n        /* \"#utility.yul\":8527:8763   */\n      pop\n        /* \"#utility.yul\":8848:8852   */\n      0x40\n        /* \"#utility.yul\":8841:8846   */\n      dup4\n        /* \"#utility.yul\":8837:8853   */\n      add\n        /* \"#utility.yul\":8831:8854   */\n      mload\n        /* \"#utility.yul\":8901:8904   */\n      dup5\n        /* \"#utility.yul\":8895:8899   */\n      dup3\n        /* \"#utility.yul\":8891:8905   */\n      sub\n        /* \"#utility.yul\":8884:8888   */\n      0x40\n        /* \"#utility.yul\":8879:8882   */\n      dup7\n        /* \"#utility.yul\":8875:8889   */\n      add\n        /* \"#utility.yul\":8868:8906   */\n      mstore\n        /* \"#utility.yul\":8927:9000   */\n      tag_210\n        /* \"#utility.yul\":8995:8999   */\n      dup3\n        /* \"#utility.yul\":8981:8993   */\n      dup3\n        /* \"#utility.yul\":8927:9000   */\n      tag_87\n      jump\t// in\n    tag_210:\n        /* \"#utility.yul\":8919:9000   */\n      swap2\n      pop\n        /* \"#utility.yul\":8773:9011   */\n      pop\n        /* \"#utility.yul\":9098:9102   */\n      0x60\n        /* \"#utility.yul\":9091:9096   */\n      dup4\n        /* \"#utility.yul\":9087:9103   */\n      add\n        /* \"#utility.yul\":9081:9104   */\n      mload\n        /* \"#utility.yul\":9117:9180   */\n      tag_211\n        /* \"#utility.yul\":9174:9178   */\n      0x60\n        /* \"#utility.yul\":9169:9172   */\n      dup7\n        /* \"#utility.yul\":9165:9179   */\n      add\n        /* \"#utility.yul\":9151:9163   */\n      dup3\n        /* \"#utility.yul\":9117:9180   */\n      tag_88\n      jump\t// in\n    tag_211:\n        /* \"#utility.yul\":9021:9190   */\n      pop\n        /* \"#utility.yul\":9273:9277   */\n      0x80\n        /* \"#utility.yul\":9266:9271   */\n      dup4\n        /* \"#utility.yul\":9262:9278   */\n      add\n        /* \"#utility.yul\":9256:9279   */\n      mload\n        /* \"#utility.yul\":9292:9355   */\n      tag_212\n        /* \"#utility.yul\":9349:9353   */\n      0x80\n        /* \"#utility.yul\":9344:9347   */\n      dup7\n        /* \"#utility.yul\":9340:9354   */\n      add\n        /* \"#utility.yul\":9326:9338   */\n      dup3\n        /* \"#utility.yul\":9292:9355   */\n      tag_88\n      jump\t// in\n    tag_212:\n        /* \"#utility.yul\":9200:9365   */\n      pop\n        /* \"#utility.yul\":9382:9386   */\n      dup1\n        /* \"#utility.yul\":9375:9386   */\n      swap2\n      pop\n        /* \"#utility.yul\":8305:9392   */\n      pop\n        /* \"#utility.yul\":8201:9392   */\n      swap3\n      swap2\n      pop\n      pop\n      jump\t// out\n        /* \"#utility.yul\":9398:9634   */\n    tag_96:\n        /* \"#utility.yul\":9507:9517   */\n      0x00\n        /* \"#utility.yul\":9542:9628   */\n      tag_214\n        /* \"#utility.yul\":9624:9627   */\n      dup4\n        /* \"#utility.yul\":9616:9622   */\n      dup4\n        /* \"#utility.yul\":9542:9628   */\n      tag_95\n      jump\t// in\n    tag_214:\n        /* \"#utility.yul\":9528:9628   */\n      swap1\n      pop\n        /* \"#utility.yul\":9398:9634   */\n      swap3\n      swap2\n      pop\n      pop\n      jump\t// out\n        /* \"#utility.yul\":9640:9773   */\n    tag_97:\n        /* \"#utility.yul\":9730:9734   */\n      0x00\n        /* \"#utility.yul\":9762:9766   */\n      0x20\n        /* \"#utility.yul\":9757:9760   */\n      dup3\n        /* \"#utility.yul\":9753:9767   */\n      add\n        /* \"#utility.yul\":9745:9767   */\n      swap1\n      pop\n        /* \"#utility.yul\":9640:9773   */\n      swap2\n      swap1\n      pop\n      jump\t// out\n        /* \"#utility.yul\":9827:10898   */\n    tag_98:\n        /* \"#utility.yul\":9986:9989   */\n      0x00\n        /* \"#utility.yul\":10015:10089   */\n      tag_217\n        /* \"#utility.yul\":10083:10088   */\n      dup3\n        /* \"#utility.yul\":10015:10089   */\n      tag_92\n      jump\t// in\n    tag_217:\n        /* \"#utility.yul\":10105:10211   */\n      tag_218\n        /* \"#utility.yul\":10204:10210   */\n      dup2\n        /* \"#utility.yul\":10199:10202   */\n      dup6\n        /* \"#utility.yul\":10105:10211   */\n      tag_93\n      jump\t// in\n    tag_218:\n        /* \"#utility.yul\":10098:10211   */\n      swap4\n      pop\n        /* \"#utility.yul\":10237:10240   */\n      dup4\n        /* \"#utility.yul\":10282:10286   */\n      0x20\n        /* \"#utility.yul\":10274:10280   */\n      dup3\n        /* \"#utility.yul\":10270:10287   */\n      mul\n        /* \"#utility.yul\":10265:10268   */\n      dup6\n        /* \"#utility.yul\":10261:10288   */\n      add\n        /* \"#utility.yul\":10312:10388   */\n      tag_219\n        /* \"#utility.yul\":10382:10387   */\n      dup6\n        /* \"#utility.yul\":10312:10388   */\n      tag_94\n      jump\t// in\n    tag_219:\n        /* \"#utility.yul\":10411:10418   */\n      dup1\n        /* \"#utility.yul\":10442:10443   */\n      0x00\n        /* \"#utility.yul\":10427:10853   */\n    tag_220:\n        /* \"#utility.yul\":10452:10458   */\n      dup6\n        /* \"#utility.yul\":10449:10450   */\n      dup2\n        /* \"#utility.yul\":10446:10459   */\n      lt\n        /* \"#utility.yul\":10427:10853   */\n      iszero\n      tag_222\n      jumpi\n        /* \"#utility.yul\":10523:10532   */\n      dup5\n        /* \"#utility.yul\":10517:10521   */\n      dup5\n        /* \"#utility.yul\":10513:10533   */\n      sub\n        /* \"#utility.yul\":10508:10511   */\n      dup10\n        /* \"#utility.yul\":10501:10534   */\n      mstore\n        /* \"#utility.yul\":10574:10580   */\n      dup2\n        /* \"#utility.yul\":10568:10581   */\n      mload\n        /* \"#utility.yul\":10602:10706   */\n      tag_223\n        /* \"#utility.yul\":10701:10705   */\n      dup6\n        /* \"#utility.yul\":10686:10699   */\n      dup3\n        /* \"#utility.yul\":10602:10706   */\n      tag_96\n      jump\t// in\n    tag_223:\n        /* \"#utility.yul\":10594:10706   */\n      swap5\n      pop\n        /* \"#utility.yul\":10729:10809   */\n      tag_224\n        /* \"#utility.yul\":10802:10808   */\n      dup4\n        /* \"#utility.yul\":10729:10809   */\n      tag_97\n      jump\t// in\n    tag_224:\n        /* \"#utility.yul\":10719:10809   */\n      swap3\n      pop\n        /* \"#utility.yul\":10838:10842   */\n      0x20\n        /* \"#utility.yul\":10833:10836   */\n      dup11\n        /* \"#utility.yul\":10829:10843   */\n      add\n        /* \"#utility.yul\":10822:10843   */\n      swap10\n      pop\n        /* \"#utility.yul\":10487:10853   */\n      pop\n        /* \"#utility.yul\":10474:10475   */\n      0x01\n        /* \"#utility.yul\":10471:10472   */\n      dup2\n        /* \"#utility.yul\":10467:10476   */\n      add\n        /* \"#utility.yul\":10462:10476   */\n      swap1\n      pop\n        /* \"#utility.yul\":10427:10853   */\n      jump(tag_220)\n    tag_222:\n        /* \"#utility.yul\":10431:10445   */\n      pop\n        /* \"#utility.yul\":10869:10873   */\n      dup3\n        /* \"#utility.yul\":10862:10873   */\n      swap8\n      pop\n        /* \"#utility.yul\":10889:10892   */\n      dup8\n        /* \"#utility.yul\":10882:10892   */\n      swap6\n      pop\n        /* \"#utility.yul\":9991:10898   */\n      pop\n      pop\n      pop\n      pop\n      pop\n        /* \"#utility.yul\":9827:10898   */\n      swap3\n      swap2\n      pop\n      pop\n      jump\t// out\n        /* \"#utility.yul\":10904:11357   */\n    tag_21:\n        /* \"#utility.yul\":11087:11091   */\n      0x00\n        /* \"#utility.yul\":11125:11127   */\n      0x20\n        /* \"#utility.yul\":11114:11123   */\n      dup3\n        /* \"#utility.yul\":11110:11128   */\n      add\n        /* \"#utility.yul\":11102:11128   */\n      swap1\n      pop\n        /* \"#utility.yul\":11174:11183   */\n      dup2\n        /* \"#utility.yul\":11168:11172   */\n      dup2\n        /* \"#utility.yul\":11164:11184   */\n      sub\n        /* \"#utility.yul\":11160:11161   */\n      0x00\n        /* \"#utility.yul\":11149:11158   */\n      dup4\n        /* \"#utility.yul\":11145:11162   */\n      add\n        /* \"#utility.yul\":11138:11185   */\n      mstore\n        /* \"#utility.yul\":11202:11350   */\n      tag_226\n        /* \"#utility.yul\":11345:11349   */\n      dup2\n        /* \"#utility.yul\":11336:11342   */\n      dup5\n        /* \"#utility.yul\":11202:11350   */\n      tag_98\n      jump\t// in\n    tag_226:\n        /* \"#utility.yul\":11194:11350   */\n      swap1\n      pop\n        /* \"#utility.yul\":10904:11357   */\n      swap3\n      swap2\n      pop\n      pop\n      jump\t// out\n        /* \"#utility.yul\":11363:11532   */\n    tag_99:\n        /* \"#utility.yul\":11447:11458   */\n      0x00\n        /* \"#utility.yul\":11481:11487   */\n      dup3\n        /* \"#utility.yul\":11476:11479   */\n      dup3\n        /* \"#utility.yul\":11469:11488   */\n      mstore\n        /* \"#utility.yul\":11521:11525   */\n      0x20\n        /* \"#utility.yul\":11516:11519   */\n      dup3\n        /* \"#utility.yul\":11512:11526   */\n      add\n        /* \"#utility.yul\":11497:11526   */\n      swap1\n      pop\n        /* \"#utility.yul\":11363:11532   */\n      swap3\n      swap2\n      pop\n      pop\n      jump\t// out\n        /* \"#utility.yul\":11538:11702   */\n    tag_100:\n        /* \"#utility.yul\":11678:11694   */\n      0x5469746c6520746f6f206c6f6e67000000000000000000000000000000000000\n        /* \"#utility.yul\":11674:11675   */\n      0x00\n        /* \"#utility.yul\":11666:11672   */\n      dup3\n        /* \"#utility.yul\":11662:11676   */\n      add\n        /* \"#utility.yul\":11655:11695   */\n      mstore\n        /* \"#utility.yul\":11538:11702   */\n      pop\n      jump\t// out\n        /* \"#utility.yul\":11708:12074   */\n    tag_101:\n        /* \"#utility.yul\":11850:11853   */\n      0x00\n        /* \"#utility.yul\":11871:11938   */\n      tag_230\n        /* \"#utility.yul\":11935:11937   */\n      0x0e\n        /* \"#utility.yul\":11930:11933   */\n      dup4\n        /* \"#utility.yul\":11871:11938   */\n      tag_99\n      jump\t// in\n    tag_230:\n        /* \"#utility.yul\":11864:11938   */\n      swap2\n      pop\n        /* \"#utility.yul\":11947:12040   */\n      tag_231\n        /* \"#utility.yul\":12036:12039   */\n      dup3\n        /* \"#utility.yul\":11947:12040   */\n      tag_100\n      jump\t// in\n    tag_231:\n        /* \"#utility.yul\":12065:12067   */\n      0x20\n        /* \"#utility.yul\":12060:12063   */\n      dup3\n        /* \"#utility.yul\":12056:12068   */\n      add\n        /* \"#utility.yul\":12049:12068   */\n      swap1\n      pop\n        /* \"#utility.yul\":11708:12074   */\n      swap2\n      swap1\n      pop\n      jump\t// out\n        /* \"#utility.yul\":12080:12499   */\n    tag_25:\n        /* \"#utility.yul\":12246:12250   */\n      0x00\n        /* \"#utility.yul\":12284:12286   */\n      0x20\n        /* \"#utility.yul\":12273:12282   */\n      dup3\n        /* \"#utility.yul\":12269:12287   */\n      add\n        /* \"#utility.yul\":12261:12287   */\n      swap1\n      pop\n        /* \"#utility.yul\":12333:12342   */\n      dup2\n        /* \"#utility.yul\":12327:12331   */\n      dup2\n        /* \"#utility.yul\":12323:12343   */\n      sub\n        /* \"#utility.yul\":12319:12320   */\n      0x00\n        /* \"#utility.yul\":12308:12317   */\n      dup4\n        /* \"#utility.yul\":12304:12321   */\n      add\n        /* \"#utility.yul\":12297:12344   */\n      mstore\n        /* \"#utility.yul\":12361:12492   */\n      tag_233\n        /* \"#utility.yul\":12487:12491   */\n      dup2\n        /* \"#utility.yul\":12361:12492   */\n      tag_101\n      jump\t// in\n    tag_233:\n        /* \"#utility.yul\":12353:12492   */\n      swap1\n      pop\n        /* \"#utility.yul\":12080:12499   */\n      swap2\n      swap1\n      pop\n      jump\t// out\n        /* \"#utility.yul\":12505:12671   */\n    tag_102:\n        /* \"#utility.yul\":12645:12663   */\n      0x436f6e74656e7420746f6f206c6f6e6700000000000000000000000000000000\n        /* \"#utility.yul\":12641:12642   */\n      0x00\n        /* \"#utility.yul\":12633:12639   */\n      dup3\n        /* \"#utility.yul\":12629:12643   */\n      add\n        /* \"#utility.yul\":12622:12664   */\n      mstore\n        /* \"#utility.yul\":12505:12671   */\n      pop\n      jump\t// out\n        /* \"#utility.yul\":12677:13043   */\n    tag_103:\n        /* \"#utility.yul\":12819:12822   */\n      0x00\n        /* \"#utility.yul\":12840:12907   */\n      tag_236\n        /* \"#utility.yul\":12904:12906   */\n      0x10\n        /* \"#utility.yul\":12899:12902   */\n      dup4\n        /* \"#utility.yul\":12840:12907   */\n      tag_99\n      jump\t// in\n    tag_236:\n        /* \"#utility.yul\":12833:12907   */\n      swap2\n      pop\n        /* \"#utility.yul\":12916:13009   */\n      tag_237\n        /* \"#utility.yul\":13005:13008   */\n      dup3\n        /* \"#utility.yul\":12916:13009   */\n      tag_102\n      jump\t// in\n    tag_237:\n        /* \"#utility.yul\":13034:13036   */\n      0x20\n        /* \"#utility.yul\":13029:13032   */\n      dup3\n        /* \"#utility.yul\":13025:13037   */\n      add\n        /* \"#utility.yul\":13018:13037   */\n      swap1\n      pop\n        /* \"#utility.yul\":12677:13043   */\n      swap2\n      swap1\n      pop\n      jump\t// out\n        /* \"#utility.yul\":13049:13468   */\n    tag_28:\n        /* \"#utility.yul\":13215:13219   */\n      0x00\n        /* \"#utility.yul\":13253:13255   */\n      0x20\n        /* \"#utility.yul\":13242:13251   */\n      dup3\n        /* \"#utility.yul\":13238:13256   */\n      add\n        /* \"#utility.yul\":13230:13256   */\n      swap1\n      pop\n        /* \"#utility.yul\":13302:13311   */\n      dup2\n        /* \"#utility.yul\":13296:13300   */\n      dup2\n        /* \"#utility.yul\":13292:13312   */\n      sub\n        /* \"#utility.yul\":13288:13289   */\n      0x00\n        /* \"#utility.yul\":13277:13286   */\n      dup4\n        /* \"#utility.yul\":13273:13290   */\n      add\n        /* \"#utility.yul\":13266:13313   */\n      mstore\n        /* \"#utility.yul\":13330:13461   */\n      tag_239\n        /* \"#utility.yul\":13456:13460   */\n      dup2\n        /* \"#utility.yul\":13330:13461   */\n      tag_103\n      jump\t// in\n    tag_239:\n        /* \"#utility.yul\":13322:13461   */\n      swap1\n      pop\n        /* \"#utility.yul\":13049:13468   */\n      swap2\n      swap1\n      pop\n      jump\t// out\n        /* \"#utility.yul\":13474:13654   */\n    tag_104:\n        /* \"#utility.yul\":13522:13599   */\n      0x4e487b7100000000000000000000000000000000000000000000000000000000\n        /* \"#utility.yul\":13519:13520   */\n      0x00\n        /* \"#utility.yul\":13512:13600   */\n      mstore\n        /* \"#utility.yul\":13619:13623   */\n      0x22\n        /* \"#utility.yul\":13616:13617   */\n      0x04\n        /* \"#utility.yul\":13609:13624   */\n      mstore\n        /* \"#utility.yul\":13643:13647   */\n      0x24\n        /* \"#utility.yul\":13640:13641   */\n      0x00\n        /* \"#utility.yul\":13633:13648   */\n      revert\n        /* \"#utility.yul\":13660:13980   */\n    tag_41:\n        /* \"#utility.yul\":13704:13710   */\n      0x00\n        /* \"#utility.yul\":13741:13742   */\n      0x02\n        /* \"#utility.yul\":13735:13739   */\n      dup3\n        /* \"#utility.yul\":13731:13743   */\n      div\n        /* \"#utility.yul\":13721:13743   */\n      swap1\n      pop\n        /* \"#utility.yul\":13788:13789   */\n      0x01\n        /* \"#utility.yul\":13782:13786   */\n      dup3\n        /* \"#utility.yul\":13778:13790   */\n      and\n        /* \"#utility.yul\":13809:13827   */\n      dup1\n        /* \"#utility.yul\":13799:13880   */\n      tag_242\n      jumpi\n        /* \"#utility.yul\":13865:13869   */\n      0x7f\n        /* \"#utility.yul\":13857:13863   */\n      dup3\n        /* \"#utility.yul\":13853:13870   */\n      and\n        /* \"#utility.yul\":13843:13870   */\n      swap2\n      pop\n        /* \"#utility.yul\":13799:13880   */\n    tag_242:\n        /* \"#utility.yul\":13927:13929   */\n      0x20\n        /* \"#utility.yul\":13919:13925   */\n      dup3\n        /* \"#utility.yul\":13916:13930   */\n      lt\n        /* \"#utility.yul\":13896:13914   */\n      dup2\n        /* \"#utility.yul\":13893:13931   */\n      sub\n        /* \"#utility.yul\":13890:13974   */\n      tag_243\n      jumpi\n        /* \"#utility.yul\":13946:13964   */\n      tag_244\n      tag_104\n      jump\t// in\n    tag_244:\n        /* \"#utility.yul\":13890:13974   */\n    tag_243:\n        /* \"#utility.yul\":13711:13980   */\n      pop\n        /* \"#utility.yul\":13660:13980   */\n      swap2\n      swap1\n      pop\n      jump\t// out\n        /* \"#utility.yul\":13986:14127   */\n    tag_105:\n        /* \"#utility.yul\":14035:14039   */\n      0x00\n        /* \"#utility.yul\":14058:14061   */\n      dup2\n        /* \"#utility.yul\":14050:14061   */\n      swap1\n      pop\n        /* \"#utility.yul\":14081:14084   */\n      dup2\n        /* \"#utility.yul\":14078:14079   */\n      0x00\n        /* \"#utility.yul\":14071:14085   */\n      mstore\n        /* \"#utility.yul\":14115:14119   */\n      0x20\n        /* \"#utility.yul\":14112:14113   */\n      0x00\n        /* \"#utility.yul\":14102:14120   */\n      keccak256\n        /* \"#utility.yul\":14094:14120   */\n      swap1\n      pop\n        /* \"#utility.yul\":13986:14127   */\n      swap2\n      swap1\n      pop\n      jump\t// out\n        /* \"#utility.yul\":14133:14226   */\n    tag_106:\n        /* \"#utility.yul\":14170:14176   */\n      0x00\n        /* \"#utility.yul\":14217:14219   */\n      0x20\n        /* \"#utility.yul\":14212:14214   */\n      0x1f\n        /* \"#utility.yul\":14205:14210   */\n      dup4\n        /* \"#utility.yul\":14201:14215   */\n      add\n        /* \"#utility.yul\":14197:14220   */\n      div\n        /* \"#utility.yul\":14187:14220   */\n      swap1\n      pop\n        /* \"#utility.yul\":14133:14226   */\n      swap2\n      swap1\n      pop\n      jump\t// out\n        /* \"#utility.yul\":14232:14339   */\n    tag_107:\n        /* \"#utility.yul\":14276:14284   */\n      0x00\n        /* \"#utility.yul\":14326:14331   */\n      dup3\n        /* \"#utility.yul\":14320:14324   */\n      dup3\n        /* \"#utility.yul\":14316:14332   */\n      shl\n        /* \"#utility.yul\":14295:14332   */\n      swap1\n      pop\n        /* \"#utility.yul\":14232:14339   */\n      swap3\n      swap2\n      pop\n      pop\n      jump\t// out\n        /* \"#utility.yul\":14345:14738   */\n    tag_108:\n        /* \"#utility.yul\":14414:14420   */\n      0x00\n        /* \"#utility.yul\":14464:14465   */\n      0x08\n        /* \"#utility.yul\":14452:14462   */\n      dup4\n        /* \"#utility.yul\":14448:14466   */\n      mul\n        /* \"#utility.yul\":14487:14584   */\n      tag_249\n        /* \"#utility.yul\":14517:14583   */\n      0xffffffffffffffffffffffffffffffffffffffffffffffffffffffffffffffff\n        /* \"#utility.yul\":14506:14515   */\n      dup3\n        /* \"#utility.yul\":14487:14584   */\n      tag_107\n      jump\t// in\n    tag_249:\n        /* \"#utility.yul\":14605:14644   */\n      tag_250\n        /* \"#utility.yul\":14635:14643   */\n      dup7\n        /* \"#utility.yul\":14624:14633   */\n      dup4\n        /* \"#utility.yul\":14605:14644   */\n      tag_107\n      jump\t// in\n    tag_250:\n        /* \"#utility.yul\":14593:14644   */\n      swap6\n      pop\n        /* \"#utility.yul\":14677:14681   */\n      dup1\n        /* \"#utility.yul\":14673:14682   */\n      not\n        /* \"#utility.yul\":14666:14671   */\n      dup5\n        /* \"#utility.yul\":14662:14683   */\n      and\n        /* \"#utility.yul\":14653:14683   */\n      swap4\n      pop\n        /* \"#utility.yul\":14726:14730   */\n      dup1\n        /* \"#utility.yul\":14716:14724   */\n      dup7\n        /* \"#utility.yul\":14712:14731   */\n      and\n        /* \"#utility.yul\":14705:14710   */\n      dup5\n        /* \"#utility.yul\":14702:14732   */\n      or\n        /* \"#utility.yul\":14692:14732   */\n      swap3\n      pop\n        /* \"#utility.yul\":14421:14738   */\n      pop\n      pop\n        /* \"#utility.yul\":14345:14738   */\n      swap4\n      swap3\n      pop\n      pop\n      pop\n      jump\t// out\n        /* \"#utility.yul\":14744:14804   */\n    tag_109:\n        /* \"#utility.yul\":14772:14775   */\n      0x00\n        /* \"#utility.yul\":14793:14798   */\n      dup2\n        /* \"#utility.yul\":14786:14798   */\n      swap1\n      pop\n        /* \"#utility.yul\":14744:14804   */\n      swap2\n      swap1\n      pop\n      jump\t// out\n        /* \"#utility.yul\":14810:14952   */\n    tag_110:\n        /* \"#utility.yul\":14860:14869   */\n      0x00\n        /* \"#utility.yul\":14893:14946   */\n      tag_253\n        /* \"#utility.yul\":14911:14945   */\n      tag_254\n        /* \"#utility.yul\":14920:14944   */\n      tag_255\n        /* \"#utility.yul\":14938:14943   */\n      dup5\n        /* \"#utility.yul\":14920:14944   */\n      tag_78\n      jump\t// in\n    tag_255:\n        /* \"#utility.yul\":14911:14945   */\n      tag_109\n      jump\t// in\n    tag_254:\n        /* \"#utility.yul\":14893:14946   */\n      tag_78\n      jump\t// in\n    tag_253:\n        /* \"#utility.yul\":14880:14946   */\n      swap1\n      pop\n        /* \"#utility.yul\":14810:14952   */\n      swap2\n      swap1\n      pop\n      jump\t// out\n        /* \"#utility.yul\":14958:15033   */\n    tag_111:\n        /* \"#utility.yul\":15001:15004   */\n      0x00\n        /* \"#utility.yul\":15022:15027   */\n      dup2\n        /* \"#utility.yul\":15015:15027   */\n      swap1\n      pop\n        /* \"#utility.yul\":14958:15033   */\n      swap2\n      swap1\n      pop\n      jump\t// out\n        /* \"#utility.yul\":15039:15308   */\n    tag_112:\n        /* \"#utility.yul\":15149:15188   */\n      tag_258\n        /* \"#utility.yul\":15180:15187   */\n      dup4\n        /* \"#utility.yul\":15149:15188   */\n      tag_110\n      jump\t// in\n    tag_258:\n        /* \"#utility.yul\":15210:15301   */\n      tag_259\n        /* \"#utility.yul\":15259:15300   */\n      tag_260\n        /* \"#utility.yul\":15283:15299   */\n      dup3\n        /* \"#utility.yul\":15259:15300   */\n      tag_111\n      jump\t// in\n    tag_260:\n        /* \"#utility.yul\":15251:15257   */\n      dup5\n        /* \"#utility.yul\":15244:15248   */\n      dup5\n        /* \"#utility.yul\":15238:15249   */\n      sload\n        /* \"#utility.yul\":15210:15301   */\n      tag_108\n      jump\t// in\n    tag_259:\n        /* \"#utility.yul\":15204:15208   */\n      dup3\n        /* \"#utility.yul\":15197:15302   */\n      sstore\n        /* \"#utility.yul\":15115:15308   */\n      pop\n        /* \"#utility.yul\":15039:15308   */\n      pop\n      pop\n      pop\n      jump\t// out\n        /* \"#utility.yul\":15314:15387   */\n    tag_113:\n        /* \"#utility.yul\":15359:15362   */\n      0x00\n        /* \"#utility.yul\":15314:15387   */\n      swap1\n      jump\t// out\n        /* \"#utility.yul\":15393:15582   */\n    tag_114:\n        /* \"#utility.yul\":15470:15502   */\n      tag_263\n      tag_113\n      jump\t// in\n    tag_263:\n        /* \"#utility.yul\":15511:15576   */\n      tag_264\n        /* \"#utility.yul\":15569:15575   */\n      dup2\n        /* \"#utility.yul\":15561:15567   */\n      dup5\n        /* \"#utility.yul\":15555:15559   */\n      dup5\n        /* \"#utility.yul\":15511:15576   */\n      tag_112\n      jump\t// in\n    tag_264:\n        /* \"#utility.yul\":15446:15582   */\n      pop\n        /* \"#utility.yul\":15393:15582   */\n      pop\n      pop\n      jump\t// out\n        /* \"#utility.yul\":15588:15774   */\n    tag_115:\n        /* \"#utility.yul\":15648:15768   */\n    tag_266:\n        /* \"#utility.yul\":15665:15668   */\n      dup2\n        /* \"#utility.yul\":15658:15663   */\n      dup2\n        /* \"#utility.yul\":15655:15669   */\n      lt\n        /* \"#utility.yul\":15648:15768   */\n      iszero\n      tag_268\n      jumpi\n        /* \"#utility.yul\":15719:15758   */\n      tag_269\n        /* \"#utility.yul\":15756:15757   */\n      0x00\n        /* \"#utility.yul\":15749:15754   */\n      dup3\n        /* \"#utility.yul\":15719:15758   */\n      tag_114\n      jump\t// in\n    tag_269:\n        /* \"#utility.yul\":15692:15693   */\n      0x01\n        /* \"#utility.yul\":15685:15690   */\n      dup2\n        /* \"#utility.yul\":15681:15694   */\n      add\n        /* \"#utility.yul\":15672:15694   */\n      swap1\n      pop\n        /* \"#utility.yul\":15648:15768   */\n      jump(tag_266)\n    tag_268:\n        /* \"#utility.yul\":15588:15774   */\n      pop\n      pop\n      jump\t// out\n        /* \"#utility.yul\":15780:16323   */\n    tag_116:\n        /* \"#utility.yul\":15881:15883   */\n      0x1f\n        /* \"#utility.yul\":15876:15879   */\n      dup3\n        /* \"#utility.yul\":15873:15884   */\n      gt\n        /* \"#utility.yul\":15870:16316   */\n      iszero\n      tag_271\n      jumpi\n        /* \"#utility.yul\":15915:15953   */\n      tag_272\n        /* \"#utility.yul\":15947:15952   */\n      dup2\n        /* \"#utility.yul\":15915:15953   */\n      tag_105\n      jump\t// in\n    tag_272:\n        /* \"#utility.yul\":15999:16028   */\n      tag_273\n        /* \"#utility.yul\":16017:16027   */\n      dup5\n        /* \"#utility.yul\":15999:16028   */\n      tag_106\n      jump\t// in\n    tag_273:\n        /* \"#utility.yul\":15989:15997   */\n      dup2\n        /* \"#utility.yul\":15985:16029   */\n      add\n        /* \"#utility.yul\":16182:16184   */\n      0x20\n        /* \"#utility.yul\":16170:16180   */\n      dup6\n        /* \"#utility.yul\":16167:16185   */\n      lt\n        /* \"#utility.yul\":16164:16213   */\n      iszero\n      tag_274\n      jumpi\n        /* \"#utility.yul\":16203:16211   */\n      dup2\n        /* \"#utility.yul\":16188:16211   */\n      swap1\n      pop\n        /* \"#utility.yul\":16164:16213   */\n    tag_274:\n        /* \"#utility.yul\":16226:16306   */\n      tag_275\n        /* \"#utility.yul\":16282:16304   */\n      tag_276\n        /* \"#utility.yul\":16300:16303   */\n      dup6\n        /* \"#utility.yul\":16282:16304   */\n      tag_106\n      jump\t// in\n    tag_276:\n        /* \"#utility.yul\":16272:16280   */\n      dup4\n        /* \"#utility.yul\":16268:16305   */\n      add\n        /* \"#utility.yul\":16255:16266   */\n      dup3\n        /* \"#utility.yul\":16226:16306   */\n      tag_115\n      jump\t// in\n    tag_275:\n        /* \"#utility.yul\":15885:16316   */\n      pop\n      pop\n        /* \"#utility.yul\":15870:16316   */\n    tag_271:\n        /* \"#utility.yul\":15780:16323   */\n      pop\n      pop\n      pop\n      jump\t// out\n        /* \"#utility.yul\":16329:16446   */\n    tag_117:\n        /* \"#utility.yul\":16383:16391   */\n      0x00\n        /* \"#utility.yul\":16433:16438   */\n      dup3\n        /* \"#utility.yul\":16427:16431   */\n      dup3\n        /* \"#utility.yul\":16423:16439   */\n      shr\n        /* \"#utility.yul\":16402:16439   */\n      swap1\n      pop\n        /* \"#utility.yul\":16329:16446   */\n      swap3\n      swap2\n      pop\n      pop\n      jump\t// out\n        /* \"#utility.yul\":16452:16621   */\n    tag_118:\n        /* \"#utility.yul\":16496:16502   */\n      0x00\n        /* \"#utility.yul\":16529:16580   */\n      tag_279\n        /* \"#utility.yul\":16577:16578   */\n      0x00\n        /* \"#utility.yul\":16573:16579   */\n      not\n        /* \"#utility.yul\":16565:16570   */\n      dup5\n        /* \"#utility.yul\":16562:16563   */\n      0x08\n        /* \"#utility.yul\":16558:16571   */\n      mul\n        /* \"#utility.yul\":16529:16580   */\n      tag_117\n      jump\t// in\n    tag_279:\n        /* \"#utility.yul\":16525:16581   */\n      not\n        /* \"#utility.yul\":16610:16614   */\n      dup1\n        /* \"#utility.yul\":16604:16608   */\n      dup4\n        /* \"#utility.yul\":16600:16615   */\n      and\n        /* \"#utility.yul\":16590:16615   */\n      swap2\n      pop\n        /* \"#utility.yul\":16503:16621   */\n      pop\n        /* \"#utility.yul\":16452:16621   */\n      swap3\n      swap2\n      pop\n      pop\n      jump\t// out\n        /* \"#utility.yul\":16626:16921   */\n    tag_119:\n        /* \"#utility.yul\":16702:16706   */\n      0x00\n        /* \"#utility.yul\":16848:16877   */\n      tag_281\n        /* \"#utility.yul\":16873:16876   */\n      dup4\n        /* \"#utility.yul\":16867:16871   */\n      dup4\n        /* \"#utility.yul\":16848:16877   */\n      tag_118\n      jump\t// in\n    tag_281:\n        /* \"#utility.yul\":16840:16877   */\n      swap2\n      pop\n        /* \"#utility.yul\":16910:16913   */\n      dup3\n        /* \"#utility.yul\":16907:16908   */\n      0x02\n        /* \"#utility.yul\":16903:16914   */\n      mul\n        /* \"#utility.yul\":16897:16901   */\n      dup3\n        /* \"#utility.yul\":16894:16915   */\n      or\n        /* \"#utility.yul\":16886:16915   */\n      swap1\n      pop\n        /* \"#utility.yul\":16626:16921   */\n      swap3\n      swap2\n      pop\n      pop\n      jump\t// out\n        /* \"#utility.yul\":16926:18321   */\n    tag_31:\n        /* \"#utility.yul\":17043:17080   */\n      tag_283\n        /* \"#utility.yul\":17076:17079   */\n      dup3\n        /* \"#utility.yul\":17043:17080   */\n      tag_84\n      jump\t// in\n    tag_283:\n        /* \"#utility.yul\":17145:17163   */\n      0xffffffffffffffff\n        /* \"#utility.yul\":17137:17143   */\n      dup2\n        /* \"#utility.yul\":17134:17164   */\n      gt\n        /* \"#utility.yul\":17131:17187   */\n      iszero\n      tag_284\n      jumpi\n        /* \"#utility.yul\":17167:17185   */\n      tag_285\n      tag_71\n      jump\t// in\n    tag_285:\n        /* \"#utility.yul\":17131:17187   */\n    tag_284:\n        /* \"#utility.yul\":17211:17249   */\n      tag_286\n        /* \"#utility.yul\":17243:17247   */\n      dup3\n        /* \"#utility.yul\":17237:17248   */\n      sload\n        /* \"#utility.yul\":17211:17249   */\n      tag_41\n      jump\t// in\n    tag_286:\n        /* \"#utility.yul\":17296:17363   */\n      tag_287\n        /* \"#utility.yul\":17356:17362   */\n      dup3\n        /* \"#utility.yul\":17348:17354   */\n      dup3\n        /* \"#utility.yul\":17342:17346   */\n      dup6\n        /* \"#utility.yul\":17296:17363   */\n      tag_116\n      jump\t// in\n    tag_287:\n        /* \"#utility.yul\":17390:17391   */\n      0x00\n        /* \"#utility.yul\":17414:17418   */\n      0x20\n        /* \"#utility.yul\":17401:17418   */\n      swap1\n      pop\n        /* \"#utility.yul\":17446:17448   */\n      0x1f\n        /* \"#utility.yul\":17438:17444   */\n      dup4\n        /* \"#utility.yul\":17435:17449   */\n      gt\n        /* \"#utility.yul\":17463:17464   */\n      0x01\n        /* \"#utility.yul\":17458:18076   */\n      dup2\n      eq\n      tag_289\n      jumpi\n        /* \"#utility.yul\":18120:18121   */\n      0x00\n        /* \"#utility.yul\":18137:18143   */\n      dup5\n        /* \"#utility.yul\":18134:18211   */\n      iszero\n      tag_290\n      jumpi\n        /* \"#utility.yul\":18186:18195   */\n      dup3\n        /* \"#utility.yul\":18181:18184   */\n      dup8\n        /* \"#utility.yul\":18177:18196   */\n      add\n        /* \"#utility.yul\":18171:18197   */\n      mload\n        /* \"#utility.yul\":18162:18197   */\n      swap1\n      pop\n        /* \"#utility.yul\":18134:18211   */\n    tag_290:\n        /* \"#utility.yul\":18237:18304   */\n      tag_291\n        /* \"#utility.yul\":18297:18303   */\n      dup6\n        /* \"#utility.yul\":18290:18295   */\n      dup3\n        /* \"#utility.yul\":18237:18304   */\n      tag_119\n      jump\t// in\n    tag_291:\n        /* \"#utility.yul\":18231:18235   */\n      dup7\n        /* \"#utility.yul\":18224:18305   */\n      sstore\n        /* \"#utility.yul\":18093:18315   */\n      pop\n        /* \"#utility.yul\":17428:18315   */\n      jump(tag_288)\n        /* \"#utility.yul\":17458:18076   */\n    tag_289:\n        /* \"#utility.yul\":17510:17514   */\n      0x1f\n        /* \"#utility.yul\":17506:17515   */\n      not\n        /* \"#utility.yul\":17498:17504   */\n      dup5\n        /* \"#utility.yul\":17494:17516   */\n      and\n        /* \"#utility.yul\":17544:17581   */\n      tag_292\n        /* \"#utility.yul\":17576:17580   */\n      dup7\n        /* \"#utility.yul\":17544:17581   */\n      tag_105\n      jump\t// in\n    tag_292:\n        /* \"#utility.yul\":17603:17604   */\n      0x00\n        /* \"#utility.yul\":17617:17825   */\n    tag_293:\n        /* \"#utility.yul\":17631:17638   */\n      dup3\n        /* \"#utility.yul\":17628:17629   */\n      dup2\n        /* \"#utility.yul\":17625:17639   */\n      lt\n        /* \"#utility.yul\":17617:17825   */\n      iszero\n      tag_295\n      jumpi\n        /* \"#utility.yul\":17710:17719   */\n      dup5\n        /* \"#utility.yul\":17705:17708   */\n      dup10\n        /* \"#utility.yul\":17701:17720   */\n      add\n        /* \"#utility.yul\":17695:17721   */\n      mload\n        /* \"#utility.yul\":17687:17693   */\n      dup3\n        /* \"#utility.yul\":17680:17722   */\n      sstore\n        /* \"#utility.yul\":17761:17762   */\n      0x01\n        /* \"#utility.yul\":17753:17759   */\n      dup3\n        /* \"#utility.yul\":17749:17763   */\n      add\n        /* \"#utility.yul\":17739:17763   */\n      swap2\n      pop\n        /* \"#utility.yul\":17808:17810   */\n      0x20\n        /* \"#utility.yul\":17797:17806   */\n      dup6\n        /* \"#utility.yul\":17793:17811   */\n      add\n        /* \"#utility.yul\":17780:17811   */\n      swap5\n      pop\n        /* \"#utility.yul\":17654:17658   */\n      0x20\n        /* \"#utility.yul\":17651:17652   */\n      dup2\n        /* \"#utility.yul\":17647:17659   */\n      add\n        /* \"#utility.yul\":17642:17659   */\n      swap1\n      pop\n        /* \"#utility.yul\":17617:17825   */\n      jump(tag_293)\n    tag_295:\n        /* \"#utility.yul\":17853:17859   */\n      dup7\n        /* \"#utility.yul\":17844:17851   */\n      dup4\n        /* \"#utility.yul\":17841:17860   */\n      lt\n        /* \"#utility.yul\":17838:18017   */\n      iszero\n      tag_296\n      jumpi\n        /* \"#utility.yul\":17911:17920   */\n      dup5\n        /* \"#utility.yul\":17906:17909   */\n      dup10\n        /* \"#utility.yul\":17902:17921   */\n      add\n        /* \"#utility.yul\":17896:17922   */\n      mload\n        /* \"#utility.yul\":17954:18002   */\n      tag_297\n        /* \"#utility.yul\":17996:18000   */\n      0x1f\n        /* \"#utility.yul\":17988:17994   */\n      dup10\n        /* \"#utility.yul\":17984:18001   */\n      and\n        /* \"#utility.yul\":17973:17982   */\n      dup3\n        /* \"#utility.yul\":17954:18002   */\n      tag_118\n      jump\t// in\n    tag_297:\n        /* \"#utility.yul\":17946:17952   */\n      dup4\n        /* \"#utility.yul\":17939:18003   */\n      sstore\n        /* \"#utility.yul\":17861:18017   */\n      pop\n        /* \"#utility.yul\":17838:18017   */\n    tag_296:\n        /* \"#utility.yul\":18063:18064   */\n      0x01\n        /* \"#utility.yul\":18059:18060   */\n      0x02\n        /* \"#utility.yul\":18051:18057   */\n      dup9\n        /* \"#utility.yul\":18047:18061   */\n      mul\n        /* \"#utility.yul\":18043:18065   */\n      add\n        /* \"#utility.yul\":18037:18041   */\n      dup9\n        /* \"#utility.yul\":18030:18066   */\n      sstore\n        /* \"#utility.yul\":17465:18076   */\n      pop\n      pop\n      pop\n        /* \"#utility.yul\":17428:18315   */\n    tag_288:\n      pop\n        /* \"#utility.yul\":17018:18321   */\n      pop\n      pop\n      pop\n        /* \"#utility.yul\":16926:18321   */\n      pop\n      pop\n      jump\t// out\n        /* \"#utility.yul\":18327:18507   */\n    tag_38:\n        /* \"#utility.yul\":18375:18452   */\n      0x4e487b7100000000000000000000000000000000000000000000000000000000\n        /* \"#utility.yul\":18372:18373   */\n      0x00\n        /* \"#utility.yul\":18365:18453   */\n      mstore\n        /* \"#utility.yul\":18472:18476   */\n      0x32\n        /* \"#utility.yul\":18469:18470   */\n      0x04\n        /* \"#utility.yul\":18462:18477   */\n      mstore\n        /* \"#utility.yul\":18496:18500   */\n      0x24\n        /* \"#utility.yul\":18493:18494   */\n      0x00\n        /* \"#utility.yul\":18486:18501   */\n      revert\n\n    auxdata: 0xa2646970667358221220a9bdeabb79cd002d350361be835a6e44058a0eb3e00ab034a845415dd221c85964736f6c63430008120033\n}\n",
				"bytecode": {
					"linkReferences": {},
					"object": "608060405234801561001057600080fd5b5061108b806100206000396000f3fe608060405234801561001057600080fd5b50600436106100415760003560e01c8063392338f51461004657806340731c241461006257806377d2765c14610092575b600080fd5b610060600480360381019061005b919061085c565b6100c2565b005b61007c6004803603810190610077919061090a565b61028c565b6040516100899190610a83565b60405180910390f35b6100ac60048036038101906100a79190610ad1565b610492565b6040516100b99190610c3d565b60405180910390f35b608060ff168251111561010a576040517f08c379a000000000000000000000000000000000000000000000000000000000815260040161010190610cbc565b60405180910390fd5b61177061ffff1681511115610154576040517f08c379a000000000000000000000000000000000000000000000000000000000815260040161014b90610d28565b60405180910390fd5b60006040518060a001604052803373ffffffffffffffffffffffffffffffffffffffff168152602001848152602001838152602001428152602001600081525090506000803373ffffffffffffffffffffffffffffffffffffffff1673ffffffffffffffffffffffffffffffffffffffff16815260200190815260200160002081908060018154018082558091505060019003906000526020600020906005020160009091909190915060008201518160000160006101000a81548173ffffffffffffffffffffffffffffffffffffffff021916908373ffffffffffffffffffffffffffffffffffffffff160217905550602082015181600101908161025a9190610f54565b5060408201518160020190816102709190610f54565b5060608201518160030155608082015181600401555050505050565b6102946106bd565b6000803373ffffffffffffffffffffffffffffffffffffffff1673ffffffffffffffffffffffffffffffffffffffff16815260200190815260200160002082815481106102e4576102e3611026565b5b90600052602060002090600502016040518060a00160405290816000820160009054906101000a900473ffffffffffffffffffffffffffffffffffffffff1673ffffffffffffffffffffffffffffffffffffffff1673ffffffffffffffffffffffffffffffffffffffff16815260200160018201805461036390610d77565b80601f016020809104026020016040519081016040528092919081815260200182805461038f90610d77565b80156103dc5780601f106103b1576101008083540402835291602001916103dc565b820191906000526020600020905b8154815290600101906020018083116103bf57829003601f168201915b505050505081526020016002820180546103f590610d77565b80601f016020809104026020016040519081016040528092919081815260200182805461042190610d77565b801561046e5780601f106104435761010080835404028352916020019161046e565b820191906000526020600020905b81548152906001019060200180831161045157829003601f168201915b50505050508152602001600382015481526020016004820154815250509050919050565b60606000808373ffffffffffffffffffffffffffffffffffffffff1673ffffffffffffffffffffffffffffffffffffffff168152602001908152602001600020805480602002602001604051908101604052809291908181526020016000905b828210156106b257838290600052602060002090600502016040518060a00160405290816000820160009054906101000a900473ffffffffffffffffffffffffffffffffffffffff1673ffffffffffffffffffffffffffffffffffffffff1673ffffffffffffffffffffffffffffffffffffffff16815260200160018201805461057b90610d77565b80601f01602080910402602001604051908101604052809291908181526020018280546105a790610d77565b80156105f45780601f106105c9576101008083540402835291602001916105f4565b820191906000526020600020905b8154815290600101906020018083116105d757829003601f168201915b5050505050815260200160028201805461060d90610d77565b80601f016020809104026020016040519081016040528092919081815260200182805461063990610d77565b80156106865780601f1061065b57610100808354040283529160200191610686565b820191906000526020600020905b81548152906001019060200180831161066957829003601f168201915b5050505050815260200160038201548152602001600482015481525050815260200190600101906104f2565b505050509050919050565b6040518060a00160405280600073ffffffffffffffffffffffffffffffffffffffff168152602001606081526020016060815260200160008152602001600081525090565b6000604051905090565b600080fd5b600080fd5b600080fd5b600080fd5b6000601f19601f8301169050919050565b7f4e487b7100000000000000000000000000000000000000000000000000000000600052604160045260246000fd5b61076982610720565b810181811067ffffffffffffffff8211171561078857610787610731565b5b80604052505050565b600061079b610702565b90506107a78282610760565b919050565b600067ffffffffffffffff8211156107c7576107c6610731565b5b6107d082610720565b9050602081019050919050565b82818337600083830152505050565b60006107ff6107fa846107ac565b610791565b90508281526020810184848401111561081b5761081a61071b565b5b6108268482856107dd565b509392505050565b600082601f83011261084357610842610716565b5b81356108538482602086016107ec565b91505092915050565b600080604083850312156108735761087261070c565b5b600083013567ffffffffffffffff81111561089157610890610711565b5b61089d8582860161082e565b925050602083013567ffffffffffffffff8111156108be576108bd610711565b5b6108ca8582860161082e565b9150509250929050565b6000819050919050565b6108e7816108d4565b81146108f257600080fd5b50565b600081359050610904816108de565b92915050565b6000602082840312156109205761091f61070c565b5b600061092e848285016108f5565b91505092915050565b600073ffffffffffffffffffffffffffffffffffffffff82169050919050565b600061096282610937565b9050919050565b61097281610957565b82525050565b600081519050919050565b600082825260208201905092915050565b60005b838110156109b2578082015181840152602081019050610997565b60008484015250505050565b60006109c982610978565b6109d38185610983565b93506109e3818560208601610994565b6109ec81610720565b840191505092915050565b610a00816108d4565b82525050565b600060a083016000830151610a1e6000860182610969565b5060208301518482036020860152610a3682826109be565b91505060408301518482036040860152610a5082826109be565b9150506060830151610a6560608601826109f7565b506080830151610a7860808601826109f7565b508091505092915050565b60006020820190508181036000830152610a9d8184610a06565b905092915050565b610aae81610957565b8114610ab957600080fd5b50565b600081359050610acb81610aa5565b92915050565b600060208284031215610ae757610ae661070c565b5b6000610af584828501610abc565b91505092915050565b600081519050919050565b600082825260208201905092915050565b6000819050602082019050919050565b600060a083016000830151610b426000860182610969565b5060208301518482036020860152610b5a82826109be565b91505060408301518482036040860152610b7482826109be565b9150506060830151610b8960608601826109f7565b506080830151610b9c60808601826109f7565b508091505092915050565b6000610bb38383610b2a565b905092915050565b6000602082019050919050565b6000610bd382610afe565b610bdd8185610b09565b935083602082028501610bef85610b1a565b8060005b85811015610c2b5784840389528151610c0c8582610ba7565b9450610c1783610bbb565b925060208a01995050600181019050610bf3565b50829750879550505050505092915050565b60006020820190508181036000830152610c578184610bc8565b905092915050565b600082825260208201905092915050565b7f5469746c6520746f6f206c6f6e67000000000000000000000000000000000000600082015250565b6000610ca6600e83610c5f565b9150610cb182610c70565b602082019050919050565b60006020820190508181036000830152610cd581610c99565b9050919050565b7f436f6e74656e7420746f6f206c6f6e6700000000000000000000000000000000600082015250565b6000610d12601083610c5f565b9150610d1d82610cdc565b602082019050919050565b60006020820190508181036000830152610d4181610d05565b9050919050565b7f4e487b7100000000000000000000000000000000000000000000000000000000600052602260045260246000fd5b60006002820490506001821680610d8f57607f821691505b602082108103610da257610da1610d48565b5b50919050565b60008190508160005260206000209050919050565b60006020601f8301049050919050565b600082821b905092915050565b600060088302610e0a7fffffffffffffffffffffffffffffffffffffffffffffffffffffffffffffffff82610dcd565b610e148683610dcd565b95508019841693508086168417925050509392505050565b6000819050919050565b6000610e51610e4c610e47846108d4565b610e2c565b6108d4565b9050919050565b6000819050919050565b610e6b83610e36565b610e7f610e7782610e58565b848454610dda565b825550505050565b600090565b610e94610e87565b610e9f818484610e62565b505050565b5b81811015610ec357610eb8600082610e8c565b600181019050610ea5565b5050565b601f821115610f0857610ed981610da8565b610ee284610dbd565b81016020851015610ef1578190505b610f05610efd85610dbd565b830182610ea4565b50505b505050565b600082821c905092915050565b6000610f2b60001984600802610f0d565b1980831691505092915050565b6000610f448383610f1a565b9150826002028217905092915050565b610f5d82610978565b67ffffffffffffffff811115610f7657610f75610731565b5b610f808254610d77565b610f8b828285610ec7565b600060209050601f831160018114610fbe5760008415610fac578287015190505b610fb68582610f38565b86555061101e565b601f198416610fcc86610da8565b60005b82811015610ff457848901518255600182019150602085019450602081019050610fcf565b86831015611011578489015161100d601f891682610f1a565b8355505b6001600288020188555050505b505050505050565b7f4e487b7100000000000000000000000000000000000000000000000000000000600052603260045260246000fdfea2646970667358221220a9bdeabb79cd002d350361be835a6e44058a0eb3e00ab034a845415dd221c85964736f6c63430008120033",
					"opcodes": "PUSH1 0x80 PUSH1 0x40 MSTORE CALLVALUE DUP1 ISZERO PUSH2 0x10 JUMPI PUSH1 0x0 DUP1 REVERT JUMPDEST POP PUSH2 0x108B DUP1 PUSH2 0x20 PUSH1 0x0 CODECOPY PUSH1 0x0 RETURN INVALID PUSH1 0x80 PUSH1 0x40 MSTORE CALLVALUE DUP1 ISZERO PUSH2 0x10 JUMPI PUSH1 0x0 DUP1 REVERT JUMPDEST POP PUSH1 0x4 CALLDATASIZE LT PUSH2 0x41 JUMPI PUSH1 0x0 CALLDATALOAD PUSH1 0xE0 SHR DUP1 PUSH4 0x392338F5 EQ PUSH2 0x46 JUMPI DUP1 PUSH4 0x40731C24 EQ PUSH2 0x62 JUMPI DUP1 PUSH4 0x77D2765C EQ PUSH2 0x92 JUMPI JUMPDEST PUSH1 0x0 DUP1 REVERT JUMPDEST PUSH2 0x60 PUSH1 0x4 DUP1 CALLDATASIZE SUB DUP2 ADD SWAP1 PUSH2 0x5B SWAP2 SWAP1 PUSH2 0x85C JUMP JUMPDEST PUSH2 0xC2 JUMP JUMPDEST STOP JUMPDEST PUSH2 0x7C PUSH1 0x4 DUP1 CALLDATASIZE SUB DUP2 ADD SWAP1 PUSH2 0x77 SWAP2 SWAP1 PUSH2 0x90A JUMP JUMPDEST PUSH2 0x28C JUMP JUMPDEST PUSH1 0x40 MLOAD PUSH2 0x89 SWAP2 SWAP1 PUSH2 0xA83 JUMP JUMPDEST PUSH1 0x40 MLOAD DUP1 SWAP2 SUB SWAP1 RETURN JUMPDEST PUSH2 0xAC PUSH1 0x4 DUP1 CALLDATASIZE SUB DUP2 ADD SWAP1 PUSH2 0xA7 SWAP2 SWAP1 PUSH2 0xAD1 JUMP JUMPDEST PUSH2 0x492 JUMP JUMPDEST PUSH1 0x40 MLOAD PUSH2 0xB9 SWAP2 SWAP1 PUSH2 0xC3D JUMP JUMPDEST PUSH1 0x40 MLOAD DUP1 SWAP2 SUB SWAP1 RETURN JUMPDEST PUSH1 0x80 PUSH1 0xFF AND DUP3 MLOAD GT ISZERO PUSH2 0x10A JUMPI PUSH1 0x40 MLOAD PUSH32 0x8C379A000000000000000000000000000000000000000000000000000000000 DUP2 MSTORE PUSH1 0x4 ADD PUSH2 0x101 SWAP1 PUSH2 0xCBC JUMP JUMPDEST PUSH1 0x40 MLOAD DUP1 SWAP2 SUB SWAP1 REVERT JUMPDEST PUSH2 0x1770 PUSH2 0xFFFF AND DUP2 MLOAD GT ISZERO PUSH2 0x154 JUMPI PUSH1 0x40 MLOAD PUSH32 0x8C379A000000000000000000000000000000000000000000000000000000000 DUP2 MSTORE PUSH1 0x4 ADD PUSH2 0x14B SWAP1 PUSH2 0xD28 JUMP JUMPDEST PUSH1 0x40 MLOAD DUP1 SWAP2 SUB SWAP1 REVERT JUMPDEST PUSH1 0x0 PUSH1 0x40 MLOAD DUP1 PUSH1 0xA0 ADD PUSH1 0x40 MSTORE DUP1 CALLER PUSH20 0xFFFFFFFFFFFFFFFFFFFFFFFFFFFFFFFFFFFFFFFF AND DUP2 MSTORE PUSH1 0x20 ADD DUP5 DUP2 MSTORE PUSH1 0x20 ADD DUP4 DUP2 MSTORE PUSH1 0x20 ADD TIMESTAMP DUP2 MSTORE PUSH1 0x20 ADD PUSH1 0x0 DUP2 MSTORE POP SWAP1 POP PUSH1 0x0 DUP1 CALLER PUSH20 0xFFFFFFFFFFFFFFFFFFFFFFFFFFFFFFFFFFFFFFFF AND PUSH20 0xFFFFFFFFFFFFFFFFFFFFFFFFFFFFFFFFFFFFFFFF AND DUP2 MSTORE PUSH1 0x20 ADD SWAP1 DUP2 MSTORE PUSH1 0x20 ADD PUSH1 0x0 KECCAK256 DUP2 SWAP1 DUP1 PUSH1 0x1 DUP2 SLOAD ADD DUP1 DUP3 SSTORE DUP1 SWAP2 POP POP PUSH1 0x1 SWAP1 SUB SWAP1 PUSH1 0x0 MSTORE PUSH1 0x20 PUSH1 0x0 KECCAK256 SWAP1 PUSH1 0x5 MUL ADD PUSH1 0x0 SWAP1 SWAP2 SWAP1 SWAP2 SWAP1 SWAP2 POP PUSH1 0x0 DUP3 ADD MLOAD DUP2 PUSH1 0x0 ADD PUSH1 0x0 PUSH2 0x100 EXP DUP2 SLOAD DUP2 PUSH20 0xFFFFFFFFFFFFFFFFFFFFFFFFFFFFFFFFFFFFFFFF MUL NOT AND SWAP1 DUP4 PUSH20 0xFFFFFFFFFFFFFFFFFFFFFFFFFFFFFFFFFFFFFFFF AND MUL OR SWAP1 SSTORE POP PUSH1 0x20 DUP3 ADD MLOAD DUP2 PUSH1 0x1 ADD SWAP1 DUP2 PUSH2 0x25A SWAP2 SWAP1 PUSH2 0xF54 JUMP JUMPDEST POP PUSH1 0x40 DUP3 ADD MLOAD DUP2 PUSH1 0x2 ADD SWAP1 DUP2 PUSH2 0x270 SWAP2 SWAP1 PUSH2 0xF54 JUMP JUMPDEST POP PUSH1 0x60 DUP3 ADD MLOAD DUP2 PUSH1 0x3 ADD SSTORE PUSH1 0x80 DUP3 ADD MLOAD DUP2 PUSH1 0x4 ADD SSTORE POP POP POP POP POP JUMP JUMPDEST PUSH2 0x294 PUSH2 0x6BD JUMP JUMPDEST PUSH1 0x0 DUP1 CALLER PUSH20 0xFFFFFFFFFFFFFFFFFFFFFFFFFFFFFFFFFFFFFFFF AND PUSH20 0xFFFFFFFFFFFFFFFFFFFFFFFFFFFFFFFFFFFFFFFF AND DUP2 MSTORE PUSH1 0x20 ADD SWAP1 DUP2 MSTORE PUSH1 0x20 ADD PUSH1 0x0 KECCAK256 DUP3 DUP2 SLOAD DUP2 LT PUSH2 0x2E4 JUMPI PUSH2 0x2E3 PUSH2 0x1026 JUMP JUMPDEST JUMPDEST SWAP1 PUSH1 0x0 MSTORE PUSH1 0x20 PUSH1 0x0 KECCAK256 SWAP1 PUSH1 0x5 MUL ADD PUSH1 0x40 MLOAD DUP1 PUSH1 0xA0 ADD PUSH1 0x40 MSTORE SWAP1 DUP2 PUSH1 0x0 DUP3 ADD PUSH1 0x0 SWAP1 SLOAD SWAP1 PUSH2 0x100 EXP SWAP1 DIV PUSH20 0xFFFFFFFFFFFFFFFFFFFFFFFFFFFFFFFFFFFFFFFF AND PUSH20 0xFFFFFFFFFFFFFFFFFFFFFFFFFFFFFFFFFFFFFFFF AND PUSH20 0xFFFFFFFFFFFFFFFFFFFFFFFFFFFFFFFFFFFFFFFF AND DUP2 MSTORE PUSH1 0x20 ADD PUSH1 0x1 DUP3 ADD DUP1 SLOAD PUSH2 0x363 SWAP1 PUSH2 0xD77 JUMP JUMPDEST DUP1 PUSH1 0x1F ADD PUSH1 0x20 DUP1 SWAP2 DIV MUL PUSH1 0x20 ADD PUSH1 0x40 MLOAD SWAP1 DUP2 ADD PUSH1 0x40 MSTORE DUP1 SWAP3 SWAP2 SWAP1 DUP2 DUP2 MSTORE PUSH1 0x20 ADD DUP3 DUP1 SLOAD PUSH2 0x38F SWAP1 PUSH2 0xD77 JUMP JUMPDEST DUP1 ISZERO PUSH2 0x3DC JUMPI DUP1 PUSH1 0x1F LT PUSH2 0x3B1 JUMPI PUSH2 0x100 DUP1 DUP4 SLOAD DIV MUL DUP4 MSTORE SWAP2 PUSH1 0x20 ADD SWAP2 PUSH2 0x3DC JUMP JUMPDEST DUP3 ADD SWAP2 SWAP1 PUSH1 0x0 MSTORE PUSH1 0x20 PUSH1 0x0 KECCAK256 SWAP1 JUMPDEST DUP2 SLOAD DUP2 MSTORE SWAP1 PUSH1 0x1 ADD SWAP1 PUSH1 0x20 ADD DUP1 DUP4 GT PUSH2 0x3BF JUMPI DUP3 SWAP1 SUB PUSH1 0x1F AND DUP3 ADD SWAP2 JUMPDEST POP POP POP POP POP DUP2 MSTORE PUSH1 0x20 ADD PUSH1 0x2 DUP3 ADD DUP1 SLOAD PUSH2 0x3F5 SWAP1 PUSH2 0xD77 JUMP JUMPDEST DUP1 PUSH1 0x1F ADD PUSH1 0x20 DUP1 SWAP2 DIV MUL PUSH1 0x20 ADD PUSH1 0x40 MLOAD SWAP1 DUP2 ADD PUSH1 0x40 MSTORE DUP1 SWAP3 SWAP2 SWAP1 DUP2 DUP2 MSTORE PUSH1 0x20 ADD DUP3 DUP1 SLOAD PUSH2 0x421 SWAP1 PUSH2 0xD77 JUMP JUMPDEST DUP1 ISZERO PUSH2 0x46E JUMPI DUP1 PUSH1 0x1F LT PUSH2 0x443 JUMPI PUSH2 0x100 DUP1 DUP4 SLOAD DIV MUL DUP4 MSTORE SWAP2 PUSH1 0x20 ADD SWAP2 PUSH2 0x46E JUMP JUMPDEST DUP3 ADD SWAP2 SWAP1 PUSH1 0x0 MSTORE PUSH1 0x20 PUSH1 0x0 KECCAK256 SWAP1 JUMPDEST DUP2 SLOAD DUP2 MSTORE SWAP1 PUSH1 0x1 ADD SWAP1 PUSH1 0x20 ADD DUP1 DUP4 GT PUSH2 0x451 JUMPI DUP3 SWAP1 SUB PUSH1 0x1F AND DUP3 ADD SWAP2 JUMPDEST POP POP POP POP POP DUP2 MSTORE PUSH1 0x20 ADD PUSH1 0x3 DUP3 ADD SLOAD DUP2 MSTORE PUSH1 0x20 ADD PUSH1 0x4 DUP3 ADD SLOAD DUP2 MSTORE POP POP SWAP1 POP SWAP2 SWAP1 POP JUMP JUMPDEST PUSH1 0x60 PUSH1 0x0 DUP1 DUP4 PUSH20 0xFFFFFFFFFFFFFFFFFFFFFFFFFFFFFFFFFFFFFFFF AND PUSH20 0xFFFFFFFFFFFFFFFFFFFFFFFFFFFFFFFFFFFFFFFF AND DUP2 MSTORE PUSH1 0x20 ADD SWAP1 DUP2 MSTORE PUSH1 0x20 ADD PUSH1 0x0 KECCAK256 DUP1 SLOAD DUP1 PUSH1 0x20 MUL PUSH1 0x20 ADD PUSH1 0x40 MLOAD SWAP1 DUP2 ADD PUSH1 0x40 MSTORE DUP1 SWAP3 SWAP2 SWAP1 DUP2 DUP2 MSTORE PUSH1 0x20 ADD PUSH1 0x0 SWAP1 JUMPDEST DUP3 DUP3 LT ISZERO PUSH2 0x6B2 JUMPI DUP4 DUP3 SWAP1 PUSH1 0x0 MSTORE PUSH1 0x20 PUSH1 0x0 KECCAK256 SWAP1 PUSH1 0x5 MUL ADD PUSH1 0x40 MLOAD DUP1 PUSH1 0xA0 ADD PUSH1 0x40 MSTORE SWAP1 DUP2 PUSH1 0x0 DUP3 ADD PUSH1 0x0 SWAP1 SLOAD SWAP1 PUSH2 0x100 EXP SWAP1 DIV PUSH20 0xFFFFFFFFFFFFFFFFFFFFFFFFFFFFFFFFFFFFFFFF AND PUSH20 0xFFFFFFFFFFFFFFFFFFFFFFFFFFFFFFFFFFFFFFFF AND PUSH20 0xFFFFFFFFFFFFFFFFFFFFFFFFFFFFFFFFFFFFFFFF AND DUP2 MSTORE PUSH1 0x20 ADD PUSH1 0x1 DUP3 ADD DUP1 SLOAD PUSH2 0x57B SWAP1 PUSH2 0xD77 JUMP JUMPDEST DUP1 PUSH1 0x1F ADD PUSH1 0x20 DUP1 SWAP2 DIV MUL PUSH1 0x20 ADD PUSH1 0x40 MLOAD SWAP1 DUP2 ADD PUSH1 0x40 MSTORE DUP1 SWAP3 SWAP2 SWAP1 DUP2 DUP2 MSTORE PUSH1 0x20 ADD DUP3 DUP1 SLOAD PUSH2 0x5A7 SWAP1 PUSH2 0xD77 JUMP JUMPDEST DUP1 ISZERO PUSH2 0x5F4 JUMPI DUP1 PUSH1 0x1F LT PUSH2 0x5C9 JUMPI PUSH2 0x100 DUP1 DUP4 SLOAD DIV MUL DUP4 MSTORE SWAP2 PUSH1 0x20 ADD SWAP2 PUSH2 0x5F4 JUMP JUMPDEST DUP3 ADD SWAP2 SWAP1 PUSH1 0x0 MSTORE PUSH1 0x20 PUSH1 0x0 KECCAK256 SWAP1 JUMPDEST DUP2 SLOAD DUP2 MSTORE SWAP1 PUSH1 0x1 ADD SWAP1 PUSH1 0x20 ADD DUP1 DUP4 GT PUSH2 0x5D7 JUMPI DUP3 SWAP1 SUB PUSH1 0x1F AND DUP3 ADD SWAP2 JUMPDEST POP POP POP POP POP DUP2 MSTORE PUSH1 0x20 ADD PUSH1 0x2 DUP3 ADD DUP1 SLOAD PUSH2 0x60D SWAP1 PUSH2 0xD77 JUMP JUMPDEST DUP1 PUSH1 0x1F ADD PUSH1 0x20 DUP1 SWAP2 DIV MUL PUSH1 0x20 ADD PUSH1 0x40 MLOAD SWAP1 DUP2 ADD PUSH1 0x40 MSTORE DUP1 SWAP3 SWAP2 SWAP1 DUP2 DUP2 MSTORE PUSH1 0x20 ADD DUP3 DUP1 SLOAD PUSH2 0x639 SWAP1 PUSH2 0xD77 JUMP JUMPDEST DUP1 ISZERO PUSH2 0x686 JUMPI DUP1 PUSH1 0x1F LT PUSH2 0x65B JUMPI PUSH2 0x100 DUP1 DUP4 SLOAD DIV MUL DUP4 MSTORE SWAP2 PUSH1 0x20 ADD SWAP2 PUSH2 0x686 JUMP JUMPDEST DUP3 ADD SWAP2 SWAP1 PUSH1 0x0 MSTORE PUSH1 0x20 PUSH1 0x0 KECCAK256 SWAP1 JUMPDEST DUP2 SLOAD DUP2 MSTORE SWAP1 PUSH1 0x1 ADD SWAP1 PUSH1 0x20 ADD DUP1 DUP4 GT PUSH2 0x669 JUMPI DUP3 SWAP1 SUB PUSH1 0x1F AND DUP3 ADD SWAP2 JUMPDEST POP POP POP POP POP DUP2 MSTORE PUSH1 0x20 ADD PUSH1 0x3 DUP3 ADD SLOAD DUP2 MSTORE PUSH1 0x20 ADD PUSH1 0x4 DUP3 ADD SLOAD DUP2 MSTORE POP POP DUP2 MSTORE PUSH1 0x20 ADD SWAP1 PUSH1 0x1 ADD SWAP1 PUSH2 0x4F2 JUMP JUMPDEST POP POP POP POP SWAP1 POP SWAP2 SWAP1 POP JUMP JUMPDEST PUSH1 0x40 MLOAD DUP1 PUSH1 0xA0 ADD PUSH1 0x40 MSTORE DUP1 PUSH1 0x0 PUSH20 0xFFFFFFFFFFFFFFFFFFFFFFFFFFFFFFFFFFFFFFFF AND DUP2 MSTORE PUSH1 0x20 ADD PUSH1 0x60 DUP2 MSTORE PUSH1 0x20 ADD PUSH1 0x60 DUP2 MSTORE PUSH1 0x20 ADD PUSH1 0x0 DUP2 MSTORE PUSH1 0x20 ADD PUSH1 0x0 DUP2 MSTORE POP SWAP1 JUMP JUMPDEST PUSH1 0x0 PUSH1 0x40 MLOAD SWAP1 POP SWAP1 JUMP JUMPDEST PUSH1 0x0 DUP1 REVERT JUMPDEST PUSH1 0x0 DUP1 REVERT JUMPDEST PUSH1 0x0 DUP1 REVERT JUMPDEST PUSH1 0x0 DUP1 REVERT JUMPDEST PUSH1 0x0 PUSH1 0x1F NOT PUSH1 0x1F DUP4 ADD AND SWAP1 POP SWAP2 SWAP1 POP JUMP JUMPDEST PUSH32 0x4E487B7100000000000000000000000000000000000000000000000000000000 PUSH1 0x0 MSTORE PUSH1 0x41 PUSH1 0x4 MSTORE PUSH1 0x24 PUSH1 0x0 REVERT JUMPDEST PUSH2 0x769 DUP3 PUSH2 0x720 JUMP JUMPDEST DUP2 ADD DUP2 DUP2 LT PUSH8 0xFFFFFFFFFFFFFFFF DUP3 GT OR ISZERO PUSH2 0x788 JUMPI PUSH2 0x787 PUSH2 0x731 JUMP JUMPDEST JUMPDEST DUP1 PUSH1 0x40 MSTORE POP POP POP JUMP JUMPDEST PUSH1 0x0 PUSH2 0x79B PUSH2 0x702 JUMP JUMPDEST SWAP1 POP PUSH2 0x7A7 DUP3 DUP3 PUSH2 0x760 JUMP JUMPDEST SWAP2 SWAP1 POP JUMP JUMPDEST PUSH1 0x0 PUSH8 0xFFFFFFFFFFFFFFFF DUP3 GT ISZERO PUSH2 0x7C7 JUMPI PUSH2 0x7C6 PUSH2 0x731 JUMP JUMPDEST JUMPDEST PUSH2 0x7D0 DUP3 PUSH2 0x720 JUMP JUMPDEST SWAP1 POP PUSH1 0x20 DUP2 ADD SWAP1 POP SWAP2 SWAP1 POP JUMP JUMPDEST DUP3 DUP2 DUP4 CALLDATACOPY PUSH1 0x0 DUP4 DUP4 ADD MSTORE POP POP POP JUMP JUMPDEST PUSH1 0x0 PUSH2 0x7FF PUSH2 0x7FA DUP5 PUSH2 0x7AC JUMP JUMPDEST PUSH2 0x791 JUMP JUMPDEST SWAP1 POP DUP3 DUP2 MSTORE PUSH1 0x20 DUP2 ADD DUP5 DUP5 DUP5 ADD GT ISZERO PUSH2 0x81B JUMPI PUSH2 0x81A PUSH2 0x71B JUMP JUMPDEST JUMPDEST PUSH2 0x826 DUP5 DUP3 DUP6 PUSH2 0x7DD JUMP JUMPDEST POP SWAP4 SWAP3 POP POP POP JUMP JUMPDEST PUSH1 0x0 DUP3 PUSH1 0x1F DUP4 ADD SLT PUSH2 0x843 JUMPI PUSH2 0x842 PUSH2 0x716 JUMP JUMPDEST JUMPDEST DUP2 CALLDATALOAD PUSH2 0x853 DUP5 DUP3 PUSH1 0x20 DUP7 ADD PUSH2 0x7EC JUMP JUMPDEST SWAP2 POP POP SWAP3 SWAP2 POP POP JUMP JUMPDEST PUSH1 0x0 DUP1 PUSH1 0x40 DUP4 DUP6 SUB SLT ISZERO PUSH2 0x873 JUMPI PUSH2 0x872 PUSH2 0x70C JUMP JUMPDEST JUMPDEST PUSH1 0x0 DUP4 ADD CALLDATALOAD PUSH8 0xFFFFFFFFFFFFFFFF DUP2 GT ISZERO PUSH2 0x891 JUMPI PUSH2 0x890 PUSH2 0x711 JUMP JUMPDEST JUMPDEST PUSH2 0x89D DUP6 DUP3 DUP7 ADD PUSH2 0x82E JUMP JUMPDEST SWAP3 POP POP PUSH1 0x20 DUP4 ADD CALLDATALOAD PUSH8 0xFFFFFFFFFFFFFFFF DUP2 GT ISZERO PUSH2 0x8BE JUMPI PUSH2 0x8BD PUSH2 0x711 JUMP JUMPDEST JUMPDEST PUSH2 0x8CA DUP6 DUP3 DUP7 ADD PUSH2 0x82E JUMP JUMPDEST SWAP2 POP POP SWAP3 POP SWAP3 SWAP1 POP JUMP JUMPDEST PUSH1 0x0 DUP2 SWAP1 POP SWAP2 SWAP1 POP JUMP JUMPDEST PUSH2 0x8E7 DUP2 PUSH2 0x8D4 JUMP JUMPDEST DUP2 EQ PUSH2 0x8F2 JUMPI PUSH1 0x0 DUP1 REVERT JUMPDEST POP JUMP JUMPDEST PUSH1 0x0 DUP2 CALLDATALOAD SWAP1 POP PUSH2 0x904 DUP2 PUSH2 0x8DE JUMP JUMPDEST SWAP3 SWAP2 POP POP JUMP JUMPDEST PUSH1 0x0 PUSH1 0x20 DUP3 DUP5 SUB SLT ISZERO PUSH2 0x920 JUMPI PUSH2 0x91F PUSH2 0x70C JUMP JUMPDEST JUMPDEST PUSH1 0x0 PUSH2 0x92E DUP5 DUP3 DUP6 ADD PUSH2 0x8F5 JUMP JUMPDEST SWAP2 POP POP SWAP3 SWAP2 POP POP JUMP JUMPDEST PUSH1 0x0 PUSH20 0xFFFFFFFFFFFFFFFFFFFFFFFFFFFFFFFFFFFFFFFF DUP3 AND SWAP1 POP SWAP2 SWAP1 POP JUMP JUMPDEST PUSH1 0x0 PUSH2 0x962 DUP3 PUSH2 0x937 JUMP JUMPDEST SWAP1 POP SWAP2 SWAP1 POP JUMP JUMPDEST PUSH2 0x972 DUP2 PUSH2 0x957 JUMP JUMPDEST DUP3 MSTORE POP POP JUMP JUMPDEST PUSH1 0x0 DUP2 MLOAD SWAP1 POP SWAP2 SWAP1 POP JUMP JUMPDEST PUSH1 0x0 DUP3 DUP3 MSTORE PUSH1 0x20 DUP3 ADD SWAP1 POP SWAP3 SWAP2 POP POP JUMP JUMPDEST PUSH1 0x0 JUMPDEST DUP4 DUP2 LT ISZERO PUSH2 0x9B2 JUMPI DUP1 DUP3 ADD MLOAD DUP2 DUP5 ADD MSTORE PUSH1 0x20 DUP2 ADD SWAP1 POP PUSH2 0x997 JUMP JUMPDEST PUSH1 0x0 DUP5 DUP5 ADD MSTORE POP POP POP POP JUMP JUMPDEST PUSH1 0x0 PUSH2 0x9C9 DUP3 PUSH2 0x978 JUMP JUMPDEST PUSH2 0x9D3 DUP2 DUP6 PUSH2 0x983 JUMP JUMPDEST SWAP4 POP PUSH2 0x9E3 DUP2 DUP6 PUSH1 0x20 DUP7 ADD PUSH2 0x994 JUMP JUMPDEST PUSH2 0x9EC DUP2 PUSH2 0x720 JUMP JUMPDEST DUP5 ADD SWAP2 POP POP SWAP3 SWAP2 POP POP JUMP JUMPDEST PUSH2 0xA00 DUP2 PUSH2 0x8D4 JUMP JUMPDEST DUP3 MSTORE POP POP JUMP JUMPDEST PUSH1 0x0 PUSH1 0xA0 DUP4 ADD PUSH1 0x0 DUP4 ADD MLOAD PUSH2 0xA1E PUSH1 0x0 DUP7 ADD DUP3 PUSH2 0x969 JUMP JUMPDEST POP PUSH1 0x20 DUP4 ADD MLOAD DUP5 DUP3 SUB PUSH1 0x20 DUP7 ADD MSTORE PUSH2 0xA36 DUP3 DUP3 PUSH2 0x9BE JUMP JUMPDEST SWAP2 POP POP PUSH1 0x40 DUP4 ADD MLOAD DUP5 DUP3 SUB PUSH1 0x40 DUP7 ADD MSTORE PUSH2 0xA50 DUP3 DUP3 PUSH2 0x9BE JUMP JUMPDEST SWAP2 POP POP PUSH1 0x60 DUP4 ADD MLOAD PUSH2 0xA65 PUSH1 0x60 DUP7 ADD DUP3 PUSH2 0x9F7 JUMP JUMPDEST POP PUSH1 0x80 DUP4 ADD MLOAD PUSH2 0xA78 PUSH1 0x80 DUP7 ADD DUP3 PUSH2 0x9F7 JUMP JUMPDEST POP DUP1 SWAP2 POP POP SWAP3 SWAP2 POP POP JUMP JUMPDEST PUSH1 0x0 PUSH1 0x20 DUP3 ADD SWAP1 POP DUP2 DUP2 SUB PUSH1 0x0 DUP4 ADD MSTORE PUSH2 0xA9D DUP2 DUP5 PUSH2 0xA06 JUMP JUMPDEST SWAP1 POP SWAP3 SWAP2 POP POP JUMP JUMPDEST PUSH2 0xAAE DUP2 PUSH2 0x957 JUMP JUMPDEST DUP2 EQ PUSH2 0xAB9 JUMPI PUSH1 0x0 DUP1 REVERT JUMPDEST POP JUMP JUMPDEST PUSH1 0x0 DUP2 CALLDATALOAD SWAP1 POP PUSH2 0xACB DUP2 PUSH2 0xAA5 JUMP JUMPDEST SWAP3 SWAP2 POP POP JUMP JUMPDEST PUSH1 0x0 PUSH1 0x20 DUP3 DUP5 SUB SLT ISZERO PUSH2 0xAE7 JUMPI PUSH2 0xAE6 PUSH2 0x70C JUMP JUMPDEST JUMPDEST PUSH1 0x0 PUSH2 0xAF5 DUP5 DUP3 DUP6 ADD PUSH2 0xABC JUMP JUMPDEST SWAP2 POP POP SWAP3 SWAP2 POP POP JUMP JUMPDEST PUSH1 0x0 DUP2 MLOAD SWAP1 POP SWAP2 SWAP1 POP JUMP JUMPDEST PUSH1 0x0 DUP3 DUP3 MSTORE PUSH1 0x20 DUP3 ADD SWAP1 POP SWAP3 SWAP2 POP POP JUMP JUMPDEST PUSH1 0x0 DUP2 SWAP1 POP PUSH1 0x20 DUP3 ADD SWAP1 POP SWAP2 SWAP1 POP JUMP JUMPDEST PUSH1 0x0 PUSH1 0xA0 DUP4 ADD PUSH1 0x0 DUP4 ADD MLOAD PUSH2 0xB42 PUSH1 0x0 DUP7 ADD DUP3 PUSH2 0x969 JUMP JUMPDEST POP PUSH1 0x20 DUP4 ADD MLOAD DUP5 DUP3 SUB PUSH1 0x20 DUP7 ADD MSTORE PUSH2 0xB5A DUP3 DUP3 PUSH2 0x9BE JUMP JUMPDEST SWAP2 POP POP PUSH1 0x40 DUP4 ADD MLOAD DUP5 DUP3 SUB PUSH1 0x40 DUP7 ADD MSTORE PUSH2 0xB74 DUP3 DUP3 PUSH2 0x9BE JUMP JUMPDEST SWAP2 POP POP PUSH1 0x60 DUP4 ADD MLOAD PUSH2 0xB89 PUSH1 0x60 DUP7 ADD DUP3 PUSH2 0x9F7 JUMP JUMPDEST POP PUSH1 0x80 DUP4 ADD MLOAD PUSH2 0xB9C PUSH1 0x80 DUP7 ADD DUP3 PUSH2 0x9F7 JUMP JUMPDEST POP DUP1 SWAP2 POP POP SWAP3 SWAP2 POP POP JUMP JUMPDEST PUSH1 0x0 PUSH2 0xBB3 DUP4 DUP4 PUSH2 0xB2A JUMP JUMPDEST SWAP1 POP SWAP3 SWAP2 POP POP JUMP JUMPDEST PUSH1 0x0 PUSH1 0x20 DUP3 ADD SWAP1 POP SWAP2 SWAP1 POP JUMP JUMPDEST PUSH1 0x0 PUSH2 0xBD3 DUP3 PUSH2 0xAFE JUMP JUMPDEST PUSH2 0xBDD DUP2 DUP6 PUSH2 0xB09 JUMP JUMPDEST SWAP4 POP DUP4 PUSH1 0x20 DUP3 MUL DUP6 ADD PUSH2 0xBEF DUP6 PUSH2 0xB1A JUMP JUMPDEST DUP1 PUSH1 0x0 JUMPDEST DUP6 DUP2 LT ISZERO PUSH2 0xC2B JUMPI DUP5 DUP5 SUB DUP10 MSTORE DUP2 MLOAD PUSH2 0xC0C DUP6 DUP3 PUSH2 0xBA7 JUMP JUMPDEST SWAP5 POP PUSH2 0xC17 DUP4 PUSH2 0xBBB JUMP JUMPDEST SWAP3 POP PUSH1 0x20 DUP11 ADD SWAP10 POP POP PUSH1 0x1 DUP2 ADD SWAP1 POP PUSH2 0xBF3 JUMP JUMPDEST POP DUP3 SWAP8 POP DUP8 SWAP6 POP POP POP POP POP POP SWAP3 SWAP2 POP POP JUMP JUMPDEST PUSH1 0x0 PUSH1 0x20 DUP3 ADD SWAP1 POP DUP2 DUP2 SUB PUSH1 0x0 DUP4 ADD MSTORE PUSH2 0xC57 DUP2 DUP5 PUSH2 0xBC8 JUMP JUMPDEST SWAP1 POP SWAP3 SWAP2 POP POP JUMP JUMPDEST PUSH1 0x0 DUP3 DUP3 MSTORE PUSH1 0x20 DUP3 ADD SWAP1 POP SWAP3 SWAP2 POP POP JUMP JUMPDEST PUSH32 0x5469746C6520746F6F206C6F6E67000000000000000000000000000000000000 PUSH1 0x0 DUP3 ADD MSTORE POP JUMP JUMPDEST PUSH1 0x0 PUSH2 0xCA6 PUSH1 0xE DUP4 PUSH2 0xC5F JUMP JUMPDEST SWAP2 POP PUSH2 0xCB1 DUP3 PUSH2 0xC70 JUMP JUMPDEST PUSH1 0x20 DUP3 ADD SWAP1 POP SWAP2 SWAP1 POP JUMP JUMPDEST PUSH1 0x0 PUSH1 0x20 DUP3 ADD SWAP1 POP DUP2 DUP2 SUB PUSH1 0x0 DUP4 ADD MSTORE PUSH2 0xCD5 DUP2 PUSH2 0xC99 JUMP JUMPDEST SWAP1 POP SWAP2 SWAP1 POP JUMP JUMPDEST PUSH32 0x436F6E74656E7420746F6F206C6F6E6700000000000000000000000000000000 PUSH1 0x0 DUP3 ADD MSTORE POP JUMP JUMPDEST PUSH1 0x0 PUSH2 0xD12 PUSH1 0x10 DUP4 PUSH2 0xC5F JUMP JUMPDEST SWAP2 POP PUSH2 0xD1D DUP3 PUSH2 0xCDC JUMP JUMPDEST PUSH1 0x20 DUP3 ADD SWAP1 POP SWAP2 SWAP1 POP JUMP JUMPDEST PUSH1 0x0 PUSH1 0x20 DUP3 ADD SWAP1 POP DUP2 DUP2 SUB PUSH1 0x0 DUP4 ADD MSTORE PUSH2 0xD41 DUP2 PUSH2 0xD05 JUMP JUMPDEST SWAP1 POP SWAP2 SWAP1 POP JUMP JUMPDEST PUSH32 0x4E487B7100000000000000000000000000000000000000000000000000000000 PUSH1 0x0 MSTORE PUSH1 0x22 PUSH1 0x4 MSTORE PUSH1 0x24 PUSH1 0x0 REVERT JUMPDEST PUSH1 0x0 PUSH1 0x2 DUP3 DIV SWAP1 POP PUSH1 0x1 DUP3 AND DUP1 PUSH2 0xD8F JUMPI PUSH1 0x7F DUP3 AND SWAP2 POP JUMPDEST PUSH1 0x20 DUP3 LT DUP2 SUB PUSH2 0xDA2 JUMPI PUSH2 0xDA1 PUSH2 0xD48 JUMP JUMPDEST JUMPDEST POP SWAP2 SWAP1 POP JUMP JUMPDEST PUSH1 0x0 DUP2 SWAP1 POP DUP2 PUSH1 0x0 MSTORE PUSH1 0x20 PUSH1 0x0 KECCAK256 SWAP1 POP SWAP2 SWAP1 POP JUMP JUMPDEST PUSH1 0x0 PUSH1 0x20 PUSH1 0x1F DUP4 ADD DIV SWAP1 POP SWAP2 SWAP1 POP JUMP JUMPDEST PUSH1 0x0 DUP3 DUP3 SHL SWAP1 POP SWAP3 SWAP2 POP POP JUMP JUMPDEST PUSH1 0x0 PUSH1 0x8 DUP4 MUL PUSH2 0xE0A PUSH32 0xFFFFFFFFFFFFFFFFFFFFFFFFFFFFFFFFFFFFFFFFFFFFFFFFFFFFFFFFFFFFFFFF DUP3 PUSH2 0xDCD JUMP JUMPDEST PUSH2 0xE14 DUP7 DUP4 PUSH2 0xDCD JUMP JUMPDEST SWAP6 POP DUP1 NOT DUP5 AND SWAP4 POP DUP1 DUP7 AND DUP5 OR SWAP3 POP POP POP SWAP4 SWAP3 POP POP POP JUMP JUMPDEST PUSH1 0x0 DUP2 SWAP1 POP SWAP2 SWAP1 POP JUMP JUMPDEST PUSH1 0x0 PUSH2 0xE51 PUSH2 0xE4C PUSH2 0xE47 DUP5 PUSH2 0x8D4 JUMP JUMPDEST PUSH2 0xE2C JUMP JUMPDEST PUSH2 0x8D4 JUMP JUMPDEST SWAP1 POP SWAP2 SWAP1 POP JUMP JUMPDEST PUSH1 0x0 DUP2 SWAP1 POP SWAP2 SWAP1 POP JUMP JUMPDEST PUSH2 0xE6B DUP4 PUSH2 0xE36 JUMP JUMPDEST PUSH2 0xE7F PUSH2 0xE77 DUP3 PUSH2 0xE58 JUMP JUMPDEST DUP5 DUP5 SLOAD PUSH2 0xDDA JUMP JUMPDEST DUP3 SSTORE POP POP POP POP JUMP JUMPDEST PUSH1 0x0 SWAP1 JUMP JUMPDEST PUSH2 0xE94 PUSH2 0xE87 JUMP JUMPDEST PUSH2 0xE9F DUP2 DUP5 DUP5 PUSH2 0xE62 JUMP JUMPDEST POP POP POP JUMP JUMPDEST JUMPDEST DUP2 DUP2 LT ISZERO PUSH2 0xEC3 JUMPI PUSH2 0xEB8 PUSH1 0x0 DUP3 PUSH2 0xE8C JUMP JUMPDEST PUSH1 0x1 DUP2 ADD SWAP1 POP PUSH2 0xEA5 JUMP JUMPDEST POP POP JUMP JUMPDEST PUSH1 0x1F DUP3 GT ISZERO PUSH2 0xF08 JUMPI PUSH2 0xED9 DUP2 PUSH2 0xDA8 JUMP JUMPDEST PUSH2 0xEE2 DUP5 PUSH2 0xDBD JUMP JUMPDEST DUP2 ADD PUSH1 0x20 DUP6 LT ISZERO PUSH2 0xEF1 JUMPI DUP2 SWAP1 POP JUMPDEST PUSH2 0xF05 PUSH2 0xEFD DUP6 PUSH2 0xDBD JUMP JUMPDEST DUP4 ADD DUP3 PUSH2 0xEA4 JUMP JUMPDEST POP POP JUMPDEST POP POP POP JUMP JUMPDEST PUSH1 0x0 DUP3 DUP3 SHR SWAP1 POP SWAP3 SWAP2 POP POP JUMP JUMPDEST PUSH1 0x0 PUSH2 0xF2B PUSH1 0x0 NOT DUP5 PUSH1 0x8 MUL PUSH2 0xF0D JUMP JUMPDEST NOT DUP1 DUP4 AND SWAP2 POP POP SWAP3 SWAP2 POP POP JUMP JUMPDEST PUSH1 0x0 PUSH2 0xF44 DUP4 DUP4 PUSH2 0xF1A JUMP JUMPDEST SWAP2 POP DUP3 PUSH1 0x2 MUL DUP3 OR SWAP1 POP SWAP3 SWAP2 POP POP JUMP JUMPDEST PUSH2 0xF5D DUP3 PUSH2 0x978 JUMP JUMPDEST PUSH8 0xFFFFFFFFFFFFFFFF DUP2 GT ISZERO PUSH2 0xF76 JUMPI PUSH2 0xF75 PUSH2 0x731 JUMP JUMPDEST JUMPDEST PUSH2 0xF80 DUP3 SLOAD PUSH2 0xD77 JUMP JUMPDEST PUSH2 0xF8B DUP3 DUP3 DUP6 PUSH2 0xEC7 JUMP JUMPDEST PUSH1 0x0 PUSH1 0x20 SWAP1 POP PUSH1 0x1F DUP4 GT PUSH1 0x1 DUP2 EQ PUSH2 0xFBE JUMPI PUSH1 0x0 DUP5 ISZERO PUSH2 0xFAC JUMPI DUP3 DUP8 ADD MLOAD SWAP1 POP JUMPDEST PUSH2 0xFB6 DUP6 DUP3 PUSH2 0xF38 JUMP JUMPDEST DUP7 SSTORE POP PUSH2 0x101E JUMP JUMPDEST PUSH1 0x1F NOT DUP5 AND PUSH2 0xFCC DUP7 PUSH2 0xDA8 JUMP JUMPDEST PUSH1 0x0 JUMPDEST DUP3 DUP2 LT ISZERO PUSH2 0xFF4 JUMPI DUP5 DUP10 ADD MLOAD DUP3 SSTORE PUSH1 0x1 DUP3 ADD SWAP2 POP PUSH1 0x20 DUP6 ADD SWAP5 POP PUSH1 0x20 DUP2 ADD SWAP1 POP PUSH2 0xFCF JUMP JUMPDEST DUP7 DUP4 LT ISZERO PUSH2 0x1011 JUMPI DUP5 DUP10 ADD MLOAD PUSH2 0x100D PUSH1 0x1F DUP10 AND DUP3 PUSH2 0xF1A JUMP JUMPDEST DUP4 SSTORE POP JUMPDEST PUSH1 0x1 PUSH1 0x2 DUP9 MUL ADD DUP9 SSTORE POP POP POP JUMPDEST POP POP POP POP POP POP JUMP JUMPDEST PUSH32 0x4E487B7100000000000000000000000000000000000000000000000000000000 PUSH1 0x0 MSTORE PUSH1 0x32 PUSH1 0x4 MSTORE PUSH1 0x24 PUSH1 0x0 REVERT INVALID LOG2 PUSH5 0x6970667358 0x22 SLT KECCAK256 0xA9 0xBD 0xEA 0xBB PUSH26 0xCD002D350361BE835A6E44058A0EB3E00AB034A845415DD221C8 MSIZE PUSH5 0x736F6C6343 STOP ADDMOD SLT STOP CALLER "
				},
				"gasEstimates": {
					"creation": {
						"codeDepositCost": "847000",
						"executionCost": "883",
						"totalCost": "847883"
					},
					"external": {
						"createPost(string,string)": "infinite",
						"getAllPosts(address)": "infinite",
						"getPost(uint256)": "infinite"
					}
				},
				"methodIdentifiers": {
					"createPost(string,string)": "392338f5",
					"getAllPosts(address)": "77d2765c",
					"getPost(uint256)": "40731c24"
				}
			},
			"storageLayout": {
				"storage": [
					{
						"astId": 24,
						"contract": "contracts/Blog-Modifiers.sol:Blog",
						"label": "posts",
						"offset": 0,
						"slot": "0",
						"type": "t_mapping(t_address,t_array(t_struct(Post)18_storage)dyn_storage)"
					}
				],
				"types": {
					"t_address": {
						"encoding": "inplace",
						"label": "address",
						"numberOfBytes": "20"
					},
					"t_array(t_struct(Post)18_storage)dyn_storage": {
						"base": "t_struct(Post)18_storage",
						"encoding": "dynamic_array",
						"label": "struct Blog.Post[]",
						"numberOfBytes": "32"
					},
					"t_mapping(t_address,t_array(t_struct(Post)18_storage)dyn_storage)": {
						"encoding": "mapping",
						"key": "t_address",
						"label": "mapping(address => struct Blog.Post[])",
						"numberOfBytes": "32",
						"value": "t_array(t_struct(Post)18_storage)dyn_storage"
					},
					"t_string_storage": {
						"encoding": "bytes",
						"label": "string",
						"numberOfBytes": "32"
					},
					"t_struct(Post)18_storage": {
						"encoding": "inplace",
						"label": "struct Blog.Post",
						"members": [
							{
								"astId": 9,
								"contract": "contracts/Blog-Modifiers.sol:Blog",
								"label": "author",
								"offset": 0,
								"slot": "0",
								"type": "t_address"
							},
							{
								"astId": 11,
								"contract": "contracts/Blog-Modifiers.sol:Blog",
								"label": "title",
								"offset": 0,
								"slot": "1",
								"type": "t_string_storage"
							},
							{
								"astId": 13,
								"contract": "contracts/Blog-Modifiers.sol:Blog",
								"label": "content",
								"offset": 0,
								"slot": "2",
								"type": "t_string_storage"
							},
							{
								"astId": 15,
								"contract": "contracts/Blog-Modifiers.sol:Blog",
								"label": "timestamp",
								"offset": 0,
								"slot": "3",
								"type": "t_uint256"
							},
							{
								"astId": 17,
								"contract": "contracts/Blog-Modifiers.sol:Blog",
								"label": "likes",
								"offset": 0,
								"slot": "4",
								"type": "t_uint256"
							}
						],
						"numberOfBytes": "160"
					},
					"t_uint256": {
						"encoding": "inplace",
						"label": "uint256",
						"numberOfBytes": "32"
					}
				}
			},
			"userdoc": {
				"kind": "user",
				"methods": {},
				"version": 1
			}
		}
	}
}