{
	"contracts/Blog.sol": {
		"Blog": {
			"abi": [
				{
					"anonymous": false,
					"inputs": [
						{
							"indexed": false,
							"internalType": "uint256",
							"name": "id",
							"type": "uint256"
						},
						{
							"indexed": false,
							"internalType": "address",
							"name": "author",
							"type": "address"
						},
						{
							"indexed": false,
							"internalType": "string",
							"name": "title",
							"type": "string"
						},
						{
							"indexed": false,
							"internalType": "string",
							"name": "content",
							"type": "string"
						},
						{
							"indexed": false,
							"internalType": "uint256",
							"name": "timestamp",
							"type": "uint256"
						}
					],
					"name": "postCreated",
					"type": "event"
				},
				{
					"anonymous": false,
					"inputs": [
						{
							"indexed": false,
							"internalType": "address",
							"name": "liker",
							"type": "address"
						},
						{
							"indexed": false,
							"internalType": "address",
							"name": "author",
							"type": "address"
						},
						{
							"indexed": false,
							"internalType": "uint256",
							"name": "id",
							"type": "uint256"
						},
						{
							"indexed": false,
							"internalType": "uint256",
							"name": "updatedLikeCount",
							"type": "uint256"
						}
					],
					"name": "postLiked",
					"type": "event"
				},
				{
					"anonymous": false,
					"inputs": [
						{
							"indexed": false,
							"internalType": "address",
							"name": "unliker",
							"type": "address"
						},
						{
							"indexed": false,
							"internalType": "address",
							"name": "author",
							"type": "address"
						},
						{
							"indexed": false,
							"internalType": "uint256",
							"name": "id",
							"type": "uint256"
						},
						{
							"indexed": false,
							"internalType": "uint256",
							"name": "updatedLikeCount",
							"type": "uint256"
						}
					],
					"name": "postUnliked",
					"type": "event"
				},
				{
					"inputs": [],
					"name": "MAX_CONTENT_LENGTH",
					"outputs": [
						{
							"internalType": "uint16",
							"name": "",
							"type": "uint16"
						}
					],
					"stateMutability": "view",
					"type": "function"
				},
				{
					"inputs": [
						{
							"internalType": "uint16",
							"name": "_newContentLength",
							"type": "uint16"
						}
					],
					"name": "changeContentLength",
					"outputs": [],
					"stateMutability": "nonpayable",
					"type": "function"
				},
				{
					"inputs": [
						{
							"internalType": "string",
							"name": "_title",
							"type": "string"
						},
						{
							"internalType": "string",
							"name": "_content",
							"type": "string"
						}
					],
					"name": "createPost",
					"outputs": [],
					"stateMutability": "nonpayable",
					"type": "function"
				},
				{
					"inputs": [
						{
							"internalType": "address",
							"name": "_owner",
							"type": "address"
						}
					],
					"name": "getAllPosts",
					"outputs": [
						{
							"components": [
								{
									"internalType": "uint256",
									"name": "id",
									"type": "uint256"
								},
								{
									"internalType": "address",
									"name": "author",
									"type": "address"
								},
								{
									"internalType": "string",
									"name": "title",
									"type": "string"
								},
								{
									"internalType": "string",
									"name": "content",
									"type": "string"
								},
								{
									"internalType": "uint256",
									"name": "timestamp",
									"type": "uint256"
								},
								{
									"internalType": "uint256",
									"name": "likes",
									"type": "uint256"
								}
							],
							"internalType": "struct Blog.Post[]",
							"name": "",
							"type": "tuple[]"
						}
					],
					"stateMutability": "view",
					"type": "function"
				},
				{
					"inputs": [
						{
							"internalType": "uint256",
							"name": "_i",
							"type": "uint256"
						}
					],
					"name": "getPost",
					"outputs": [
						{
							"components": [
								{
									"internalType": "uint256",
									"name": "id",
									"type": "uint256"
								},
								{
									"internalType": "address",
									"name": "author",
									"type": "address"
								},
								{
									"internalType": "string",
									"name": "title",
									"type": "string"
								},
								{
									"internalType": "string",
									"name": "content",
									"type": "string"
								},
								{
									"internalType": "uint256",
									"name": "timestamp",
									"type": "uint256"
								},
								{
									"internalType": "uint256",
									"name": "likes",
									"type": "uint256"
								}
							],
							"internalType": "struct Blog.Post",
							"name": "",
							"type": "tuple"
						}
					],
					"stateMutability": "view",
					"type": "function"
				},
				{
					"inputs": [
						{
							"internalType": "address",
							"name": "_postAuthor",
							"type": "address"
						},
						{
							"internalType": "uint256",
							"name": "_postId",
							"type": "uint256"
						}
					],
					"name": "likePost",
					"outputs": [],
					"stateMutability": "nonpayable",
					"type": "function"
				},
				{
					"inputs": [],
					"name": "owner",
					"outputs": [
						{
							"internalType": "address",
							"name": "",
							"type": "address"
						}
					],
					"stateMutability": "view",
					"type": "function"
				},
				{
					"inputs": [
						{
							"internalType": "address",
							"name": "_postAuthor",
							"type": "address"
						},
						{
							"internalType": "uint256",
							"name": "_postId",
							"type": "uint256"
						}
					],
					"name": "unlikeTweet",
					"outputs": [],
					"stateMutability": "nonpayable",
					"type": "function"
				}
			],
			"devdoc": {
				"kind": "dev",
				"methods": {},
				"version": 1
			},
			"evm": {
				"assembly": "    /* \"contracts/Blog.sol\":58:2514  contract Blog {... */\n  mstore(0x40, 0x80)\n    /* \"contracts/Blog.sol\":102:112  msg.sender */\n  caller\n    /* \"contracts/Blog.sol\":79:112  address public owner = msg.sender */\n  0x00\n  dup1\n  0x0100\n  exp\n  dup2\n  sload\n  dup2\n  0xffffffffffffffffffffffffffffffffffffffff\n  mul\n  not\n  and\n  swap1\n  dup4\n  0xffffffffffffffffffffffffffffffffffffffff\n  and\n  mul\n  or\n  swap1\n  sstore\n  pop\n    /* \"contracts/Blog.sol\":196:200  6000 */\n  0x1770\n    /* \"contracts/Blog.sol\":161:200  uint16 public MAX_CONTENT_LENGTH = 6000 */\n  0x00\n  exp(0x0100, 0x14)\n  dup2\n  sload\n  dup2\n  0xffff\n  mul\n  not\n  and\n  swap1\n  dup4\n  0xffff\n  and\n  mul\n  or\n  swap1\n  sstore\n  pop\n    /* \"contracts/Blog.sol\":58:2514  contract Blog {... */\n  callvalue\n  dup1\n  iszero\n  tag_1\n  jumpi\n  0x00\n  dup1\n  revert\ntag_1:\n  pop\n  dataSize(sub_0)\n  dup1\n  dataOffset(sub_0)\n  0x00\n  codecopy\n  0x00\n  return\nstop\n\nsub_0: assembly {\n        /* \"contracts/Blog.sol\":58:2514  contract Blog {... */\n      mstore(0x40, 0x80)\n      callvalue\n      dup1\n      iszero\n      tag_1\n      jumpi\n      0x00\n      dup1\n      revert\n    tag_1:\n      pop\n      jumpi(tag_2, lt(calldatasize, 0x04))\n      shr(0xe0, calldataload(0x00))\n      dup1\n      0x48351529\n      gt\n      tag_11\n      jumpi\n      dup1\n      0x48351529\n      eq\n      tag_7\n      jumpi\n      dup1\n      0x77d2765c\n      eq\n      tag_8\n      jumpi\n      dup1\n      0x8da5cb5b\n      eq\n      tag_9\n      jumpi\n      dup1\n      0xfd6a99e1\n      eq\n      tag_10\n      jumpi\n      jump(tag_2)\n    tag_11:\n      dup1\n      0x05b746b5\n      eq\n      tag_3\n      jumpi\n      dup1\n      0x392338f5\n      eq\n      tag_4\n      jumpi\n      dup1\n      0x3d9b569f\n      eq\n      tag_5\n      jumpi\n      dup1\n      0x40731c24\n      eq\n      tag_6\n      jumpi\n    tag_2:\n      0x00\n      dup1\n      revert\n        /* \"contracts/Blog.sol\":161:200  uint16 public MAX_CONTENT_LENGTH = 6000 */\n    tag_3:\n      tag_12\n      tag_13\n      jump\t// in\n    tag_12:\n      mload(0x40)\n      tag_14\n      swap2\n      swap1\n      tag_15\n      jump\t// in\n    tag_14:\n      mload(0x40)\n      dup1\n      swap2\n      sub\n      swap1\n      return\n        /* \"contracts/Blog.sol\":960:1590  function createPost(string memory _title, string memory _content) public {... */\n    tag_4:\n      tag_16\n      0x04\n      dup1\n      calldatasize\n      sub\n      dup2\n      add\n      swap1\n      tag_17\n      swap2\n      swap1\n      tag_18\n      jump\t// in\n    tag_17:\n      tag_19\n      jump\t// in\n    tag_16:\n      stop\n        /* \"contracts/Blog.sol\":1898:2284  function unlikeTweet(address _postAuthor, uint256 _postId) external {... */\n    tag_5:\n      tag_20\n      0x04\n      dup1\n      calldatasize\n      sub\n      dup2\n      add\n      swap1\n      tag_21\n      swap2\n      swap1\n      tag_22\n      jump\t// in\n    tag_21:\n      tag_23\n      jump\t// in\n    tag_20:\n      stop\n        /* \"contracts/Blog.sol\":2290:2395  function getPost(uint _i) public view returns (Post memory) {... */\n    tag_6:\n      tag_24\n      0x04\n      dup1\n      calldatasize\n      sub\n      dup2\n      add\n      swap1\n      tag_25\n      swap2\n      swap1\n      tag_26\n      jump\t// in\n    tag_25:\n      tag_27\n      jump\t// in\n    tag_24:\n      mload(0x40)\n      tag_28\n      swap2\n      swap1\n      tag_29\n      jump\t// in\n    tag_28:\n      mload(0x40)\n      dup1\n      swap2\n      sub\n      swap1\n      return\n        /* \"contracts/Blog.sol\":1596:1892  function likePost(address _postAuthor, uint256 _postId) external {... */\n    tag_7:\n      tag_30\n      0x04\n      dup1\n      calldatasize\n      sub\n      dup2\n      add\n      swap1\n      tag_31\n      swap2\n      swap1\n      tag_22\n      jump\t// in\n    tag_31:\n      tag_32\n      jump\t// in\n    tag_30:\n      stop\n        /* \"contracts/Blog.sol\":2401:2511  function getAllPosts(address _owner) public view returns (Post[] memory) {... */\n    tag_8:\n      tag_33\n      0x04\n      dup1\n      calldatasize\n      sub\n      dup2\n      add\n      swap1\n      tag_34\n      swap2\n      swap1\n      tag_35\n      jump\t// in\n    tag_34:\n      tag_36\n      jump\t// in\n    tag_33:\n      mload(0x40)\n      tag_37\n      swap2\n      swap1\n      tag_38\n      jump\t// in\n    tag_37:\n      mload(0x40)\n      dup1\n      swap2\n      sub\n      swap1\n      return\n        /* \"contracts/Blog.sol\":79:112  address public owner = msg.sender */\n    tag_9:\n      tag_39\n      tag_40\n      jump\t// in\n    tag_39:\n      mload(0x40)\n      tag_41\n      swap2\n      swap1\n      tag_42\n      jump\t// in\n    tag_41:\n      mload(0x40)\n      dup1\n      swap2\n      sub\n      swap1\n      return\n        /* \"contracts/Blog.sol\":827:954  function changeContentLength(uint16 _newContentLength) public onlyOwner {... */\n    tag_10:\n      tag_43\n      0x04\n      dup1\n      calldatasize\n      sub\n      dup2\n      add\n      swap1\n      tag_44\n      swap2\n      swap1\n      tag_45\n      jump\t// in\n    tag_44:\n      tag_46\n      jump\t// in\n    tag_43:\n      stop\n        /* \"contracts/Blog.sol\":161:200  uint16 public MAX_CONTENT_LENGTH = 6000 */\n    tag_13:\n      0x00\n      0x14\n      swap1\n      sload\n      swap1\n      0x0100\n      exp\n      swap1\n      div\n      0xffff\n      and\n      dup2\n      jump\t// out\n        /* \"contracts/Blog.sol\":960:1590  function createPost(string memory _title, string memory _content) public {... */\n    tag_19:\n        /* \"contracts/Blog.sol\":152:155  128 */\n      0x80\n        /* \"contracts/Blog.sol\":1051:1091  bytes(_title).length <= MAX_TITLE_LENGTH */\n      0xff\n      and\n        /* \"contracts/Blog.sol\":1057:1063  _title */\n      dup3\n        /* \"contracts/Blog.sol\":1051:1071  bytes(_title).length */\n      mload\n        /* \"contracts/Blog.sol\":1051:1091  bytes(_title).length <= MAX_TITLE_LENGTH */\n      gt\n      iszero\n        /* \"contracts/Blog.sol\":1043:1110  require(bytes(_title).length <= MAX_TITLE_LENGTH, \"Title too long\") */\n      tag_48\n      jumpi\n      mload(0x40)\n      0x08c379a000000000000000000000000000000000000000000000000000000000\n      dup2\n      mstore\n      0x04\n      add\n      tag_49\n      swap1\n      tag_50\n      jump\t// in\n    tag_49:\n      mload(0x40)\n      dup1\n      swap2\n      sub\n      swap1\n      revert\n    tag_48:\n        /* \"contracts/Blog.sol\":1154:1172  MAX_CONTENT_LENGTH */\n      0x00\n      0x14\n      swap1\n      sload\n      swap1\n      0x0100\n      exp\n      swap1\n      div\n      0xffff\n      and\n        /* \"contracts/Blog.sol\":1128:1172  bytes(_content).length <= MAX_CONTENT_LENGTH */\n      0xffff\n      and\n        /* \"contracts/Blog.sol\":1134:1142  _content */\n      dup2\n        /* \"contracts/Blog.sol\":1128:1150  bytes(_content).length */\n      mload\n        /* \"contracts/Blog.sol\":1128:1172  bytes(_content).length <= MAX_CONTENT_LENGTH */\n      gt\n      iszero\n        /* \"contracts/Blog.sol\":1120:1193  require(bytes(_content).length <= MAX_CONTENT_LENGTH, \"Content too long\") */\n      tag_51\n      jumpi\n      mload(0x40)\n      0x08c379a000000000000000000000000000000000000000000000000000000000\n      dup2\n      mstore\n      0x04\n      add\n      tag_52\n      swap1\n      tag_53\n      jump\t// in\n    tag_52:\n      mload(0x40)\n      dup1\n      swap2\n      sub\n      swap1\n      revert\n    tag_51:\n        /* \"contracts/Blog.sol\":1203:1222  Post memory newPost */\n      0x00\n        /* \"contracts/Blog.sol\":1225:1435  Post({... */\n      mload(0x40)\n      dup1\n      0xc0\n      add\n      0x40\n      mstore\n      dup1\n        /* \"contracts/Blog.sol\":1248:1253  posts */\n      0x01\n        /* \"contracts/Blog.sol\":1248:1265  posts[msg.sender] */\n      0x00\n        /* \"contracts/Blog.sol\":1254:1264  msg.sender */\n      caller\n        /* \"contracts/Blog.sol\":1248:1265  posts[msg.sender] */\n      0xffffffffffffffffffffffffffffffffffffffff\n      and\n      0xffffffffffffffffffffffffffffffffffffffff\n      and\n      dup2\n      mstore\n      0x20\n      add\n      swap1\n      dup2\n      mstore\n      0x20\n      add\n      0x00\n      keccak256\n        /* \"contracts/Blog.sol\":1248:1272  posts[msg.sender].length */\n      dup1\n      sload\n      swap1\n      pop\n        /* \"contracts/Blog.sol\":1225:1435  Post({... */\n      dup2\n      mstore\n      0x20\n      add\n        /* \"contracts/Blog.sol\":1294:1304  msg.sender */\n      caller\n        /* \"contracts/Blog.sol\":1225:1435  Post({... */\n      0xffffffffffffffffffffffffffffffffffffffff\n      and\n      dup2\n      mstore\n      0x20\n      add\n        /* \"contracts/Blog.sol\":1325:1331  _title */\n      dup5\n        /* \"contracts/Blog.sol\":1225:1435  Post({... */\n      dup2\n      mstore\n      0x20\n      add\n        /* \"contracts/Blog.sol\":1354:1362  _content */\n      dup4\n        /* \"contracts/Blog.sol\":1225:1435  Post({... */\n      dup2\n      mstore\n      0x20\n      add\n        /* \"contracts/Blog.sol\":1387:1402  block.timestamp */\n      timestamp\n        /* \"contracts/Blog.sol\":1225:1435  Post({... */\n      dup2\n      mstore\n      0x20\n      add\n        /* \"contracts/Blog.sol\":1423:1424  0 */\n      0x00\n        /* \"contracts/Blog.sol\":1225:1435  Post({... */\n      dup2\n      mstore\n      pop\n        /* \"contracts/Blog.sol\":1203:1435  Post memory newPost = Post({... */\n      swap1\n      pop\n        /* \"contracts/Blog.sol\":1446:1451  posts */\n      0x01\n        /* \"contracts/Blog.sol\":1446:1463  posts[msg.sender] */\n      0x00\n        /* \"contracts/Blog.sol\":1452:1462  msg.sender */\n      caller\n        /* \"contracts/Blog.sol\":1446:1463  posts[msg.sender] */\n      0xffffffffffffffffffffffffffffffffffffffff\n      and\n      0xffffffffffffffffffffffffffffffffffffffff\n      and\n      dup2\n      mstore\n      0x20\n      add\n      swap1\n      dup2\n      mstore\n      0x20\n      add\n      0x00\n      keccak256\n        /* \"contracts/Blog.sol\":1469:1476  newPost */\n      dup2\n        /* \"contracts/Blog.sol\":1446:1477  posts[msg.sender].push(newPost) */\n      swap1\n      dup1\n      0x01\n      dup2\n      sload\n      add\n      dup1\n      dup3\n      sstore\n      dup1\n      swap2\n      pop\n      pop\n      0x01\n      swap1\n      sub\n      swap1\n      0x00\n      mstore\n      keccak256(0x00, 0x20)\n      swap1\n      0x06\n      mul\n      add\n      0x00\n      swap1\n      swap2\n      swap1\n      swap2\n      swap1\n      swap2\n      pop\n      0x00\n      dup3\n      add\n      mload\n      dup2\n      0x00\n      add\n      sstore\n      0x20\n      dup3\n      add\n      mload\n      dup2\n      0x01\n      add\n      exp(0x0100, 0x00)\n      dup2\n      sload\n      dup2\n      0xffffffffffffffffffffffffffffffffffffffff\n      mul\n      not\n      and\n      swap1\n      dup4\n      0xffffffffffffffffffffffffffffffffffffffff\n      and\n      mul\n      or\n      swap1\n      sstore\n      pop\n      0x40\n      dup3\n      add\n      mload\n      dup2\n      0x02\n      add\n      swap1\n      dup2\n      tag_55\n      swap2\n      swap1\n      tag_56\n      jump\t// in\n    tag_55:\n      pop\n      0x60\n      dup3\n      add\n      mload\n      dup2\n      0x03\n      add\n      swap1\n      dup2\n      tag_57\n      swap2\n      swap1\n      tag_56\n      jump\t// in\n    tag_57:\n      pop\n      0x80\n      dup3\n      add\n      mload\n      dup2\n      0x04\n      add\n      sstore\n      0xa0\n      dup3\n      add\n      mload\n      dup2\n      0x05\n      add\n      sstore\n      pop\n      pop\n        /* \"contracts/Blog.sol\":1493:1583  postCreated(newPost.id, newPost.author, newPost.title, newPost.content, newPost.timestamp) */\n      0x2b6cae02a15b5ee74819f9c8e468f6b572a98fd4f0b9362d82ed75905f6d4a99\n        /* \"contracts/Blog.sol\":1505:1512  newPost */\n      dup2\n        /* \"contracts/Blog.sol\":1505:1515  newPost.id */\n      0x00\n      add\n      mload\n        /* \"contracts/Blog.sol\":1517:1524  newPost */\n      dup3\n        /* \"contracts/Blog.sol\":1517:1531  newPost.author */\n      0x20\n      add\n      mload\n        /* \"contracts/Blog.sol\":1533:1540  newPost */\n      dup4\n        /* \"contracts/Blog.sol\":1533:1546  newPost.title */\n      0x40\n      add\n      mload\n        /* \"contracts/Blog.sol\":1548:1555  newPost */\n      dup5\n        /* \"contracts/Blog.sol\":1548:1563  newPost.content */\n      0x60\n      add\n      mload\n        /* \"contracts/Blog.sol\":1565:1572  newPost */\n      dup6\n        /* \"contracts/Blog.sol\":1565:1582  newPost.timestamp */\n      0x80\n      add\n      mload\n        /* \"contracts/Blog.sol\":1493:1583  postCreated(newPost.id, newPost.author, newPost.title, newPost.content, newPost.timestamp) */\n      mload(0x40)\n      tag_58\n      swap6\n      swap5\n      swap4\n      swap3\n      swap2\n      swap1\n      tag_59\n      jump\t// in\n    tag_58:\n      mload(0x40)\n      dup1\n      swap2\n      sub\n      swap1\n      log1\n        /* \"contracts/Blog.sol\":1033:1590  {... */\n      pop\n        /* \"contracts/Blog.sol\":960:1590  function createPost(string memory _title, string memory _content) public {... */\n      pop\n      pop\n      jump\t// out\n        /* \"contracts/Blog.sol\":1898:2284  function unlikeTweet(address _postAuthor, uint256 _postId) external {... */\n    tag_23:\n        /* \"contracts/Blog.sol\":2018:2025  _postId */\n      dup1\n        /* \"contracts/Blog.sol\":1984:1989  posts */\n      0x01\n        /* \"contracts/Blog.sol\":1984:2002  posts[_postAuthor] */\n      0x00\n        /* \"contracts/Blog.sol\":1990:2001  _postAuthor */\n      dup5\n        /* \"contracts/Blog.sol\":1984:2002  posts[_postAuthor] */\n      0xffffffffffffffffffffffffffffffffffffffff\n      and\n      0xffffffffffffffffffffffffffffffffffffffff\n      and\n      dup2\n      mstore\n      0x20\n      add\n      swap1\n      dup2\n      mstore\n      0x20\n      add\n      0x00\n      keccak256\n        /* \"contracts/Blog.sol\":2003:2010  _postId */\n      dup3\n        /* \"contracts/Blog.sol\":1984:2011  posts[_postAuthor][_postId] */\n      dup2\n      sload\n      dup2\n      lt\n      tag_61\n      jumpi\n      tag_62\n      tag_63\n      jump\t// in\n    tag_62:\n    tag_61:\n      swap1\n      0x00\n      mstore\n      keccak256(0x00, 0x20)\n      swap1\n      0x06\n      mul\n      add\n        /* \"contracts/Blog.sol\":1984:2014  posts[_postAuthor][_postId].id */\n      0x00\n      add\n      sload\n        /* \"contracts/Blog.sol\":1984:2025  posts[_postAuthor][_postId].id == _postId */\n      eq\n        /* \"contracts/Blog.sol\":1976:2049  require(posts[_postAuthor][_postId].id == _postId, \"Post does not exist\") */\n      tag_65\n      jumpi\n      mload(0x40)\n      0x08c379a000000000000000000000000000000000000000000000000000000000\n      dup2\n      mstore\n      0x04\n      add\n      tag_66\n      swap1\n      tag_67\n      jump\t// in\n    tag_66:\n      mload(0x40)\n      dup1\n      swap2\n      sub\n      swap1\n      revert\n    tag_65:\n        /* \"contracts/Blog.sol\":2103:2104  0 */\n      0x00\n        /* \"contracts/Blog.sol\":2067:2072  posts */\n      0x01\n        /* \"contracts/Blog.sol\":2067:2085  posts[_postAuthor] */\n      0x00\n        /* \"contracts/Blog.sol\":2073:2084  _postAuthor */\n      dup5\n        /* \"contracts/Blog.sol\":2067:2085  posts[_postAuthor] */\n      0xffffffffffffffffffffffffffffffffffffffff\n      and\n      0xffffffffffffffffffffffffffffffffffffffff\n      and\n      dup2\n      mstore\n      0x20\n      add\n      swap1\n      dup2\n      mstore\n      0x20\n      add\n      0x00\n      keccak256\n        /* \"contracts/Blog.sol\":2086:2093  _postId */\n      dup3\n        /* \"contracts/Blog.sol\":2067:2094  posts[_postAuthor][_postId] */\n      dup2\n      sload\n      dup2\n      lt\n      tag_68\n      jumpi\n      tag_69\n      tag_63\n      jump\t// in\n    tag_69:\n    tag_68:\n      swap1\n      0x00\n      mstore\n      keccak256(0x00, 0x20)\n      swap1\n      0x06\n      mul\n      add\n        /* \"contracts/Blog.sol\":2067:2100  posts[_postAuthor][_postId].likes */\n      0x05\n      add\n      sload\n        /* \"contracts/Blog.sol\":2067:2104  posts[_postAuthor][_postId].likes > 0 */\n      gt\n        /* \"contracts/Blog.sol\":2059:2134  require(posts[_postAuthor][_postId].likes > 0, \"Can't have negative likes\") */\n      tag_71\n      jumpi\n      mload(0x40)\n      0x08c379a000000000000000000000000000000000000000000000000000000000\n      dup2\n      mstore\n      0x04\n      add\n      tag_72\n      swap1\n      tag_73\n      jump\t// in\n    tag_72:\n      mload(0x40)\n      dup1\n      swap2\n      sub\n      swap1\n      revert\n    tag_71:\n        /* \"contracts/Blog.sol\":2181:2182  1 */\n      0x01\n        /* \"contracts/Blog.sol\":2144:2149  posts */\n      dup1\n        /* \"contracts/Blog.sol\":2144:2162  posts[_postAuthor] */\n      0x00\n        /* \"contracts/Blog.sol\":2150:2161  _postAuthor */\n      dup5\n        /* \"contracts/Blog.sol\":2144:2162  posts[_postAuthor] */\n      0xffffffffffffffffffffffffffffffffffffffff\n      and\n      0xffffffffffffffffffffffffffffffffffffffff\n      and\n      dup2\n      mstore\n      0x20\n      add\n      swap1\n      dup2\n      mstore\n      0x20\n      add\n      0x00\n      keccak256\n        /* \"contracts/Blog.sol\":2163:2170  _postId */\n      dup3\n        /* \"contracts/Blog.sol\":2144:2171  posts[_postAuthor][_postId] */\n      dup2\n      sload\n      dup2\n      lt\n      tag_74\n      jumpi\n      tag_75\n      tag_63\n      jump\t// in\n    tag_75:\n    tag_74:\n      swap1\n      0x00\n      mstore\n      keccak256(0x00, 0x20)\n      swap1\n      0x06\n      mul\n      add\n        /* \"contracts/Blog.sol\":2144:2177  posts[_postAuthor][_postId].likes */\n      0x05\n      add\n      0x00\n        /* \"contracts/Blog.sol\":2144:2182  posts[_postAuthor][_postId].likes -= 1 */\n      dup3\n      dup3\n      sload\n      tag_77\n      swap2\n      swap1\n      tag_78\n      jump\t// in\n    tag_77:\n      swap3\n      pop\n      pop\n      dup2\n      swap1\n      sstore\n      pop\n        /* \"contracts/Blog.sol\":2197:2277  postUnliked(msg.sender, _postAuthor, _postId, posts[_postAuthor][_postId].likes) */\n      0x5e0b23ba82f9ea54c1390e155aa97d8ee1a3a5623b9bc0793c5809b8908bc995\n        /* \"contracts/Blog.sol\":2209:2219  msg.sender */\n      caller\n        /* \"contracts/Blog.sol\":2221:2232  _postAuthor */\n      dup4\n        /* \"contracts/Blog.sol\":2234:2241  _postId */\n      dup4\n        /* \"contracts/Blog.sol\":2243:2248  posts */\n      0x01\n        /* \"contracts/Blog.sol\":2243:2261  posts[_postAuthor] */\n      0x00\n        /* \"contracts/Blog.sol\":2249:2260  _postAuthor */\n      dup8\n        /* \"contracts/Blog.sol\":2243:2261  posts[_postAuthor] */\n      0xffffffffffffffffffffffffffffffffffffffff\n      and\n      0xffffffffffffffffffffffffffffffffffffffff\n      and\n      dup2\n      mstore\n      0x20\n      add\n      swap1\n      dup2\n      mstore\n      0x20\n      add\n      0x00\n      keccak256\n        /* \"contracts/Blog.sol\":2262:2269  _postId */\n      dup6\n        /* \"contracts/Blog.sol\":2243:2270  posts[_postAuthor][_postId] */\n      dup2\n      sload\n      dup2\n      lt\n      tag_79\n      jumpi\n      tag_80\n      tag_63\n      jump\t// in\n    tag_80:\n    tag_79:\n      swap1\n      0x00\n      mstore\n      keccak256(0x00, 0x20)\n      swap1\n      0x06\n      mul\n      add\n        /* \"contracts/Blog.sol\":2243:2276  posts[_postAuthor][_postId].likes */\n      0x05\n      add\n      sload\n        /* \"contracts/Blog.sol\":2197:2277  postUnliked(msg.sender, _postAuthor, _postId, posts[_postAuthor][_postId].likes) */\n      mload(0x40)\n      tag_82\n      swap5\n      swap4\n      swap3\n      swap2\n      swap1\n      tag_83\n      jump\t// in\n    tag_82:\n      mload(0x40)\n      dup1\n      swap2\n      sub\n      swap1\n      log1\n        /* \"contracts/Blog.sol\":1898:2284  function unlikeTweet(address _postAuthor, uint256 _postId) external {... */\n      pop\n      pop\n      jump\t// out\n        /* \"contracts/Blog.sol\":2290:2395  function getPost(uint _i) public view returns (Post memory) {... */\n    tag_27:\n        /* \"contracts/Blog.sol\":2337:2348  Post memory */\n      tag_84\n      tag_85\n      jump\t// in\n    tag_84:\n        /* \"contracts/Blog.sol\":2367:2372  posts */\n      0x01\n        /* \"contracts/Blog.sol\":2367:2384  posts[msg.sender] */\n      0x00\n        /* \"contracts/Blog.sol\":2373:2383  msg.sender */\n      caller\n        /* \"contracts/Blog.sol\":2367:2384  posts[msg.sender] */\n      0xffffffffffffffffffffffffffffffffffffffff\n      and\n      0xffffffffffffffffffffffffffffffffffffffff\n      and\n      dup2\n      mstore\n      0x20\n      add\n      swap1\n      dup2\n      mstore\n      0x20\n      add\n      0x00\n      keccak256\n        /* \"contracts/Blog.sol\":2385:2387  _i */\n      dup3\n        /* \"contracts/Blog.sol\":2367:2388  posts[msg.sender][_i] */\n      dup2\n      sload\n      dup2\n      lt\n      tag_87\n      jumpi\n      tag_88\n      tag_63\n      jump\t// in\n    tag_88:\n    tag_87:\n      swap1\n      0x00\n      mstore\n      keccak256(0x00, 0x20)\n      swap1\n      0x06\n      mul\n      add\n        /* \"contracts/Blog.sol\":2360:2388  return posts[msg.sender][_i] */\n      mload(0x40)\n      dup1\n      0xc0\n      add\n      0x40\n      mstore\n      swap1\n      dup2\n      0x00\n      dup3\n      add\n      sload\n      dup2\n      mstore\n      0x20\n      add\n      0x01\n      dup3\n      add\n      0x00\n      swap1\n      sload\n      swap1\n      0x0100\n      exp\n      swap1\n      div\n      0xffffffffffffffffffffffffffffffffffffffff\n      and\n      0xffffffffffffffffffffffffffffffffffffffff\n      and\n      0xffffffffffffffffffffffffffffffffffffffff\n      and\n      dup2\n      mstore\n      0x20\n      add\n      0x02\n      dup3\n      add\n      dup1\n      sload\n      tag_90\n      swap1\n      tag_91\n      jump\t// in\n    tag_90:\n      dup1\n      0x1f\n      add\n      0x20\n      dup1\n      swap2\n      div\n      mul\n      0x20\n      add\n      mload(0x40)\n      swap1\n      dup2\n      add\n      0x40\n      mstore\n      dup1\n      swap3\n      swap2\n      swap1\n      dup2\n      dup2\n      mstore\n      0x20\n      add\n      dup3\n      dup1\n      sload\n      tag_92\n      swap1\n      tag_91\n      jump\t// in\n    tag_92:\n      dup1\n      iszero\n      tag_93\n      jumpi\n      dup1\n      0x1f\n      lt\n      tag_94\n      jumpi\n      0x0100\n      dup1\n      dup4\n      sload\n      div\n      mul\n      dup4\n      mstore\n      swap2\n      0x20\n      add\n      swap2\n      jump(tag_93)\n    tag_94:\n      dup3\n      add\n      swap2\n      swap1\n      0x00\n      mstore\n      keccak256(0x00, 0x20)\n      swap1\n    tag_95:\n      dup2\n      sload\n      dup2\n      mstore\n      swap1\n      0x01\n      add\n      swap1\n      0x20\n      add\n      dup1\n      dup4\n      gt\n      tag_95\n      jumpi\n      dup3\n      swap1\n      sub\n      0x1f\n      and\n      dup3\n      add\n      swap2\n    tag_93:\n      pop\n      pop\n      pop\n      pop\n      pop\n      dup2\n      mstore\n      0x20\n      add\n      0x03\n      dup3\n      add\n      dup1\n      sload\n      tag_96\n      swap1\n      tag_91\n      jump\t// in\n    tag_96:\n      dup1\n      0x1f\n      add\n      0x20\n      dup1\n      swap2\n      div\n      mul\n      0x20\n      add\n      mload(0x40)\n      swap1\n      dup2\n      add\n      0x40\n      mstore\n      dup1\n      swap3\n      swap2\n      swap1\n      dup2\n      dup2\n      mstore\n      0x20\n      add\n      dup3\n      dup1\n      sload\n      tag_97\n      swap1\n      tag_91\n      jump\t// in\n    tag_97:\n      dup1\n      iszero\n      tag_98\n      jumpi\n      dup1\n      0x1f\n      lt\n      tag_99\n      jumpi\n      0x0100\n      dup1\n      dup4\n      sload\n      div\n      mul\n      dup4\n      mstore\n      swap2\n      0x20\n      add\n      swap2\n      jump(tag_98)\n    tag_99:\n      dup3\n      add\n      swap2\n      swap1\n      0x00\n      mstore\n      keccak256(0x00, 0x20)\n      swap1\n    tag_100:\n      dup2\n      sload\n      dup2\n      mstore\n      swap1\n      0x01\n      add\n      swap1\n      0x20\n      add\n      dup1\n      dup4\n      gt\n      tag_100\n      jumpi\n      dup3\n      swap1\n      sub\n      0x1f\n      and\n      dup3\n      add\n      swap2\n    tag_98:\n      pop\n      pop\n      pop\n      pop\n      pop\n      dup2\n      mstore\n      0x20\n      add\n      0x04\n      dup3\n      add\n      sload\n      dup2\n      mstore\n      0x20\n      add\n      0x05\n      dup3\n      add\n      sload\n      dup2\n      mstore\n      pop\n      pop\n      swap1\n      pop\n        /* \"contracts/Blog.sol\":2290:2395  function getPost(uint _i) public view returns (Post memory) {... */\n      swap2\n      swap1\n      pop\n      jump\t// out\n        /* \"contracts/Blog.sol\":1596:1892  function likePost(address _postAuthor, uint256 _postId) external {... */\n    tag_32:\n        /* \"contracts/Blog.sol\":1713:1720  _postId */\n      dup1\n        /* \"contracts/Blog.sol\":1679:1684  posts */\n      0x01\n        /* \"contracts/Blog.sol\":1679:1697  posts[_postAuthor] */\n      0x00\n        /* \"contracts/Blog.sol\":1685:1696  _postAuthor */\n      dup5\n        /* \"contracts/Blog.sol\":1679:1697  posts[_postAuthor] */\n      0xffffffffffffffffffffffffffffffffffffffff\n      and\n      0xffffffffffffffffffffffffffffffffffffffff\n      and\n      dup2\n      mstore\n      0x20\n      add\n      swap1\n      dup2\n      mstore\n      0x20\n      add\n      0x00\n      keccak256\n        /* \"contracts/Blog.sol\":1698:1705  _postId */\n      dup3\n        /* \"contracts/Blog.sol\":1679:1706  posts[_postAuthor][_postId] */\n      dup2\n      sload\n      dup2\n      lt\n      tag_102\n      jumpi\n      tag_103\n      tag_63\n      jump\t// in\n    tag_103:\n    tag_102:\n      swap1\n      0x00\n      mstore\n      keccak256(0x00, 0x20)\n      swap1\n      0x06\n      mul\n      add\n        /* \"contracts/Blog.sol\":1679:1709  posts[_postAuthor][_postId].id */\n      0x00\n      add\n      sload\n        /* \"contracts/Blog.sol\":1679:1720  posts[_postAuthor][_postId].id == _postId */\n      eq\n        /* \"contracts/Blog.sol\":1671:1744  require(posts[_postAuthor][_postId].id == _postId, \"Post does not exist\") */\n      tag_105\n      jumpi\n      mload(0x40)\n      0x08c379a000000000000000000000000000000000000000000000000000000000\n      dup2\n      mstore\n      0x04\n      add\n      tag_106\n      swap1\n      tag_67\n      jump\t// in\n    tag_106:\n      mload(0x40)\n      dup1\n      swap2\n      sub\n      swap1\n      revert\n    tag_105:\n        /* \"contracts/Blog.sol\":1791:1792  1 */\n      0x01\n        /* \"contracts/Blog.sol\":1754:1759  posts */\n      dup1\n        /* \"contracts/Blog.sol\":1754:1772  posts[_postAuthor] */\n      0x00\n        /* \"contracts/Blog.sol\":1760:1771  _postAuthor */\n      dup5\n        /* \"contracts/Blog.sol\":1754:1772  posts[_postAuthor] */\n      0xffffffffffffffffffffffffffffffffffffffff\n      and\n      0xffffffffffffffffffffffffffffffffffffffff\n      and\n      dup2\n      mstore\n      0x20\n      add\n      swap1\n      dup2\n      mstore\n      0x20\n      add\n      0x00\n      keccak256\n        /* \"contracts/Blog.sol\":1773:1780  _postId */\n      dup3\n        /* \"contracts/Blog.sol\":1754:1781  posts[_postAuthor][_postId] */\n      dup2\n      sload\n      dup2\n      lt\n      tag_107\n      jumpi\n      tag_108\n      tag_63\n      jump\t// in\n    tag_108:\n    tag_107:\n      swap1\n      0x00\n      mstore\n      keccak256(0x00, 0x20)\n      swap1\n      0x06\n      mul\n      add\n        /* \"contracts/Blog.sol\":1754:1787  posts[_postAuthor][_postId].likes */\n      0x05\n      add\n      0x00\n        /* \"contracts/Blog.sol\":1754:1792  posts[_postAuthor][_postId].likes += 1 */\n      dup3\n      dup3\n      sload\n      tag_110\n      swap2\n      swap1\n      tag_111\n      jump\t// in\n    tag_110:\n      swap3\n      pop\n      pop\n      dup2\n      swap1\n      sstore\n      pop\n        /* \"contracts/Blog.sol\":1807:1885  postLiked(msg.sender, _postAuthor, _postId, posts[_postAuthor][_postId].likes) */\n      0x7866ff14296d8c0b4cf1aa44019677dc8f85222ce3b679817c3d9e8f530ff544\n        /* \"contracts/Blog.sol\":1817:1827  msg.sender */\n      caller\n        /* \"contracts/Blog.sol\":1829:1840  _postAuthor */\n      dup4\n        /* \"contracts/Blog.sol\":1842:1849  _postId */\n      dup4\n        /* \"contracts/Blog.sol\":1851:1856  posts */\n      0x01\n        /* \"contracts/Blog.sol\":1851:1869  posts[_postAuthor] */\n      0x00\n        /* \"contracts/Blog.sol\":1857:1868  _postAuthor */\n      dup8\n        /* \"contracts/Blog.sol\":1851:1869  posts[_postAuthor] */\n      0xffffffffffffffffffffffffffffffffffffffff\n      and\n      0xffffffffffffffffffffffffffffffffffffffff\n      and\n      dup2\n      mstore\n      0x20\n      add\n      swap1\n      dup2\n      mstore\n      0x20\n      add\n      0x00\n      keccak256\n        /* \"contracts/Blog.sol\":1870:1877  _postId */\n      dup6\n        /* \"contracts/Blog.sol\":1851:1878  posts[_postAuthor][_postId] */\n      dup2\n      sload\n      dup2\n      lt\n      tag_112\n      jumpi\n      tag_113\n      tag_63\n      jump\t// in\n    tag_113:\n    tag_112:\n      swap1\n      0x00\n      mstore\n      keccak256(0x00, 0x20)\n      swap1\n      0x06\n      mul\n      add\n        /* \"contracts/Blog.sol\":1851:1884  posts[_postAuthor][_postId].likes */\n      0x05\n      add\n      sload\n        /* \"contracts/Blog.sol\":1807:1885  postLiked(msg.sender, _postAuthor, _postId, posts[_postAuthor][_postId].likes) */\n      mload(0x40)\n      tag_115\n      swap5\n      swap4\n      swap3\n      swap2\n      swap1\n      tag_83\n      jump\t// in\n    tag_115:\n      mload(0x40)\n      dup1\n      swap2\n      sub\n      swap1\n      log1\n        /* \"contracts/Blog.sol\":1596:1892  function likePost(address _postAuthor, uint256 _postId) external {... */\n      pop\n      pop\n      jump\t// out\n        /* \"contracts/Blog.sol\":2401:2511  function getAllPosts(address _owner) public view returns (Post[] memory) {... */\n    tag_36:\n        /* \"contracts/Blog.sol\":2459:2472  Post[] memory */\n      0x60\n        /* \"contracts/Blog.sol\":2491:2496  posts */\n      0x01\n        /* \"contracts/Blog.sol\":2491:2504  posts[_owner] */\n      0x00\n        /* \"contracts/Blog.sol\":2497:2503  _owner */\n      dup4\n        /* \"contracts/Blog.sol\":2491:2504  posts[_owner] */\n      0xffffffffffffffffffffffffffffffffffffffff\n      and\n      0xffffffffffffffffffffffffffffffffffffffff\n      and\n      dup2\n      mstore\n      0x20\n      add\n      swap1\n      dup2\n      mstore\n      0x20\n      add\n      0x00\n      keccak256\n        /* \"contracts/Blog.sol\":2484:2504  return posts[_owner] */\n      dup1\n      sload\n      dup1\n      0x20\n      mul\n      0x20\n      add\n      mload(0x40)\n      swap1\n      dup2\n      add\n      0x40\n      mstore\n      dup1\n      swap3\n      swap2\n      swap1\n      dup2\n      dup2\n      mstore\n      0x20\n      add\n      0x00\n      swap1\n    tag_117:\n      dup3\n      dup3\n      lt\n      iszero\n      tag_118\n      jumpi\n      dup4\n      dup3\n      swap1\n      0x00\n      mstore\n      keccak256(0x00, 0x20)\n      swap1\n      0x06\n      mul\n      add\n      mload(0x40)\n      dup1\n      0xc0\n      add\n      0x40\n      mstore\n      swap1\n      dup2\n      0x00\n      dup3\n      add\n      sload\n      dup2\n      mstore\n      0x20\n      add\n      0x01\n      dup3\n      add\n      0x00\n      swap1\n      sload\n      swap1\n      0x0100\n      exp\n      swap1\n      div\n      0xffffffffffffffffffffffffffffffffffffffff\n      and\n      0xffffffffffffffffffffffffffffffffffffffff\n      and\n      0xffffffffffffffffffffffffffffffffffffffff\n      and\n      dup2\n      mstore\n      0x20\n      add\n      0x02\n      dup3\n      add\n      dup1\n      sload\n      tag_120\n      swap1\n      tag_91\n      jump\t// in\n    tag_120:\n      dup1\n      0x1f\n      add\n      0x20\n      dup1\n      swap2\n      div\n      mul\n      0x20\n      add\n      mload(0x40)\n      swap1\n      dup2\n      add\n      0x40\n      mstore\n      dup1\n      swap3\n      swap2\n      swap1\n      dup2\n      dup2\n      mstore\n      0x20\n      add\n      dup3\n      dup1\n      sload\n      tag_121\n      swap1\n      tag_91\n      jump\t// in\n    tag_121:\n      dup1\n      iszero\n      tag_122\n      jumpi\n      dup1\n      0x1f\n      lt\n      tag_123\n      jumpi\n      0x0100\n      dup1\n      dup4\n      sload\n      div\n      mul\n      dup4\n      mstore\n      swap2\n      0x20\n      add\n      swap2\n      jump(tag_122)\n    tag_123:\n      dup3\n      add\n      swap2\n      swap1\n      0x00\n      mstore\n      keccak256(0x00, 0x20)\n      swap1\n    tag_124:\n      dup2\n      sload\n      dup2\n      mstore\n      swap1\n      0x01\n      add\n      swap1\n      0x20\n      add\n      dup1\n      dup4\n      gt\n      tag_124\n      jumpi\n      dup3\n      swap1\n      sub\n      0x1f\n      and\n      dup3\n      add\n      swap2\n    tag_122:\n      pop\n      pop\n      pop\n      pop\n      pop\n      dup2\n      mstore\n      0x20\n      add\n      0x03\n      dup3\n      add\n      dup1\n      sload\n      tag_125\n      swap1\n      tag_91\n      jump\t// in\n    tag_125:\n      dup1\n      0x1f\n      add\n      0x20\n      dup1\n      swap2\n      div\n      mul\n      0x20\n      add\n      mload(0x40)\n      swap1\n      dup2\n      add\n      0x40\n      mstore\n      dup1\n      swap3\n      swap2\n      swap1\n      dup2\n      dup2\n      mstore\n      0x20\n      add\n      dup3\n      dup1\n      sload\n      tag_126\n      swap1\n      tag_91\n      jump\t// in\n    tag_126:\n      dup1\n      iszero\n      tag_127\n      jumpi\n      dup1\n      0x1f\n      lt\n      tag_128\n      jumpi\n      0x0100\n      dup1\n      dup4\n      sload\n      div\n      mul\n      dup4\n      mstore\n      swap2\n      0x20\n      add\n      swap2\n      jump(tag_127)\n    tag_128:\n      dup3\n      add\n      swap2\n      swap1\n      0x00\n      mstore\n      keccak256(0x00, 0x20)\n      swap1\n    tag_129:\n      dup2\n      sload\n      dup2\n      mstore\n      swap1\n      0x01\n      add\n      swap1\n      0x20\n      add\n      dup1\n      dup4\n      gt\n      tag_129\n      jumpi\n      dup3\n      swap1\n      sub\n      0x1f\n      and\n      dup3\n      add\n      swap2\n    tag_127:\n      pop\n      pop\n      pop\n      pop\n      pop\n      dup2\n      mstore\n      0x20\n      add\n      0x04\n      dup3\n      add\n      sload\n      dup2\n      mstore\n      0x20\n      add\n      0x05\n      dup3\n      add\n      sload\n      dup2\n      mstore\n      pop\n      pop\n      dup2\n      mstore\n      0x20\n      add\n      swap1\n      0x01\n      add\n      swap1\n      jump(tag_117)\n    tag_118:\n      pop\n      pop\n      pop\n      pop\n      swap1\n      pop\n        /* \"contracts/Blog.sol\":2401:2511  function getAllPosts(address _owner) public view returns (Post[] memory) {... */\n      swap2\n      swap1\n      pop\n      jump\t// out\n        /* \"contracts/Blog.sol\":79:112  address public owner = msg.sender */\n    tag_40:\n      0x00\n      dup1\n      sload\n      swap1\n      0x0100\n      exp\n      swap1\n      div\n      0xffffffffffffffffffffffffffffffffffffffff\n      and\n      dup2\n      jump\t// out\n        /* \"contracts/Blog.sol\":827:954  function changeContentLength(uint16 _newContentLength) public onlyOwner {... */\n    tag_46:\n        /* \"contracts/Blog.sol\":750:760  msg.sender */\n      caller\n        /* \"contracts/Blog.sol\":741:760  owner == msg.sender */\n      0xffffffffffffffffffffffffffffffffffffffff\n      and\n        /* \"contracts/Blog.sol\":741:746  owner */\n      0x00\n      dup1\n      sload\n      swap1\n      0x0100\n      exp\n      swap1\n      div\n      0xffffffffffffffffffffffffffffffffffffffff\n      and\n        /* \"contracts/Blog.sol\":741:760  owner == msg.sender */\n      0xffffffffffffffffffffffffffffffffffffffff\n      and\n      eq\n        /* \"contracts/Blog.sol\":733:803  require(owner == msg.sender, \"Must be contract owner for this action\") */\n      tag_131\n      jumpi\n      mload(0x40)\n      0x08c379a000000000000000000000000000000000000000000000000000000000\n      dup2\n      mstore\n      0x04\n      add\n      tag_132\n      swap1\n      tag_133\n      jump\t// in\n    tag_132:\n      mload(0x40)\n      dup1\n      swap2\n      sub\n      swap1\n      revert\n    tag_131:\n        /* \"contracts/Blog.sol\":930:947  _newContentLength */\n      dup1\n        /* \"contracts/Blog.sol\":909:927  MAX_CONTENT_LENGTH */\n      0x00\n      0x14\n        /* \"contracts/Blog.sol\":909:947  MAX_CONTENT_LENGTH = _newContentLength */\n      0x0100\n      exp\n      dup2\n      sload\n      dup2\n      0xffff\n      mul\n      not\n      and\n      swap1\n      dup4\n      0xffff\n      and\n      mul\n      or\n      swap1\n      sstore\n      pop\n        /* \"contracts/Blog.sol\":827:954  function changeContentLength(uint16 _newContentLength) public onlyOwner {... */\n      pop\n      jump\t// out\n    tag_85:\n      mload(0x40)\n      dup1\n      0xc0\n      add\n      0x40\n      mstore\n      dup1\n      0x00\n      dup2\n      mstore\n      0x20\n      add\n      and(0xffffffffffffffffffffffffffffffffffffffff, 0x00)\n      dup2\n      mstore\n      0x20\n      add\n      0x60\n      dup2\n      mstore\n      0x20\n      add\n      0x60\n      dup2\n      mstore\n      0x20\n      add\n      0x00\n      dup2\n      mstore\n      0x20\n      add\n      0x00\n      dup2\n      mstore\n      pop\n      swap1\n      jump\t// out\n        /* \"#utility.yul\":7:96   */\n    tag_135:\n        /* \"#utility.yul\":43:50   */\n      0x00\n        /* \"#utility.yul\":83:89   */\n      0xffff\n        /* \"#utility.yul\":76:81   */\n      dup3\n        /* \"#utility.yul\":72:90   */\n      and\n        /* \"#utility.yul\":61:90   */\n      swap1\n      pop\n        /* \"#utility.yul\":7:96   */\n      swap2\n      swap1\n      pop\n      jump\t// out\n        /* \"#utility.yul\":102:217   */\n    tag_136:\n        /* \"#utility.yul\":187:210   */\n      tag_207\n        /* \"#utility.yul\":204:209   */\n      dup2\n        /* \"#utility.yul\":187:210   */\n      tag_135\n      jump\t// in\n    tag_207:\n        /* \"#utility.yul\":182:185   */\n      dup3\n        /* \"#utility.yul\":175:211   */\n      mstore\n        /* \"#utility.yul\":102:217   */\n      pop\n      pop\n      jump\t// out\n        /* \"#utility.yul\":223:441   */\n    tag_15:\n        /* \"#utility.yul\":314:318   */\n      0x00\n        /* \"#utility.yul\":352:354   */\n      0x20\n        /* \"#utility.yul\":341:350   */\n      dup3\n        /* \"#utility.yul\":337:355   */\n      add\n        /* \"#utility.yul\":329:355   */\n      swap1\n      pop\n        /* \"#utility.yul\":365:434   */\n      tag_209\n        /* \"#utility.yul\":431:432   */\n      0x00\n        /* \"#utility.yul\":420:429   */\n      dup4\n        /* \"#utility.yul\":416:433   */\n      add\n        /* \"#utility.yul\":407:413   */\n      dup5\n        /* \"#utility.yul\":365:434   */\n      tag_136\n      jump\t// in\n    tag_209:\n        /* \"#utility.yul\":223:441   */\n      swap3\n      swap2\n      pop\n      pop\n      jump\t// out\n        /* \"#utility.yul\":447:522   */\n    tag_137:\n        /* \"#utility.yul\":480:486   */\n      0x00\n        /* \"#utility.yul\":513:515   */\n      0x40\n        /* \"#utility.yul\":507:516   */\n      mload\n        /* \"#utility.yul\":497:516   */\n      swap1\n      pop\n        /* \"#utility.yul\":447:522   */\n      swap1\n      jump\t// out\n        /* \"#utility.yul\":528:645   */\n    tag_138:\n        /* \"#utility.yul\":637:638   */\n      0x00\n        /* \"#utility.yul\":634:635   */\n      dup1\n        /* \"#utility.yul\":627:639   */\n      revert\n        /* \"#utility.yul\":651:768   */\n    tag_139:\n        /* \"#utility.yul\":760:761   */\n      0x00\n        /* \"#utility.yul\":757:758   */\n      dup1\n        /* \"#utility.yul\":750:762   */\n      revert\n        /* \"#utility.yul\":774:891   */\n    tag_140:\n        /* \"#utility.yul\":883:884   */\n      0x00\n        /* \"#utility.yul\":880:881   */\n      dup1\n        /* \"#utility.yul\":873:885   */\n      revert\n        /* \"#utility.yul\":897:1014   */\n    tag_141:\n        /* \"#utility.yul\":1006:1007   */\n      0x00\n        /* \"#utility.yul\":1003:1004   */\n      dup1\n        /* \"#utility.yul\":996:1008   */\n      revert\n        /* \"#utility.yul\":1020:1122   */\n    tag_142:\n        /* \"#utility.yul\":1061:1067   */\n      0x00\n        /* \"#utility.yul\":1112:1114   */\n      0x1f\n        /* \"#utility.yul\":1108:1115   */\n      not\n        /* \"#utility.yul\":1103:1105   */\n      0x1f\n        /* \"#utility.yul\":1096:1101   */\n      dup4\n        /* \"#utility.yul\":1092:1106   */\n      add\n        /* \"#utility.yul\":1088:1116   */\n      and\n        /* \"#utility.yul\":1078:1116   */\n      swap1\n      pop\n        /* \"#utility.yul\":1020:1122   */\n      swap2\n      swap1\n      pop\n      jump\t// out\n        /* \"#utility.yul\":1128:1308   */\n    tag_143:\n        /* \"#utility.yul\":1176:1253   */\n      0x4e487b7100000000000000000000000000000000000000000000000000000000\n        /* \"#utility.yul\":1173:1174   */\n      0x00\n        /* \"#utility.yul\":1166:1254   */\n      mstore\n        /* \"#utility.yul\":1273:1277   */\n      0x41\n        /* \"#utility.yul\":1270:1271   */\n      0x04\n        /* \"#utility.yul\":1263:1278   */\n      mstore\n        /* \"#utility.yul\":1297:1301   */\n      0x24\n        /* \"#utility.yul\":1294:1295   */\n      0x00\n        /* \"#utility.yul\":1287:1302   */\n      revert\n        /* \"#utility.yul\":1314:1595   */\n    tag_144:\n        /* \"#utility.yul\":1397:1424   */\n      tag_218\n        /* \"#utility.yul\":1419:1423   */\n      dup3\n        /* \"#utility.yul\":1397:1424   */\n      tag_142\n      jump\t// in\n    tag_218:\n        /* \"#utility.yul\":1389:1395   */\n      dup2\n        /* \"#utility.yul\":1385:1425   */\n      add\n        /* \"#utility.yul\":1527:1533   */\n      dup2\n        /* \"#utility.yul\":1515:1525   */\n      dup2\n        /* \"#utility.yul\":1512:1534   */\n      lt\n        /* \"#utility.yul\":1491:1509   */\n      0xffffffffffffffff\n        /* \"#utility.yul\":1479:1489   */\n      dup3\n        /* \"#utility.yul\":1476:1510   */\n      gt\n        /* \"#utility.yul\":1473:1535   */\n      or\n        /* \"#utility.yul\":1470:1558   */\n      iszero\n      tag_219\n      jumpi\n        /* \"#utility.yul\":1538:1556   */\n      tag_220\n      tag_143\n      jump\t// in\n    tag_220:\n        /* \"#utility.yul\":1470:1558   */\n    tag_219:\n        /* \"#utility.yul\":1578:1588   */\n      dup1\n        /* \"#utility.yul\":1574:1576   */\n      0x40\n        /* \"#utility.yul\":1567:1589   */\n      mstore\n        /* \"#utility.yul\":1357:1595   */\n      pop\n        /* \"#utility.yul\":1314:1595   */\n      pop\n      pop\n      jump\t// out\n        /* \"#utility.yul\":1601:1730   */\n    tag_145:\n        /* \"#utility.yul\":1635:1641   */\n      0x00\n        /* \"#utility.yul\":1662:1682   */\n      tag_222\n      tag_137\n      jump\t// in\n    tag_222:\n        /* \"#utility.yul\":1652:1682   */\n      swap1\n      pop\n        /* \"#utility.yul\":1691:1724   */\n      tag_223\n        /* \"#utility.yul\":1719:1723   */\n      dup3\n        /* \"#utility.yul\":1711:1717   */\n      dup3\n        /* \"#utility.yul\":1691:1724   */\n      tag_144\n      jump\t// in\n    tag_223:\n        /* \"#utility.yul\":1601:1730   */\n      swap2\n      swap1\n      pop\n      jump\t// out\n        /* \"#utility.yul\":1736:2044   */\n    tag_146:\n        /* \"#utility.yul\":1798:1802   */\n      0x00\n        /* \"#utility.yul\":1888:1906   */\n      0xffffffffffffffff\n        /* \"#utility.yul\":1880:1886   */\n      dup3\n        /* \"#utility.yul\":1877:1907   */\n      gt\n        /* \"#utility.yul\":1874:1930   */\n      iszero\n      tag_225\n      jumpi\n        /* \"#utility.yul\":1910:1928   */\n      tag_226\n      tag_143\n      jump\t// in\n    tag_226:\n        /* \"#utility.yul\":1874:1930   */\n    tag_225:\n        /* \"#utility.yul\":1948:1977   */\n      tag_227\n        /* \"#utility.yul\":1970:1976   */\n      dup3\n        /* \"#utility.yul\":1948:1977   */\n      tag_142\n      jump\t// in\n    tag_227:\n        /* \"#utility.yul\":1940:1977   */\n      swap1\n      pop\n        /* \"#utility.yul\":2032:2036   */\n      0x20\n        /* \"#utility.yul\":2026:2030   */\n      dup2\n        /* \"#utility.yul\":2022:2037   */\n      add\n        /* \"#utility.yul\":2014:2037   */\n      swap1\n      pop\n        /* \"#utility.yul\":1736:2044   */\n      swap2\n      swap1\n      pop\n      jump\t// out\n        /* \"#utility.yul\":2050:2196   */\n    tag_147:\n        /* \"#utility.yul\":2147:2153   */\n      dup3\n        /* \"#utility.yul\":2142:2145   */\n      dup2\n        /* \"#utility.yul\":2137:2140   */\n      dup4\n        /* \"#utility.yul\":2124:2154   */\n      calldatacopy\n        /* \"#utility.yul\":2188:2189   */\n      0x00\n        /* \"#utility.yul\":2179:2185   */\n      dup4\n        /* \"#utility.yul\":2174:2177   */\n      dup4\n        /* \"#utility.yul\":2170:2186   */\n      add\n        /* \"#utility.yul\":2163:2190   */\n      mstore\n        /* \"#utility.yul\":2050:2196   */\n      pop\n      pop\n      pop\n      jump\t// out\n        /* \"#utility.yul\":2202:2627   */\n    tag_148:\n        /* \"#utility.yul\":2280:2285   */\n      0x00\n        /* \"#utility.yul\":2305:2371   */\n      tag_230\n        /* \"#utility.yul\":2321:2370   */\n      tag_231\n        /* \"#utility.yul\":2363:2369   */\n      dup5\n        /* \"#utility.yul\":2321:2370   */\n      tag_146\n      jump\t// in\n    tag_231:\n        /* \"#utility.yul\":2305:2371   */\n      tag_145\n      jump\t// in\n    tag_230:\n        /* \"#utility.yul\":2296:2371   */\n      swap1\n      pop\n        /* \"#utility.yul\":2394:2400   */\n      dup3\n        /* \"#utility.yul\":2387:2392   */\n      dup2\n        /* \"#utility.yul\":2380:2401   */\n      mstore\n        /* \"#utility.yul\":2432:2436   */\n      0x20\n        /* \"#utility.yul\":2425:2430   */\n      dup2\n        /* \"#utility.yul\":2421:2437   */\n      add\n        /* \"#utility.yul\":2470:2473   */\n      dup5\n        /* \"#utility.yul\":2461:2467   */\n      dup5\n        /* \"#utility.yul\":2456:2459   */\n      dup5\n        /* \"#utility.yul\":2452:2468   */\n      add\n        /* \"#utility.yul\":2449:2474   */\n      gt\n        /* \"#utility.yul\":2446:2558   */\n      iszero\n      tag_232\n      jumpi\n        /* \"#utility.yul\":2477:2556   */\n      tag_233\n      tag_141\n      jump\t// in\n    tag_233:\n        /* \"#utility.yul\":2446:2558   */\n    tag_232:\n        /* \"#utility.yul\":2567:2621   */\n      tag_234\n        /* \"#utility.yul\":2614:2620   */\n      dup5\n        /* \"#utility.yul\":2609:2612   */\n      dup3\n        /* \"#utility.yul\":2604:2607   */\n      dup6\n        /* \"#utility.yul\":2567:2621   */\n      tag_147\n      jump\t// in\n    tag_234:\n        /* \"#utility.yul\":2286:2627   */\n      pop\n        /* \"#utility.yul\":2202:2627   */\n      swap4\n      swap3\n      pop\n      pop\n      pop\n      jump\t// out\n        /* \"#utility.yul\":2647:2987   */\n    tag_149:\n        /* \"#utility.yul\":2703:2708   */\n      0x00\n        /* \"#utility.yul\":2752:2755   */\n      dup3\n        /* \"#utility.yul\":2745:2749   */\n      0x1f\n        /* \"#utility.yul\":2737:2743   */\n      dup4\n        /* \"#utility.yul\":2733:2750   */\n      add\n        /* \"#utility.yul\":2729:2756   */\n      slt\n        /* \"#utility.yul\":2719:2841   */\n      tag_236\n      jumpi\n        /* \"#utility.yul\":2760:2839   */\n      tag_237\n      tag_140\n      jump\t// in\n    tag_237:\n        /* \"#utility.yul\":2719:2841   */\n    tag_236:\n        /* \"#utility.yul\":2877:2883   */\n      dup2\n        /* \"#utility.yul\":2864:2884   */\n      calldataload\n        /* \"#utility.yul\":2902:2981   */\n      tag_238\n        /* \"#utility.yul\":2977:2980   */\n      dup5\n        /* \"#utility.yul\":2969:2975   */\n      dup3\n        /* \"#utility.yul\":2962:2966   */\n      0x20\n        /* \"#utility.yul\":2954:2960   */\n      dup7\n        /* \"#utility.yul\":2950:2967   */\n      add\n        /* \"#utility.yul\":2902:2981   */\n      tag_148\n      jump\t// in\n    tag_238:\n        /* \"#utility.yul\":2893:2981   */\n      swap2\n      pop\n        /* \"#utility.yul\":2709:2987   */\n      pop\n        /* \"#utility.yul\":2647:2987   */\n      swap3\n      swap2\n      pop\n      pop\n      jump\t// out\n        /* \"#utility.yul\":2993:3827   */\n    tag_18:\n        /* \"#utility.yul\":3081:3087   */\n      0x00\n        /* \"#utility.yul\":3089:3095   */\n      dup1\n        /* \"#utility.yul\":3138:3140   */\n      0x40\n        /* \"#utility.yul\":3126:3135   */\n      dup4\n        /* \"#utility.yul\":3117:3124   */\n      dup6\n        /* \"#utility.yul\":3113:3136   */\n      sub\n        /* \"#utility.yul\":3109:3141   */\n      slt\n        /* \"#utility.yul\":3106:3225   */\n      iszero\n      tag_240\n      jumpi\n        /* \"#utility.yul\":3144:3223   */\n      tag_241\n      tag_138\n      jump\t// in\n    tag_241:\n        /* \"#utility.yul\":3106:3225   */\n    tag_240:\n        /* \"#utility.yul\":3292:3293   */\n      0x00\n        /* \"#utility.yul\":3281:3290   */\n      dup4\n        /* \"#utility.yul\":3277:3294   */\n      add\n        /* \"#utility.yul\":3264:3295   */\n      calldataload\n        /* \"#utility.yul\":3322:3340   */\n      0xffffffffffffffff\n        /* \"#utility.yul\":3314:3320   */\n      dup2\n        /* \"#utility.yul\":3311:3341   */\n      gt\n        /* \"#utility.yul\":3308:3425   */\n      iszero\n      tag_242\n      jumpi\n        /* \"#utility.yul\":3344:3423   */\n      tag_243\n      tag_139\n      jump\t// in\n    tag_243:\n        /* \"#utility.yul\":3308:3425   */\n    tag_242:\n        /* \"#utility.yul\":3449:3512   */\n      tag_244\n        /* \"#utility.yul\":3504:3511   */\n      dup6\n        /* \"#utility.yul\":3495:3501   */\n      dup3\n        /* \"#utility.yul\":3484:3493   */\n      dup7\n        /* \"#utility.yul\":3480:3502   */\n      add\n        /* \"#utility.yul\":3449:3512   */\n      tag_149\n      jump\t// in\n    tag_244:\n        /* \"#utility.yul\":3439:3512   */\n      swap3\n      pop\n        /* \"#utility.yul\":3235:3522   */\n      pop\n        /* \"#utility.yul\":3589:3591   */\n      0x20\n        /* \"#utility.yul\":3578:3587   */\n      dup4\n        /* \"#utility.yul\":3574:3592   */\n      add\n        /* \"#utility.yul\":3561:3593   */\n      calldataload\n        /* \"#utility.yul\":3620:3638   */\n      0xffffffffffffffff\n        /* \"#utility.yul\":3612:3618   */\n      dup2\n        /* \"#utility.yul\":3609:3639   */\n      gt\n        /* \"#utility.yul\":3606:3723   */\n      iszero\n      tag_245\n      jumpi\n        /* \"#utility.yul\":3642:3721   */\n      tag_246\n      tag_139\n      jump\t// in\n    tag_246:\n        /* \"#utility.yul\":3606:3723   */\n    tag_245:\n        /* \"#utility.yul\":3747:3810   */\n      tag_247\n        /* \"#utility.yul\":3802:3809   */\n      dup6\n        /* \"#utility.yul\":3793:3799   */\n      dup3\n        /* \"#utility.yul\":3782:3791   */\n      dup7\n        /* \"#utility.yul\":3778:3800   */\n      add\n        /* \"#utility.yul\":3747:3810   */\n      tag_149\n      jump\t// in\n    tag_247:\n        /* \"#utility.yul\":3737:3810   */\n      swap2\n      pop\n        /* \"#utility.yul\":3532:3820   */\n      pop\n        /* \"#utility.yul\":2993:3827   */\n      swap3\n      pop\n      swap3\n      swap1\n      pop\n      jump\t// out\n        /* \"#utility.yul\":3833:3959   */\n    tag_150:\n        /* \"#utility.yul\":3870:3877   */\n      0x00\n        /* \"#utility.yul\":3910:3952   */\n      0xffffffffffffffffffffffffffffffffffffffff\n        /* \"#utility.yul\":3903:3908   */\n      dup3\n        /* \"#utility.yul\":3899:3953   */\n      and\n        /* \"#utility.yul\":3888:3953   */\n      swap1\n      pop\n        /* \"#utility.yul\":3833:3959   */\n      swap2\n      swap1\n      pop\n      jump\t// out\n        /* \"#utility.yul\":3965:4061   */\n    tag_151:\n        /* \"#utility.yul\":4002:4009   */\n      0x00\n        /* \"#utility.yul\":4031:4055   */\n      tag_250\n        /* \"#utility.yul\":4049:4054   */\n      dup3\n        /* \"#utility.yul\":4031:4055   */\n      tag_150\n      jump\t// in\n    tag_250:\n        /* \"#utility.yul\":4020:4055   */\n      swap1\n      pop\n        /* \"#utility.yul\":3965:4061   */\n      swap2\n      swap1\n      pop\n      jump\t// out\n        /* \"#utility.yul\":4067:4189   */\n    tag_152:\n        /* \"#utility.yul\":4140:4164   */\n      tag_252\n        /* \"#utility.yul\":4158:4163   */\n      dup2\n        /* \"#utility.yul\":4140:4164   */\n      tag_151\n      jump\t// in\n    tag_252:\n        /* \"#utility.yul\":4133:4138   */\n      dup2\n        /* \"#utility.yul\":4130:4165   */\n      eq\n        /* \"#utility.yul\":4120:4183   */\n      tag_253\n      jumpi\n        /* \"#utility.yul\":4179:4180   */\n      0x00\n        /* \"#utility.yul\":4176:4177   */\n      dup1\n        /* \"#utility.yul\":4169:4181   */\n      revert\n        /* \"#utility.yul\":4120:4183   */\n    tag_253:\n        /* \"#utility.yul\":4067:4189   */\n      pop\n      jump\t// out\n        /* \"#utility.yul\":4195:4334   */\n    tag_153:\n        /* \"#utility.yul\":4241:4246   */\n      0x00\n        /* \"#utility.yul\":4279:4285   */\n      dup2\n        /* \"#utility.yul\":4266:4286   */\n      calldataload\n        /* \"#utility.yul\":4257:4286   */\n      swap1\n      pop\n        /* \"#utility.yul\":4295:4328   */\n      tag_255\n        /* \"#utility.yul\":4322:4327   */\n      dup2\n        /* \"#utility.yul\":4295:4328   */\n      tag_152\n      jump\t// in\n    tag_255:\n        /* \"#utility.yul\":4195:4334   */\n      swap3\n      swap2\n      pop\n      pop\n      jump\t// out\n        /* \"#utility.yul\":4340:4417   */\n    tag_154:\n        /* \"#utility.yul\":4377:4384   */\n      0x00\n        /* \"#utility.yul\":4406:4411   */\n      dup2\n        /* \"#utility.yul\":4395:4411   */\n      swap1\n      pop\n        /* \"#utility.yul\":4340:4417   */\n      swap2\n      swap1\n      pop\n      jump\t// out\n        /* \"#utility.yul\":4423:4545   */\n    tag_155:\n        /* \"#utility.yul\":4496:4520   */\n      tag_258\n        /* \"#utility.yul\":4514:4519   */\n      dup2\n        /* \"#utility.yul\":4496:4520   */\n      tag_154\n      jump\t// in\n    tag_258:\n        /* \"#utility.yul\":4489:4494   */\n      dup2\n        /* \"#utility.yul\":4486:4521   */\n      eq\n        /* \"#utility.yul\":4476:4539   */\n      tag_259\n      jumpi\n        /* \"#utility.yul\":4535:4536   */\n      0x00\n        /* \"#utility.yul\":4532:4533   */\n      dup1\n        /* \"#utility.yul\":4525:4537   */\n      revert\n        /* \"#utility.yul\":4476:4539   */\n    tag_259:\n        /* \"#utility.yul\":4423:4545   */\n      pop\n      jump\t// out\n        /* \"#utility.yul\":4551:4690   */\n    tag_156:\n        /* \"#utility.yul\":4597:4602   */\n      0x00\n        /* \"#utility.yul\":4635:4641   */\n      dup2\n        /* \"#utility.yul\":4622:4642   */\n      calldataload\n        /* \"#utility.yul\":4613:4642   */\n      swap1\n      pop\n        /* \"#utility.yul\":4651:4684   */\n      tag_261\n        /* \"#utility.yul\":4678:4683   */\n      dup2\n        /* \"#utility.yul\":4651:4684   */\n      tag_155\n      jump\t// in\n    tag_261:\n        /* \"#utility.yul\":4551:4690   */\n      swap3\n      swap2\n      pop\n      pop\n      jump\t// out\n        /* \"#utility.yul\":4696:5170   */\n    tag_22:\n        /* \"#utility.yul\":4764:4770   */\n      0x00\n        /* \"#utility.yul\":4772:4778   */\n      dup1\n        /* \"#utility.yul\":4821:4823   */\n      0x40\n        /* \"#utility.yul\":4809:4818   */\n      dup4\n        /* \"#utility.yul\":4800:4807   */\n      dup6\n        /* \"#utility.yul\":4796:4819   */\n      sub\n        /* \"#utility.yul\":4792:4824   */\n      slt\n        /* \"#utility.yul\":4789:4908   */\n      iszero\n      tag_263\n      jumpi\n        /* \"#utility.yul\":4827:4906   */\n      tag_264\n      tag_138\n      jump\t// in\n    tag_264:\n        /* \"#utility.yul\":4789:4908   */\n    tag_263:\n        /* \"#utility.yul\":4947:4948   */\n      0x00\n        /* \"#utility.yul\":4972:5025   */\n      tag_265\n        /* \"#utility.yul\":5017:5024   */\n      dup6\n        /* \"#utility.yul\":5008:5014   */\n      dup3\n        /* \"#utility.yul\":4997:5006   */\n      dup7\n        /* \"#utility.yul\":4993:5015   */\n      add\n        /* \"#utility.yul\":4972:5025   */\n      tag_153\n      jump\t// in\n    tag_265:\n        /* \"#utility.yul\":4962:5025   */\n      swap3\n      pop\n        /* \"#utility.yul\":4918:5035   */\n      pop\n        /* \"#utility.yul\":5074:5076   */\n      0x20\n        /* \"#utility.yul\":5100:5153   */\n      tag_266\n        /* \"#utility.yul\":5145:5152   */\n      dup6\n        /* \"#utility.yul\":5136:5142   */\n      dup3\n        /* \"#utility.yul\":5125:5134   */\n      dup7\n        /* \"#utility.yul\":5121:5143   */\n      add\n        /* \"#utility.yul\":5100:5153   */\n      tag_156\n      jump\t// in\n    tag_266:\n        /* \"#utility.yul\":5090:5153   */\n      swap2\n      pop\n        /* \"#utility.yul\":5045:5163   */\n      pop\n        /* \"#utility.yul\":4696:5170   */\n      swap3\n      pop\n      swap3\n      swap1\n      pop\n      jump\t// out\n        /* \"#utility.yul\":5176:5505   */\n    tag_26:\n        /* \"#utility.yul\":5235:5241   */\n      0x00\n        /* \"#utility.yul\":5284:5286   */\n      0x20\n        /* \"#utility.yul\":5272:5281   */\n      dup3\n        /* \"#utility.yul\":5263:5270   */\n      dup5\n        /* \"#utility.yul\":5259:5282   */\n      sub\n        /* \"#utility.yul\":5255:5287   */\n      slt\n        /* \"#utility.yul\":5252:5371   */\n      iszero\n      tag_268\n      jumpi\n        /* \"#utility.yul\":5290:5369   */\n      tag_269\n      tag_138\n      jump\t// in\n    tag_269:\n        /* \"#utility.yul\":5252:5371   */\n    tag_268:\n        /* \"#utility.yul\":5410:5411   */\n      0x00\n        /* \"#utility.yul\":5435:5488   */\n      tag_270\n        /* \"#utility.yul\":5480:5487   */\n      dup5\n        /* \"#utility.yul\":5471:5477   */\n      dup3\n        /* \"#utility.yul\":5460:5469   */\n      dup6\n        /* \"#utility.yul\":5456:5478   */\n      add\n        /* \"#utility.yul\":5435:5488   */\n      tag_156\n      jump\t// in\n    tag_270:\n        /* \"#utility.yul\":5425:5488   */\n      swap2\n      pop\n        /* \"#utility.yul\":5381:5498   */\n      pop\n        /* \"#utility.yul\":5176:5505   */\n      swap3\n      swap2\n      pop\n      pop\n      jump\t// out\n        /* \"#utility.yul\":5511:5619   */\n    tag_157:\n        /* \"#utility.yul\":5588:5612   */\n      tag_272\n        /* \"#utility.yul\":5606:5611   */\n      dup2\n        /* \"#utility.yul\":5588:5612   */\n      tag_154\n      jump\t// in\n    tag_272:\n        /* \"#utility.yul\":5583:5586   */\n      dup3\n        /* \"#utility.yul\":5576:5613   */\n      mstore\n        /* \"#utility.yul\":5511:5619   */\n      pop\n      pop\n      jump\t// out\n        /* \"#utility.yul\":5625:5733   */\n    tag_158:\n        /* \"#utility.yul\":5702:5726   */\n      tag_274\n        /* \"#utility.yul\":5720:5725   */\n      dup2\n        /* \"#utility.yul\":5702:5726   */\n      tag_151\n      jump\t// in\n    tag_274:\n        /* \"#utility.yul\":5697:5700   */\n      dup3\n        /* \"#utility.yul\":5690:5727   */\n      mstore\n        /* \"#utility.yul\":5625:5733   */\n      pop\n      pop\n      jump\t// out\n        /* \"#utility.yul\":5739:5838   */\n    tag_159:\n        /* \"#utility.yul\":5791:5797   */\n      0x00\n        /* \"#utility.yul\":5825:5830   */\n      dup2\n        /* \"#utility.yul\":5819:5831   */\n      mload\n        /* \"#utility.yul\":5809:5831   */\n      swap1\n      pop\n        /* \"#utility.yul\":5739:5838   */\n      swap2\n      swap1\n      pop\n      jump\t// out\n        /* \"#utility.yul\":5844:6003   */\n    tag_160:\n        /* \"#utility.yul\":5918:5929   */\n      0x00\n        /* \"#utility.yul\":5952:5958   */\n      dup3\n        /* \"#utility.yul\":5947:5950   */\n      dup3\n        /* \"#utility.yul\":5940:5959   */\n      mstore\n        /* \"#utility.yul\":5992:5996   */\n      0x20\n        /* \"#utility.yul\":5987:5990   */\n      dup3\n        /* \"#utility.yul\":5983:5997   */\n      add\n        /* \"#utility.yul\":5968:5997   */\n      swap1\n      pop\n        /* \"#utility.yul\":5844:6003   */\n      swap3\n      swap2\n      pop\n      pop\n      jump\t// out\n        /* \"#utility.yul\":6009:6255   */\n    tag_161:\n        /* \"#utility.yul\":6090:6091   */\n      0x00\n        /* \"#utility.yul\":6100:6213   */\n    tag_278:\n        /* \"#utility.yul\":6114:6120   */\n      dup4\n        /* \"#utility.yul\":6111:6112   */\n      dup2\n        /* \"#utility.yul\":6108:6121   */\n      lt\n        /* \"#utility.yul\":6100:6213   */\n      iszero\n      tag_280\n      jumpi\n        /* \"#utility.yul\":6199:6200   */\n      dup1\n        /* \"#utility.yul\":6194:6197   */\n      dup3\n        /* \"#utility.yul\":6190:6201   */\n      add\n        /* \"#utility.yul\":6184:6202   */\n      mload\n        /* \"#utility.yul\":6180:6181   */\n      dup2\n        /* \"#utility.yul\":6175:6178   */\n      dup5\n        /* \"#utility.yul\":6171:6182   */\n      add\n        /* \"#utility.yul\":6164:6203   */\n      mstore\n        /* \"#utility.yul\":6136:6138   */\n      0x20\n        /* \"#utility.yul\":6133:6134   */\n      dup2\n        /* \"#utility.yul\":6129:6139   */\n      add\n        /* \"#utility.yul\":6124:6139   */\n      swap1\n      pop\n        /* \"#utility.yul\":6100:6213   */\n      jump(tag_278)\n    tag_280:\n        /* \"#utility.yul\":6247:6248   */\n      0x00\n        /* \"#utility.yul\":6238:6244   */\n      dup5\n        /* \"#utility.yul\":6233:6236   */\n      dup5\n        /* \"#utility.yul\":6229:6245   */\n      add\n        /* \"#utility.yul\":6222:6249   */\n      mstore\n        /* \"#utility.yul\":6071:6255   */\n      pop\n        /* \"#utility.yul\":6009:6255   */\n      pop\n      pop\n      pop\n      jump\t// out\n        /* \"#utility.yul\":6261:6618   */\n    tag_162:\n        /* \"#utility.yul\":6339:6342   */\n      0x00\n        /* \"#utility.yul\":6367:6406   */\n      tag_282\n        /* \"#utility.yul\":6400:6405   */\n      dup3\n        /* \"#utility.yul\":6367:6406   */\n      tag_159\n      jump\t// in\n    tag_282:\n        /* \"#utility.yul\":6422:6483   */\n      tag_283\n        /* \"#utility.yul\":6476:6482   */\n      dup2\n        /* \"#utility.yul\":6471:6474   */\n      dup6\n        /* \"#utility.yul\":6422:6483   */\n      tag_160\n      jump\t// in\n    tag_283:\n        /* \"#utility.yul\":6415:6483   */\n      swap4\n      pop\n        /* \"#utility.yul\":6492:6557   */\n      tag_284\n        /* \"#utility.yul\":6550:6556   */\n      dup2\n        /* \"#utility.yul\":6545:6548   */\n      dup6\n        /* \"#utility.yul\":6538:6542   */\n      0x20\n        /* \"#utility.yul\":6531:6536   */\n      dup7\n        /* \"#utility.yul\":6527:6543   */\n      add\n        /* \"#utility.yul\":6492:6557   */\n      tag_161\n      jump\t// in\n    tag_284:\n        /* \"#utility.yul\":6582:6611   */\n      tag_285\n        /* \"#utility.yul\":6604:6610   */\n      dup2\n        /* \"#utility.yul\":6582:6611   */\n      tag_142\n      jump\t// in\n    tag_285:\n        /* \"#utility.yul\":6577:6580   */\n      dup5\n        /* \"#utility.yul\":6573:6612   */\n      add\n        /* \"#utility.yul\":6566:6612   */\n      swap2\n      pop\n        /* \"#utility.yul\":6343:6618   */\n      pop\n        /* \"#utility.yul\":6261:6618   */\n      swap3\n      swap2\n      pop\n      pop\n      jump\t// out\n        /* \"#utility.yul\":6668:8041   */\n    tag_163:\n        /* \"#utility.yul\":6777:6780   */\n      0x00\n        /* \"#utility.yul\":6813:6817   */\n      0xc0\n        /* \"#utility.yul\":6808:6811   */\n      dup4\n        /* \"#utility.yul\":6804:6818   */\n      add\n        /* \"#utility.yul\":6898:6902   */\n      0x00\n        /* \"#utility.yul\":6891:6896   */\n      dup4\n        /* \"#utility.yul\":6887:6903   */\n      add\n        /* \"#utility.yul\":6881:6904   */\n      mload\n        /* \"#utility.yul\":6917:6980   */\n      tag_287\n        /* \"#utility.yul\":6974:6978   */\n      0x00\n        /* \"#utility.yul\":6969:6972   */\n      dup7\n        /* \"#utility.yul\":6965:6979   */\n      add\n        /* \"#utility.yul\":6951:6963   */\n      dup3\n        /* \"#utility.yul\":6917:6980   */\n      tag_157\n      jump\t// in\n    tag_287:\n        /* \"#utility.yul\":6828:6990   */\n      pop\n        /* \"#utility.yul\":7074:7078   */\n      0x20\n        /* \"#utility.yul\":7067:7072   */\n      dup4\n        /* \"#utility.yul\":7063:7079   */\n      add\n        /* \"#utility.yul\":7057:7080   */\n      mload\n        /* \"#utility.yul\":7093:7156   */\n      tag_288\n        /* \"#utility.yul\":7150:7154   */\n      0x20\n        /* \"#utility.yul\":7145:7148   */\n      dup7\n        /* \"#utility.yul\":7141:7155   */\n      add\n        /* \"#utility.yul\":7127:7139   */\n      dup3\n        /* \"#utility.yul\":7093:7156   */\n      tag_158\n      jump\t// in\n    tag_288:\n        /* \"#utility.yul\":7000:7166   */\n      pop\n        /* \"#utility.yul\":7249:7253   */\n      0x40\n        /* \"#utility.yul\":7242:7247   */\n      dup4\n        /* \"#utility.yul\":7238:7254   */\n      add\n        /* \"#utility.yul\":7232:7255   */\n      mload\n        /* \"#utility.yul\":7302:7305   */\n      dup5\n        /* \"#utility.yul\":7296:7300   */\n      dup3\n        /* \"#utility.yul\":7292:7306   */\n      sub\n        /* \"#utility.yul\":7285:7289   */\n      0x40\n        /* \"#utility.yul\":7280:7283   */\n      dup7\n        /* \"#utility.yul\":7276:7290   */\n      add\n        /* \"#utility.yul\":7269:7307   */\n      mstore\n        /* \"#utility.yul\":7328:7401   */\n      tag_289\n        /* \"#utility.yul\":7396:7400   */\n      dup3\n        /* \"#utility.yul\":7382:7394   */\n      dup3\n        /* \"#utility.yul\":7328:7401   */\n      tag_162\n      jump\t// in\n    tag_289:\n        /* \"#utility.yul\":7320:7401   */\n      swap2\n      pop\n        /* \"#utility.yul\":7176:7412   */\n      pop\n        /* \"#utility.yul\":7497:7501   */\n      0x60\n        /* \"#utility.yul\":7490:7495   */\n      dup4\n        /* \"#utility.yul\":7486:7502   */\n      add\n        /* \"#utility.yul\":7480:7503   */\n      mload\n        /* \"#utility.yul\":7550:7553   */\n      dup5\n        /* \"#utility.yul\":7544:7548   */\n      dup3\n        /* \"#utility.yul\":7540:7554   */\n      sub\n        /* \"#utility.yul\":7533:7537   */\n      0x60\n        /* \"#utility.yul\":7528:7531   */\n      dup7\n        /* \"#utility.yul\":7524:7538   */\n      add\n        /* \"#utility.yul\":7517:7555   */\n      mstore\n        /* \"#utility.yul\":7576:7649   */\n      tag_290\n        /* \"#utility.yul\":7644:7648   */\n      dup3\n        /* \"#utility.yul\":7630:7642   */\n      dup3\n        /* \"#utility.yul\":7576:7649   */\n      tag_162\n      jump\t// in\n    tag_290:\n        /* \"#utility.yul\":7568:7649   */\n      swap2\n      pop\n        /* \"#utility.yul\":7422:7660   */\n      pop\n        /* \"#utility.yul\":7747:7751   */\n      0x80\n        /* \"#utility.yul\":7740:7745   */\n      dup4\n        /* \"#utility.yul\":7736:7752   */\n      add\n        /* \"#utility.yul\":7730:7753   */\n      mload\n        /* \"#utility.yul\":7766:7829   */\n      tag_291\n        /* \"#utility.yul\":7823:7827   */\n      0x80\n        /* \"#utility.yul\":7818:7821   */\n      dup7\n        /* \"#utility.yul\":7814:7828   */\n      add\n        /* \"#utility.yul\":7800:7812   */\n      dup3\n        /* \"#utility.yul\":7766:7829   */\n      tag_157\n      jump\t// in\n    tag_291:\n        /* \"#utility.yul\":7670:7839   */\n      pop\n        /* \"#utility.yul\":7922:7926   */\n      0xa0\n        /* \"#utility.yul\":7915:7920   */\n      dup4\n        /* \"#utility.yul\":7911:7927   */\n      add\n        /* \"#utility.yul\":7905:7928   */\n      mload\n        /* \"#utility.yul\":7941:8004   */\n      tag_292\n        /* \"#utility.yul\":7998:8002   */\n      0xa0\n        /* \"#utility.yul\":7993:7996   */\n      dup7\n        /* \"#utility.yul\":7989:8003   */\n      add\n        /* \"#utility.yul\":7975:7987   */\n      dup3\n        /* \"#utility.yul\":7941:8004   */\n      tag_157\n      jump\t// in\n    tag_292:\n        /* \"#utility.yul\":7849:8014   */\n      pop\n        /* \"#utility.yul\":8031:8035   */\n      dup1\n        /* \"#utility.yul\":8024:8035   */\n      swap2\n      pop\n        /* \"#utility.yul\":6782:8041   */\n      pop\n        /* \"#utility.yul\":6668:8041   */\n      swap3\n      swap2\n      pop\n      pop\n      jump\t// out\n        /* \"#utility.yul\":8047:8400   */\n    tag_29:\n        /* \"#utility.yul\":8180:8184   */\n      0x00\n        /* \"#utility.yul\":8218:8220   */\n      0x20\n        /* \"#utility.yul\":8207:8216   */\n      dup3\n        /* \"#utility.yul\":8203:8221   */\n      add\n        /* \"#utility.yul\":8195:8221   */\n      swap1\n      pop\n        /* \"#utility.yul\":8267:8276   */\n      dup2\n        /* \"#utility.yul\":8261:8265   */\n      dup2\n        /* \"#utility.yul\":8257:8277   */\n      sub\n        /* \"#utility.yul\":8253:8254   */\n      0x00\n        /* \"#utility.yul\":8242:8251   */\n      dup4\n        /* \"#utility.yul\":8238:8255   */\n      add\n        /* \"#utility.yul\":8231:8278   */\n      mstore\n        /* \"#utility.yul\":8295:8393   */\n      tag_294\n        /* \"#utility.yul\":8388:8392   */\n      dup2\n        /* \"#utility.yul\":8379:8385   */\n      dup5\n        /* \"#utility.yul\":8295:8393   */\n      tag_163\n      jump\t// in\n    tag_294:\n        /* \"#utility.yul\":8287:8393   */\n      swap1\n      pop\n        /* \"#utility.yul\":8047:8400   */\n      swap3\n      swap2\n      pop\n      pop\n      jump\t// out\n        /* \"#utility.yul\":8406:8735   */\n    tag_35:\n        /* \"#utility.yul\":8465:8471   */\n      0x00\n        /* \"#utility.yul\":8514:8516   */\n      0x20\n        /* \"#utility.yul\":8502:8511   */\n      dup3\n        /* \"#utility.yul\":8493:8500   */\n      dup5\n        /* \"#utility.yul\":8489:8512   */\n      sub\n        /* \"#utility.yul\":8485:8517   */\n      slt\n        /* \"#utility.yul\":8482:8601   */\n      iszero\n      tag_296\n      jumpi\n        /* \"#utility.yul\":8520:8599   */\n      tag_297\n      tag_138\n      jump\t// in\n    tag_297:\n        /* \"#utility.yul\":8482:8601   */\n    tag_296:\n        /* \"#utility.yul\":8640:8641   */\n      0x00\n        /* \"#utility.yul\":8665:8718   */\n      tag_298\n        /* \"#utility.yul\":8710:8717   */\n      dup5\n        /* \"#utility.yul\":8701:8707   */\n      dup3\n        /* \"#utility.yul\":8690:8699   */\n      dup6\n        /* \"#utility.yul\":8686:8708   */\n      add\n        /* \"#utility.yul\":8665:8718   */\n      tag_153\n      jump\t// in\n    tag_298:\n        /* \"#utility.yul\":8655:8718   */\n      swap2\n      pop\n        /* \"#utility.yul\":8611:8728   */\n      pop\n        /* \"#utility.yul\":8406:8735   */\n      swap3\n      swap2\n      pop\n      pop\n      jump\t// out\n        /* \"#utility.yul\":8741:8875   */\n    tag_164:\n        /* \"#utility.yul\":8828:8834   */\n      0x00\n        /* \"#utility.yul\":8862:8867   */\n      dup2\n        /* \"#utility.yul\":8856:8868   */\n      mload\n        /* \"#utility.yul\":8846:8868   */\n      swap1\n      pop\n        /* \"#utility.yul\":8741:8875   */\n      swap2\n      swap1\n      pop\n      jump\t// out\n        /* \"#utility.yul\":8881:9085   */\n    tag_165:\n        /* \"#utility.yul\":9000:9011   */\n      0x00\n        /* \"#utility.yul\":9034:9040   */\n      dup3\n        /* \"#utility.yul\":9029:9032   */\n      dup3\n        /* \"#utility.yul\":9022:9041   */\n      mstore\n        /* \"#utility.yul\":9074:9078   */\n      0x20\n        /* \"#utility.yul\":9069:9072   */\n      dup3\n        /* \"#utility.yul\":9065:9079   */\n      add\n        /* \"#utility.yul\":9050:9079   */\n      swap1\n      pop\n        /* \"#utility.yul\":8881:9085   */\n      swap3\n      swap2\n      pop\n      pop\n      jump\t// out\n        /* \"#utility.yul\":9091:9243   */\n    tag_166:\n        /* \"#utility.yul\":9178:9182   */\n      0x00\n        /* \"#utility.yul\":9201:9204   */\n      dup2\n        /* \"#utility.yul\":9193:9204   */\n      swap1\n      pop\n        /* \"#utility.yul\":9231:9235   */\n      0x20\n        /* \"#utility.yul\":9226:9229   */\n      dup3\n        /* \"#utility.yul\":9222:9236   */\n      add\n        /* \"#utility.yul\":9214:9236   */\n      swap1\n      pop\n        /* \"#utility.yul\":9091:9243   */\n      swap2\n      swap1\n      pop\n      jump\t// out\n        /* \"#utility.yul\":9293:10656   */\n    tag_167:\n        /* \"#utility.yul\":9392:9395   */\n      0x00\n        /* \"#utility.yul\":9428:9432   */\n      0xc0\n        /* \"#utility.yul\":9423:9426   */\n      dup4\n        /* \"#utility.yul\":9419:9433   */\n      add\n        /* \"#utility.yul\":9513:9517   */\n      0x00\n        /* \"#utility.yul\":9506:9511   */\n      dup4\n        /* \"#utility.yul\":9502:9518   */\n      add\n        /* \"#utility.yul\":9496:9519   */\n      mload\n        /* \"#utility.yul\":9532:9595   */\n      tag_303\n        /* \"#utility.yul\":9589:9593   */\n      0x00\n        /* \"#utility.yul\":9584:9587   */\n      dup7\n        /* \"#utility.yul\":9580:9594   */\n      add\n        /* \"#utility.yul\":9566:9578   */\n      dup3\n        /* \"#utility.yul\":9532:9595   */\n      tag_157\n      jump\t// in\n    tag_303:\n        /* \"#utility.yul\":9443:9605   */\n      pop\n        /* \"#utility.yul\":9689:9693   */\n      0x20\n        /* \"#utility.yul\":9682:9687   */\n      dup4\n        /* \"#utility.yul\":9678:9694   */\n      add\n        /* \"#utility.yul\":9672:9695   */\n      mload\n        /* \"#utility.yul\":9708:9771   */\n      tag_304\n        /* \"#utility.yul\":9765:9769   */\n      0x20\n        /* \"#utility.yul\":9760:9763   */\n      dup7\n        /* \"#utility.yul\":9756:9770   */\n      add\n        /* \"#utility.yul\":9742:9754   */\n      dup3\n        /* \"#utility.yul\":9708:9771   */\n      tag_158\n      jump\t// in\n    tag_304:\n        /* \"#utility.yul\":9615:9781   */\n      pop\n        /* \"#utility.yul\":9864:9868   */\n      0x40\n        /* \"#utility.yul\":9857:9862   */\n      dup4\n        /* \"#utility.yul\":9853:9869   */\n      add\n        /* \"#utility.yul\":9847:9870   */\n      mload\n        /* \"#utility.yul\":9917:9920   */\n      dup5\n        /* \"#utility.yul\":9911:9915   */\n      dup3\n        /* \"#utility.yul\":9907:9921   */\n      sub\n        /* \"#utility.yul\":9900:9904   */\n      0x40\n        /* \"#utility.yul\":9895:9898   */\n      dup7\n        /* \"#utility.yul\":9891:9905   */\n      add\n        /* \"#utility.yul\":9884:9922   */\n      mstore\n        /* \"#utility.yul\":9943:10016   */\n      tag_305\n        /* \"#utility.yul\":10011:10015   */\n      dup3\n        /* \"#utility.yul\":9997:10009   */\n      dup3\n        /* \"#utility.yul\":9943:10016   */\n      tag_162\n      jump\t// in\n    tag_305:\n        /* \"#utility.yul\":9935:10016   */\n      swap2\n      pop\n        /* \"#utility.yul\":9791:10027   */\n      pop\n        /* \"#utility.yul\":10112:10116   */\n      0x60\n        /* \"#utility.yul\":10105:10110   */\n      dup4\n        /* \"#utility.yul\":10101:10117   */\n      add\n        /* \"#utility.yul\":10095:10118   */\n      mload\n        /* \"#utility.yul\":10165:10168   */\n      dup5\n        /* \"#utility.yul\":10159:10163   */\n      dup3\n        /* \"#utility.yul\":10155:10169   */\n      sub\n        /* \"#utility.yul\":10148:10152   */\n      0x60\n        /* \"#utility.yul\":10143:10146   */\n      dup7\n        /* \"#utility.yul\":10139:10153   */\n      add\n        /* \"#utility.yul\":10132:10170   */\n      mstore\n        /* \"#utility.yul\":10191:10264   */\n      tag_306\n        /* \"#utility.yul\":10259:10263   */\n      dup3\n        /* \"#utility.yul\":10245:10257   */\n      dup3\n        /* \"#utility.yul\":10191:10264   */\n      tag_162\n      jump\t// in\n    tag_306:\n        /* \"#utility.yul\":10183:10264   */\n      swap2\n      pop\n        /* \"#utility.yul\":10037:10275   */\n      pop\n        /* \"#utility.yul\":10362:10366   */\n      0x80\n        /* \"#utility.yul\":10355:10360   */\n      dup4\n        /* \"#utility.yul\":10351:10367   */\n      add\n        /* \"#utility.yul\":10345:10368   */\n      mload\n        /* \"#utility.yul\":10381:10444   */\n      tag_307\n        /* \"#utility.yul\":10438:10442   */\n      0x80\n        /* \"#utility.yul\":10433:10436   */\n      dup7\n        /* \"#utility.yul\":10429:10443   */\n      add\n        /* \"#utility.yul\":10415:10427   */\n      dup3\n        /* \"#utility.yul\":10381:10444   */\n      tag_157\n      jump\t// in\n    tag_307:\n        /* \"#utility.yul\":10285:10454   */\n      pop\n        /* \"#utility.yul\":10537:10541   */\n      0xa0\n        /* \"#utility.yul\":10530:10535   */\n      dup4\n        /* \"#utility.yul\":10526:10542   */\n      add\n        /* \"#utility.yul\":10520:10543   */\n      mload\n        /* \"#utility.yul\":10556:10619   */\n      tag_308\n        /* \"#utility.yul\":10613:10617   */\n      0xa0\n        /* \"#utility.yul\":10608:10611   */\n      dup7\n        /* \"#utility.yul\":10604:10618   */\n      add\n        /* \"#utility.yul\":10590:10602   */\n      dup3\n        /* \"#utility.yul\":10556:10619   */\n      tag_157\n      jump\t// in\n    tag_308:\n        /* \"#utility.yul\":10464:10629   */\n      pop\n        /* \"#utility.yul\":10646:10650   */\n      dup1\n        /* \"#utility.yul\":10639:10650   */\n      swap2\n      pop\n        /* \"#utility.yul\":9397:10656   */\n      pop\n        /* \"#utility.yul\":9293:10656   */\n      swap3\n      swap2\n      pop\n      pop\n      jump\t// out\n        /* \"#utility.yul\":10662:10898   */\n    tag_168:\n        /* \"#utility.yul\":10771:10781   */\n      0x00\n        /* \"#utility.yul\":10806:10892   */\n      tag_310\n        /* \"#utility.yul\":10888:10891   */\n      dup4\n        /* \"#utility.yul\":10880:10886   */\n      dup4\n        /* \"#utility.yul\":10806:10892   */\n      tag_167\n      jump\t// in\n    tag_310:\n        /* \"#utility.yul\":10792:10892   */\n      swap1\n      pop\n        /* \"#utility.yul\":10662:10898   */\n      swap3\n      swap2\n      pop\n      pop\n      jump\t// out\n        /* \"#utility.yul\":10904:11037   */\n    tag_169:\n        /* \"#utility.yul\":10994:10998   */\n      0x00\n        /* \"#utility.yul\":11026:11030   */\n      0x20\n        /* \"#utility.yul\":11021:11024   */\n      dup3\n        /* \"#utility.yul\":11017:11031   */\n      add\n        /* \"#utility.yul\":11009:11031   */\n      swap1\n      pop\n        /* \"#utility.yul\":10904:11037   */\n      swap2\n      swap1\n      pop\n      jump\t// out\n        /* \"#utility.yul\":11091:12162   */\n    tag_170:\n        /* \"#utility.yul\":11250:11253   */\n      0x00\n        /* \"#utility.yul\":11279:11353   */\n      tag_313\n        /* \"#utility.yul\":11347:11352   */\n      dup3\n        /* \"#utility.yul\":11279:11353   */\n      tag_164\n      jump\t// in\n    tag_313:\n        /* \"#utility.yul\":11369:11475   */\n      tag_314\n        /* \"#utility.yul\":11468:11474   */\n      dup2\n        /* \"#utility.yul\":11463:11466   */\n      dup6\n        /* \"#utility.yul\":11369:11475   */\n      tag_165\n      jump\t// in\n    tag_314:\n        /* \"#utility.yul\":11362:11475   */\n      swap4\n      pop\n        /* \"#utility.yul\":11501:11504   */\n      dup4\n        /* \"#utility.yul\":11546:11550   */\n      0x20\n        /* \"#utility.yul\":11538:11544   */\n      dup3\n        /* \"#utility.yul\":11534:11551   */\n      mul\n        /* \"#utility.yul\":11529:11532   */\n      dup6\n        /* \"#utility.yul\":11525:11552   */\n      add\n        /* \"#utility.yul\":11576:11652   */\n      tag_315\n        /* \"#utility.yul\":11646:11651   */\n      dup6\n        /* \"#utility.yul\":11576:11652   */\n      tag_166\n      jump\t// in\n    tag_315:\n        /* \"#utility.yul\":11675:11682   */\n      dup1\n        /* \"#utility.yul\":11706:11707   */\n      0x00\n        /* \"#utility.yul\":11691:12117   */\n    tag_316:\n        /* \"#utility.yul\":11716:11722   */\n      dup6\n        /* \"#utility.yul\":11713:11714   */\n      dup2\n        /* \"#utility.yul\":11710:11723   */\n      lt\n        /* \"#utility.yul\":11691:12117   */\n      iszero\n      tag_318\n      jumpi\n        /* \"#utility.yul\":11787:11796   */\n      dup5\n        /* \"#utility.yul\":11781:11785   */\n      dup5\n        /* \"#utility.yul\":11777:11797   */\n      sub\n        /* \"#utility.yul\":11772:11775   */\n      dup10\n        /* \"#utility.yul\":11765:11798   */\n      mstore\n        /* \"#utility.yul\":11838:11844   */\n      dup2\n        /* \"#utility.yul\":11832:11845   */\n      mload\n        /* \"#utility.yul\":11866:11970   */\n      tag_319\n        /* \"#utility.yul\":11965:11969   */\n      dup6\n        /* \"#utility.yul\":11950:11963   */\n      dup3\n        /* \"#utility.yul\":11866:11970   */\n      tag_168\n      jump\t// in\n    tag_319:\n        /* \"#utility.yul\":11858:11970   */\n      swap5\n      pop\n        /* \"#utility.yul\":11993:12073   */\n      tag_320\n        /* \"#utility.yul\":12066:12072   */\n      dup4\n        /* \"#utility.yul\":11993:12073   */\n      tag_169\n      jump\t// in\n    tag_320:\n        /* \"#utility.yul\":11983:12073   */\n      swap3\n      pop\n        /* \"#utility.yul\":12102:12106   */\n      0x20\n        /* \"#utility.yul\":12097:12100   */\n      dup11\n        /* \"#utility.yul\":12093:12107   */\n      add\n        /* \"#utility.yul\":12086:12107   */\n      swap10\n      pop\n        /* \"#utility.yul\":11751:12117   */\n      pop\n        /* \"#utility.yul\":11738:11739   */\n      0x01\n        /* \"#utility.yul\":11735:11736   */\n      dup2\n        /* \"#utility.yul\":11731:11740   */\n      add\n        /* \"#utility.yul\":11726:11740   */\n      swap1\n      pop\n        /* \"#utility.yul\":11691:12117   */\n      jump(tag_316)\n    tag_318:\n        /* \"#utility.yul\":11695:11709   */\n      pop\n        /* \"#utility.yul\":12133:12137   */\n      dup3\n        /* \"#utility.yul\":12126:12137   */\n      swap8\n      pop\n        /* \"#utility.yul\":12153:12156   */\n      dup8\n        /* \"#utility.yul\":12146:12156   */\n      swap6\n      pop\n        /* \"#utility.yul\":11255:12162   */\n      pop\n      pop\n      pop\n      pop\n      pop\n        /* \"#utility.yul\":11091:12162   */\n      swap3\n      swap2\n      pop\n      pop\n      jump\t// out\n        /* \"#utility.yul\":12168:12621   */\n    tag_38:\n        /* \"#utility.yul\":12351:12355   */\n      0x00\n        /* \"#utility.yul\":12389:12391   */\n      0x20\n        /* \"#utility.yul\":12378:12387   */\n      dup3\n        /* \"#utility.yul\":12374:12392   */\n      add\n        /* \"#utility.yul\":12366:12392   */\n      swap1\n      pop\n        /* \"#utility.yul\":12438:12447   */\n      dup2\n        /* \"#utility.yul\":12432:12436   */\n      dup2\n        /* \"#utility.yul\":12428:12448   */\n      sub\n        /* \"#utility.yul\":12424:12425   */\n      0x00\n        /* \"#utility.yul\":12413:12422   */\n      dup4\n        /* \"#utility.yul\":12409:12426   */\n      add\n        /* \"#utility.yul\":12402:12449   */\n      mstore\n        /* \"#utility.yul\":12466:12614   */\n      tag_322\n        /* \"#utility.yul\":12609:12613   */\n      dup2\n        /* \"#utility.yul\":12600:12606   */\n      dup5\n        /* \"#utility.yul\":12466:12614   */\n      tag_170\n      jump\t// in\n    tag_322:\n        /* \"#utility.yul\":12458:12614   */\n      swap1\n      pop\n        /* \"#utility.yul\":12168:12621   */\n      swap3\n      swap2\n      pop\n      pop\n      jump\t// out\n        /* \"#utility.yul\":12627:12745   */\n    tag_171:\n        /* \"#utility.yul\":12714:12738   */\n      tag_324\n        /* \"#utility.yul\":12732:12737   */\n      dup2\n        /* \"#utility.yul\":12714:12738   */\n      tag_151\n      jump\t// in\n    tag_324:\n        /* \"#utility.yul\":12709:12712   */\n      dup3\n        /* \"#utility.yul\":12702:12739   */\n      mstore\n        /* \"#utility.yul\":12627:12745   */\n      pop\n      pop\n      jump\t// out\n        /* \"#utility.yul\":12751:12973   */\n    tag_42:\n        /* \"#utility.yul\":12844:12848   */\n      0x00\n        /* \"#utility.yul\":12882:12884   */\n      0x20\n        /* \"#utility.yul\":12871:12880   */\n      dup3\n        /* \"#utility.yul\":12867:12885   */\n      add\n        /* \"#utility.yul\":12859:12885   */\n      swap1\n      pop\n        /* \"#utility.yul\":12895:12966   */\n      tag_326\n        /* \"#utility.yul\":12963:12964   */\n      0x00\n        /* \"#utility.yul\":12952:12961   */\n      dup4\n        /* \"#utility.yul\":12948:12965   */\n      add\n        /* \"#utility.yul\":12939:12945   */\n      dup5\n        /* \"#utility.yul\":12895:12966   */\n      tag_171\n      jump\t// in\n    tag_326:\n        /* \"#utility.yul\":12751:12973   */\n      swap3\n      swap2\n      pop\n      pop\n      jump\t// out\n        /* \"#utility.yul\":12979:13099   */\n    tag_172:\n        /* \"#utility.yul\":13051:13074   */\n      tag_328\n        /* \"#utility.yul\":13068:13073   */\n      dup2\n        /* \"#utility.yul\":13051:13074   */\n      tag_135\n      jump\t// in\n    tag_328:\n        /* \"#utility.yul\":13044:13049   */\n      dup2\n        /* \"#utility.yul\":13041:13075   */\n      eq\n        /* \"#utility.yul\":13031:13093   */\n      tag_329\n      jumpi\n        /* \"#utility.yul\":13089:13090   */\n      0x00\n        /* \"#utility.yul\":13086:13087   */\n      dup1\n        /* \"#utility.yul\":13079:13091   */\n      revert\n        /* \"#utility.yul\":13031:13093   */\n    tag_329:\n        /* \"#utility.yul\":12979:13099   */\n      pop\n      jump\t// out\n        /* \"#utility.yul\":13105:13242   */\n    tag_173:\n        /* \"#utility.yul\":13150:13155   */\n      0x00\n        /* \"#utility.yul\":13188:13194   */\n      dup2\n        /* \"#utility.yul\":13175:13195   */\n      calldataload\n        /* \"#utility.yul\":13166:13195   */\n      swap1\n      pop\n        /* \"#utility.yul\":13204:13236   */\n      tag_331\n        /* \"#utility.yul\":13230:13235   */\n      dup2\n        /* \"#utility.yul\":13204:13236   */\n      tag_172\n      jump\t// in\n    tag_331:\n        /* \"#utility.yul\":13105:13242   */\n      swap3\n      swap2\n      pop\n      pop\n      jump\t// out\n        /* \"#utility.yul\":13248:13575   */\n    tag_45:\n        /* \"#utility.yul\":13306:13312   */\n      0x00\n        /* \"#utility.yul\":13355:13357   */\n      0x20\n        /* \"#utility.yul\":13343:13352   */\n      dup3\n        /* \"#utility.yul\":13334:13341   */\n      dup5\n        /* \"#utility.yul\":13330:13353   */\n      sub\n        /* \"#utility.yul\":13326:13358   */\n      slt\n        /* \"#utility.yul\":13323:13442   */\n      iszero\n      tag_333\n      jumpi\n        /* \"#utility.yul\":13361:13440   */\n      tag_334\n      tag_138\n      jump\t// in\n    tag_334:\n        /* \"#utility.yul\":13323:13442   */\n    tag_333:\n        /* \"#utility.yul\":13481:13482   */\n      0x00\n        /* \"#utility.yul\":13506:13558   */\n      tag_335\n        /* \"#utility.yul\":13550:13557   */\n      dup5\n        /* \"#utility.yul\":13541:13547   */\n      dup3\n        /* \"#utility.yul\":13530:13539   */\n      dup6\n        /* \"#utility.yul\":13526:13548   */\n      add\n        /* \"#utility.yul\":13506:13558   */\n      tag_173\n      jump\t// in\n    tag_335:\n        /* \"#utility.yul\":13496:13558   */\n      swap2\n      pop\n        /* \"#utility.yul\":13452:13568   */\n      pop\n        /* \"#utility.yul\":13248:13575   */\n      swap3\n      swap2\n      pop\n      pop\n      jump\t// out\n        /* \"#utility.yul\":13581:13750   */\n    tag_174:\n        /* \"#utility.yul\":13665:13676   */\n      0x00\n        /* \"#utility.yul\":13699:13705   */\n      dup3\n        /* \"#utility.yul\":13694:13697   */\n      dup3\n        /* \"#utility.yul\":13687:13706   */\n      mstore\n        /* \"#utility.yul\":13739:13743   */\n      0x20\n        /* \"#utility.yul\":13734:13737   */\n      dup3\n        /* \"#utility.yul\":13730:13744   */\n      add\n        /* \"#utility.yul\":13715:13744   */\n      swap1\n      pop\n        /* \"#utility.yul\":13581:13750   */\n      swap3\n      swap2\n      pop\n      pop\n      jump\t// out\n        /* \"#utility.yul\":13756:13920   */\n    tag_175:\n        /* \"#utility.yul\":13896:13912   */\n      0x5469746c6520746f6f206c6f6e67000000000000000000000000000000000000\n        /* \"#utility.yul\":13892:13893   */\n      0x00\n        /* \"#utility.yul\":13884:13890   */\n      dup3\n        /* \"#utility.yul\":13880:13894   */\n      add\n        /* \"#utility.yul\":13873:13913   */\n      mstore\n        /* \"#utility.yul\":13756:13920   */\n      pop\n      jump\t// out\n        /* \"#utility.yul\":13926:14292   */\n    tag_176:\n        /* \"#utility.yul\":14068:14071   */\n      0x00\n        /* \"#utility.yul\":14089:14156   */\n      tag_339\n        /* \"#utility.yul\":14153:14155   */\n      0x0e\n        /* \"#utility.yul\":14148:14151   */\n      dup4\n        /* \"#utility.yul\":14089:14156   */\n      tag_174\n      jump\t// in\n    tag_339:\n        /* \"#utility.yul\":14082:14156   */\n      swap2\n      pop\n        /* \"#utility.yul\":14165:14258   */\n      tag_340\n        /* \"#utility.yul\":14254:14257   */\n      dup3\n        /* \"#utility.yul\":14165:14258   */\n      tag_175\n      jump\t// in\n    tag_340:\n        /* \"#utility.yul\":14283:14285   */\n      0x20\n        /* \"#utility.yul\":14278:14281   */\n      dup3\n        /* \"#utility.yul\":14274:14286   */\n      add\n        /* \"#utility.yul\":14267:14286   */\n      swap1\n      pop\n        /* \"#utility.yul\":13926:14292   */\n      swap2\n      swap1\n      pop\n      jump\t// out\n        /* \"#utility.yul\":14298:14717   */\n    tag_50:\n        /* \"#utility.yul\":14464:14468   */\n      0x00\n        /* \"#utility.yul\":14502:14504   */\n      0x20\n        /* \"#utility.yul\":14491:14500   */\n      dup3\n        /* \"#utility.yul\":14487:14505   */\n      add\n        /* \"#utility.yul\":14479:14505   */\n      swap1\n      pop\n        /* \"#utility.yul\":14551:14560   */\n      dup2\n        /* \"#utility.yul\":14545:14549   */\n      dup2\n        /* \"#utility.yul\":14541:14561   */\n      sub\n        /* \"#utility.yul\":14537:14538   */\n      0x00\n        /* \"#utility.yul\":14526:14535   */\n      dup4\n        /* \"#utility.yul\":14522:14539   */\n      add\n        /* \"#utility.yul\":14515:14562   */\n      mstore\n        /* \"#utility.yul\":14579:14710   */\n      tag_342\n        /* \"#utility.yul\":14705:14709   */\n      dup2\n        /* \"#utility.yul\":14579:14710   */\n      tag_176\n      jump\t// in\n    tag_342:\n        /* \"#utility.yul\":14571:14710   */\n      swap1\n      pop\n        /* \"#utility.yul\":14298:14717   */\n      swap2\n      swap1\n      pop\n      jump\t// out\n        /* \"#utility.yul\":14723:14889   */\n    tag_177:\n        /* \"#utility.yul\":14863:14881   */\n      0x436f6e74656e7420746f6f206c6f6e6700000000000000000000000000000000\n        /* \"#utility.yul\":14859:14860   */\n      0x00\n        /* \"#utility.yul\":14851:14857   */\n      dup3\n        /* \"#utility.yul\":14847:14861   */\n      add\n        /* \"#utility.yul\":14840:14882   */\n      mstore\n        /* \"#utility.yul\":14723:14889   */\n      pop\n      jump\t// out\n        /* \"#utility.yul\":14895:15261   */\n    tag_178:\n        /* \"#utility.yul\":15037:15040   */\n      0x00\n        /* \"#utility.yul\":15058:15125   */\n      tag_345\n        /* \"#utility.yul\":15122:15124   */\n      0x10\n        /* \"#utility.yul\":15117:15120   */\n      dup4\n        /* \"#utility.yul\":15058:15125   */\n      tag_174\n      jump\t// in\n    tag_345:\n        /* \"#utility.yul\":15051:15125   */\n      swap2\n      pop\n        /* \"#utility.yul\":15134:15227   */\n      tag_346\n        /* \"#utility.yul\":15223:15226   */\n      dup3\n        /* \"#utility.yul\":15134:15227   */\n      tag_177\n      jump\t// in\n    tag_346:\n        /* \"#utility.yul\":15252:15254   */\n      0x20\n        /* \"#utility.yul\":15247:15250   */\n      dup3\n        /* \"#utility.yul\":15243:15255   */\n      add\n        /* \"#utility.yul\":15236:15255   */\n      swap1\n      pop\n        /* \"#utility.yul\":14895:15261   */\n      swap2\n      swap1\n      pop\n      jump\t// out\n        /* \"#utility.yul\":15267:15686   */\n    tag_53:\n        /* \"#utility.yul\":15433:15437   */\n      0x00\n        /* \"#utility.yul\":15471:15473   */\n      0x20\n        /* \"#utility.yul\":15460:15469   */\n      dup3\n        /* \"#utility.yul\":15456:15474   */\n      add\n        /* \"#utility.yul\":15448:15474   */\n      swap1\n      pop\n        /* \"#utility.yul\":15520:15529   */\n      dup2\n        /* \"#utility.yul\":15514:15518   */\n      dup2\n        /* \"#utility.yul\":15510:15530   */\n      sub\n        /* \"#utility.yul\":15506:15507   */\n      0x00\n        /* \"#utility.yul\":15495:15504   */\n      dup4\n        /* \"#utility.yul\":15491:15508   */\n      add\n        /* \"#utility.yul\":15484:15531   */\n      mstore\n        /* \"#utility.yul\":15548:15679   */\n      tag_348\n        /* \"#utility.yul\":15674:15678   */\n      dup2\n        /* \"#utility.yul\":15548:15679   */\n      tag_178\n      jump\t// in\n    tag_348:\n        /* \"#utility.yul\":15540:15679   */\n      swap1\n      pop\n        /* \"#utility.yul\":15267:15686   */\n      swap2\n      swap1\n      pop\n      jump\t// out\n        /* \"#utility.yul\":15692:15872   */\n    tag_179:\n        /* \"#utility.yul\":15740:15817   */\n      0x4e487b7100000000000000000000000000000000000000000000000000000000\n        /* \"#utility.yul\":15737:15738   */\n      0x00\n        /* \"#utility.yul\":15730:15818   */\n      mstore\n        /* \"#utility.yul\":15837:15841   */\n      0x22\n        /* \"#utility.yul\":15834:15835   */\n      0x04\n        /* \"#utility.yul\":15827:15842   */\n      mstore\n        /* \"#utility.yul\":15861:15865   */\n      0x24\n        /* \"#utility.yul\":15858:15859   */\n      0x00\n        /* \"#utility.yul\":15851:15866   */\n      revert\n        /* \"#utility.yul\":15878:16198   */\n    tag_91:\n        /* \"#utility.yul\":15922:15928   */\n      0x00\n        /* \"#utility.yul\":15959:15960   */\n      0x02\n        /* \"#utility.yul\":15953:15957   */\n      dup3\n        /* \"#utility.yul\":15949:15961   */\n      div\n        /* \"#utility.yul\":15939:15961   */\n      swap1\n      pop\n        /* \"#utility.yul\":16006:16007   */\n      0x01\n        /* \"#utility.yul\":16000:16004   */\n      dup3\n        /* \"#utility.yul\":15996:16008   */\n      and\n        /* \"#utility.yul\":16027:16045   */\n      dup1\n        /* \"#utility.yul\":16017:16098   */\n      tag_351\n      jumpi\n        /* \"#utility.yul\":16083:16087   */\n      0x7f\n        /* \"#utility.yul\":16075:16081   */\n      dup3\n        /* \"#utility.yul\":16071:16088   */\n      and\n        /* \"#utility.yul\":16061:16088   */\n      swap2\n      pop\n        /* \"#utility.yul\":16017:16098   */\n    tag_351:\n        /* \"#utility.yul\":16145:16147   */\n      0x20\n        /* \"#utility.yul\":16137:16143   */\n      dup3\n        /* \"#utility.yul\":16134:16148   */\n      lt\n        /* \"#utility.yul\":16114:16132   */\n      dup2\n        /* \"#utility.yul\":16111:16149   */\n      sub\n        /* \"#utility.yul\":16108:16192   */\n      tag_352\n      jumpi\n        /* \"#utility.yul\":16164:16182   */\n      tag_353\n      tag_179\n      jump\t// in\n    tag_353:\n        /* \"#utility.yul\":16108:16192   */\n    tag_352:\n        /* \"#utility.yul\":15929:16198   */\n      pop\n        /* \"#utility.yul\":15878:16198   */\n      swap2\n      swap1\n      pop\n      jump\t// out\n        /* \"#utility.yul\":16204:16345   */\n    tag_180:\n        /* \"#utility.yul\":16253:16257   */\n      0x00\n        /* \"#utility.yul\":16276:16279   */\n      dup2\n        /* \"#utility.yul\":16268:16279   */\n      swap1\n      pop\n        /* \"#utility.yul\":16299:16302   */\n      dup2\n        /* \"#utility.yul\":16296:16297   */\n      0x00\n        /* \"#utility.yul\":16289:16303   */\n      mstore\n        /* \"#utility.yul\":16333:16337   */\n      0x20\n        /* \"#utility.yul\":16330:16331   */\n      0x00\n        /* \"#utility.yul\":16320:16338   */\n      keccak256\n        /* \"#utility.yul\":16312:16338   */\n      swap1\n      pop\n        /* \"#utility.yul\":16204:16345   */\n      swap2\n      swap1\n      pop\n      jump\t// out\n        /* \"#utility.yul\":16351:16444   */\n    tag_181:\n        /* \"#utility.yul\":16388:16394   */\n      0x00\n        /* \"#utility.yul\":16435:16437   */\n      0x20\n        /* \"#utility.yul\":16430:16432   */\n      0x1f\n        /* \"#utility.yul\":16423:16428   */\n      dup4\n        /* \"#utility.yul\":16419:16433   */\n      add\n        /* \"#utility.yul\":16415:16438   */\n      div\n        /* \"#utility.yul\":16405:16438   */\n      swap1\n      pop\n        /* \"#utility.yul\":16351:16444   */\n      swap2\n      swap1\n      pop\n      jump\t// out\n        /* \"#utility.yul\":16450:16557   */\n    tag_182:\n        /* \"#utility.yul\":16494:16502   */\n      0x00\n        /* \"#utility.yul\":16544:16549   */\n      dup3\n        /* \"#utility.yul\":16538:16542   */\n      dup3\n        /* \"#utility.yul\":16534:16550   */\n      shl\n        /* \"#utility.yul\":16513:16550   */\n      swap1\n      pop\n        /* \"#utility.yul\":16450:16557   */\n      swap3\n      swap2\n      pop\n      pop\n      jump\t// out\n        /* \"#utility.yul\":16563:16956   */\n    tag_183:\n        /* \"#utility.yul\":16632:16638   */\n      0x00\n        /* \"#utility.yul\":16682:16683   */\n      0x08\n        /* \"#utility.yul\":16670:16680   */\n      dup4\n        /* \"#utility.yul\":16666:16684   */\n      mul\n        /* \"#utility.yul\":16705:16802   */\n      tag_358\n        /* \"#utility.yul\":16735:16801   */\n      0xffffffffffffffffffffffffffffffffffffffffffffffffffffffffffffffff\n        /* \"#utility.yul\":16724:16733   */\n      dup3\n        /* \"#utility.yul\":16705:16802   */\n      tag_182\n      jump\t// in\n    tag_358:\n        /* \"#utility.yul\":16823:16862   */\n      tag_359\n        /* \"#utility.yul\":16853:16861   */\n      dup7\n        /* \"#utility.yul\":16842:16851   */\n      dup4\n        /* \"#utility.yul\":16823:16862   */\n      tag_182\n      jump\t// in\n    tag_359:\n        /* \"#utility.yul\":16811:16862   */\n      swap6\n      pop\n        /* \"#utility.yul\":16895:16899   */\n      dup1\n        /* \"#utility.yul\":16891:16900   */\n      not\n        /* \"#utility.yul\":16884:16889   */\n      dup5\n        /* \"#utility.yul\":16880:16901   */\n      and\n        /* \"#utility.yul\":16871:16901   */\n      swap4\n      pop\n        /* \"#utility.yul\":16944:16948   */\n      dup1\n        /* \"#utility.yul\":16934:16942   */\n      dup7\n        /* \"#utility.yul\":16930:16949   */\n      and\n        /* \"#utility.yul\":16923:16928   */\n      dup5\n        /* \"#utility.yul\":16920:16950   */\n      or\n        /* \"#utility.yul\":16910:16950   */\n      swap3\n      pop\n        /* \"#utility.yul\":16639:16956   */\n      pop\n      pop\n        /* \"#utility.yul\":16563:16956   */\n      swap4\n      swap3\n      pop\n      pop\n      pop\n      jump\t// out\n        /* \"#utility.yul\":16962:17022   */\n    tag_184:\n        /* \"#utility.yul\":16990:16993   */\n      0x00\n        /* \"#utility.yul\":17011:17016   */\n      dup2\n        /* \"#utility.yul\":17004:17016   */\n      swap1\n      pop\n        /* \"#utility.yul\":16962:17022   */\n      swap2\n      swap1\n      pop\n      jump\t// out\n        /* \"#utility.yul\":17028:17170   */\n    tag_185:\n        /* \"#utility.yul\":17078:17087   */\n      0x00\n        /* \"#utility.yul\":17111:17164   */\n      tag_362\n        /* \"#utility.yul\":17129:17163   */\n      tag_363\n        /* \"#utility.yul\":17138:17162   */\n      tag_364\n        /* \"#utility.yul\":17156:17161   */\n      dup5\n        /* \"#utility.yul\":17138:17162   */\n      tag_154\n      jump\t// in\n    tag_364:\n        /* \"#utility.yul\":17129:17163   */\n      tag_184\n      jump\t// in\n    tag_363:\n        /* \"#utility.yul\":17111:17164   */\n      tag_154\n      jump\t// in\n    tag_362:\n        /* \"#utility.yul\":17098:17164   */\n      swap1\n      pop\n        /* \"#utility.yul\":17028:17170   */\n      swap2\n      swap1\n      pop\n      jump\t// out\n        /* \"#utility.yul\":17176:17251   */\n    tag_186:\n        /* \"#utility.yul\":17219:17222   */\n      0x00\n        /* \"#utility.yul\":17240:17245   */\n      dup2\n        /* \"#utility.yul\":17233:17245   */\n      swap1\n      pop\n        /* \"#utility.yul\":17176:17251   */\n      swap2\n      swap1\n      pop\n      jump\t// out\n        /* \"#utility.yul\":17257:17526   */\n    tag_187:\n        /* \"#utility.yul\":17367:17406   */\n      tag_367\n        /* \"#utility.yul\":17398:17405   */\n      dup4\n        /* \"#utility.yul\":17367:17406   */\n      tag_185\n      jump\t// in\n    tag_367:\n        /* \"#utility.yul\":17428:17519   */\n      tag_368\n        /* \"#utility.yul\":17477:17518   */\n      tag_369\n        /* \"#utility.yul\":17501:17517   */\n      dup3\n        /* \"#utility.yul\":17477:17518   */\n      tag_186\n      jump\t// in\n    tag_369:\n        /* \"#utility.yul\":17469:17475   */\n      dup5\n        /* \"#utility.yul\":17462:17466   */\n      dup5\n        /* \"#utility.yul\":17456:17467   */\n      sload\n        /* \"#utility.yul\":17428:17519   */\n      tag_183\n      jump\t// in\n    tag_368:\n        /* \"#utility.yul\":17422:17426   */\n      dup3\n        /* \"#utility.yul\":17415:17520   */\n      sstore\n        /* \"#utility.yul\":17333:17526   */\n      pop\n        /* \"#utility.yul\":17257:17526   */\n      pop\n      pop\n      pop\n      jump\t// out\n        /* \"#utility.yul\":17532:17605   */\n    tag_188:\n        /* \"#utility.yul\":17577:17580   */\n      0x00\n        /* \"#utility.yul\":17532:17605   */\n      swap1\n      jump\t// out\n        /* \"#utility.yul\":17611:17800   */\n    tag_189:\n        /* \"#utility.yul\":17688:17720   */\n      tag_372\n      tag_188\n      jump\t// in\n    tag_372:\n        /* \"#utility.yul\":17729:17794   */\n      tag_373\n        /* \"#utility.yul\":17787:17793   */\n      dup2\n        /* \"#utility.yul\":17779:17785   */\n      dup5\n        /* \"#utility.yul\":17773:17777   */\n      dup5\n        /* \"#utility.yul\":17729:17794   */\n      tag_187\n      jump\t// in\n    tag_373:\n        /* \"#utility.yul\":17664:17800   */\n      pop\n        /* \"#utility.yul\":17611:17800   */\n      pop\n      pop\n      jump\t// out\n        /* \"#utility.yul\":17806:17992   */\n    tag_190:\n        /* \"#utility.yul\":17866:17986   */\n    tag_375:\n        /* \"#utility.yul\":17883:17886   */\n      dup2\n        /* \"#utility.yul\":17876:17881   */\n      dup2\n        /* \"#utility.yul\":17873:17887   */\n      lt\n        /* \"#utility.yul\":17866:17986   */\n      iszero\n      tag_377\n      jumpi\n        /* \"#utility.yul\":17937:17976   */\n      tag_378\n        /* \"#utility.yul\":17974:17975   */\n      0x00\n        /* \"#utility.yul\":17967:17972   */\n      dup3\n        /* \"#utility.yul\":17937:17976   */\n      tag_189\n      jump\t// in\n    tag_378:\n        /* \"#utility.yul\":17910:17911   */\n      0x01\n        /* \"#utility.yul\":17903:17908   */\n      dup2\n        /* \"#utility.yul\":17899:17912   */\n      add\n        /* \"#utility.yul\":17890:17912   */\n      swap1\n      pop\n        /* \"#utility.yul\":17866:17986   */\n      jump(tag_375)\n    tag_377:\n        /* \"#utility.yul\":17806:17992   */\n      pop\n      pop\n      jump\t// out\n        /* \"#utility.yul\":17998:18541   */\n    tag_191:\n        /* \"#utility.yul\":18099:18101   */\n      0x1f\n        /* \"#utility.yul\":18094:18097   */\n      dup3\n        /* \"#utility.yul\":18091:18102   */\n      gt\n        /* \"#utility.yul\":18088:18534   */\n      iszero\n      tag_380\n      jumpi\n        /* \"#utility.yul\":18133:18171   */\n      tag_381\n        /* \"#utility.yul\":18165:18170   */\n      dup2\n        /* \"#utility.yul\":18133:18171   */\n      tag_180\n      jump\t// in\n    tag_381:\n        /* \"#utility.yul\":18217:18246   */\n      tag_382\n        /* \"#utility.yul\":18235:18245   */\n      dup5\n        /* \"#utility.yul\":18217:18246   */\n      tag_181\n      jump\t// in\n    tag_382:\n        /* \"#utility.yul\":18207:18215   */\n      dup2\n        /* \"#utility.yul\":18203:18247   */\n      add\n        /* \"#utility.yul\":18400:18402   */\n      0x20\n        /* \"#utility.yul\":18388:18398   */\n      dup6\n        /* \"#utility.yul\":18385:18403   */\n      lt\n        /* \"#utility.yul\":18382:18431   */\n      iszero\n      tag_383\n      jumpi\n        /* \"#utility.yul\":18421:18429   */\n      dup2\n        /* \"#utility.yul\":18406:18429   */\n      swap1\n      pop\n        /* \"#utility.yul\":18382:18431   */\n    tag_383:\n        /* \"#utility.yul\":18444:18524   */\n      tag_384\n        /* \"#utility.yul\":18500:18522   */\n      tag_385\n        /* \"#utility.yul\":18518:18521   */\n      dup6\n        /* \"#utility.yul\":18500:18522   */\n      tag_181\n      jump\t// in\n    tag_385:\n        /* \"#utility.yul\":18490:18498   */\n      dup4\n        /* \"#utility.yul\":18486:18523   */\n      add\n        /* \"#utility.yul\":18473:18484   */\n      dup3\n        /* \"#utility.yul\":18444:18524   */\n      tag_190\n      jump\t// in\n    tag_384:\n        /* \"#utility.yul\":18103:18534   */\n      pop\n      pop\n        /* \"#utility.yul\":18088:18534   */\n    tag_380:\n        /* \"#utility.yul\":17998:18541   */\n      pop\n      pop\n      pop\n      jump\t// out\n        /* \"#utility.yul\":18547:18664   */\n    tag_192:\n        /* \"#utility.yul\":18601:18609   */\n      0x00\n        /* \"#utility.yul\":18651:18656   */\n      dup3\n        /* \"#utility.yul\":18645:18649   */\n      dup3\n        /* \"#utility.yul\":18641:18657   */\n      shr\n        /* \"#utility.yul\":18620:18657   */\n      swap1\n      pop\n        /* \"#utility.yul\":18547:18664   */\n      swap3\n      swap2\n      pop\n      pop\n      jump\t// out\n        /* \"#utility.yul\":18670:18839   */\n    tag_193:\n        /* \"#utility.yul\":18714:18720   */\n      0x00\n        /* \"#utility.yul\":18747:18798   */\n      tag_388\n        /* \"#utility.yul\":18795:18796   */\n      0x00\n        /* \"#utility.yul\":18791:18797   */\n      not\n        /* \"#utility.yul\":18783:18788   */\n      dup5\n        /* \"#utility.yul\":18780:18781   */\n      0x08\n        /* \"#utility.yul\":18776:18789   */\n      mul\n        /* \"#utility.yul\":18747:18798   */\n      tag_192\n      jump\t// in\n    tag_388:\n        /* \"#utility.yul\":18743:18799   */\n      not\n        /* \"#utility.yul\":18828:18832   */\n      dup1\n        /* \"#utility.yul\":18822:18826   */\n      dup4\n        /* \"#utility.yul\":18818:18833   */\n      and\n        /* \"#utility.yul\":18808:18833   */\n      swap2\n      pop\n        /* \"#utility.yul\":18721:18839   */\n      pop\n        /* \"#utility.yul\":18670:18839   */\n      swap3\n      swap2\n      pop\n      pop\n      jump\t// out\n        /* \"#utility.yul\":18844:19139   */\n    tag_194:\n        /* \"#utility.yul\":18920:18924   */\n      0x00\n        /* \"#utility.yul\":19066:19095   */\n      tag_390\n        /* \"#utility.yul\":19091:19094   */\n      dup4\n        /* \"#utility.yul\":19085:19089   */\n      dup4\n        /* \"#utility.yul\":19066:19095   */\n      tag_193\n      jump\t// in\n    tag_390:\n        /* \"#utility.yul\":19058:19095   */\n      swap2\n      pop\n        /* \"#utility.yul\":19128:19131   */\n      dup3\n        /* \"#utility.yul\":19125:19126   */\n      0x02\n        /* \"#utility.yul\":19121:19132   */\n      mul\n        /* \"#utility.yul\":19115:19119   */\n      dup3\n        /* \"#utility.yul\":19112:19133   */\n      or\n        /* \"#utility.yul\":19104:19133   */\n      swap1\n      pop\n        /* \"#utility.yul\":18844:19139   */\n      swap3\n      swap2\n      pop\n      pop\n      jump\t// out\n        /* \"#utility.yul\":19144:20539   */\n    tag_56:\n        /* \"#utility.yul\":19261:19298   */\n      tag_392\n        /* \"#utility.yul\":19294:19297   */\n      dup3\n        /* \"#utility.yul\":19261:19298   */\n      tag_159\n      jump\t// in\n    tag_392:\n        /* \"#utility.yul\":19363:19381   */\n      0xffffffffffffffff\n        /* \"#utility.yul\":19355:19361   */\n      dup2\n        /* \"#utility.yul\":19352:19382   */\n      gt\n        /* \"#utility.yul\":19349:19405   */\n      iszero\n      tag_393\n      jumpi\n        /* \"#utility.yul\":19385:19403   */\n      tag_394\n      tag_143\n      jump\t// in\n    tag_394:\n        /* \"#utility.yul\":19349:19405   */\n    tag_393:\n        /* \"#utility.yul\":19429:19467   */\n      tag_395\n        /* \"#utility.yul\":19461:19465   */\n      dup3\n        /* \"#utility.yul\":19455:19466   */\n      sload\n        /* \"#utility.yul\":19429:19467   */\n      tag_91\n      jump\t// in\n    tag_395:\n        /* \"#utility.yul\":19514:19581   */\n      tag_396\n        /* \"#utility.yul\":19574:19580   */\n      dup3\n        /* \"#utility.yul\":19566:19572   */\n      dup3\n        /* \"#utility.yul\":19560:19564   */\n      dup6\n        /* \"#utility.yul\":19514:19581   */\n      tag_191\n      jump\t// in\n    tag_396:\n        /* \"#utility.yul\":19608:19609   */\n      0x00\n        /* \"#utility.yul\":19632:19636   */\n      0x20\n        /* \"#utility.yul\":19619:19636   */\n      swap1\n      pop\n        /* \"#utility.yul\":19664:19666   */\n      0x1f\n        /* \"#utility.yul\":19656:19662   */\n      dup4\n        /* \"#utility.yul\":19653:19667   */\n      gt\n        /* \"#utility.yul\":19681:19682   */\n      0x01\n        /* \"#utility.yul\":19676:20294   */\n      dup2\n      eq\n      tag_398\n      jumpi\n        /* \"#utility.yul\":20338:20339   */\n      0x00\n        /* \"#utility.yul\":20355:20361   */\n      dup5\n        /* \"#utility.yul\":20352:20429   */\n      iszero\n      tag_399\n      jumpi\n        /* \"#utility.yul\":20404:20413   */\n      dup3\n        /* \"#utility.yul\":20399:20402   */\n      dup8\n        /* \"#utility.yul\":20395:20414   */\n      add\n        /* \"#utility.yul\":20389:20415   */\n      mload\n        /* \"#utility.yul\":20380:20415   */\n      swap1\n      pop\n        /* \"#utility.yul\":20352:20429   */\n    tag_399:\n        /* \"#utility.yul\":20455:20522   */\n      tag_400\n        /* \"#utility.yul\":20515:20521   */\n      dup6\n        /* \"#utility.yul\":20508:20513   */\n      dup3\n        /* \"#utility.yul\":20455:20522   */\n      tag_194\n      jump\t// in\n    tag_400:\n        /* \"#utility.yul\":20449:20453   */\n      dup7\n        /* \"#utility.yul\":20442:20523   */\n      sstore\n        /* \"#utility.yul\":20311:20533   */\n      pop\n        /* \"#utility.yul\":19646:20533   */\n      jump(tag_397)\n        /* \"#utility.yul\":19676:20294   */\n    tag_398:\n        /* \"#utility.yul\":19728:19732   */\n      0x1f\n        /* \"#utility.yul\":19724:19733   */\n      not\n        /* \"#utility.yul\":19716:19722   */\n      dup5\n        /* \"#utility.yul\":19712:19734   */\n      and\n        /* \"#utility.yul\":19762:19799   */\n      tag_401\n        /* \"#utility.yul\":19794:19798   */\n      dup7\n        /* \"#utility.yul\":19762:19799   */\n      tag_180\n      jump\t// in\n    tag_401:\n        /* \"#utility.yul\":19821:19822   */\n      0x00\n        /* \"#utility.yul\":19835:20043   */\n    tag_402:\n        /* \"#utility.yul\":19849:19856   */\n      dup3\n        /* \"#utility.yul\":19846:19847   */\n      dup2\n        /* \"#utility.yul\":19843:19857   */\n      lt\n        /* \"#utility.yul\":19835:20043   */\n      iszero\n      tag_404\n      jumpi\n        /* \"#utility.yul\":19928:19937   */\n      dup5\n        /* \"#utility.yul\":19923:19926   */\n      dup10\n        /* \"#utility.yul\":19919:19938   */\n      add\n        /* \"#utility.yul\":19913:19939   */\n      mload\n        /* \"#utility.yul\":19905:19911   */\n      dup3\n        /* \"#utility.yul\":19898:19940   */\n      sstore\n        /* \"#utility.yul\":19979:19980   */\n      0x01\n        /* \"#utility.yul\":19971:19977   */\n      dup3\n        /* \"#utility.yul\":19967:19981   */\n      add\n        /* \"#utility.yul\":19957:19981   */\n      swap2\n      pop\n        /* \"#utility.yul\":20026:20028   */\n      0x20\n        /* \"#utility.yul\":20015:20024   */\n      dup6\n        /* \"#utility.yul\":20011:20029   */\n      add\n        /* \"#utility.yul\":19998:20029   */\n      swap5\n      pop\n        /* \"#utility.yul\":19872:19876   */\n      0x20\n        /* \"#utility.yul\":19869:19870   */\n      dup2\n        /* \"#utility.yul\":19865:19877   */\n      add\n        /* \"#utility.yul\":19860:19877   */\n      swap1\n      pop\n        /* \"#utility.yul\":19835:20043   */\n      jump(tag_402)\n    tag_404:\n        /* \"#utility.yul\":20071:20077   */\n      dup7\n        /* \"#utility.yul\":20062:20069   */\n      dup4\n        /* \"#utility.yul\":20059:20078   */\n      lt\n        /* \"#utility.yul\":20056:20235   */\n      iszero\n      tag_405\n      jumpi\n        /* \"#utility.yul\":20129:20138   */\n      dup5\n        /* \"#utility.yul\":20124:20127   */\n      dup10\n        /* \"#utility.yul\":20120:20139   */\n      add\n        /* \"#utility.yul\":20114:20140   */\n      mload\n        /* \"#utility.yul\":20172:20220   */\n      tag_406\n        /* \"#utility.yul\":20214:20218   */\n      0x1f\n        /* \"#utility.yul\":20206:20212   */\n      dup10\n        /* \"#utility.yul\":20202:20219   */\n      and\n        /* \"#utility.yul\":20191:20200   */\n      dup3\n        /* \"#utility.yul\":20172:20220   */\n      tag_193\n      jump\t// in\n    tag_406:\n        /* \"#utility.yul\":20164:20170   */\n      dup4\n        /* \"#utility.yul\":20157:20221   */\n      sstore\n        /* \"#utility.yul\":20079:20235   */\n      pop\n        /* \"#utility.yul\":20056:20235   */\n    tag_405:\n        /* \"#utility.yul\":20281:20282   */\n      0x01\n        /* \"#utility.yul\":20277:20278   */\n      0x02\n        /* \"#utility.yul\":20269:20275   */\n      dup9\n        /* \"#utility.yul\":20265:20279   */\n      mul\n        /* \"#utility.yul\":20261:20283   */\n      add\n        /* \"#utility.yul\":20255:20259   */\n      dup9\n        /* \"#utility.yul\":20248:20284   */\n      sstore\n        /* \"#utility.yul\":19683:20294   */\n      pop\n      pop\n      pop\n        /* \"#utility.yul\":19646:20533   */\n    tag_397:\n      pop\n        /* \"#utility.yul\":19236:20539   */\n      pop\n      pop\n      pop\n        /* \"#utility.yul\":19144:20539   */\n      pop\n      pop\n      jump\t// out\n        /* \"#utility.yul\":20545:20663   */\n    tag_195:\n        /* \"#utility.yul\":20632:20656   */\n      tag_408\n        /* \"#utility.yul\":20650:20655   */\n      dup2\n        /* \"#utility.yul\":20632:20656   */\n      tag_154\n      jump\t// in\n    tag_408:\n        /* \"#utility.yul\":20627:20630   */\n      dup3\n        /* \"#utility.yul\":20620:20657   */\n      mstore\n        /* \"#utility.yul\":20545:20663   */\n      pop\n      pop\n      jump\t// out\n        /* \"#utility.yul\":20669:21046   */\n    tag_196:\n        /* \"#utility.yul\":20757:20760   */\n      0x00\n        /* \"#utility.yul\":20785:20824   */\n      tag_410\n        /* \"#utility.yul\":20818:20823   */\n      dup3\n        /* \"#utility.yul\":20785:20824   */\n      tag_159\n      jump\t// in\n    tag_410:\n        /* \"#utility.yul\":20840:20911   */\n      tag_411\n        /* \"#utility.yul\":20904:20910   */\n      dup2\n        /* \"#utility.yul\":20899:20902   */\n      dup6\n        /* \"#utility.yul\":20840:20911   */\n      tag_174\n      jump\t// in\n    tag_411:\n        /* \"#utility.yul\":20833:20911   */\n      swap4\n      pop\n        /* \"#utility.yul\":20920:20985   */\n      tag_412\n        /* \"#utility.yul\":20978:20984   */\n      dup2\n        /* \"#utility.yul\":20973:20976   */\n      dup6\n        /* \"#utility.yul\":20966:20970   */\n      0x20\n        /* \"#utility.yul\":20959:20964   */\n      dup7\n        /* \"#utility.yul\":20955:20971   */\n      add\n        /* \"#utility.yul\":20920:20985   */\n      tag_161\n      jump\t// in\n    tag_412:\n        /* \"#utility.yul\":21010:21039   */\n      tag_413\n        /* \"#utility.yul\":21032:21038   */\n      dup2\n        /* \"#utility.yul\":21010:21039   */\n      tag_142\n      jump\t// in\n    tag_413:\n        /* \"#utility.yul\":21005:21008   */\n      dup5\n        /* \"#utility.yul\":21001:21040   */\n      add\n        /* \"#utility.yul\":20994:21040   */\n      swap2\n      pop\n        /* \"#utility.yul\":20761:21046   */\n      pop\n        /* \"#utility.yul\":20669:21046   */\n      swap3\n      swap2\n      pop\n      pop\n      jump\t// out\n        /* \"#utility.yul\":21052:21898   */\n    tag_59:\n        /* \"#utility.yul\":21297:21301   */\n      0x00\n        /* \"#utility.yul\":21335:21338   */\n      0xa0\n        /* \"#utility.yul\":21324:21333   */\n      dup3\n        /* \"#utility.yul\":21320:21339   */\n      add\n        /* \"#utility.yul\":21312:21339   */\n      swap1\n      pop\n        /* \"#utility.yul\":21349:21420   */\n      tag_415\n        /* \"#utility.yul\":21417:21418   */\n      0x00\n        /* \"#utility.yul\":21406:21415   */\n      dup4\n        /* \"#utility.yul\":21402:21419   */\n      add\n        /* \"#utility.yul\":21393:21399   */\n      dup9\n        /* \"#utility.yul\":21349:21420   */\n      tag_195\n      jump\t// in\n    tag_415:\n        /* \"#utility.yul\":21430:21502   */\n      tag_416\n        /* \"#utility.yul\":21498:21500   */\n      0x20\n        /* \"#utility.yul\":21487:21496   */\n      dup4\n        /* \"#utility.yul\":21483:21501   */\n      add\n        /* \"#utility.yul\":21474:21480   */\n      dup8\n        /* \"#utility.yul\":21430:21502   */\n      tag_171\n      jump\t// in\n    tag_416:\n        /* \"#utility.yul\":21549:21558   */\n      dup2\n        /* \"#utility.yul\":21543:21547   */\n      dup2\n        /* \"#utility.yul\":21539:21559   */\n      sub\n        /* \"#utility.yul\":21534:21536   */\n      0x40\n        /* \"#utility.yul\":21523:21532   */\n      dup4\n        /* \"#utility.yul\":21519:21537   */\n      add\n        /* \"#utility.yul\":21512:21560   */\n      mstore\n        /* \"#utility.yul\":21577:21655   */\n      tag_417\n        /* \"#utility.yul\":21650:21654   */\n      dup2\n        /* \"#utility.yul\":21641:21647   */\n      dup7\n        /* \"#utility.yul\":21577:21655   */\n      tag_196\n      jump\t// in\n    tag_417:\n        /* \"#utility.yul\":21569:21655   */\n      swap1\n      pop\n        /* \"#utility.yul\":21702:21711   */\n      dup2\n        /* \"#utility.yul\":21696:21700   */\n      dup2\n        /* \"#utility.yul\":21692:21712   */\n      sub\n        /* \"#utility.yul\":21687:21689   */\n      0x60\n        /* \"#utility.yul\":21676:21685   */\n      dup4\n        /* \"#utility.yul\":21672:21690   */\n      add\n        /* \"#utility.yul\":21665:21713   */\n      mstore\n        /* \"#utility.yul\":21730:21808   */\n      tag_418\n        /* \"#utility.yul\":21803:21807   */\n      dup2\n        /* \"#utility.yul\":21794:21800   */\n      dup6\n        /* \"#utility.yul\":21730:21808   */\n      tag_196\n      jump\t// in\n    tag_418:\n        /* \"#utility.yul\":21722:21808   */\n      swap1\n      pop\n        /* \"#utility.yul\":21818:21891   */\n      tag_419\n        /* \"#utility.yul\":21886:21889   */\n      0x80\n        /* \"#utility.yul\":21875:21884   */\n      dup4\n        /* \"#utility.yul\":21871:21890   */\n      add\n        /* \"#utility.yul\":21862:21868   */\n      dup5\n        /* \"#utility.yul\":21818:21891   */\n      tag_195\n      jump\t// in\n    tag_419:\n        /* \"#utility.yul\":21052:21898   */\n      swap7\n      swap6\n      pop\n      pop\n      pop\n      pop\n      pop\n      pop\n      jump\t// out\n        /* \"#utility.yul\":21904:22084   */\n    tag_63:\n        /* \"#utility.yul\":21952:22029   */\n      0x4e487b7100000000000000000000000000000000000000000000000000000000\n        /* \"#utility.yul\":21949:21950   */\n      0x00\n        /* \"#utility.yul\":21942:22030   */\n      mstore\n        /* \"#utility.yul\":22049:22053   */\n      0x32\n        /* \"#utility.yul\":22046:22047   */\n      0x04\n        /* \"#utility.yul\":22039:22054   */\n      mstore\n        /* \"#utility.yul\":22073:22077   */\n      0x24\n        /* \"#utility.yul\":22070:22071   */\n      0x00\n        /* \"#utility.yul\":22063:22078   */\n      revert\n        /* \"#utility.yul\":22090:22259   */\n    tag_197:\n        /* \"#utility.yul\":22230:22251   */\n      0x506f737420646f6573206e6f7420657869737400000000000000000000000000\n        /* \"#utility.yul\":22226:22227   */\n      0x00\n        /* \"#utility.yul\":22218:22224   */\n      dup3\n        /* \"#utility.yul\":22214:22228   */\n      add\n        /* \"#utility.yul\":22207:22252   */\n      mstore\n        /* \"#utility.yul\":22090:22259   */\n      pop\n      jump\t// out\n        /* \"#utility.yul\":22265:22631   */\n    tag_198:\n        /* \"#utility.yul\":22407:22410   */\n      0x00\n        /* \"#utility.yul\":22428:22495   */\n      tag_423\n        /* \"#utility.yul\":22492:22494   */\n      0x13\n        /* \"#utility.yul\":22487:22490   */\n      dup4\n        /* \"#utility.yul\":22428:22495   */\n      tag_174\n      jump\t// in\n    tag_423:\n        /* \"#utility.yul\":22421:22495   */\n      swap2\n      pop\n        /* \"#utility.yul\":22504:22597   */\n      tag_424\n        /* \"#utility.yul\":22593:22596   */\n      dup3\n        /* \"#utility.yul\":22504:22597   */\n      tag_197\n      jump\t// in\n    tag_424:\n        /* \"#utility.yul\":22622:22624   */\n      0x20\n        /* \"#utility.yul\":22617:22620   */\n      dup3\n        /* \"#utility.yul\":22613:22625   */\n      add\n        /* \"#utility.yul\":22606:22625   */\n      swap1\n      pop\n        /* \"#utility.yul\":22265:22631   */\n      swap2\n      swap1\n      pop\n      jump\t// out\n        /* \"#utility.yul\":22637:23056   */\n    tag_67:\n        /* \"#utility.yul\":22803:22807   */\n      0x00\n        /* \"#utility.yul\":22841:22843   */\n      0x20\n        /* \"#utility.yul\":22830:22839   */\n      dup3\n        /* \"#utility.yul\":22826:22844   */\n      add\n        /* \"#utility.yul\":22818:22844   */\n      swap1\n      pop\n        /* \"#utility.yul\":22890:22899   */\n      dup2\n        /* \"#utility.yul\":22884:22888   */\n      dup2\n        /* \"#utility.yul\":22880:22900   */\n      sub\n        /* \"#utility.yul\":22876:22877   */\n      0x00\n        /* \"#utility.yul\":22865:22874   */\n      dup4\n        /* \"#utility.yul\":22861:22878   */\n      add\n        /* \"#utility.yul\":22854:22901   */\n      mstore\n        /* \"#utility.yul\":22918:23049   */\n      tag_426\n        /* \"#utility.yul\":23044:23048   */\n      dup2\n        /* \"#utility.yul\":22918:23049   */\n      tag_198\n      jump\t// in\n    tag_426:\n        /* \"#utility.yul\":22910:23049   */\n      swap1\n      pop\n        /* \"#utility.yul\":22637:23056   */\n      swap2\n      swap1\n      pop\n      jump\t// out\n        /* \"#utility.yul\":23062:23237   */\n    tag_199:\n        /* \"#utility.yul\":23202:23229   */\n      0x43616e27742068617665206e65676174697665206c696b657300000000000000\n        /* \"#utility.yul\":23198:23199   */\n      0x00\n        /* \"#utility.yul\":23190:23196   */\n      dup3\n        /* \"#utility.yul\":23186:23200   */\n      add\n        /* \"#utility.yul\":23179:23230   */\n      mstore\n        /* \"#utility.yul\":23062:23237   */\n      pop\n      jump\t// out\n        /* \"#utility.yul\":23243:23609   */\n    tag_200:\n        /* \"#utility.yul\":23385:23388   */\n      0x00\n        /* \"#utility.yul\":23406:23473   */\n      tag_429\n        /* \"#utility.yul\":23470:23472   */\n      0x19\n        /* \"#utility.yul\":23465:23468   */\n      dup4\n        /* \"#utility.yul\":23406:23473   */\n      tag_174\n      jump\t// in\n    tag_429:\n        /* \"#utility.yul\":23399:23473   */\n      swap2\n      pop\n        /* \"#utility.yul\":23482:23575   */\n      tag_430\n        /* \"#utility.yul\":23571:23574   */\n      dup3\n        /* \"#utility.yul\":23482:23575   */\n      tag_199\n      jump\t// in\n    tag_430:\n        /* \"#utility.yul\":23600:23602   */\n      0x20\n        /* \"#utility.yul\":23595:23598   */\n      dup3\n        /* \"#utility.yul\":23591:23603   */\n      add\n        /* \"#utility.yul\":23584:23603   */\n      swap1\n      pop\n        /* \"#utility.yul\":23243:23609   */\n      swap2\n      swap1\n      pop\n      jump\t// out\n        /* \"#utility.yul\":23615:24034   */\n    tag_73:\n        /* \"#utility.yul\":23781:23785   */\n      0x00\n        /* \"#utility.yul\":23819:23821   */\n      0x20\n        /* \"#utility.yul\":23808:23817   */\n      dup3\n        /* \"#utility.yul\":23804:23822   */\n      add\n        /* \"#utility.yul\":23796:23822   */\n      swap1\n      pop\n        /* \"#utility.yul\":23868:23877   */\n      dup2\n        /* \"#utility.yul\":23862:23866   */\n      dup2\n        /* \"#utility.yul\":23858:23878   */\n      sub\n        /* \"#utility.yul\":23854:23855   */\n      0x00\n        /* \"#utility.yul\":23843:23852   */\n      dup4\n        /* \"#utility.yul\":23839:23856   */\n      add\n        /* \"#utility.yul\":23832:23879   */\n      mstore\n        /* \"#utility.yul\":23896:24027   */\n      tag_432\n        /* \"#utility.yul\":24022:24026   */\n      dup2\n        /* \"#utility.yul\":23896:24027   */\n      tag_200\n      jump\t// in\n    tag_432:\n        /* \"#utility.yul\":23888:24027   */\n      swap1\n      pop\n        /* \"#utility.yul\":23615:24034   */\n      swap2\n      swap1\n      pop\n      jump\t// out\n        /* \"#utility.yul\":24040:24220   */\n    tag_201:\n        /* \"#utility.yul\":24088:24165   */\n      0x4e487b7100000000000000000000000000000000000000000000000000000000\n        /* \"#utility.yul\":24085:24086   */\n      0x00\n        /* \"#utility.yul\":24078:24166   */\n      mstore\n        /* \"#utility.yul\":24185:24189   */\n      0x11\n        /* \"#utility.yul\":24182:24183   */\n      0x04\n        /* \"#utility.yul\":24175:24190   */\n      mstore\n        /* \"#utility.yul\":24209:24213   */\n      0x24\n        /* \"#utility.yul\":24206:24207   */\n      0x00\n        /* \"#utility.yul\":24199:24214   */\n      revert\n        /* \"#utility.yul\":24226:24420   */\n    tag_78:\n        /* \"#utility.yul\":24266:24270   */\n      0x00\n        /* \"#utility.yul\":24286:24306   */\n      tag_435\n        /* \"#utility.yul\":24304:24305   */\n      dup3\n        /* \"#utility.yul\":24286:24306   */\n      tag_154\n      jump\t// in\n    tag_435:\n        /* \"#utility.yul\":24281:24306   */\n      swap2\n      pop\n        /* \"#utility.yul\":24320:24340   */\n      tag_436\n        /* \"#utility.yul\":24338:24339   */\n      dup4\n        /* \"#utility.yul\":24320:24340   */\n      tag_154\n      jump\t// in\n    tag_436:\n        /* \"#utility.yul\":24315:24340   */\n      swap3\n      pop\n        /* \"#utility.yul\":24364:24365   */\n      dup3\n        /* \"#utility.yul\":24361:24362   */\n      dup3\n        /* \"#utility.yul\":24357:24366   */\n      sub\n        /* \"#utility.yul\":24349:24366   */\n      swap1\n      pop\n        /* \"#utility.yul\":24388:24389   */\n      dup2\n        /* \"#utility.yul\":24382:24386   */\n      dup2\n        /* \"#utility.yul\":24379:24390   */\n      gt\n        /* \"#utility.yul\":24376:24413   */\n      iszero\n      tag_437\n      jumpi\n        /* \"#utility.yul\":24393:24411   */\n      tag_438\n      tag_201\n      jump\t// in\n    tag_438:\n        /* \"#utility.yul\":24376:24413   */\n    tag_437:\n        /* \"#utility.yul\":24226:24420   */\n      swap3\n      swap2\n      pop\n      pop\n      jump\t// out\n        /* \"#utility.yul\":24426:24979   */\n    tag_83:\n        /* \"#utility.yul\":24603:24607   */\n      0x00\n        /* \"#utility.yul\":24641:24644   */\n      0x80\n        /* \"#utility.yul\":24630:24639   */\n      dup3\n        /* \"#utility.yul\":24626:24645   */\n      add\n        /* \"#utility.yul\":24618:24645   */\n      swap1\n      pop\n        /* \"#utility.yul\":24655:24726   */\n      tag_440\n        /* \"#utility.yul\":24723:24724   */\n      0x00\n        /* \"#utility.yul\":24712:24721   */\n      dup4\n        /* \"#utility.yul\":24708:24725   */\n      add\n        /* \"#utility.yul\":24699:24705   */\n      dup8\n        /* \"#utility.yul\":24655:24726   */\n      tag_171\n      jump\t// in\n    tag_440:\n        /* \"#utility.yul\":24736:24808   */\n      tag_441\n        /* \"#utility.yul\":24804:24806   */\n      0x20\n        /* \"#utility.yul\":24793:24802   */\n      dup4\n        /* \"#utility.yul\":24789:24807   */\n      add\n        /* \"#utility.yul\":24780:24786   */\n      dup7\n        /* \"#utility.yul\":24736:24808   */\n      tag_171\n      jump\t// in\n    tag_441:\n        /* \"#utility.yul\":24818:24890   */\n      tag_442\n        /* \"#utility.yul\":24886:24888   */\n      0x40\n        /* \"#utility.yul\":24875:24884   */\n      dup4\n        /* \"#utility.yul\":24871:24889   */\n      add\n        /* \"#utility.yul\":24862:24868   */\n      dup6\n        /* \"#utility.yul\":24818:24890   */\n      tag_195\n      jump\t// in\n    tag_442:\n        /* \"#utility.yul\":24900:24972   */\n      tag_443\n        /* \"#utility.yul\":24968:24970   */\n      0x60\n        /* \"#utility.yul\":24957:24966   */\n      dup4\n        /* \"#utility.yul\":24953:24971   */\n      add\n        /* \"#utility.yul\":24944:24950   */\n      dup5\n        /* \"#utility.yul\":24900:24972   */\n      tag_195\n      jump\t// in\n    tag_443:\n        /* \"#utility.yul\":24426:24979   */\n      swap6\n      swap5\n      pop\n      pop\n      pop\n      pop\n      pop\n      jump\t// out\n        /* \"#utility.yul\":24985:25176   */\n    tag_111:\n        /* \"#utility.yul\":25025:25028   */\n      0x00\n        /* \"#utility.yul\":25044:25064   */\n      tag_445\n        /* \"#utility.yul\":25062:25063   */\n      dup3\n        /* \"#utility.yul\":25044:25064   */\n      tag_154\n      jump\t// in\n    tag_445:\n        /* \"#utility.yul\":25039:25064   */\n      swap2\n      pop\n        /* \"#utility.yul\":25078:25098   */\n      tag_446\n        /* \"#utility.yul\":25096:25097   */\n      dup4\n        /* \"#utility.yul\":25078:25098   */\n      tag_154\n      jump\t// in\n    tag_446:\n        /* \"#utility.yul\":25073:25098   */\n      swap3\n      pop\n        /* \"#utility.yul\":25121:25122   */\n      dup3\n        /* \"#utility.yul\":25118:25119   */\n      dup3\n        /* \"#utility.yul\":25114:25123   */\n      add\n        /* \"#utility.yul\":25107:25123   */\n      swap1\n      pop\n        /* \"#utility.yul\":25142:25145   */\n      dup1\n        /* \"#utility.yul\":25139:25140   */\n      dup3\n        /* \"#utility.yul\":25136:25146   */\n      gt\n        /* \"#utility.yul\":25133:25169   */\n      iszero\n      tag_447\n      jumpi\n        /* \"#utility.yul\":25149:25167   */\n      tag_448\n      tag_201\n      jump\t// in\n    tag_448:\n        /* \"#utility.yul\":25133:25169   */\n    tag_447:\n        /* \"#utility.yul\":24985:25176   */\n      swap3\n      swap2\n      pop\n      pop\n      jump\t// out\n        /* \"#utility.yul\":25182:25407   */\n    tag_202:\n        /* \"#utility.yul\":25322:25356   */\n      0x4d75737420626520636f6e7472616374206f776e657220666f72207468697320\n        /* \"#utility.yul\":25318:25319   */\n      0x00\n        /* \"#utility.yul\":25310:25316   */\n      dup3\n        /* \"#utility.yul\":25306:25320   */\n      add\n        /* \"#utility.yul\":25299:25357   */\n      mstore\n        /* \"#utility.yul\":25391:25399   */\n      0x616374696f6e0000000000000000000000000000000000000000000000000000\n        /* \"#utility.yul\":25386:25388   */\n      0x20\n        /* \"#utility.yul\":25378:25384   */\n      dup3\n        /* \"#utility.yul\":25374:25389   */\n      add\n        /* \"#utility.yul\":25367:25400   */\n      mstore\n        /* \"#utility.yul\":25182:25407   */\n      pop\n      jump\t// out\n        /* \"#utility.yul\":25413:25779   */\n    tag_203:\n        /* \"#utility.yul\":25555:25558   */\n      0x00\n        /* \"#utility.yul\":25576:25643   */\n      tag_451\n        /* \"#utility.yul\":25640:25642   */\n      0x26\n        /* \"#utility.yul\":25635:25638   */\n      dup4\n        /* \"#utility.yul\":25576:25643   */\n      tag_174\n      jump\t// in\n    tag_451:\n        /* \"#utility.yul\":25569:25643   */\n      swap2\n      pop\n        /* \"#utility.yul\":25652:25745   */\n      tag_452\n        /* \"#utility.yul\":25741:25744   */\n      dup3\n        /* \"#utility.yul\":25652:25745   */\n      tag_202\n      jump\t// in\n    tag_452:\n        /* \"#utility.yul\":25770:25772   */\n      0x40\n        /* \"#utility.yul\":25765:25768   */\n      dup3\n        /* \"#utility.yul\":25761:25773   */\n      add\n        /* \"#utility.yul\":25754:25773   */\n      swap1\n      pop\n        /* \"#utility.yul\":25413:25779   */\n      swap2\n      swap1\n      pop\n      jump\t// out\n        /* \"#utility.yul\":25785:26204   */\n    tag_133:\n        /* \"#utility.yul\":25951:25955   */\n      0x00\n        /* \"#utility.yul\":25989:25991   */\n      0x20\n        /* \"#utility.yul\":25978:25987   */\n      dup3\n        /* \"#utility.yul\":25974:25992   */\n      add\n        /* \"#utility.yul\":25966:25992   */\n      swap1\n      pop\n        /* \"#utility.yul\":26038:26047   */\n      dup2\n        /* \"#utility.yul\":26032:26036   */\n      dup2\n        /* \"#utility.yul\":26028:26048   */\n      sub\n        /* \"#utility.yul\":26024:26025   */\n      0x00\n        /* \"#utility.yul\":26013:26022   */\n      dup4\n        /* \"#utility.yul\":26009:26026   */\n      add\n        /* \"#utility.yul\":26002:26049   */\n      mstore\n        /* \"#utility.yul\":26066:26197   */\n      tag_454\n        /* \"#utility.yul\":26192:26196   */\n      dup2\n        /* \"#utility.yul\":26066:26197   */\n      tag_203\n      jump\t// in\n    tag_454:\n        /* \"#utility.yul\":26058:26197   */\n      swap1\n      pop\n        /* \"#utility.yul\":25785:26204   */\n      swap2\n      swap1\n      pop\n      jump\t// out\n\n    auxdata: 0xa26469706673582212204ced7a7e7a3869ac9d4bd0832503e55c16c4e75618a9bbe4846afe146056d7e864736f6c63430008120033\n}\n",
				"bytecode": {
					"linkReferences": {},
					"object": "6080604052336000806101000a81548173ffffffffffffffffffffffffffffffffffffffff021916908373ffffffffffffffffffffffffffffffffffffffff160217905550611770600060146101000a81548161ffff021916908361ffff16021790555034801561006f57600080fd5b50611b4e8061007f6000396000f3fe608060405234801561001057600080fd5b50600436106100885760003560e01c8063483515291161005b578063483515291461011357806377d2765c1461012f5780638da5cb5b1461015f578063fd6a99e11461017d57610088565b806305b746b51461008d578063392338f5146100ab5780633d9b569f146100c757806340731c24146100e3575b600080fd5b610095610199565b6040516100a29190610dd2565b60405180910390f35b6100c560048036038101906100c09190610f47565b6101ad565b005b6100e160048036038101906100dc9190611053565b61042b565b005b6100fd60048036038101906100f89190611093565b610690565b60405161010a91906111ed565b60405180910390f35b61012d60048036038101906101289190611053565b6108a1565b005b6101496004803603810190610144919061120f565b610a61565b604051610156919061138e565b60405180910390f35b610167610c97565b60405161017491906113bf565b60405180910390f35b61019760048036038101906101929190611406565b610cbb565b005b600060149054906101000a900461ffff1681565b608060ff16825111156101f5576040517f08c379a00000000000000000000000000000000000000000000000000000000081526004016101ec90611490565b60405180910390fd5b600060149054906101000a900461ffff1661ffff168151111561024d576040517f08c379a0000000000000000000000000000000000000000000000000000000008152600401610244906114fc565b60405180910390fd5b60006040518060c00160405280600160003373ffffffffffffffffffffffffffffffffffffffff1673ffffffffffffffffffffffffffffffffffffffff1681526020019081526020016000208054905081526020013373ffffffffffffffffffffffffffffffffffffffff16815260200184815260200183815260200142815260200160008152509050600160003373ffffffffffffffffffffffffffffffffffffffff1673ffffffffffffffffffffffffffffffffffffffff1681526020019081526020016000208190806001815401808255809150506001900390600052602060002090600602016000909190919091506000820151816000015560208201518160010160006101000a81548173ffffffffffffffffffffffffffffffffffffffff021916908373ffffffffffffffffffffffffffffffffffffffff16021790555060408201518160020190816103a69190611728565b5060608201518160030190816103bc9190611728565b506080820151816004015560a0820151816005015550507f2b6cae02a15b5ee74819f9c8e468f6b572a98fd4f0b9362d82ed75905f6d4a998160000151826020015183604001518460600151856080015160405161041e959493929190611842565b60405180910390a1505050565b80600160008473ffffffffffffffffffffffffffffffffffffffff1673ffffffffffffffffffffffffffffffffffffffff168152602001908152602001600020828154811061047d5761047c6118a3565b5b906000526020600020906006020160000154146104cf576040517f08c379a00000000000000000000000000000000000000000000000000000000081526004016104c69061191e565b60405180910390fd5b6000600160008473ffffffffffffffffffffffffffffffffffffffff1673ffffffffffffffffffffffffffffffffffffffff1681526020019081526020016000208281548110610522576105216118a3565b5b90600052602060002090600602016005015411610574576040517f08c379a000000000000000000000000000000000000000000000000000000000815260040161056b9061198a565b60405180910390fd5b60018060008473ffffffffffffffffffffffffffffffffffffffff1673ffffffffffffffffffffffffffffffffffffffff16815260200190815260200160002082815481106105c6576105c56118a3565b5b906000526020600020906006020160050160008282546105e691906119d9565b925050819055507f5e0b23ba82f9ea54c1390e155aa97d8ee1a3a5623b9bc0793c5809b8908bc995338383600160008773ffffffffffffffffffffffffffffffffffffffff1673ffffffffffffffffffffffffffffffffffffffff1681526020019081526020016000208581548110610662576106616118a3565b5b9060005260206000209060060201600501546040516106849493929190611a0d565b60405180910390a15050565b610698610d69565b600160003373ffffffffffffffffffffffffffffffffffffffff1673ffffffffffffffffffffffffffffffffffffffff16815260200190815260200160002082815481106106e9576106e86118a3565b5b90600052602060002090600602016040518060c0016040529081600082015481526020016001820160009054906101000a900473ffffffffffffffffffffffffffffffffffffffff1673ffffffffffffffffffffffffffffffffffffffff1673ffffffffffffffffffffffffffffffffffffffff1681526020016002820180546107729061154b565b80601f016020809104026020016040519081016040528092919081815260200182805461079e9061154b565b80156107eb5780601f106107c0576101008083540402835291602001916107eb565b820191906000526020600020905b8154815290600101906020018083116107ce57829003601f168201915b505050505081526020016003820180546108049061154b565b80601f01602080910402602001604051908101604052809291908181526020018280546108309061154b565b801561087d5780601f106108525761010080835404028352916020019161087d565b820191906000526020600020905b81548152906001019060200180831161086057829003601f168201915b50505050508152602001600482015481526020016005820154815250509050919050565b80600160008473ffffffffffffffffffffffffffffffffffffffff1673ffffffffffffffffffffffffffffffffffffffff16815260200190815260200160002082815481106108f3576108f26118a3565b5b90600052602060002090600602016000015414610945576040517f08c379a000000000000000000000000000000000000000000000000000000000815260040161093c9061191e565b60405180910390fd5b60018060008473ffffffffffffffffffffffffffffffffffffffff1673ffffffffffffffffffffffffffffffffffffffff1681526020019081526020016000208281548110610997576109966118a3565b5b906000526020600020906006020160050160008282546109b79190611a52565b925050819055507f7866ff14296d8c0b4cf1aa44019677dc8f85222ce3b679817c3d9e8f530ff544338383600160008773ffffffffffffffffffffffffffffffffffffffff1673ffffffffffffffffffffffffffffffffffffffff1681526020019081526020016000208581548110610a3357610a326118a3565b5b906000526020600020906006020160050154604051610a559493929190611a0d565b60405180910390a15050565b6060600160008373ffffffffffffffffffffffffffffffffffffffff1673ffffffffffffffffffffffffffffffffffffffff168152602001908152602001600020805480602002602001604051908101604052809291908181526020016000905b82821015610c8c57838290600052602060002090600602016040518060c0016040529081600082015481526020016001820160009054906101000a900473ffffffffffffffffffffffffffffffffffffffff1673ffffffffffffffffffffffffffffffffffffffff1673ffffffffffffffffffffffffffffffffffffffff168152602001600282018054610b559061154b565b80601f0160208091040260200160405190810160405280929190818152602001828054610b819061154b565b8015610bce5780601f10610ba357610100808354040283529160200191610bce565b820191906000526020600020905b815481529060010190602001808311610bb157829003601f168201915b50505050508152602001600382018054610be79061154b565b80601f0160208091040260200160405190810160405280929190818152602001828054610c139061154b565b8015610c605780601f10610c3557610100808354040283529160200191610c60565b820191906000526020600020905b815481529060010190602001808311610c4357829003601f168201915b505050505081526020016004820154815260200160058201548152505081526020019060010190610ac2565b505050509050919050565b60008054906101000a900473ffffffffffffffffffffffffffffffffffffffff1681565b3373ffffffffffffffffffffffffffffffffffffffff1660008054906101000a900473ffffffffffffffffffffffffffffffffffffffff1673ffffffffffffffffffffffffffffffffffffffff1614610d49576040517f08c379a0000000000000000000000000000000000000000000000000000000008152600401610d4090611af8565b60405180910390fd5b80600060146101000a81548161ffff021916908361ffff16021790555050565b6040518060c0016040528060008152602001600073ffffffffffffffffffffffffffffffffffffffff168152602001606081526020016060815260200160008152602001600081525090565b600061ffff82169050919050565b610dcc81610db5565b82525050565b6000602082019050610de76000830184610dc3565b92915050565b6000604051905090565b600080fd5b600080fd5b600080fd5b600080fd5b6000601f19601f8301169050919050565b7f4e487b7100000000000000000000000000000000000000000000000000000000600052604160045260246000fd5b610e5482610e0b565b810181811067ffffffffffffffff82111715610e7357610e72610e1c565b5b80604052505050565b6000610e86610ded565b9050610e928282610e4b565b919050565b600067ffffffffffffffff821115610eb257610eb1610e1c565b5b610ebb82610e0b565b9050602081019050919050565b82818337600083830152505050565b6000610eea610ee584610e97565b610e7c565b905082815260208101848484011115610f0657610f05610e06565b5b610f11848285610ec8565b509392505050565b600082601f830112610f2e57610f2d610e01565b5b8135610f3e848260208601610ed7565b91505092915050565b60008060408385031215610f5e57610f5d610df7565b5b600083013567ffffffffffffffff811115610f7c57610f7b610dfc565b5b610f8885828601610f19565b925050602083013567ffffffffffffffff811115610fa957610fa8610dfc565b5b610fb585828601610f19565b9150509250929050565b600073ffffffffffffffffffffffffffffffffffffffff82169050919050565b6000610fea82610fbf565b9050919050565b610ffa81610fdf565b811461100557600080fd5b50565b60008135905061101781610ff1565b92915050565b6000819050919050565b6110308161101d565b811461103b57600080fd5b50565b60008135905061104d81611027565b92915050565b6000806040838503121561106a57611069610df7565b5b600061107885828601611008565b92505060206110898582860161103e565b9150509250929050565b6000602082840312156110a9576110a8610df7565b5b60006110b78482850161103e565b91505092915050565b6110c98161101d565b82525050565b6110d881610fdf565b82525050565b600081519050919050565b600082825260208201905092915050565b60005b838110156111185780820151818401526020810190506110fd565b60008484015250505050565b600061112f826110de565b61113981856110e9565b93506111498185602086016110fa565b61115281610e0b565b840191505092915050565b600060c08301600083015161117560008601826110c0565b50602083015161118860208601826110cf565b50604083015184820360408601526111a08282611124565b915050606083015184820360608601526111ba8282611124565b91505060808301516111cf60808601826110c0565b5060a08301516111e260a08601826110c0565b508091505092915050565b60006020820190508181036000830152611207818461115d565b905092915050565b60006020828403121561122557611224610df7565b5b600061123384828501611008565b91505092915050565b600081519050919050565b600082825260208201905092915050565b6000819050602082019050919050565b600060c08301600083015161128060008601826110c0565b50602083015161129360208601826110cf565b50604083015184820360408601526112ab8282611124565b915050606083015184820360608601526112c58282611124565b91505060808301516112da60808601826110c0565b5060a08301516112ed60a08601826110c0565b508091505092915050565b60006113048383611268565b905092915050565b6000602082019050919050565b60006113248261123c565b61132e8185611247565b93508360208202850161134085611258565b8060005b8581101561137c578484038952815161135d85826112f8565b94506113688361130c565b925060208a01995050600181019050611344565b50829750879550505050505092915050565b600060208201905081810360008301526113a88184611319565b905092915050565b6113b981610fdf565b82525050565b60006020820190506113d460008301846113b0565b92915050565b6113e381610db5565b81146113ee57600080fd5b50565b600081359050611400816113da565b92915050565b60006020828403121561141c5761141b610df7565b5b600061142a848285016113f1565b91505092915050565b600082825260208201905092915050565b7f5469746c6520746f6f206c6f6e67000000000000000000000000000000000000600082015250565b600061147a600e83611433565b915061148582611444565b602082019050919050565b600060208201905081810360008301526114a98161146d565b9050919050565b7f436f6e74656e7420746f6f206c6f6e6700000000000000000000000000000000600082015250565b60006114e6601083611433565b91506114f1826114b0565b602082019050919050565b60006020820190508181036000830152611515816114d9565b9050919050565b7f4e487b7100000000000000000000000000000000000000000000000000000000600052602260045260246000fd5b6000600282049050600182168061156357607f821691505b6020821081036115765761157561151c565b5b50919050565b60008190508160005260206000209050919050565b60006020601f8301049050919050565b600082821b905092915050565b6000600883026115de7fffffffffffffffffffffffffffffffffffffffffffffffffffffffffffffffff826115a1565b6115e886836115a1565b95508019841693508086168417925050509392505050565b6000819050919050565b600061162561162061161b8461101d565b611600565b61101d565b9050919050565b6000819050919050565b61163f8361160a565b61165361164b8261162c565b8484546115ae565b825550505050565b600090565b61166861165b565b611673818484611636565b505050565b5b818110156116975761168c600082611660565b600181019050611679565b5050565b601f8211156116dc576116ad8161157c565b6116b684611591565b810160208510156116c5578190505b6116d96116d185611591565b830182611678565b50505b505050565b600082821c905092915050565b60006116ff600019846008026116e1565b1980831691505092915050565b600061171883836116ee565b9150826002028217905092915050565b611731826110de565b67ffffffffffffffff81111561174a57611749610e1c565b5b611754825461154b565b61175f82828561169b565b600060209050601f8311600181146117925760008415611780578287015190505b61178a858261170c565b8655506117f2565b601f1984166117a08661157c565b60005b828110156117c8578489015182556001820191506020850194506020810190506117a3565b868310156117e557848901516117e1601f8916826116ee565b8355505b6001600288020188555050505b505050505050565b6118038161101d565b82525050565b6000611814826110de565b61181e8185611433565b935061182e8185602086016110fa565b61183781610e0b565b840191505092915050565b600060a08201905061185760008301886117fa565b61186460208301876113b0565b81810360408301526118768186611809565b9050818103606083015261188a8185611809565b905061189960808301846117fa565b9695505050505050565b7f4e487b7100000000000000000000000000000000000000000000000000000000600052603260045260246000fd5b7f506f737420646f6573206e6f7420657869737400000000000000000000000000600082015250565b6000611908601383611433565b9150611913826118d2565b602082019050919050565b60006020820190508181036000830152611937816118fb565b9050919050565b7f43616e27742068617665206e65676174697665206c696b657300000000000000600082015250565b6000611974601983611433565b915061197f8261193e565b602082019050919050565b600060208201905081810360008301526119a381611967565b9050919050565b7f4e487b7100000000000000000000000000000000000000000000000000000000600052601160045260246000fd5b60006119e48261101d565b91506119ef8361101d565b9250828203905081811115611a0757611a066119aa565b5b92915050565b6000608082019050611a2260008301876113b0565b611a2f60208301866113b0565b611a3c60408301856117fa565b611a4960608301846117fa565b95945050505050565b6000611a5d8261101d565b9150611a688361101d565b9250828201905080821115611a8057611a7f6119aa565b5b92915050565b7f4d75737420626520636f6e7472616374206f776e657220666f7220746869732060008201527f616374696f6e0000000000000000000000000000000000000000000000000000602082015250565b6000611ae2602683611433565b9150611aed82611a86565b604082019050919050565b60006020820190508181036000830152611b1181611ad5565b905091905056fea26469706673582212204ced7a7e7a3869ac9d4bd0832503e55c16c4e75618a9bbe4846afe146056d7e864736f6c63430008120033",
					"opcodes": "PUSH1 0x80 PUSH1 0x40 MSTORE CALLER PUSH1 0x0 DUP1 PUSH2 0x100 EXP DUP2 SLOAD DUP2 PUSH20 0xFFFFFFFFFFFFFFFFFFFFFFFFFFFFFFFFFFFFFFFF MUL NOT AND SWAP1 DUP4 PUSH20 0xFFFFFFFFFFFFFFFFFFFFFFFFFFFFFFFFFFFFFFFF AND MUL OR SWAP1 SSTORE POP PUSH2 0x1770 PUSH1 0x0 PUSH1 0x14 PUSH2 0x100 EXP DUP2 SLOAD DUP2 PUSH2 0xFFFF MUL NOT AND SWAP1 DUP4 PUSH2 0xFFFF AND MUL OR SWAP1 SSTORE POP CALLVALUE DUP1 ISZERO PUSH2 0x6F JUMPI PUSH1 0x0 DUP1 REVERT JUMPDEST POP PUSH2 0x1B4E DUP1 PUSH2 0x7F PUSH1 0x0 CODECOPY PUSH1 0x0 RETURN INVALID PUSH1 0x80 PUSH1 0x40 MSTORE CALLVALUE DUP1 ISZERO PUSH2 0x10 JUMPI PUSH1 0x0 DUP1 REVERT JUMPDEST POP PUSH1 0x4 CALLDATASIZE LT PUSH2 0x88 JUMPI PUSH1 0x0 CALLDATALOAD PUSH1 0xE0 SHR DUP1 PUSH4 0x48351529 GT PUSH2 0x5B JUMPI DUP1 PUSH4 0x48351529 EQ PUSH2 0x113 JUMPI DUP1 PUSH4 0x77D2765C EQ PUSH2 0x12F JUMPI DUP1 PUSH4 0x8DA5CB5B EQ PUSH2 0x15F JUMPI DUP1 PUSH4 0xFD6A99E1 EQ PUSH2 0x17D JUMPI PUSH2 0x88 JUMP JUMPDEST DUP1 PUSH4 0x5B746B5 EQ PUSH2 0x8D JUMPI DUP1 PUSH4 0x392338F5 EQ PUSH2 0xAB JUMPI DUP1 PUSH4 0x3D9B569F EQ PUSH2 0xC7 JUMPI DUP1 PUSH4 0x40731C24 EQ PUSH2 0xE3 JUMPI JUMPDEST PUSH1 0x0 DUP1 REVERT JUMPDEST PUSH2 0x95 PUSH2 0x199 JUMP JUMPDEST PUSH1 0x40 MLOAD PUSH2 0xA2 SWAP2 SWAP1 PUSH2 0xDD2 JUMP JUMPDEST PUSH1 0x40 MLOAD DUP1 SWAP2 SUB SWAP1 RETURN JUMPDEST PUSH2 0xC5 PUSH1 0x4 DUP1 CALLDATASIZE SUB DUP2 ADD SWAP1 PUSH2 0xC0 SWAP2 SWAP1 PUSH2 0xF47 JUMP JUMPDEST PUSH2 0x1AD JUMP JUMPDEST STOP JUMPDEST PUSH2 0xE1 PUSH1 0x4 DUP1 CALLDATASIZE SUB DUP2 ADD SWAP1 PUSH2 0xDC SWAP2 SWAP1 PUSH2 0x1053 JUMP JUMPDEST PUSH2 0x42B JUMP JUMPDEST STOP JUMPDEST PUSH2 0xFD PUSH1 0x4 DUP1 CALLDATASIZE SUB DUP2 ADD SWAP1 PUSH2 0xF8 SWAP2 SWAP1 PUSH2 0x1093 JUMP JUMPDEST PUSH2 0x690 JUMP JUMPDEST PUSH1 0x40 MLOAD PUSH2 0x10A SWAP2 SWAP1 PUSH2 0x11ED JUMP JUMPDEST PUSH1 0x40 MLOAD DUP1 SWAP2 SUB SWAP1 RETURN JUMPDEST PUSH2 0x12D PUSH1 0x4 DUP1 CALLDATASIZE SUB DUP2 ADD SWAP1 PUSH2 0x128 SWAP2 SWAP1 PUSH2 0x1053 JUMP JUMPDEST PUSH2 0x8A1 JUMP JUMPDEST STOP JUMPDEST PUSH2 0x149 PUSH1 0x4 DUP1 CALLDATASIZE SUB DUP2 ADD SWAP1 PUSH2 0x144 SWAP2 SWAP1 PUSH2 0x120F JUMP JUMPDEST PUSH2 0xA61 JUMP JUMPDEST PUSH1 0x40 MLOAD PUSH2 0x156 SWAP2 SWAP1 PUSH2 0x138E JUMP JUMPDEST PUSH1 0x40 MLOAD DUP1 SWAP2 SUB SWAP1 RETURN JUMPDEST PUSH2 0x167 PUSH2 0xC97 JUMP JUMPDEST PUSH1 0x40 MLOAD PUSH2 0x174 SWAP2 SWAP1 PUSH2 0x13BF JUMP JUMPDEST PUSH1 0x40 MLOAD DUP1 SWAP2 SUB SWAP1 RETURN JUMPDEST PUSH2 0x197 PUSH1 0x4 DUP1 CALLDATASIZE SUB DUP2 ADD SWAP1 PUSH2 0x192 SWAP2 SWAP1 PUSH2 0x1406 JUMP JUMPDEST PUSH2 0xCBB JUMP JUMPDEST STOP JUMPDEST PUSH1 0x0 PUSH1 0x14 SWAP1 SLOAD SWAP1 PUSH2 0x100 EXP SWAP1 DIV PUSH2 0xFFFF AND DUP2 JUMP JUMPDEST PUSH1 0x80 PUSH1 0xFF AND DUP3 MLOAD GT ISZERO PUSH2 0x1F5 JUMPI PUSH1 0x40 MLOAD PUSH32 0x8C379A000000000000000000000000000000000000000000000000000000000 DUP2 MSTORE PUSH1 0x4 ADD PUSH2 0x1EC SWAP1 PUSH2 0x1490 JUMP JUMPDEST PUSH1 0x40 MLOAD DUP1 SWAP2 SUB SWAP1 REVERT JUMPDEST PUSH1 0x0 PUSH1 0x14 SWAP1 SLOAD SWAP1 PUSH2 0x100 EXP SWAP1 DIV PUSH2 0xFFFF AND PUSH2 0xFFFF AND DUP2 MLOAD GT ISZERO PUSH2 0x24D JUMPI PUSH1 0x40 MLOAD PUSH32 0x8C379A000000000000000000000000000000000000000000000000000000000 DUP2 MSTORE PUSH1 0x4 ADD PUSH2 0x244 SWAP1 PUSH2 0x14FC JUMP JUMPDEST PUSH1 0x40 MLOAD DUP1 SWAP2 SUB SWAP1 REVERT JUMPDEST PUSH1 0x0 PUSH1 0x40 MLOAD DUP1 PUSH1 0xC0 ADD PUSH1 0x40 MSTORE DUP1 PUSH1 0x1 PUSH1 0x0 CALLER PUSH20 0xFFFFFFFFFFFFFFFFFFFFFFFFFFFFFFFFFFFFFFFF AND PUSH20 0xFFFFFFFFFFFFFFFFFFFFFFFFFFFFFFFFFFFFFFFF AND DUP2 MSTORE PUSH1 0x20 ADD SWAP1 DUP2 MSTORE PUSH1 0x20 ADD PUSH1 0x0 KECCAK256 DUP1 SLOAD SWAP1 POP DUP2 MSTORE PUSH1 0x20 ADD CALLER PUSH20 0xFFFFFFFFFFFFFFFFFFFFFFFFFFFFFFFFFFFFFFFF AND DUP2 MSTORE PUSH1 0x20 ADD DUP5 DUP2 MSTORE PUSH1 0x20 ADD DUP4 DUP2 MSTORE PUSH1 0x20 ADD TIMESTAMP DUP2 MSTORE PUSH1 0x20 ADD PUSH1 0x0 DUP2 MSTORE POP SWAP1 POP PUSH1 0x1 PUSH1 0x0 CALLER PUSH20 0xFFFFFFFFFFFFFFFFFFFFFFFFFFFFFFFFFFFFFFFF AND PUSH20 0xFFFFFFFFFFFFFFFFFFFFFFFFFFFFFFFFFFFFFFFF AND DUP2 MSTORE PUSH1 0x20 ADD SWAP1 DUP2 MSTORE PUSH1 0x20 ADD PUSH1 0x0 KECCAK256 DUP2 SWAP1 DUP1 PUSH1 0x1 DUP2 SLOAD ADD DUP1 DUP3 SSTORE DUP1 SWAP2 POP POP PUSH1 0x1 SWAP1 SUB SWAP1 PUSH1 0x0 MSTORE PUSH1 0x20 PUSH1 0x0 KECCAK256 SWAP1 PUSH1 0x6 MUL ADD PUSH1 0x0 SWAP1 SWAP2 SWAP1 SWAP2 SWAP1 SWAP2 POP PUSH1 0x0 DUP3 ADD MLOAD DUP2 PUSH1 0x0 ADD SSTORE PUSH1 0x20 DUP3 ADD MLOAD DUP2 PUSH1 0x1 ADD PUSH1 0x0 PUSH2 0x100 EXP DUP2 SLOAD DUP2 PUSH20 0xFFFFFFFFFFFFFFFFFFFFFFFFFFFFFFFFFFFFFFFF MUL NOT AND SWAP1 DUP4 PUSH20 0xFFFFFFFFFFFFFFFFFFFFFFFFFFFFFFFFFFFFFFFF AND MUL OR SWAP1 SSTORE POP PUSH1 0x40 DUP3 ADD MLOAD DUP2 PUSH1 0x2 ADD SWAP1 DUP2 PUSH2 0x3A6 SWAP2 SWAP1 PUSH2 0x1728 JUMP JUMPDEST POP PUSH1 0x60 DUP3 ADD MLOAD DUP2 PUSH1 0x3 ADD SWAP1 DUP2 PUSH2 0x3BC SWAP2 SWAP1 PUSH2 0x1728 JUMP JUMPDEST POP PUSH1 0x80 DUP3 ADD MLOAD DUP2 PUSH1 0x4 ADD SSTORE PUSH1 0xA0 DUP3 ADD MLOAD DUP2 PUSH1 0x5 ADD SSTORE POP POP PUSH32 0x2B6CAE02A15B5EE74819F9C8E468F6B572A98FD4F0B9362D82ED75905F6D4A99 DUP2 PUSH1 0x0 ADD MLOAD DUP3 PUSH1 0x20 ADD MLOAD DUP4 PUSH1 0x40 ADD MLOAD DUP5 PUSH1 0x60 ADD MLOAD DUP6 PUSH1 0x80 ADD MLOAD PUSH1 0x40 MLOAD PUSH2 0x41E SWAP6 SWAP5 SWAP4 SWAP3 SWAP2 SWAP1 PUSH2 0x1842 JUMP JUMPDEST PUSH1 0x40 MLOAD DUP1 SWAP2 SUB SWAP1 LOG1 POP POP POP JUMP JUMPDEST DUP1 PUSH1 0x1 PUSH1 0x0 DUP5 PUSH20 0xFFFFFFFFFFFFFFFFFFFFFFFFFFFFFFFFFFFFFFFF AND PUSH20 0xFFFFFFFFFFFFFFFFFFFFFFFFFFFFFFFFFFFFFFFF AND DUP2 MSTORE PUSH1 0x20 ADD SWAP1 DUP2 MSTORE PUSH1 0x20 ADD PUSH1 0x0 KECCAK256 DUP3 DUP2 SLOAD DUP2 LT PUSH2 0x47D JUMPI PUSH2 0x47C PUSH2 0x18A3 JUMP JUMPDEST JUMPDEST SWAP1 PUSH1 0x0 MSTORE PUSH1 0x20 PUSH1 0x0 KECCAK256 SWAP1 PUSH1 0x6 MUL ADD PUSH1 0x0 ADD SLOAD EQ PUSH2 0x4CF JUMPI PUSH1 0x40 MLOAD PUSH32 0x8C379A000000000000000000000000000000000000000000000000000000000 DUP2 MSTORE PUSH1 0x4 ADD PUSH2 0x4C6 SWAP1 PUSH2 0x191E JUMP JUMPDEST PUSH1 0x40 MLOAD DUP1 SWAP2 SUB SWAP1 REVERT JUMPDEST PUSH1 0x0 PUSH1 0x1 PUSH1 0x0 DUP5 PUSH20 0xFFFFFFFFFFFFFFFFFFFFFFFFFFFFFFFFFFFFFFFF AND PUSH20 0xFFFFFFFFFFFFFFFFFFFFFFFFFFFFFFFFFFFFFFFF AND DUP2 MSTORE PUSH1 0x20 ADD SWAP1 DUP2 MSTORE PUSH1 0x20 ADD PUSH1 0x0 KECCAK256 DUP3 DUP2 SLOAD DUP2 LT PUSH2 0x522 JUMPI PUSH2 0x521 PUSH2 0x18A3 JUMP JUMPDEST JUMPDEST SWAP1 PUSH1 0x0 MSTORE PUSH1 0x20 PUSH1 0x0 KECCAK256 SWAP1 PUSH1 0x6 MUL ADD PUSH1 0x5 ADD SLOAD GT PUSH2 0x574 JUMPI PUSH1 0x40 MLOAD PUSH32 0x8C379A000000000000000000000000000000000000000000000000000000000 DUP2 MSTORE PUSH1 0x4 ADD PUSH2 0x56B SWAP1 PUSH2 0x198A JUMP JUMPDEST PUSH1 0x40 MLOAD DUP1 SWAP2 SUB SWAP1 REVERT JUMPDEST PUSH1 0x1 DUP1 PUSH1 0x0 DUP5 PUSH20 0xFFFFFFFFFFFFFFFFFFFFFFFFFFFFFFFFFFFFFFFF AND PUSH20 0xFFFFFFFFFFFFFFFFFFFFFFFFFFFFFFFFFFFFFFFF AND DUP2 MSTORE PUSH1 0x20 ADD SWAP1 DUP2 MSTORE PUSH1 0x20 ADD PUSH1 0x0 KECCAK256 DUP3 DUP2 SLOAD DUP2 LT PUSH2 0x5C6 JUMPI PUSH2 0x5C5 PUSH2 0x18A3 JUMP JUMPDEST JUMPDEST SWAP1 PUSH1 0x0 MSTORE PUSH1 0x20 PUSH1 0x0 KECCAK256 SWAP1 PUSH1 0x6 MUL ADD PUSH1 0x5 ADD PUSH1 0x0 DUP3 DUP3 SLOAD PUSH2 0x5E6 SWAP2 SWAP1 PUSH2 0x19D9 JUMP JUMPDEST SWAP3 POP POP DUP2 SWAP1 SSTORE POP PUSH32 0x5E0B23BA82F9EA54C1390E155AA97D8EE1A3A5623B9BC0793C5809B8908BC995 CALLER DUP4 DUP4 PUSH1 0x1 PUSH1 0x0 DUP8 PUSH20 0xFFFFFFFFFFFFFFFFFFFFFFFFFFFFFFFFFFFFFFFF AND PUSH20 0xFFFFFFFFFFFFFFFFFFFFFFFFFFFFFFFFFFFFFFFF AND DUP2 MSTORE PUSH1 0x20 ADD SWAP1 DUP2 MSTORE PUSH1 0x20 ADD PUSH1 0x0 KECCAK256 DUP6 DUP2 SLOAD DUP2 LT PUSH2 0x662 JUMPI PUSH2 0x661 PUSH2 0x18A3 JUMP JUMPDEST JUMPDEST SWAP1 PUSH1 0x0 MSTORE PUSH1 0x20 PUSH1 0x0 KECCAK256 SWAP1 PUSH1 0x6 MUL ADD PUSH1 0x5 ADD SLOAD PUSH1 0x40 MLOAD PUSH2 0x684 SWAP5 SWAP4 SWAP3 SWAP2 SWAP1 PUSH2 0x1A0D JUMP JUMPDEST PUSH1 0x40 MLOAD DUP1 SWAP2 SUB SWAP1 LOG1 POP POP JUMP JUMPDEST PUSH2 0x698 PUSH2 0xD69 JUMP JUMPDEST PUSH1 0x1 PUSH1 0x0 CALLER PUSH20 0xFFFFFFFFFFFFFFFFFFFFFFFFFFFFFFFFFFFFFFFF AND PUSH20 0xFFFFFFFFFFFFFFFFFFFFFFFFFFFFFFFFFFFFFFFF AND DUP2 MSTORE PUSH1 0x20 ADD SWAP1 DUP2 MSTORE PUSH1 0x20 ADD PUSH1 0x0 KECCAK256 DUP3 DUP2 SLOAD DUP2 LT PUSH2 0x6E9 JUMPI PUSH2 0x6E8 PUSH2 0x18A3 JUMP JUMPDEST JUMPDEST SWAP1 PUSH1 0x0 MSTORE PUSH1 0x20 PUSH1 0x0 KECCAK256 SWAP1 PUSH1 0x6 MUL ADD PUSH1 0x40 MLOAD DUP1 PUSH1 0xC0 ADD PUSH1 0x40 MSTORE SWAP1 DUP2 PUSH1 0x0 DUP3 ADD SLOAD DUP2 MSTORE PUSH1 0x20 ADD PUSH1 0x1 DUP3 ADD PUSH1 0x0 SWAP1 SLOAD SWAP1 PUSH2 0x100 EXP SWAP1 DIV PUSH20 0xFFFFFFFFFFFFFFFFFFFFFFFFFFFFFFFFFFFFFFFF AND PUSH20 0xFFFFFFFFFFFFFFFFFFFFFFFFFFFFFFFFFFFFFFFF AND PUSH20 0xFFFFFFFFFFFFFFFFFFFFFFFFFFFFFFFFFFFFFFFF AND DUP2 MSTORE PUSH1 0x20 ADD PUSH1 0x2 DUP3 ADD DUP1 SLOAD PUSH2 0x772 SWAP1 PUSH2 0x154B JUMP JUMPDEST DUP1 PUSH1 0x1F ADD PUSH1 0x20 DUP1 SWAP2 DIV MUL PUSH1 0x20 ADD PUSH1 0x40 MLOAD SWAP1 DUP2 ADD PUSH1 0x40 MSTORE DUP1 SWAP3 SWAP2 SWAP1 DUP2 DUP2 MSTORE PUSH1 0x20 ADD DUP3 DUP1 SLOAD PUSH2 0x79E SWAP1 PUSH2 0x154B JUMP JUMPDEST DUP1 ISZERO PUSH2 0x7EB JUMPI DUP1 PUSH1 0x1F LT PUSH2 0x7C0 JUMPI PUSH2 0x100 DUP1 DUP4 SLOAD DIV MUL DUP4 MSTORE SWAP2 PUSH1 0x20 ADD SWAP2 PUSH2 0x7EB JUMP JUMPDEST DUP3 ADD SWAP2 SWAP1 PUSH1 0x0 MSTORE PUSH1 0x20 PUSH1 0x0 KECCAK256 SWAP1 JUMPDEST DUP2 SLOAD DUP2 MSTORE SWAP1 PUSH1 0x1 ADD SWAP1 PUSH1 0x20 ADD DUP1 DUP4 GT PUSH2 0x7CE JUMPI DUP3 SWAP1 SUB PUSH1 0x1F AND DUP3 ADD SWAP2 JUMPDEST POP POP POP POP POP DUP2 MSTORE PUSH1 0x20 ADD PUSH1 0x3 DUP3 ADD DUP1 SLOAD PUSH2 0x804 SWAP1 PUSH2 0x154B JUMP JUMPDEST DUP1 PUSH1 0x1F ADD PUSH1 0x20 DUP1 SWAP2 DIV MUL PUSH1 0x20 ADD PUSH1 0x40 MLOAD SWAP1 DUP2 ADD PUSH1 0x40 MSTORE DUP1 SWAP3 SWAP2 SWAP1 DUP2 DUP2 MSTORE PUSH1 0x20 ADD DUP3 DUP1 SLOAD PUSH2 0x830 SWAP1 PUSH2 0x154B JUMP JUMPDEST DUP1 ISZERO PUSH2 0x87D JUMPI DUP1 PUSH1 0x1F LT PUSH2 0x852 JUMPI PUSH2 0x100 DUP1 DUP4 SLOAD DIV MUL DUP4 MSTORE SWAP2 PUSH1 0x20 ADD SWAP2 PUSH2 0x87D JUMP JUMPDEST DUP3 ADD SWAP2 SWAP1 PUSH1 0x0 MSTORE PUSH1 0x20 PUSH1 0x0 KECCAK256 SWAP1 JUMPDEST DUP2 SLOAD DUP2 MSTORE SWAP1 PUSH1 0x1 ADD SWAP1 PUSH1 0x20 ADD DUP1 DUP4 GT PUSH2 0x860 JUMPI DUP3 SWAP1 SUB PUSH1 0x1F AND DUP3 ADD SWAP2 JUMPDEST POP POP POP POP POP DUP2 MSTORE PUSH1 0x20 ADD PUSH1 0x4 DUP3 ADD SLOAD DUP2 MSTORE PUSH1 0x20 ADD PUSH1 0x5 DUP3 ADD SLOAD DUP2 MSTORE POP POP SWAP1 POP SWAP2 SWAP1 POP JUMP JUMPDEST DUP1 PUSH1 0x1 PUSH1 0x0 DUP5 PUSH20 0xFFFFFFFFFFFFFFFFFFFFFFFFFFFFFFFFFFFFFFFF AND PUSH20 0xFFFFFFFFFFFFFFFFFFFFFFFFFFFFFFFFFFFFFFFF AND DUP2 MSTORE PUSH1 0x20 ADD SWAP1 DUP2 MSTORE PUSH1 0x20 ADD PUSH1 0x0 KECCAK256 DUP3 DUP2 SLOAD DUP2 LT PUSH2 0x8F3 JUMPI PUSH2 0x8F2 PUSH2 0x18A3 JUMP JUMPDEST JUMPDEST SWAP1 PUSH1 0x0 MSTORE PUSH1 0x20 PUSH1 0x0 KECCAK256 SWAP1 PUSH1 0x6 MUL ADD PUSH1 0x0 ADD SLOAD EQ PUSH2 0x945 JUMPI PUSH1 0x40 MLOAD PUSH32 0x8C379A000000000000000000000000000000000000000000000000000000000 DUP2 MSTORE PUSH1 0x4 ADD PUSH2 0x93C SWAP1 PUSH2 0x191E JUMP JUMPDEST PUSH1 0x40 MLOAD DUP1 SWAP2 SUB SWAP1 REVERT JUMPDEST PUSH1 0x1 DUP1 PUSH1 0x0 DUP5 PUSH20 0xFFFFFFFFFFFFFFFFFFFFFFFFFFFFFFFFFFFFFFFF AND PUSH20 0xFFFFFFFFFFFFFFFFFFFFFFFFFFFFFFFFFFFFFFFF AND DUP2 MSTORE PUSH1 0x20 ADD SWAP1 DUP2 MSTORE PUSH1 0x20 ADD PUSH1 0x0 KECCAK256 DUP3 DUP2 SLOAD DUP2 LT PUSH2 0x997 JUMPI PUSH2 0x996 PUSH2 0x18A3 JUMP JUMPDEST JUMPDEST SWAP1 PUSH1 0x0 MSTORE PUSH1 0x20 PUSH1 0x0 KECCAK256 SWAP1 PUSH1 0x6 MUL ADD PUSH1 0x5 ADD PUSH1 0x0 DUP3 DUP3 SLOAD PUSH2 0x9B7 SWAP2 SWAP1 PUSH2 0x1A52 JUMP JUMPDEST SWAP3 POP POP DUP2 SWAP1 SSTORE POP PUSH32 0x7866FF14296D8C0B4CF1AA44019677DC8F85222CE3B679817C3D9E8F530FF544 CALLER DUP4 DUP4 PUSH1 0x1 PUSH1 0x0 DUP8 PUSH20 0xFFFFFFFFFFFFFFFFFFFFFFFFFFFFFFFFFFFFFFFF AND PUSH20 0xFFFFFFFFFFFFFFFFFFFFFFFFFFFFFFFFFFFFFFFF AND DUP2 MSTORE PUSH1 0x20 ADD SWAP1 DUP2 MSTORE PUSH1 0x20 ADD PUSH1 0x0 KECCAK256 DUP6 DUP2 SLOAD DUP2 LT PUSH2 0xA33 JUMPI PUSH2 0xA32 PUSH2 0x18A3 JUMP JUMPDEST JUMPDEST SWAP1 PUSH1 0x0 MSTORE PUSH1 0x20 PUSH1 0x0 KECCAK256 SWAP1 PUSH1 0x6 MUL ADD PUSH1 0x5 ADD SLOAD PUSH1 0x40 MLOAD PUSH2 0xA55 SWAP5 SWAP4 SWAP3 SWAP2 SWAP1 PUSH2 0x1A0D JUMP JUMPDEST PUSH1 0x40 MLOAD DUP1 SWAP2 SUB SWAP1 LOG1 POP POP JUMP JUMPDEST PUSH1 0x60 PUSH1 0x1 PUSH1 0x0 DUP4 PUSH20 0xFFFFFFFFFFFFFFFFFFFFFFFFFFFFFFFFFFFFFFFF AND PUSH20 0xFFFFFFFFFFFFFFFFFFFFFFFFFFFFFFFFFFFFFFFF AND DUP2 MSTORE PUSH1 0x20 ADD SWAP1 DUP2 MSTORE PUSH1 0x20 ADD PUSH1 0x0 KECCAK256 DUP1 SLOAD DUP1 PUSH1 0x20 MUL PUSH1 0x20 ADD PUSH1 0x40 MLOAD SWAP1 DUP2 ADD PUSH1 0x40 MSTORE DUP1 SWAP3 SWAP2 SWAP1 DUP2 DUP2 MSTORE PUSH1 0x20 ADD PUSH1 0x0 SWAP1 JUMPDEST DUP3 DUP3 LT ISZERO PUSH2 0xC8C JUMPI DUP4 DUP3 SWAP1 PUSH1 0x0 MSTORE PUSH1 0x20 PUSH1 0x0 KECCAK256 SWAP1 PUSH1 0x6 MUL ADD PUSH1 0x40 MLOAD DUP1 PUSH1 0xC0 ADD PUSH1 0x40 MSTORE SWAP1 DUP2 PUSH1 0x0 DUP3 ADD SLOAD DUP2 MSTORE PUSH1 0x20 ADD PUSH1 0x1 DUP3 ADD PUSH1 0x0 SWAP1 SLOAD SWAP1 PUSH2 0x100 EXP SWAP1 DIV PUSH20 0xFFFFFFFFFFFFFFFFFFFFFFFFFFFFFFFFFFFFFFFF AND PUSH20 0xFFFFFFFFFFFFFFFFFFFFFFFFFFFFFFFFFFFFFFFF AND PUSH20 0xFFFFFFFFFFFFFFFFFFFFFFFFFFFFFFFFFFFFFFFF AND DUP2 MSTORE PUSH1 0x20 ADD PUSH1 0x2 DUP3 ADD DUP1 SLOAD PUSH2 0xB55 SWAP1 PUSH2 0x154B JUMP JUMPDEST DUP1 PUSH1 0x1F ADD PUSH1 0x20 DUP1 SWAP2 DIV MUL PUSH1 0x20 ADD PUSH1 0x40 MLOAD SWAP1 DUP2 ADD PUSH1 0x40 MSTORE DUP1 SWAP3 SWAP2 SWAP1 DUP2 DUP2 MSTORE PUSH1 0x20 ADD DUP3 DUP1 SLOAD PUSH2 0xB81 SWAP1 PUSH2 0x154B JUMP JUMPDEST DUP1 ISZERO PUSH2 0xBCE JUMPI DUP1 PUSH1 0x1F LT PUSH2 0xBA3 JUMPI PUSH2 0x100 DUP1 DUP4 SLOAD DIV MUL DUP4 MSTORE SWAP2 PUSH1 0x20 ADD SWAP2 PUSH2 0xBCE JUMP JUMPDEST DUP3 ADD SWAP2 SWAP1 PUSH1 0x0 MSTORE PUSH1 0x20 PUSH1 0x0 KECCAK256 SWAP1 JUMPDEST DUP2 SLOAD DUP2 MSTORE SWAP1 PUSH1 0x1 ADD SWAP1 PUSH1 0x20 ADD DUP1 DUP4 GT PUSH2 0xBB1 JUMPI DUP3 SWAP1 SUB PUSH1 0x1F AND DUP3 ADD SWAP2 JUMPDEST POP POP POP POP POP DUP2 MSTORE PUSH1 0x20 ADD PUSH1 0x3 DUP3 ADD DUP1 SLOAD PUSH2 0xBE7 SWAP1 PUSH2 0x154B JUMP JUMPDEST DUP1 PUSH1 0x1F ADD PUSH1 0x20 DUP1 SWAP2 DIV MUL PUSH1 0x20 ADD PUSH1 0x40 MLOAD SWAP1 DUP2 ADD PUSH1 0x40 MSTORE DUP1 SWAP3 SWAP2 SWAP1 DUP2 DUP2 MSTORE PUSH1 0x20 ADD DUP3 DUP1 SLOAD PUSH2 0xC13 SWAP1 PUSH2 0x154B JUMP JUMPDEST DUP1 ISZERO PUSH2 0xC60 JUMPI DUP1 PUSH1 0x1F LT PUSH2 0xC35 JUMPI PUSH2 0x100 DUP1 DUP4 SLOAD DIV MUL DUP4 MSTORE SWAP2 PUSH1 0x20 ADD SWAP2 PUSH2 0xC60 JUMP JUMPDEST DUP3 ADD SWAP2 SWAP1 PUSH1 0x0 MSTORE PUSH1 0x20 PUSH1 0x0 KECCAK256 SWAP1 JUMPDEST DUP2 SLOAD DUP2 MSTORE SWAP1 PUSH1 0x1 ADD SWAP1 PUSH1 0x20 ADD DUP1 DUP4 GT PUSH2 0xC43 JUMPI DUP3 SWAP1 SUB PUSH1 0x1F AND DUP3 ADD SWAP2 JUMPDEST POP POP POP POP POP DUP2 MSTORE PUSH1 0x20 ADD PUSH1 0x4 DUP3 ADD SLOAD DUP2 MSTORE PUSH1 0x20 ADD PUSH1 0x5 DUP3 ADD SLOAD DUP2 MSTORE POP POP DUP2 MSTORE PUSH1 0x20 ADD SWAP1 PUSH1 0x1 ADD SWAP1 PUSH2 0xAC2 JUMP JUMPDEST POP POP POP POP SWAP1 POP SWAP2 SWAP1 POP JUMP JUMPDEST PUSH1 0x0 DUP1 SLOAD SWAP1 PUSH2 0x100 EXP SWAP1 DIV PUSH20 0xFFFFFFFFFFFFFFFFFFFFFFFFFFFFFFFFFFFFFFFF AND DUP2 JUMP JUMPDEST CALLER PUSH20 0xFFFFFFFFFFFFFFFFFFFFFFFFFFFFFFFFFFFFFFFF AND PUSH1 0x0 DUP1 SLOAD SWAP1 PUSH2 0x100 EXP SWAP1 DIV PUSH20 0xFFFFFFFFFFFFFFFFFFFFFFFFFFFFFFFFFFFFFFFF AND PUSH20 0xFFFFFFFFFFFFFFFFFFFFFFFFFFFFFFFFFFFFFFFF AND EQ PUSH2 0xD49 JUMPI PUSH1 0x40 MLOAD PUSH32 0x8C379A000000000000000000000000000000000000000000000000000000000 DUP2 MSTORE PUSH1 0x4 ADD PUSH2 0xD40 SWAP1 PUSH2 0x1AF8 JUMP JUMPDEST PUSH1 0x40 MLOAD DUP1 SWAP2 SUB SWAP1 REVERT JUMPDEST DUP1 PUSH1 0x0 PUSH1 0x14 PUSH2 0x100 EXP DUP2 SLOAD DUP2 PUSH2 0xFFFF MUL NOT AND SWAP1 DUP4 PUSH2 0xFFFF AND MUL OR SWAP1 SSTORE POP POP JUMP JUMPDEST PUSH1 0x40 MLOAD DUP1 PUSH1 0xC0 ADD PUSH1 0x40 MSTORE DUP1 PUSH1 0x0 DUP2 MSTORE PUSH1 0x20 ADD PUSH1 0x0 PUSH20 0xFFFFFFFFFFFFFFFFFFFFFFFFFFFFFFFFFFFFFFFF AND DUP2 MSTORE PUSH1 0x20 ADD PUSH1 0x60 DUP2 MSTORE PUSH1 0x20 ADD PUSH1 0x60 DUP2 MSTORE PUSH1 0x20 ADD PUSH1 0x0 DUP2 MSTORE PUSH1 0x20 ADD PUSH1 0x0 DUP2 MSTORE POP SWAP1 JUMP JUMPDEST PUSH1 0x0 PUSH2 0xFFFF DUP3 AND SWAP1 POP SWAP2 SWAP1 POP JUMP JUMPDEST PUSH2 0xDCC DUP2 PUSH2 0xDB5 JUMP JUMPDEST DUP3 MSTORE POP POP JUMP JUMPDEST PUSH1 0x0 PUSH1 0x20 DUP3 ADD SWAP1 POP PUSH2 0xDE7 PUSH1 0x0 DUP4 ADD DUP5 PUSH2 0xDC3 JUMP JUMPDEST SWAP3 SWAP2 POP POP JUMP JUMPDEST PUSH1 0x0 PUSH1 0x40 MLOAD SWAP1 POP SWAP1 JUMP JUMPDEST PUSH1 0x0 DUP1 REVERT JUMPDEST PUSH1 0x0 DUP1 REVERT JUMPDEST PUSH1 0x0 DUP1 REVERT JUMPDEST PUSH1 0x0 DUP1 REVERT JUMPDEST PUSH1 0x0 PUSH1 0x1F NOT PUSH1 0x1F DUP4 ADD AND SWAP1 POP SWAP2 SWAP1 POP JUMP JUMPDEST PUSH32 0x4E487B7100000000000000000000000000000000000000000000000000000000 PUSH1 0x0 MSTORE PUSH1 0x41 PUSH1 0x4 MSTORE PUSH1 0x24 PUSH1 0x0 REVERT JUMPDEST PUSH2 0xE54 DUP3 PUSH2 0xE0B JUMP JUMPDEST DUP2 ADD DUP2 DUP2 LT PUSH8 0xFFFFFFFFFFFFFFFF DUP3 GT OR ISZERO PUSH2 0xE73 JUMPI PUSH2 0xE72 PUSH2 0xE1C JUMP JUMPDEST JUMPDEST DUP1 PUSH1 0x40 MSTORE POP POP POP JUMP JUMPDEST PUSH1 0x0 PUSH2 0xE86 PUSH2 0xDED JUMP JUMPDEST SWAP1 POP PUSH2 0xE92 DUP3 DUP3 PUSH2 0xE4B JUMP JUMPDEST SWAP2 SWAP1 POP JUMP JUMPDEST PUSH1 0x0 PUSH8 0xFFFFFFFFFFFFFFFF DUP3 GT ISZERO PUSH2 0xEB2 JUMPI PUSH2 0xEB1 PUSH2 0xE1C JUMP JUMPDEST JUMPDEST PUSH2 0xEBB DUP3 PUSH2 0xE0B JUMP JUMPDEST SWAP1 POP PUSH1 0x20 DUP2 ADD SWAP1 POP SWAP2 SWAP1 POP JUMP JUMPDEST DUP3 DUP2 DUP4 CALLDATACOPY PUSH1 0x0 DUP4 DUP4 ADD MSTORE POP POP POP JUMP JUMPDEST PUSH1 0x0 PUSH2 0xEEA PUSH2 0xEE5 DUP5 PUSH2 0xE97 JUMP JUMPDEST PUSH2 0xE7C JUMP JUMPDEST SWAP1 POP DUP3 DUP2 MSTORE PUSH1 0x20 DUP2 ADD DUP5 DUP5 DUP5 ADD GT ISZERO PUSH2 0xF06 JUMPI PUSH2 0xF05 PUSH2 0xE06 JUMP JUMPDEST JUMPDEST PUSH2 0xF11 DUP5 DUP3 DUP6 PUSH2 0xEC8 JUMP JUMPDEST POP SWAP4 SWAP3 POP POP POP JUMP JUMPDEST PUSH1 0x0 DUP3 PUSH1 0x1F DUP4 ADD SLT PUSH2 0xF2E JUMPI PUSH2 0xF2D PUSH2 0xE01 JUMP JUMPDEST JUMPDEST DUP2 CALLDATALOAD PUSH2 0xF3E DUP5 DUP3 PUSH1 0x20 DUP7 ADD PUSH2 0xED7 JUMP JUMPDEST SWAP2 POP POP SWAP3 SWAP2 POP POP JUMP JUMPDEST PUSH1 0x0 DUP1 PUSH1 0x40 DUP4 DUP6 SUB SLT ISZERO PUSH2 0xF5E JUMPI PUSH2 0xF5D PUSH2 0xDF7 JUMP JUMPDEST JUMPDEST PUSH1 0x0 DUP4 ADD CALLDATALOAD PUSH8 0xFFFFFFFFFFFFFFFF DUP2 GT ISZERO PUSH2 0xF7C JUMPI PUSH2 0xF7B PUSH2 0xDFC JUMP JUMPDEST JUMPDEST PUSH2 0xF88 DUP6 DUP3 DUP7 ADD PUSH2 0xF19 JUMP JUMPDEST SWAP3 POP POP PUSH1 0x20 DUP4 ADD CALLDATALOAD PUSH8 0xFFFFFFFFFFFFFFFF DUP2 GT ISZERO PUSH2 0xFA9 JUMPI PUSH2 0xFA8 PUSH2 0xDFC JUMP JUMPDEST JUMPDEST PUSH2 0xFB5 DUP6 DUP3 DUP7 ADD PUSH2 0xF19 JUMP JUMPDEST SWAP2 POP POP SWAP3 POP SWAP3 SWAP1 POP JUMP JUMPDEST PUSH1 0x0 PUSH20 0xFFFFFFFFFFFFFFFFFFFFFFFFFFFFFFFFFFFFFFFF DUP3 AND SWAP1 POP SWAP2 SWAP1 POP JUMP JUMPDEST PUSH1 0x0 PUSH2 0xFEA DUP3 PUSH2 0xFBF JUMP JUMPDEST SWAP1 POP SWAP2 SWAP1 POP JUMP JUMPDEST PUSH2 0xFFA DUP2 PUSH2 0xFDF JUMP JUMPDEST DUP2 EQ PUSH2 0x1005 JUMPI PUSH1 0x0 DUP1 REVERT JUMPDEST POP JUMP JUMPDEST PUSH1 0x0 DUP2 CALLDATALOAD SWAP1 POP PUSH2 0x1017 DUP2 PUSH2 0xFF1 JUMP JUMPDEST SWAP3 SWAP2 POP POP JUMP JUMPDEST PUSH1 0x0 DUP2 SWAP1 POP SWAP2 SWAP1 POP JUMP JUMPDEST PUSH2 0x1030 DUP2 PUSH2 0x101D JUMP JUMPDEST DUP2 EQ PUSH2 0x103B JUMPI PUSH1 0x0 DUP1 REVERT JUMPDEST POP JUMP JUMPDEST PUSH1 0x0 DUP2 CALLDATALOAD SWAP1 POP PUSH2 0x104D DUP2 PUSH2 0x1027 JUMP JUMPDEST SWAP3 SWAP2 POP POP JUMP JUMPDEST PUSH1 0x0 DUP1 PUSH1 0x40 DUP4 DUP6 SUB SLT ISZERO PUSH2 0x106A JUMPI PUSH2 0x1069 PUSH2 0xDF7 JUMP JUMPDEST JUMPDEST PUSH1 0x0 PUSH2 0x1078 DUP6 DUP3 DUP7 ADD PUSH2 0x1008 JUMP JUMPDEST SWAP3 POP POP PUSH1 0x20 PUSH2 0x1089 DUP6 DUP3 DUP7 ADD PUSH2 0x103E JUMP JUMPDEST SWAP2 POP POP SWAP3 POP SWAP3 SWAP1 POP JUMP JUMPDEST PUSH1 0x0 PUSH1 0x20 DUP3 DUP5 SUB SLT ISZERO PUSH2 0x10A9 JUMPI PUSH2 0x10A8 PUSH2 0xDF7 JUMP JUMPDEST JUMPDEST PUSH1 0x0 PUSH2 0x10B7 DUP5 DUP3 DUP6 ADD PUSH2 0x103E JUMP JUMPDEST SWAP2 POP POP SWAP3 SWAP2 POP POP JUMP JUMPDEST PUSH2 0x10C9 DUP2 PUSH2 0x101D JUMP JUMPDEST DUP3 MSTORE POP POP JUMP JUMPDEST PUSH2 0x10D8 DUP2 PUSH2 0xFDF JUMP JUMPDEST DUP3 MSTORE POP POP JUMP JUMPDEST PUSH1 0x0 DUP2 MLOAD SWAP1 POP SWAP2 SWAP1 POP JUMP JUMPDEST PUSH1 0x0 DUP3 DUP3 MSTORE PUSH1 0x20 DUP3 ADD SWAP1 POP SWAP3 SWAP2 POP POP JUMP JUMPDEST PUSH1 0x0 JUMPDEST DUP4 DUP2 LT ISZERO PUSH2 0x1118 JUMPI DUP1 DUP3 ADD MLOAD DUP2 DUP5 ADD MSTORE PUSH1 0x20 DUP2 ADD SWAP1 POP PUSH2 0x10FD JUMP JUMPDEST PUSH1 0x0 DUP5 DUP5 ADD MSTORE POP POP POP POP JUMP JUMPDEST PUSH1 0x0 PUSH2 0x112F DUP3 PUSH2 0x10DE JUMP JUMPDEST PUSH2 0x1139 DUP2 DUP6 PUSH2 0x10E9 JUMP JUMPDEST SWAP4 POP PUSH2 0x1149 DUP2 DUP6 PUSH1 0x20 DUP7 ADD PUSH2 0x10FA JUMP JUMPDEST PUSH2 0x1152 DUP2 PUSH2 0xE0B JUMP JUMPDEST DUP5 ADD SWAP2 POP POP SWAP3 SWAP2 POP POP JUMP JUMPDEST PUSH1 0x0 PUSH1 0xC0 DUP4 ADD PUSH1 0x0 DUP4 ADD MLOAD PUSH2 0x1175 PUSH1 0x0 DUP7 ADD DUP3 PUSH2 0x10C0 JUMP JUMPDEST POP PUSH1 0x20 DUP4 ADD MLOAD PUSH2 0x1188 PUSH1 0x20 DUP7 ADD DUP3 PUSH2 0x10CF JUMP JUMPDEST POP PUSH1 0x40 DUP4 ADD MLOAD DUP5 DUP3 SUB PUSH1 0x40 DUP7 ADD MSTORE PUSH2 0x11A0 DUP3 DUP3 PUSH2 0x1124 JUMP JUMPDEST SWAP2 POP POP PUSH1 0x60 DUP4 ADD MLOAD DUP5 DUP3 SUB PUSH1 0x60 DUP7 ADD MSTORE PUSH2 0x11BA DUP3 DUP3 PUSH2 0x1124 JUMP JUMPDEST SWAP2 POP POP PUSH1 0x80 DUP4 ADD MLOAD PUSH2 0x11CF PUSH1 0x80 DUP7 ADD DUP3 PUSH2 0x10C0 JUMP JUMPDEST POP PUSH1 0xA0 DUP4 ADD MLOAD PUSH2 0x11E2 PUSH1 0xA0 DUP7 ADD DUP3 PUSH2 0x10C0 JUMP JUMPDEST POP DUP1 SWAP2 POP POP SWAP3 SWAP2 POP POP JUMP JUMPDEST PUSH1 0x0 PUSH1 0x20 DUP3 ADD SWAP1 POP DUP2 DUP2 SUB PUSH1 0x0 DUP4 ADD MSTORE PUSH2 0x1207 DUP2 DUP5 PUSH2 0x115D JUMP JUMPDEST SWAP1 POP SWAP3 SWAP2 POP POP JUMP JUMPDEST PUSH1 0x0 PUSH1 0x20 DUP3 DUP5 SUB SLT ISZERO PUSH2 0x1225 JUMPI PUSH2 0x1224 PUSH2 0xDF7 JUMP JUMPDEST JUMPDEST PUSH1 0x0 PUSH2 0x1233 DUP5 DUP3 DUP6 ADD PUSH2 0x1008 JUMP JUMPDEST SWAP2 POP POP SWAP3 SWAP2 POP POP JUMP JUMPDEST PUSH1 0x0 DUP2 MLOAD SWAP1 POP SWAP2 SWAP1 POP JUMP JUMPDEST PUSH1 0x0 DUP3 DUP3 MSTORE PUSH1 0x20 DUP3 ADD SWAP1 POP SWAP3 SWAP2 POP POP JUMP JUMPDEST PUSH1 0x0 DUP2 SWAP1 POP PUSH1 0x20 DUP3 ADD SWAP1 POP SWAP2 SWAP1 POP JUMP JUMPDEST PUSH1 0x0 PUSH1 0xC0 DUP4 ADD PUSH1 0x0 DUP4 ADD MLOAD PUSH2 0x1280 PUSH1 0x0 DUP7 ADD DUP3 PUSH2 0x10C0 JUMP JUMPDEST POP PUSH1 0x20 DUP4 ADD MLOAD PUSH2 0x1293 PUSH1 0x20 DUP7 ADD DUP3 PUSH2 0x10CF JUMP JUMPDEST POP PUSH1 0x40 DUP4 ADD MLOAD DUP5 DUP3 SUB PUSH1 0x40 DUP7 ADD MSTORE PUSH2 0x12AB DUP3 DUP3 PUSH2 0x1124 JUMP JUMPDEST SWAP2 POP POP PUSH1 0x60 DUP4 ADD MLOAD DUP5 DUP3 SUB PUSH1 0x60 DUP7 ADD MSTORE PUSH2 0x12C5 DUP3 DUP3 PUSH2 0x1124 JUMP JUMPDEST SWAP2 POP POP PUSH1 0x80 DUP4 ADD MLOAD PUSH2 0x12DA PUSH1 0x80 DUP7 ADD DUP3 PUSH2 0x10C0 JUMP JUMPDEST POP PUSH1 0xA0 DUP4 ADD MLOAD PUSH2 0x12ED PUSH1 0xA0 DUP7 ADD DUP3 PUSH2 0x10C0 JUMP JUMPDEST POP DUP1 SWAP2 POP POP SWAP3 SWAP2 POP POP JUMP JUMPDEST PUSH1 0x0 PUSH2 0x1304 DUP4 DUP4 PUSH2 0x1268 JUMP JUMPDEST SWAP1 POP SWAP3 SWAP2 POP POP JUMP JUMPDEST PUSH1 0x0 PUSH1 0x20 DUP3 ADD SWAP1 POP SWAP2 SWAP1 POP JUMP JUMPDEST PUSH1 0x0 PUSH2 0x1324 DUP3 PUSH2 0x123C JUMP JUMPDEST PUSH2 0x132E DUP2 DUP6 PUSH2 0x1247 JUMP JUMPDEST SWAP4 POP DUP4 PUSH1 0x20 DUP3 MUL DUP6 ADD PUSH2 0x1340 DUP6 PUSH2 0x1258 JUMP JUMPDEST DUP1 PUSH1 0x0 JUMPDEST DUP6 DUP2 LT ISZERO PUSH2 0x137C JUMPI DUP5 DUP5 SUB DUP10 MSTORE DUP2 MLOAD PUSH2 0x135D DUP6 DUP3 PUSH2 0x12F8 JUMP JUMPDEST SWAP5 POP PUSH2 0x1368 DUP4 PUSH2 0x130C JUMP JUMPDEST SWAP3 POP PUSH1 0x20 DUP11 ADD SWAP10 POP POP PUSH1 0x1 DUP2 ADD SWAP1 POP PUSH2 0x1344 JUMP JUMPDEST POP DUP3 SWAP8 POP DUP8 SWAP6 POP POP POP POP POP POP SWAP3 SWAP2 POP POP JUMP JUMPDEST PUSH1 0x0 PUSH1 0x20 DUP3 ADD SWAP1 POP DUP2 DUP2 SUB PUSH1 0x0 DUP4 ADD MSTORE PUSH2 0x13A8 DUP2 DUP5 PUSH2 0x1319 JUMP JUMPDEST SWAP1 POP SWAP3 SWAP2 POP POP JUMP JUMPDEST PUSH2 0x13B9 DUP2 PUSH2 0xFDF JUMP JUMPDEST DUP3 MSTORE POP POP JUMP JUMPDEST PUSH1 0x0 PUSH1 0x20 DUP3 ADD SWAP1 POP PUSH2 0x13D4 PUSH1 0x0 DUP4 ADD DUP5 PUSH2 0x13B0 JUMP JUMPDEST SWAP3 SWAP2 POP POP JUMP JUMPDEST PUSH2 0x13E3 DUP2 PUSH2 0xDB5 JUMP JUMPDEST DUP2 EQ PUSH2 0x13EE JUMPI PUSH1 0x0 DUP1 REVERT JUMPDEST POP JUMP JUMPDEST PUSH1 0x0 DUP2 CALLDATALOAD SWAP1 POP PUSH2 0x1400 DUP2 PUSH2 0x13DA JUMP JUMPDEST SWAP3 SWAP2 POP POP JUMP JUMPDEST PUSH1 0x0 PUSH1 0x20 DUP3 DUP5 SUB SLT ISZERO PUSH2 0x141C JUMPI PUSH2 0x141B PUSH2 0xDF7 JUMP JUMPDEST JUMPDEST PUSH1 0x0 PUSH2 0x142A DUP5 DUP3 DUP6 ADD PUSH2 0x13F1 JUMP JUMPDEST SWAP2 POP POP SWAP3 SWAP2 POP POP JUMP JUMPDEST PUSH1 0x0 DUP3 DUP3 MSTORE PUSH1 0x20 DUP3 ADD SWAP1 POP SWAP3 SWAP2 POP POP JUMP JUMPDEST PUSH32 0x5469746C6520746F6F206C6F6E67000000000000000000000000000000000000 PUSH1 0x0 DUP3 ADD MSTORE POP JUMP JUMPDEST PUSH1 0x0 PUSH2 0x147A PUSH1 0xE DUP4 PUSH2 0x1433 JUMP JUMPDEST SWAP2 POP PUSH2 0x1485 DUP3 PUSH2 0x1444 JUMP JUMPDEST PUSH1 0x20 DUP3 ADD SWAP1 POP SWAP2 SWAP1 POP JUMP JUMPDEST PUSH1 0x0 PUSH1 0x20 DUP3 ADD SWAP1 POP DUP2 DUP2 SUB PUSH1 0x0 DUP4 ADD MSTORE PUSH2 0x14A9 DUP2 PUSH2 0x146D JUMP JUMPDEST SWAP1 POP SWAP2 SWAP1 POP JUMP JUMPDEST PUSH32 0x436F6E74656E7420746F6F206C6F6E6700000000000000000000000000000000 PUSH1 0x0 DUP3 ADD MSTORE POP JUMP JUMPDEST PUSH1 0x0 PUSH2 0x14E6 PUSH1 0x10 DUP4 PUSH2 0x1433 JUMP JUMPDEST SWAP2 POP PUSH2 0x14F1 DUP3 PUSH2 0x14B0 JUMP JUMPDEST PUSH1 0x20 DUP3 ADD SWAP1 POP SWAP2 SWAP1 POP JUMP JUMPDEST PUSH1 0x0 PUSH1 0x20 DUP3 ADD SWAP1 POP DUP2 DUP2 SUB PUSH1 0x0 DUP4 ADD MSTORE PUSH2 0x1515 DUP2 PUSH2 0x14D9 JUMP JUMPDEST SWAP1 POP SWAP2 SWAP1 POP JUMP JUMPDEST PUSH32 0x4E487B7100000000000000000000000000000000000000000000000000000000 PUSH1 0x0 MSTORE PUSH1 0x22 PUSH1 0x4 MSTORE PUSH1 0x24 PUSH1 0x0 REVERT JUMPDEST PUSH1 0x0 PUSH1 0x2 DUP3 DIV SWAP1 POP PUSH1 0x1 DUP3 AND DUP1 PUSH2 0x1563 JUMPI PUSH1 0x7F DUP3 AND SWAP2 POP JUMPDEST PUSH1 0x20 DUP3 LT DUP2 SUB PUSH2 0x1576 JUMPI PUSH2 0x1575 PUSH2 0x151C JUMP JUMPDEST JUMPDEST POP SWAP2 SWAP1 POP JUMP JUMPDEST PUSH1 0x0 DUP2 SWAP1 POP DUP2 PUSH1 0x0 MSTORE PUSH1 0x20 PUSH1 0x0 KECCAK256 SWAP1 POP SWAP2 SWAP1 POP JUMP JUMPDEST PUSH1 0x0 PUSH1 0x20 PUSH1 0x1F DUP4 ADD DIV SWAP1 POP SWAP2 SWAP1 POP JUMP JUMPDEST PUSH1 0x0 DUP3 DUP3 SHL SWAP1 POP SWAP3 SWAP2 POP POP JUMP JUMPDEST PUSH1 0x0 PUSH1 0x8 DUP4 MUL PUSH2 0x15DE PUSH32 0xFFFFFFFFFFFFFFFFFFFFFFFFFFFFFFFFFFFFFFFFFFFFFFFFFFFFFFFFFFFFFFFF DUP3 PUSH2 0x15A1 JUMP JUMPDEST PUSH2 0x15E8 DUP7 DUP4 PUSH2 0x15A1 JUMP JUMPDEST SWAP6 POP DUP1 NOT DUP5 AND SWAP4 POP DUP1 DUP7 AND DUP5 OR SWAP3 POP POP POP SWAP4 SWAP3 POP POP POP JUMP JUMPDEST PUSH1 0x0 DUP2 SWAP1 POP SWAP2 SWAP1 POP JUMP JUMPDEST PUSH1 0x0 PUSH2 0x1625 PUSH2 0x1620 PUSH2 0x161B DUP5 PUSH2 0x101D JUMP JUMPDEST PUSH2 0x1600 JUMP JUMPDEST PUSH2 0x101D JUMP JUMPDEST SWAP1 POP SWAP2 SWAP1 POP JUMP JUMPDEST PUSH1 0x0 DUP2 SWAP1 POP SWAP2 SWAP1 POP JUMP JUMPDEST PUSH2 0x163F DUP4 PUSH2 0x160A JUMP JUMPDEST PUSH2 0x1653 PUSH2 0x164B DUP3 PUSH2 0x162C JUMP JUMPDEST DUP5 DUP5 SLOAD PUSH2 0x15AE JUMP JUMPDEST DUP3 SSTORE POP POP POP POP JUMP JUMPDEST PUSH1 0x0 SWAP1 JUMP JUMPDEST PUSH2 0x1668 PUSH2 0x165B JUMP JUMPDEST PUSH2 0x1673 DUP2 DUP5 DUP5 PUSH2 0x1636 JUMP JUMPDEST POP POP POP JUMP JUMPDEST JUMPDEST DUP2 DUP2 LT ISZERO PUSH2 0x1697 JUMPI PUSH2 0x168C PUSH1 0x0 DUP3 PUSH2 0x1660 JUMP JUMPDEST PUSH1 0x1 DUP2 ADD SWAP1 POP PUSH2 0x1679 JUMP JUMPDEST POP POP JUMP JUMPDEST PUSH1 0x1F DUP3 GT ISZERO PUSH2 0x16DC JUMPI PUSH2 0x16AD DUP2 PUSH2 0x157C JUMP JUMPDEST PUSH2 0x16B6 DUP5 PUSH2 0x1591 JUMP JUMPDEST DUP2 ADD PUSH1 0x20 DUP6 LT ISZERO PUSH2 0x16C5 JUMPI DUP2 SWAP1 POP JUMPDEST PUSH2 0x16D9 PUSH2 0x16D1 DUP6 PUSH2 0x1591 JUMP JUMPDEST DUP4 ADD DUP3 PUSH2 0x1678 JUMP JUMPDEST POP POP JUMPDEST POP POP POP JUMP JUMPDEST PUSH1 0x0 DUP3 DUP3 SHR SWAP1 POP SWAP3 SWAP2 POP POP JUMP JUMPDEST PUSH1 0x0 PUSH2 0x16FF PUSH1 0x0 NOT DUP5 PUSH1 0x8 MUL PUSH2 0x16E1 JUMP JUMPDEST NOT DUP1 DUP4 AND SWAP2 POP POP SWAP3 SWAP2 POP POP JUMP JUMPDEST PUSH1 0x0 PUSH2 0x1718 DUP4 DUP4 PUSH2 0x16EE JUMP JUMPDEST SWAP2 POP DUP3 PUSH1 0x2 MUL DUP3 OR SWAP1 POP SWAP3 SWAP2 POP POP JUMP JUMPDEST PUSH2 0x1731 DUP3 PUSH2 0x10DE JUMP JUMPDEST PUSH8 0xFFFFFFFFFFFFFFFF DUP2 GT ISZERO PUSH2 0x174A JUMPI PUSH2 0x1749 PUSH2 0xE1C JUMP JUMPDEST JUMPDEST PUSH2 0x1754 DUP3 SLOAD PUSH2 0x154B JUMP JUMPDEST PUSH2 0x175F DUP3 DUP3 DUP6 PUSH2 0x169B JUMP JUMPDEST PUSH1 0x0 PUSH1 0x20 SWAP1 POP PUSH1 0x1F DUP4 GT PUSH1 0x1 DUP2 EQ PUSH2 0x1792 JUMPI PUSH1 0x0 DUP5 ISZERO PUSH2 0x1780 JUMPI DUP3 DUP8 ADD MLOAD SWAP1 POP JUMPDEST PUSH2 0x178A DUP6 DUP3 PUSH2 0x170C JUMP JUMPDEST DUP7 SSTORE POP PUSH2 0x17F2 JUMP JUMPDEST PUSH1 0x1F NOT DUP5 AND PUSH2 0x17A0 DUP7 PUSH2 0x157C JUMP JUMPDEST PUSH1 0x0 JUMPDEST DUP3 DUP2 LT ISZERO PUSH2 0x17C8 JUMPI DUP5 DUP10 ADD MLOAD DUP3 SSTORE PUSH1 0x1 DUP3 ADD SWAP2 POP PUSH1 0x20 DUP6 ADD SWAP5 POP PUSH1 0x20 DUP2 ADD SWAP1 POP PUSH2 0x17A3 JUMP JUMPDEST DUP7 DUP4 LT ISZERO PUSH2 0x17E5 JUMPI DUP5 DUP10 ADD MLOAD PUSH2 0x17E1 PUSH1 0x1F DUP10 AND DUP3 PUSH2 0x16EE JUMP JUMPDEST DUP4 SSTORE POP JUMPDEST PUSH1 0x1 PUSH1 0x2 DUP9 MUL ADD DUP9 SSTORE POP POP POP JUMPDEST POP POP POP POP POP POP JUMP JUMPDEST PUSH2 0x1803 DUP2 PUSH2 0x101D JUMP JUMPDEST DUP3 MSTORE POP POP JUMP JUMPDEST PUSH1 0x0 PUSH2 0x1814 DUP3 PUSH2 0x10DE JUMP JUMPDEST PUSH2 0x181E DUP2 DUP6 PUSH2 0x1433 JUMP JUMPDEST SWAP4 POP PUSH2 0x182E DUP2 DUP6 PUSH1 0x20 DUP7 ADD PUSH2 0x10FA JUMP JUMPDEST PUSH2 0x1837 DUP2 PUSH2 0xE0B JUMP JUMPDEST DUP5 ADD SWAP2 POP POP SWAP3 SWAP2 POP POP JUMP JUMPDEST PUSH1 0x0 PUSH1 0xA0 DUP3 ADD SWAP1 POP PUSH2 0x1857 PUSH1 0x0 DUP4 ADD DUP9 PUSH2 0x17FA JUMP JUMPDEST PUSH2 0x1864 PUSH1 0x20 DUP4 ADD DUP8 PUSH2 0x13B0 JUMP JUMPDEST DUP2 DUP2 SUB PUSH1 0x40 DUP4 ADD MSTORE PUSH2 0x1876 DUP2 DUP7 PUSH2 0x1809 JUMP JUMPDEST SWAP1 POP DUP2 DUP2 SUB PUSH1 0x60 DUP4 ADD MSTORE PUSH2 0x188A DUP2 DUP6 PUSH2 0x1809 JUMP JUMPDEST SWAP1 POP PUSH2 0x1899 PUSH1 0x80 DUP4 ADD DUP5 PUSH2 0x17FA JUMP JUMPDEST SWAP7 SWAP6 POP POP POP POP POP POP JUMP JUMPDEST PUSH32 0x4E487B7100000000000000000000000000000000000000000000000000000000 PUSH1 0x0 MSTORE PUSH1 0x32 PUSH1 0x4 MSTORE PUSH1 0x24 PUSH1 0x0 REVERT JUMPDEST PUSH32 0x506F737420646F6573206E6F7420657869737400000000000000000000000000 PUSH1 0x0 DUP3 ADD MSTORE POP JUMP JUMPDEST PUSH1 0x0 PUSH2 0x1908 PUSH1 0x13 DUP4 PUSH2 0x1433 JUMP JUMPDEST SWAP2 POP PUSH2 0x1913 DUP3 PUSH2 0x18D2 JUMP JUMPDEST PUSH1 0x20 DUP3 ADD SWAP1 POP SWAP2 SWAP1 POP JUMP JUMPDEST PUSH1 0x0 PUSH1 0x20 DUP3 ADD SWAP1 POP DUP2 DUP2 SUB PUSH1 0x0 DUP4 ADD MSTORE PUSH2 0x1937 DUP2 PUSH2 0x18FB JUMP JUMPDEST SWAP1 POP SWAP2 SWAP1 POP JUMP JUMPDEST PUSH32 0x43616E27742068617665206E65676174697665206C696B657300000000000000 PUSH1 0x0 DUP3 ADD MSTORE POP JUMP JUMPDEST PUSH1 0x0 PUSH2 0x1974 PUSH1 0x19 DUP4 PUSH2 0x1433 JUMP JUMPDEST SWAP2 POP PUSH2 0x197F DUP3 PUSH2 0x193E JUMP JUMPDEST PUSH1 0x20 DUP3 ADD SWAP1 POP SWAP2 SWAP1 POP JUMP JUMPDEST PUSH1 0x0 PUSH1 0x20 DUP3 ADD SWAP1 POP DUP2 DUP2 SUB PUSH1 0x0 DUP4 ADD MSTORE PUSH2 0x19A3 DUP2 PUSH2 0x1967 JUMP JUMPDEST SWAP1 POP SWAP2 SWAP1 POP JUMP JUMPDEST PUSH32 0x4E487B7100000000000000000000000000000000000000000000000000000000 PUSH1 0x0 MSTORE PUSH1 0x11 PUSH1 0x4 MSTORE PUSH1 0x24 PUSH1 0x0 REVERT JUMPDEST PUSH1 0x0 PUSH2 0x19E4 DUP3 PUSH2 0x101D JUMP JUMPDEST SWAP2 POP PUSH2 0x19EF DUP4 PUSH2 0x101D JUMP JUMPDEST SWAP3 POP DUP3 DUP3 SUB SWAP1 POP DUP2 DUP2 GT ISZERO PUSH2 0x1A07 JUMPI PUSH2 0x1A06 PUSH2 0x19AA JUMP JUMPDEST JUMPDEST SWAP3 SWAP2 POP POP JUMP JUMPDEST PUSH1 0x0 PUSH1 0x80 DUP3 ADD SWAP1 POP PUSH2 0x1A22 PUSH1 0x0 DUP4 ADD DUP8 PUSH2 0x13B0 JUMP JUMPDEST PUSH2 0x1A2F PUSH1 0x20 DUP4 ADD DUP7 PUSH2 0x13B0 JUMP JUMPDEST PUSH2 0x1A3C PUSH1 0x40 DUP4 ADD DUP6 PUSH2 0x17FA JUMP JUMPDEST PUSH2 0x1A49 PUSH1 0x60 DUP4 ADD DUP5 PUSH2 0x17FA JUMP JUMPDEST SWAP6 SWAP5 POP POP POP POP POP JUMP JUMPDEST PUSH1 0x0 PUSH2 0x1A5D DUP3 PUSH2 0x101D JUMP JUMPDEST SWAP2 POP PUSH2 0x1A68 DUP4 PUSH2 0x101D JUMP JUMPDEST SWAP3 POP DUP3 DUP3 ADD SWAP1 POP DUP1 DUP3 GT ISZERO PUSH2 0x1A80 JUMPI PUSH2 0x1A7F PUSH2 0x19AA JUMP JUMPDEST JUMPDEST SWAP3 SWAP2 POP POP JUMP JUMPDEST PUSH32 0x4D75737420626520636F6E7472616374206F776E657220666F72207468697320 PUSH1 0x0 DUP3 ADD MSTORE PUSH32 0x616374696F6E0000000000000000000000000000000000000000000000000000 PUSH1 0x20 DUP3 ADD MSTORE POP JUMP JUMPDEST PUSH1 0x0 PUSH2 0x1AE2 PUSH1 0x26 DUP4 PUSH2 0x1433 JUMP JUMPDEST SWAP2 POP PUSH2 0x1AED DUP3 PUSH2 0x1A86 JUMP JUMPDEST PUSH1 0x40 DUP3 ADD SWAP1 POP SWAP2 SWAP1 POP JUMP JUMPDEST PUSH1 0x0 PUSH1 0x20 DUP3 ADD SWAP1 POP DUP2 DUP2 SUB PUSH1 0x0 DUP4 ADD MSTORE PUSH2 0x1B11 DUP2 PUSH2 0x1AD5 JUMP JUMPDEST SWAP1 POP SWAP2 SWAP1 POP JUMP INVALID LOG2 PUSH5 0x6970667358 0x22 SLT KECCAK256 0x4C 0xED PUSH27 0x7E7A3869AC9D4BD0832503E55C16C4E75618A9BBE4846AFE146056 0xD7 0xE8 PUSH5 0x736F6C6343 STOP ADDMOD SLT STOP CALLER "
				},
				"gasEstimates": {
					"creation": {
						"codeDepositCost": "1398000",
						"executionCost": "50041",
						"totalCost": "1448041"
					},
					"external": {
						"MAX_CONTENT_LENGTH()": "2522",
						"changeContentLength(uint16)": "26962",
						"createPost(string,string)": "infinite",
						"getAllPosts(address)": "infinite",
						"getPost(uint256)": "infinite",
						"likePost(address,uint256)": "infinite",
						"owner()": "2555",
						"unlikeTweet(address,uint256)": "infinite"
					}
				},
				"methodIdentifiers": {
					"MAX_CONTENT_LENGTH()": "05b746b5",
					"changeContentLength(uint16)": "fd6a99e1",
					"createPost(string,string)": "392338f5",
					"getAllPosts(address)": "77d2765c",
					"getPost(uint256)": "40731c24",
					"likePost(address,uint256)": "48351529",
					"owner()": "8da5cb5b",
					"unlikeTweet(address,uint256)": "3d9b569f"
				}
			},
			"storageLayout": {
				"storage": [
					{
						"astId": 5,
						"contract": "contracts/Blog.sol:Blog",
						"label": "owner",
						"offset": 0,
						"slot": "0",
						"type": "t_address"
					},
					{
						"astId": 11,
						"contract": "contracts/Blog.sol:Blog",
						"label": "MAX_CONTENT_LENGTH",
						"offset": 20,
						"slot": "0",
						"type": "t_uint16"
					},
					{
						"astId": 30,
						"contract": "contracts/Blog.sol:Blog",
						"label": "posts",
						"offset": 0,
						"slot": "1",
						"type": "t_mapping(t_address,t_array(t_struct(Post)24_storage)dyn_storage)"
					}
				],
				"types": {
					"t_address": {
						"encoding": "inplace",
						"label": "address",
						"numberOfBytes": "20"
					},
					"t_array(t_struct(Post)24_storage)dyn_storage": {
						"base": "t_struct(Post)24_storage",
						"encoding": "dynamic_array",
						"label": "struct Blog.Post[]",
						"numberOfBytes": "32"
					},
					"t_mapping(t_address,t_array(t_struct(Post)24_storage)dyn_storage)": {
						"encoding": "mapping",
						"key": "t_address",
						"label": "mapping(address => struct Blog.Post[])",
						"numberOfBytes": "32",
						"value": "t_array(t_struct(Post)24_storage)dyn_storage"
					},
					"t_string_storage": {
						"encoding": "bytes",
						"label": "string",
						"numberOfBytes": "32"
					},
					"t_struct(Post)24_storage": {
						"encoding": "inplace",
						"label": "struct Blog.Post",
						"members": [
							{
								"astId": 13,
								"contract": "contracts/Blog.sol:Blog",
								"label": "id",
								"offset": 0,
								"slot": "0",
								"type": "t_uint256"
							},
							{
								"astId": 15,
								"contract": "contracts/Blog.sol:Blog",
								"label": "author",
								"offset": 0,
								"slot": "1",
								"type": "t_address"
							},
							{
								"astId": 17,
								"contract": "contracts/Blog.sol:Blog",
								"label": "title",
								"offset": 0,
								"slot": "2",
								"type": "t_string_storage"
							},
							{
								"astId": 19,
								"contract": "contracts/Blog.sol:Blog",
								"label": "content",
								"offset": 0,
								"slot": "3",
								"type": "t_string_storage"
							},
							{
								"astId": 21,
								"contract": "contracts/Blog.sol:Blog",
								"label": "timestamp",
								"offset": 0,
								"slot": "4",
								"type": "t_uint256"
							},
							{
								"astId": 23,
								"contract": "contracts/Blog.sol:Blog",
								"label": "likes",
								"offset": 0,
								"slot": "5",
								"type": "t_uint256"
							}
						],
						"numberOfBytes": "192"
					},
					"t_uint16": {
						"encoding": "inplace",
						"label": "uint16",
						"numberOfBytes": "2"
					},
					"t_uint256": {
						"encoding": "inplace",
						"label": "uint256",
						"numberOfBytes": "32"
					}
				}
			},
			"userdoc": {
				"kind": "user",
				"methods": {},
				"version": 1
			}
		}
	}
}