{
	"contracts/Blog-Modifiers.sol": {
		"Blog": {
			"abi": [
				{
					"inputs": [],
					"name": "MAX_CONTENT_LENGTH",
					"outputs": [
						{
							"internalType": "uint16",
							"name": "",
							"type": "uint16"
						}
					],
					"stateMutability": "view",
					"type": "function"
				},
				{
					"inputs": [
						{
							"internalType": "uint16",
							"name": "_newContentLength",
							"type": "uint16"
						}
					],
					"name": "changeContentLength",
					"outputs": [],
					"stateMutability": "nonpayable",
					"type": "function"
				},
				{
					"inputs": [
						{
							"internalType": "string",
							"name": "_title",
							"type": "string"
						},
						{
							"internalType": "string",
							"name": "_content",
							"type": "string"
						}
					],
					"name": "createPost",
					"outputs": [],
					"stateMutability": "nonpayable",
					"type": "function"
				},
				{
					"inputs": [
						{
							"internalType": "address",
							"name": "_owner",
							"type": "address"
						}
					],
					"name": "getAllPosts",
					"outputs": [
						{
							"components": [
								{
									"internalType": "address",
									"name": "author",
									"type": "address"
								},
								{
									"internalType": "string",
									"name": "title",
									"type": "string"
								},
								{
									"internalType": "string",
									"name": "content",
									"type": "string"
								},
								{
									"internalType": "uint256",
									"name": "timestamp",
									"type": "uint256"
								},
								{
									"internalType": "uint256",
									"name": "likes",
									"type": "uint256"
								}
							],
							"internalType": "struct Blog.Post[]",
							"name": "",
							"type": "tuple[]"
						}
					],
					"stateMutability": "view",
					"type": "function"
				},
				{
					"inputs": [
						{
							"internalType": "uint256",
							"name": "_i",
							"type": "uint256"
						}
					],
					"name": "getPost",
					"outputs": [
						{
							"components": [
								{
									"internalType": "address",
									"name": "author",
									"type": "address"
								},
								{
									"internalType": "string",
									"name": "title",
									"type": "string"
								},
								{
									"internalType": "string",
									"name": "content",
									"type": "string"
								},
								{
									"internalType": "uint256",
									"name": "timestamp",
									"type": "uint256"
								},
								{
									"internalType": "uint256",
									"name": "likes",
									"type": "uint256"
								}
							],
							"internalType": "struct Blog.Post",
							"name": "",
							"type": "tuple"
						}
					],
					"stateMutability": "view",
					"type": "function"
				},
				{
					"inputs": [],
					"name": "owner",
					"outputs": [
						{
							"internalType": "address",
							"name": "",
							"type": "address"
						}
					],
					"stateMutability": "view",
					"type": "function"
				}
			],
			"devdoc": {
				"kind": "dev",
				"methods": {},
				"version": 1
			},
			"evm": {
				"assembly": "    /* \"contracts/Blog-Modifiers.sol\":58:1368  contract Blog {... */\n  mstore(0x40, 0x80)\n    /* \"contracts/Blog-Modifiers.sol\":102:112  msg.sender */\n  caller\n    /* \"contracts/Blog-Modifiers.sol\":79:112  address public owner = msg.sender */\n  0x00\n  dup1\n  0x0100\n  exp\n  dup2\n  sload\n  dup2\n  0xffffffffffffffffffffffffffffffffffffffff\n  mul\n  not\n  and\n  swap1\n  dup4\n  0xffffffffffffffffffffffffffffffffffffffff\n  and\n  mul\n  or\n  swap1\n  sstore\n  pop\n    /* \"contracts/Blog-Modifiers.sol\":196:200  6000 */\n  0x1770\n    /* \"contracts/Blog-Modifiers.sol\":161:200  uint16 public MAX_CONTENT_LENGTH = 6000 */\n  0x00\n  exp(0x0100, 0x14)\n  dup2\n  sload\n  dup2\n  0xffff\n  mul\n  not\n  and\n  swap1\n  dup4\n  0xffff\n  and\n  mul\n  or\n  swap1\n  sstore\n  pop\n    /* \"contracts/Blog-Modifiers.sol\":58:1368  contract Blog {... */\n  callvalue\n  dup1\n  iszero\n  tag_1\n  jumpi\n  0x00\n  dup1\n  revert\ntag_1:\n  pop\n  dataSize(sub_0)\n  dup1\n  dataOffset(sub_0)\n  0x00\n  codecopy\n  0x00\n  return\nstop\n\nsub_0: assembly {\n        /* \"contracts/Blog-Modifiers.sol\":58:1368  contract Blog {... */\n      mstore(0x40, 0x80)\n      callvalue\n      dup1\n      iszero\n      tag_1\n      jumpi\n      0x00\n      dup1\n      revert\n    tag_1:\n      pop\n      jumpi(tag_2, lt(calldatasize, 0x04))\n      shr(0xe0, calldataload(0x00))\n      dup1\n      0x05b746b5\n      eq\n      tag_3\n      jumpi\n      dup1\n      0x392338f5\n      eq\n      tag_4\n      jumpi\n      dup1\n      0x40731c24\n      eq\n      tag_5\n      jumpi\n      dup1\n      0x77d2765c\n      eq\n      tag_6\n      jumpi\n      dup1\n      0x8da5cb5b\n      eq\n      tag_7\n      jumpi\n      dup1\n      0xfd6a99e1\n      eq\n      tag_8\n      jumpi\n    tag_2:\n      0x00\n      dup1\n      revert\n        /* \"contracts/Blog-Modifiers.sol\":161:200  uint16 public MAX_CONTENT_LENGTH = 6000 */\n    tag_3:\n      tag_9\n      tag_10\n      jump\t// in\n    tag_9:\n      mload(0x40)\n      tag_11\n      swap2\n      swap1\n      tag_12\n      jump\t// in\n    tag_11:\n      mload(0x40)\n      dup1\n      swap2\n      sub\n      swap1\n      return\n        /* \"contracts/Blog-Modifiers.sol\":656:1138  function createPost(string memory _title, string memory _content) public {... */\n    tag_4:\n      tag_13\n      0x04\n      dup1\n      calldatasize\n      sub\n      dup2\n      add\n      swap1\n      tag_14\n      swap2\n      swap1\n      tag_15\n      jump\t// in\n    tag_14:\n      tag_16\n      jump\t// in\n    tag_13:\n      stop\n        /* \"contracts/Blog-Modifiers.sol\":1144:1249  function getPost(uint _i) public view returns (Post memory) {... */\n    tag_5:\n      tag_17\n      0x04\n      dup1\n      calldatasize\n      sub\n      dup2\n      add\n      swap1\n      tag_18\n      swap2\n      swap1\n      tag_19\n      jump\t// in\n    tag_18:\n      tag_20\n      jump\t// in\n    tag_17:\n      mload(0x40)\n      tag_21\n      swap2\n      swap1\n      tag_22\n      jump\t// in\n    tag_21:\n      mload(0x40)\n      dup1\n      swap2\n      sub\n      swap1\n      return\n        /* \"contracts/Blog-Modifiers.sol\":1255:1365  function getAllPosts(address _owner) public view returns (Post[] memory) {... */\n    tag_6:\n      tag_23\n      0x04\n      dup1\n      calldatasize\n      sub\n      dup2\n      add\n      swap1\n      tag_24\n      swap2\n      swap1\n      tag_25\n      jump\t// in\n    tag_24:\n      tag_26\n      jump\t// in\n    tag_23:\n      mload(0x40)\n      tag_27\n      swap2\n      swap1\n      tag_28\n      jump\t// in\n    tag_27:\n      mload(0x40)\n      dup1\n      swap2\n      sub\n      swap1\n      return\n        /* \"contracts/Blog-Modifiers.sol\":79:112  address public owner = msg.sender */\n    tag_7:\n      tag_29\n      tag_30\n      jump\t// in\n    tag_29:\n      mload(0x40)\n      tag_31\n      swap2\n      swap1\n      tag_32\n      jump\t// in\n    tag_31:\n      mload(0x40)\n      dup1\n      swap2\n      sub\n      swap1\n      return\n        /* \"contracts/Blog-Modifiers.sol\":523:650  function changeContentLength(uint16 _newContentLength) public onlyOwner {... */\n    tag_8:\n      tag_33\n      0x04\n      dup1\n      calldatasize\n      sub\n      dup2\n      add\n      swap1\n      tag_34\n      swap2\n      swap1\n      tag_35\n      jump\t// in\n    tag_34:\n      tag_36\n      jump\t// in\n    tag_33:\n      stop\n        /* \"contracts/Blog-Modifiers.sol\":161:200  uint16 public MAX_CONTENT_LENGTH = 6000 */\n    tag_10:\n      0x00\n      0x14\n      swap1\n      sload\n      swap1\n      0x0100\n      exp\n      swap1\n      div\n      0xffff\n      and\n      dup2\n      jump\t// out\n        /* \"contracts/Blog-Modifiers.sol\":656:1138  function createPost(string memory _title, string memory _content) public {... */\n    tag_16:\n        /* \"contracts/Blog-Modifiers.sol\":152:155  128 */\n      0x80\n        /* \"contracts/Blog-Modifiers.sol\":747:787  bytes(_title).length <= MAX_TITLE_LENGTH */\n      0xff\n      and\n        /* \"contracts/Blog-Modifiers.sol\":753:759  _title */\n      dup3\n        /* \"contracts/Blog-Modifiers.sol\":747:767  bytes(_title).length */\n      mload\n        /* \"contracts/Blog-Modifiers.sol\":747:787  bytes(_title).length <= MAX_TITLE_LENGTH */\n      gt\n      iszero\n        /* \"contracts/Blog-Modifiers.sol\":739:806  require(bytes(_title).length <= MAX_TITLE_LENGTH, \"Title too long\") */\n      tag_38\n      jumpi\n      mload(0x40)\n      0x08c379a000000000000000000000000000000000000000000000000000000000\n      dup2\n      mstore\n      0x04\n      add\n      tag_39\n      swap1\n      tag_40\n      jump\t// in\n    tag_39:\n      mload(0x40)\n      dup1\n      swap2\n      sub\n      swap1\n      revert\n    tag_38:\n        /* \"contracts/Blog-Modifiers.sol\":850:868  MAX_CONTENT_LENGTH */\n      0x00\n      0x14\n      swap1\n      sload\n      swap1\n      0x0100\n      exp\n      swap1\n      div\n      0xffff\n      and\n        /* \"contracts/Blog-Modifiers.sol\":824:868  bytes(_content).length <= MAX_CONTENT_LENGTH */\n      0xffff\n      and\n        /* \"contracts/Blog-Modifiers.sol\":830:838  _content */\n      dup2\n        /* \"contracts/Blog-Modifiers.sol\":824:846  bytes(_content).length */\n      mload\n        /* \"contracts/Blog-Modifiers.sol\":824:868  bytes(_content).length <= MAX_CONTENT_LENGTH */\n      gt\n      iszero\n        /* \"contracts/Blog-Modifiers.sol\":816:889  require(bytes(_content).length <= MAX_CONTENT_LENGTH, \"Content too long\") */\n      tag_41\n      jumpi\n      mload(0x40)\n      0x08c379a000000000000000000000000000000000000000000000000000000000\n      dup2\n      mstore\n      0x04\n      add\n      tag_42\n      swap1\n      tag_43\n      jump\t// in\n    tag_42:\n      mload(0x40)\n      dup1\n      swap2\n      sub\n      swap1\n      revert\n    tag_41:\n        /* \"contracts/Blog-Modifiers.sol\":899:918  Post memory newPost */\n      0x00\n        /* \"contracts/Blog-Modifiers.sol\":921:1089  Post({... */\n      mload(0x40)\n      dup1\n      0xa0\n      add\n      0x40\n      mstore\n      dup1\n        /* \"contracts/Blog-Modifiers.sol\":948:958  msg.sender */\n      caller\n        /* \"contracts/Blog-Modifiers.sol\":921:1089  Post({... */\n      0xffffffffffffffffffffffffffffffffffffffff\n      and\n      dup2\n      mstore\n      0x20\n      add\n        /* \"contracts/Blog-Modifiers.sol\":979:985  _title */\n      dup5\n        /* \"contracts/Blog-Modifiers.sol\":921:1089  Post({... */\n      dup2\n      mstore\n      0x20\n      add\n        /* \"contracts/Blog-Modifiers.sol\":1008:1016  _content */\n      dup4\n        /* \"contracts/Blog-Modifiers.sol\":921:1089  Post({... */\n      dup2\n      mstore\n      0x20\n      add\n        /* \"contracts/Blog-Modifiers.sol\":1041:1056  block.timestamp */\n      timestamp\n        /* \"contracts/Blog-Modifiers.sol\":921:1089  Post({... */\n      dup2\n      mstore\n      0x20\n      add\n        /* \"contracts/Blog-Modifiers.sol\":1077:1078  0 */\n      0x00\n        /* \"contracts/Blog-Modifiers.sol\":921:1089  Post({... */\n      dup2\n      mstore\n      pop\n        /* \"contracts/Blog-Modifiers.sol\":899:1089  Post memory newPost = Post({... */\n      swap1\n      pop\n        /* \"contracts/Blog-Modifiers.sol\":1100:1105  posts */\n      0x01\n        /* \"contracts/Blog-Modifiers.sol\":1100:1117  posts[msg.sender] */\n      0x00\n        /* \"contracts/Blog-Modifiers.sol\":1106:1116  msg.sender */\n      caller\n        /* \"contracts/Blog-Modifiers.sol\":1100:1117  posts[msg.sender] */\n      0xffffffffffffffffffffffffffffffffffffffff\n      and\n      0xffffffffffffffffffffffffffffffffffffffff\n      and\n      dup2\n      mstore\n      0x20\n      add\n      swap1\n      dup2\n      mstore\n      0x20\n      add\n      0x00\n      keccak256\n        /* \"contracts/Blog-Modifiers.sol\":1123:1130  newPost */\n      dup2\n        /* \"contracts/Blog-Modifiers.sol\":1100:1131  posts[msg.sender].push(newPost) */\n      swap1\n      dup1\n      0x01\n      dup2\n      sload\n      add\n      dup1\n      dup3\n      sstore\n      dup1\n      swap2\n      pop\n      pop\n      0x01\n      swap1\n      sub\n      swap1\n      0x00\n      mstore\n      keccak256(0x00, 0x20)\n      swap1\n      0x05\n      mul\n      add\n      0x00\n      swap1\n      swap2\n      swap1\n      swap2\n      swap1\n      swap2\n      pop\n      0x00\n      dup3\n      add\n      mload\n      dup2\n      0x00\n      add\n      exp(0x0100, 0x00)\n      dup2\n      sload\n      dup2\n      0xffffffffffffffffffffffffffffffffffffffff\n      mul\n      not\n      and\n      swap1\n      dup4\n      0xffffffffffffffffffffffffffffffffffffffff\n      and\n      mul\n      or\n      swap1\n      sstore\n      pop\n      0x20\n      dup3\n      add\n      mload\n      dup2\n      0x01\n      add\n      swap1\n      dup2\n      tag_45\n      swap2\n      swap1\n      tag_46\n      jump\t// in\n    tag_45:\n      pop\n      0x40\n      dup3\n      add\n      mload\n      dup2\n      0x02\n      add\n      swap1\n      dup2\n      tag_47\n      swap2\n      swap1\n      tag_46\n      jump\t// in\n    tag_47:\n      pop\n      0x60\n      dup3\n      add\n      mload\n      dup2\n      0x03\n      add\n      sstore\n      0x80\n      dup3\n      add\n      mload\n      dup2\n      0x04\n      add\n      sstore\n      pop\n      pop\n        /* \"contracts/Blog-Modifiers.sol\":729:1138  {... */\n      pop\n        /* \"contracts/Blog-Modifiers.sol\":656:1138  function createPost(string memory _title, string memory _content) public {... */\n      pop\n      pop\n      jump\t// out\n        /* \"contracts/Blog-Modifiers.sol\":1144:1249  function getPost(uint _i) public view returns (Post memory) {... */\n    tag_20:\n        /* \"contracts/Blog-Modifiers.sol\":1191:1202  Post memory */\n      tag_48\n      tag_49\n      jump\t// in\n    tag_48:\n        /* \"contracts/Blog-Modifiers.sol\":1221:1226  posts */\n      0x01\n        /* \"contracts/Blog-Modifiers.sol\":1221:1238  posts[msg.sender] */\n      0x00\n        /* \"contracts/Blog-Modifiers.sol\":1227:1237  msg.sender */\n      caller\n        /* \"contracts/Blog-Modifiers.sol\":1221:1238  posts[msg.sender] */\n      0xffffffffffffffffffffffffffffffffffffffff\n      and\n      0xffffffffffffffffffffffffffffffffffffffff\n      and\n      dup2\n      mstore\n      0x20\n      add\n      swap1\n      dup2\n      mstore\n      0x20\n      add\n      0x00\n      keccak256\n        /* \"contracts/Blog-Modifiers.sol\":1239:1241  _i */\n      dup3\n        /* \"contracts/Blog-Modifiers.sol\":1221:1242  posts[msg.sender][_i] */\n      dup2\n      sload\n      dup2\n      lt\n      tag_51\n      jumpi\n      tag_52\n      tag_53\n      jump\t// in\n    tag_52:\n    tag_51:\n      swap1\n      0x00\n      mstore\n      keccak256(0x00, 0x20)\n      swap1\n      0x05\n      mul\n      add\n        /* \"contracts/Blog-Modifiers.sol\":1214:1242  return posts[msg.sender][_i] */\n      mload(0x40)\n      dup1\n      0xa0\n      add\n      0x40\n      mstore\n      swap1\n      dup2\n      0x00\n      dup3\n      add\n      0x00\n      swap1\n      sload\n      swap1\n      0x0100\n      exp\n      swap1\n      div\n      0xffffffffffffffffffffffffffffffffffffffff\n      and\n      0xffffffffffffffffffffffffffffffffffffffff\n      and\n      0xffffffffffffffffffffffffffffffffffffffff\n      and\n      dup2\n      mstore\n      0x20\n      add\n      0x01\n      dup3\n      add\n      dup1\n      sload\n      tag_55\n      swap1\n      tag_56\n      jump\t// in\n    tag_55:\n      dup1\n      0x1f\n      add\n      0x20\n      dup1\n      swap2\n      div\n      mul\n      0x20\n      add\n      mload(0x40)\n      swap1\n      dup2\n      add\n      0x40\n      mstore\n      dup1\n      swap3\n      swap2\n      swap1\n      dup2\n      dup2\n      mstore\n      0x20\n      add\n      dup3\n      dup1\n      sload\n      tag_57\n      swap1\n      tag_56\n      jump\t// in\n    tag_57:\n      dup1\n      iszero\n      tag_58\n      jumpi\n      dup1\n      0x1f\n      lt\n      tag_59\n      jumpi\n      0x0100\n      dup1\n      dup4\n      sload\n      div\n      mul\n      dup4\n      mstore\n      swap2\n      0x20\n      add\n      swap2\n      jump(tag_58)\n    tag_59:\n      dup3\n      add\n      swap2\n      swap1\n      0x00\n      mstore\n      keccak256(0x00, 0x20)\n      swap1\n    tag_60:\n      dup2\n      sload\n      dup2\n      mstore\n      swap1\n      0x01\n      add\n      swap1\n      0x20\n      add\n      dup1\n      dup4\n      gt\n      tag_60\n      jumpi\n      dup3\n      swap1\n      sub\n      0x1f\n      and\n      dup3\n      add\n      swap2\n    tag_58:\n      pop\n      pop\n      pop\n      pop\n      pop\n      dup2\n      mstore\n      0x20\n      add\n      0x02\n      dup3\n      add\n      dup1\n      sload\n      tag_61\n      swap1\n      tag_56\n      jump\t// in\n    tag_61:\n      dup1\n      0x1f\n      add\n      0x20\n      dup1\n      swap2\n      div\n      mul\n      0x20\n      add\n      mload(0x40)\n      swap1\n      dup2\n      add\n      0x40\n      mstore\n      dup1\n      swap3\n      swap2\n      swap1\n      dup2\n      dup2\n      mstore\n      0x20\n      add\n      dup3\n      dup1\n      sload\n      tag_62\n      swap1\n      tag_56\n      jump\t// in\n    tag_62:\n      dup1\n      iszero\n      tag_63\n      jumpi\n      dup1\n      0x1f\n      lt\n      tag_64\n      jumpi\n      0x0100\n      dup1\n      dup4\n      sload\n      div\n      mul\n      dup4\n      mstore\n      swap2\n      0x20\n      add\n      swap2\n      jump(tag_63)\n    tag_64:\n      dup3\n      add\n      swap2\n      swap1\n      0x00\n      mstore\n      keccak256(0x00, 0x20)\n      swap1\n    tag_65:\n      dup2\n      sload\n      dup2\n      mstore\n      swap1\n      0x01\n      add\n      swap1\n      0x20\n      add\n      dup1\n      dup4\n      gt\n      tag_65\n      jumpi\n      dup3\n      swap1\n      sub\n      0x1f\n      and\n      dup3\n      add\n      swap2\n    tag_63:\n      pop\n      pop\n      pop\n      pop\n      pop\n      dup2\n      mstore\n      0x20\n      add\n      0x03\n      dup3\n      add\n      sload\n      dup2\n      mstore\n      0x20\n      add\n      0x04\n      dup3\n      add\n      sload\n      dup2\n      mstore\n      pop\n      pop\n      swap1\n      pop\n        /* \"contracts/Blog-Modifiers.sol\":1144:1249  function getPost(uint _i) public view returns (Post memory) {... */\n      swap2\n      swap1\n      pop\n      jump\t// out\n        /* \"contracts/Blog-Modifiers.sol\":1255:1365  function getAllPosts(address _owner) public view returns (Post[] memory) {... */\n    tag_26:\n        /* \"contracts/Blog-Modifiers.sol\":1313:1326  Post[] memory */\n      0x60\n        /* \"contracts/Blog-Modifiers.sol\":1345:1350  posts */\n      0x01\n        /* \"contracts/Blog-Modifiers.sol\":1345:1358  posts[_owner] */\n      0x00\n        /* \"contracts/Blog-Modifiers.sol\":1351:1357  _owner */\n      dup4\n        /* \"contracts/Blog-Modifiers.sol\":1345:1358  posts[_owner] */\n      0xffffffffffffffffffffffffffffffffffffffff\n      and\n      0xffffffffffffffffffffffffffffffffffffffff\n      and\n      dup2\n      mstore\n      0x20\n      add\n      swap1\n      dup2\n      mstore\n      0x20\n      add\n      0x00\n      keccak256\n        /* \"contracts/Blog-Modifiers.sol\":1338:1358  return posts[_owner] */\n      dup1\n      sload\n      dup1\n      0x20\n      mul\n      0x20\n      add\n      mload(0x40)\n      swap1\n      dup2\n      add\n      0x40\n      mstore\n      dup1\n      swap3\n      swap2\n      swap1\n      dup2\n      dup2\n      mstore\n      0x20\n      add\n      0x00\n      swap1\n    tag_67:\n      dup3\n      dup3\n      lt\n      iszero\n      tag_68\n      jumpi\n      dup4\n      dup3\n      swap1\n      0x00\n      mstore\n      keccak256(0x00, 0x20)\n      swap1\n      0x05\n      mul\n      add\n      mload(0x40)\n      dup1\n      0xa0\n      add\n      0x40\n      mstore\n      swap1\n      dup2\n      0x00\n      dup3\n      add\n      0x00\n      swap1\n      sload\n      swap1\n      0x0100\n      exp\n      swap1\n      div\n      0xffffffffffffffffffffffffffffffffffffffff\n      and\n      0xffffffffffffffffffffffffffffffffffffffff\n      and\n      0xffffffffffffffffffffffffffffffffffffffff\n      and\n      dup2\n      mstore\n      0x20\n      add\n      0x01\n      dup3\n      add\n      dup1\n      sload\n      tag_70\n      swap1\n      tag_56\n      jump\t// in\n    tag_70:\n      dup1\n      0x1f\n      add\n      0x20\n      dup1\n      swap2\n      div\n      mul\n      0x20\n      add\n      mload(0x40)\n      swap1\n      dup2\n      add\n      0x40\n      mstore\n      dup1\n      swap3\n      swap2\n      swap1\n      dup2\n      dup2\n      mstore\n      0x20\n      add\n      dup3\n      dup1\n      sload\n      tag_71\n      swap1\n      tag_56\n      jump\t// in\n    tag_71:\n      dup1\n      iszero\n      tag_72\n      jumpi\n      dup1\n      0x1f\n      lt\n      tag_73\n      jumpi\n      0x0100\n      dup1\n      dup4\n      sload\n      div\n      mul\n      dup4\n      mstore\n      swap2\n      0x20\n      add\n      swap2\n      jump(tag_72)\n    tag_73:\n      dup3\n      add\n      swap2\n      swap1\n      0x00\n      mstore\n      keccak256(0x00, 0x20)\n      swap1\n    tag_74:\n      dup2\n      sload\n      dup2\n      mstore\n      swap1\n      0x01\n      add\n      swap1\n      0x20\n      add\n      dup1\n      dup4\n      gt\n      tag_74\n      jumpi\n      dup3\n      swap1\n      sub\n      0x1f\n      and\n      dup3\n      add\n      swap2\n    tag_72:\n      pop\n      pop\n      pop\n      pop\n      pop\n      dup2\n      mstore\n      0x20\n      add\n      0x02\n      dup3\n      add\n      dup1\n      sload\n      tag_75\n      swap1\n      tag_56\n      jump\t// in\n    tag_75:\n      dup1\n      0x1f\n      add\n      0x20\n      dup1\n      swap2\n      div\n      mul\n      0x20\n      add\n      mload(0x40)\n      swap1\n      dup2\n      add\n      0x40\n      mstore\n      dup1\n      swap3\n      swap2\n      swap1\n      dup2\n      dup2\n      mstore\n      0x20\n      add\n      dup3\n      dup1\n      sload\n      tag_76\n      swap1\n      tag_56\n      jump\t// in\n    tag_76:\n      dup1\n      iszero\n      tag_77\n      jumpi\n      dup1\n      0x1f\n      lt\n      tag_78\n      jumpi\n      0x0100\n      dup1\n      dup4\n      sload\n      div\n      mul\n      dup4\n      mstore\n      swap2\n      0x20\n      add\n      swap2\n      jump(tag_77)\n    tag_78:\n      dup3\n      add\n      swap2\n      swap1\n      0x00\n      mstore\n      keccak256(0x00, 0x20)\n      swap1\n    tag_79:\n      dup2\n      sload\n      dup2\n      mstore\n      swap1\n      0x01\n      add\n      swap1\n      0x20\n      add\n      dup1\n      dup4\n      gt\n      tag_79\n      jumpi\n      dup3\n      swap1\n      sub\n      0x1f\n      and\n      dup3\n      add\n      swap2\n    tag_77:\n      pop\n      pop\n      pop\n      pop\n      pop\n      dup2\n      mstore\n      0x20\n      add\n      0x03\n      dup3\n      add\n      sload\n      dup2\n      mstore\n      0x20\n      add\n      0x04\n      dup3\n      add\n      sload\n      dup2\n      mstore\n      pop\n      pop\n      dup2\n      mstore\n      0x20\n      add\n      swap1\n      0x01\n      add\n      swap1\n      jump(tag_67)\n    tag_68:\n      pop\n      pop\n      pop\n      pop\n      swap1\n      pop\n        /* \"contracts/Blog-Modifiers.sol\":1255:1365  function getAllPosts(address _owner) public view returns (Post[] memory) {... */\n      swap2\n      swap1\n      pop\n      jump\t// out\n        /* \"contracts/Blog-Modifiers.sol\":79:112  address public owner = msg.sender */\n    tag_30:\n      0x00\n      dup1\n      sload\n      swap1\n      0x0100\n      exp\n      swap1\n      div\n      0xffffffffffffffffffffffffffffffffffffffff\n      and\n      dup2\n      jump\t// out\n        /* \"contracts/Blog-Modifiers.sol\":523:650  function changeContentLength(uint16 _newContentLength) public onlyOwner {... */\n    tag_36:\n        /* \"contracts/Blog-Modifiers.sol\":446:456  msg.sender */\n      caller\n        /* \"contracts/Blog-Modifiers.sol\":437:456  owner == msg.sender */\n      0xffffffffffffffffffffffffffffffffffffffff\n      and\n        /* \"contracts/Blog-Modifiers.sol\":437:442  owner */\n      0x00\n      dup1\n      sload\n      swap1\n      0x0100\n      exp\n      swap1\n      div\n      0xffffffffffffffffffffffffffffffffffffffff\n      and\n        /* \"contracts/Blog-Modifiers.sol\":437:456  owner == msg.sender */\n      0xffffffffffffffffffffffffffffffffffffffff\n      and\n      eq\n        /* \"contracts/Blog-Modifiers.sol\":429:499  require(owner == msg.sender, \"Must be contract owner for this action\") */\n      tag_81\n      jumpi\n      mload(0x40)\n      0x08c379a000000000000000000000000000000000000000000000000000000000\n      dup2\n      mstore\n      0x04\n      add\n      tag_82\n      swap1\n      tag_83\n      jump\t// in\n    tag_82:\n      mload(0x40)\n      dup1\n      swap2\n      sub\n      swap1\n      revert\n    tag_81:\n        /* \"contracts/Blog-Modifiers.sol\":626:643  _newContentLength */\n      dup1\n        /* \"contracts/Blog-Modifiers.sol\":605:623  MAX_CONTENT_LENGTH */\n      0x00\n      0x14\n        /* \"contracts/Blog-Modifiers.sol\":605:643  MAX_CONTENT_LENGTH = _newContentLength */\n      0x0100\n      exp\n      dup2\n      sload\n      dup2\n      0xffff\n      mul\n      not\n      and\n      swap1\n      dup4\n      0xffff\n      and\n      mul\n      or\n      swap1\n      sstore\n      pop\n        /* \"contracts/Blog-Modifiers.sol\":523:650  function changeContentLength(uint16 _newContentLength) public onlyOwner {... */\n      pop\n      jump\t// out\n    tag_49:\n      mload(0x40)\n      dup1\n      0xa0\n      add\n      0x40\n      mstore\n      dup1\n      and(0xffffffffffffffffffffffffffffffffffffffff, 0x00)\n      dup2\n      mstore\n      0x20\n      add\n      0x60\n      dup2\n      mstore\n      0x20\n      add\n      0x60\n      dup2\n      mstore\n      0x20\n      add\n      0x00\n      dup2\n      mstore\n      0x20\n      add\n      0x00\n      dup2\n      mstore\n      pop\n      swap1\n      jump\t// out\n        /* \"#utility.yul\":7:96   */\n    tag_85:\n        /* \"#utility.yul\":43:50   */\n      0x00\n        /* \"#utility.yul\":83:89   */\n      0xffff\n        /* \"#utility.yul\":76:81   */\n      dup3\n        /* \"#utility.yul\":72:90   */\n      and\n        /* \"#utility.yul\":61:90   */\n      swap1\n      pop\n        /* \"#utility.yul\":7:96   */\n      swap2\n      swap1\n      pop\n      jump\t// out\n        /* \"#utility.yul\":102:217   */\n    tag_86:\n        /* \"#utility.yul\":187:210   */\n      tag_150\n        /* \"#utility.yul\":204:209   */\n      dup2\n        /* \"#utility.yul\":187:210   */\n      tag_85\n      jump\t// in\n    tag_150:\n        /* \"#utility.yul\":182:185   */\n      dup3\n        /* \"#utility.yul\":175:211   */\n      mstore\n        /* \"#utility.yul\":102:217   */\n      pop\n      pop\n      jump\t// out\n        /* \"#utility.yul\":223:441   */\n    tag_12:\n        /* \"#utility.yul\":314:318   */\n      0x00\n        /* \"#utility.yul\":352:354   */\n      0x20\n        /* \"#utility.yul\":341:350   */\n      dup3\n        /* \"#utility.yul\":337:355   */\n      add\n        /* \"#utility.yul\":329:355   */\n      swap1\n      pop\n        /* \"#utility.yul\":365:434   */\n      tag_152\n        /* \"#utility.yul\":431:432   */\n      0x00\n        /* \"#utility.yul\":420:429   */\n      dup4\n        /* \"#utility.yul\":416:433   */\n      add\n        /* \"#utility.yul\":407:413   */\n      dup5\n        /* \"#utility.yul\":365:434   */\n      tag_86\n      jump\t// in\n    tag_152:\n        /* \"#utility.yul\":223:441   */\n      swap3\n      swap2\n      pop\n      pop\n      jump\t// out\n        /* \"#utility.yul\":447:522   */\n    tag_87:\n        /* \"#utility.yul\":480:486   */\n      0x00\n        /* \"#utility.yul\":513:515   */\n      0x40\n        /* \"#utility.yul\":507:516   */\n      mload\n        /* \"#utility.yul\":497:516   */\n      swap1\n      pop\n        /* \"#utility.yul\":447:522   */\n      swap1\n      jump\t// out\n        /* \"#utility.yul\":528:645   */\n    tag_88:\n        /* \"#utility.yul\":637:638   */\n      0x00\n        /* \"#utility.yul\":634:635   */\n      dup1\n        /* \"#utility.yul\":627:639   */\n      revert\n        /* \"#utility.yul\":651:768   */\n    tag_89:\n        /* \"#utility.yul\":760:761   */\n      0x00\n        /* \"#utility.yul\":757:758   */\n      dup1\n        /* \"#utility.yul\":750:762   */\n      revert\n        /* \"#utility.yul\":774:891   */\n    tag_90:\n        /* \"#utility.yul\":883:884   */\n      0x00\n        /* \"#utility.yul\":880:881   */\n      dup1\n        /* \"#utility.yul\":873:885   */\n      revert\n        /* \"#utility.yul\":897:1014   */\n    tag_91:\n        /* \"#utility.yul\":1006:1007   */\n      0x00\n        /* \"#utility.yul\":1003:1004   */\n      dup1\n        /* \"#utility.yul\":996:1008   */\n      revert\n        /* \"#utility.yul\":1020:1122   */\n    tag_92:\n        /* \"#utility.yul\":1061:1067   */\n      0x00\n        /* \"#utility.yul\":1112:1114   */\n      0x1f\n        /* \"#utility.yul\":1108:1115   */\n      not\n        /* \"#utility.yul\":1103:1105   */\n      0x1f\n        /* \"#utility.yul\":1096:1101   */\n      dup4\n        /* \"#utility.yul\":1092:1106   */\n      add\n        /* \"#utility.yul\":1088:1116   */\n      and\n        /* \"#utility.yul\":1078:1116   */\n      swap1\n      pop\n        /* \"#utility.yul\":1020:1122   */\n      swap2\n      swap1\n      pop\n      jump\t// out\n        /* \"#utility.yul\":1128:1308   */\n    tag_93:\n        /* \"#utility.yul\":1176:1253   */\n      0x4e487b7100000000000000000000000000000000000000000000000000000000\n        /* \"#utility.yul\":1173:1174   */\n      0x00\n        /* \"#utility.yul\":1166:1254   */\n      mstore\n        /* \"#utility.yul\":1273:1277   */\n      0x41\n        /* \"#utility.yul\":1270:1271   */\n      0x04\n        /* \"#utility.yul\":1263:1278   */\n      mstore\n        /* \"#utility.yul\":1297:1301   */\n      0x24\n        /* \"#utility.yul\":1294:1295   */\n      0x00\n        /* \"#utility.yul\":1287:1302   */\n      revert\n        /* \"#utility.yul\":1314:1595   */\n    tag_94:\n        /* \"#utility.yul\":1397:1424   */\n      tag_161\n        /* \"#utility.yul\":1419:1423   */\n      dup3\n        /* \"#utility.yul\":1397:1424   */\n      tag_92\n      jump\t// in\n    tag_161:\n        /* \"#utility.yul\":1389:1395   */\n      dup2\n        /* \"#utility.yul\":1385:1425   */\n      add\n        /* \"#utility.yul\":1527:1533   */\n      dup2\n        /* \"#utility.yul\":1515:1525   */\n      dup2\n        /* \"#utility.yul\":1512:1534   */\n      lt\n        /* \"#utility.yul\":1491:1509   */\n      0xffffffffffffffff\n        /* \"#utility.yul\":1479:1489   */\n      dup3\n        /* \"#utility.yul\":1476:1510   */\n      gt\n        /* \"#utility.yul\":1473:1535   */\n      or\n        /* \"#utility.yul\":1470:1558   */\n      iszero\n      tag_162\n      jumpi\n        /* \"#utility.yul\":1538:1556   */\n      tag_163\n      tag_93\n      jump\t// in\n    tag_163:\n        /* \"#utility.yul\":1470:1558   */\n    tag_162:\n        /* \"#utility.yul\":1578:1588   */\n      dup1\n        /* \"#utility.yul\":1574:1576   */\n      0x40\n        /* \"#utility.yul\":1567:1589   */\n      mstore\n        /* \"#utility.yul\":1357:1595   */\n      pop\n        /* \"#utility.yul\":1314:1595   */\n      pop\n      pop\n      jump\t// out\n        /* \"#utility.yul\":1601:1730   */\n    tag_95:\n        /* \"#utility.yul\":1635:1641   */\n      0x00\n        /* \"#utility.yul\":1662:1682   */\n      tag_165\n      tag_87\n      jump\t// in\n    tag_165:\n        /* \"#utility.yul\":1652:1682   */\n      swap1\n      pop\n        /* \"#utility.yul\":1691:1724   */\n      tag_166\n        /* \"#utility.yul\":1719:1723   */\n      dup3\n        /* \"#utility.yul\":1711:1717   */\n      dup3\n        /* \"#utility.yul\":1691:1724   */\n      tag_94\n      jump\t// in\n    tag_166:\n        /* \"#utility.yul\":1601:1730   */\n      swap2\n      swap1\n      pop\n      jump\t// out\n        /* \"#utility.yul\":1736:2044   */\n    tag_96:\n        /* \"#utility.yul\":1798:1802   */\n      0x00\n        /* \"#utility.yul\":1888:1906   */\n      0xffffffffffffffff\n        /* \"#utility.yul\":1880:1886   */\n      dup3\n        /* \"#utility.yul\":1877:1907   */\n      gt\n        /* \"#utility.yul\":1874:1930   */\n      iszero\n      tag_168\n      jumpi\n        /* \"#utility.yul\":1910:1928   */\n      tag_169\n      tag_93\n      jump\t// in\n    tag_169:\n        /* \"#utility.yul\":1874:1930   */\n    tag_168:\n        /* \"#utility.yul\":1948:1977   */\n      tag_170\n        /* \"#utility.yul\":1970:1976   */\n      dup3\n        /* \"#utility.yul\":1948:1977   */\n      tag_92\n      jump\t// in\n    tag_170:\n        /* \"#utility.yul\":1940:1977   */\n      swap1\n      pop\n        /* \"#utility.yul\":2032:2036   */\n      0x20\n        /* \"#utility.yul\":2026:2030   */\n      dup2\n        /* \"#utility.yul\":2022:2037   */\n      add\n        /* \"#utility.yul\":2014:2037   */\n      swap1\n      pop\n        /* \"#utility.yul\":1736:2044   */\n      swap2\n      swap1\n      pop\n      jump\t// out\n        /* \"#utility.yul\":2050:2196   */\n    tag_97:\n        /* \"#utility.yul\":2147:2153   */\n      dup3\n        /* \"#utility.yul\":2142:2145   */\n      dup2\n        /* \"#utility.yul\":2137:2140   */\n      dup4\n        /* \"#utility.yul\":2124:2154   */\n      calldatacopy\n        /* \"#utility.yul\":2188:2189   */\n      0x00\n        /* \"#utility.yul\":2179:2185   */\n      dup4\n        /* \"#utility.yul\":2174:2177   */\n      dup4\n        /* \"#utility.yul\":2170:2186   */\n      add\n        /* \"#utility.yul\":2163:2190   */\n      mstore\n        /* \"#utility.yul\":2050:2196   */\n      pop\n      pop\n      pop\n      jump\t// out\n        /* \"#utility.yul\":2202:2627   */\n    tag_98:\n        /* \"#utility.yul\":2280:2285   */\n      0x00\n        /* \"#utility.yul\":2305:2371   */\n      tag_173\n        /* \"#utility.yul\":2321:2370   */\n      tag_174\n        /* \"#utility.yul\":2363:2369   */\n      dup5\n        /* \"#utility.yul\":2321:2370   */\n      tag_96\n      jump\t// in\n    tag_174:\n        /* \"#utility.yul\":2305:2371   */\n      tag_95\n      jump\t// in\n    tag_173:\n        /* \"#utility.yul\":2296:2371   */\n      swap1\n      pop\n        /* \"#utility.yul\":2394:2400   */\n      dup3\n        /* \"#utility.yul\":2387:2392   */\n      dup2\n        /* \"#utility.yul\":2380:2401   */\n      mstore\n        /* \"#utility.yul\":2432:2436   */\n      0x20\n        /* \"#utility.yul\":2425:2430   */\n      dup2\n        /* \"#utility.yul\":2421:2437   */\n      add\n        /* \"#utility.yul\":2470:2473   */\n      dup5\n        /* \"#utility.yul\":2461:2467   */\n      dup5\n        /* \"#utility.yul\":2456:2459   */\n      dup5\n        /* \"#utility.yul\":2452:2468   */\n      add\n        /* \"#utility.yul\":2449:2474   */\n      gt\n        /* \"#utility.yul\":2446:2558   */\n      iszero\n      tag_175\n      jumpi\n        /* \"#utility.yul\":2477:2556   */\n      tag_176\n      tag_91\n      jump\t// in\n    tag_176:\n        /* \"#utility.yul\":2446:2558   */\n    tag_175:\n        /* \"#utility.yul\":2567:2621   */\n      tag_177\n        /* \"#utility.yul\":2614:2620   */\n      dup5\n        /* \"#utility.yul\":2609:2612   */\n      dup3\n        /* \"#utility.yul\":2604:2607   */\n      dup6\n        /* \"#utility.yul\":2567:2621   */\n      tag_97\n      jump\t// in\n    tag_177:\n        /* \"#utility.yul\":2286:2627   */\n      pop\n        /* \"#utility.yul\":2202:2627   */\n      swap4\n      swap3\n      pop\n      pop\n      pop\n      jump\t// out\n        /* \"#utility.yul\":2647:2987   */\n    tag_99:\n        /* \"#utility.yul\":2703:2708   */\n      0x00\n        /* \"#utility.yul\":2752:2755   */\n      dup3\n        /* \"#utility.yul\":2745:2749   */\n      0x1f\n        /* \"#utility.yul\":2737:2743   */\n      dup4\n        /* \"#utility.yul\":2733:2750   */\n      add\n        /* \"#utility.yul\":2729:2756   */\n      slt\n        /* \"#utility.yul\":2719:2841   */\n      tag_179\n      jumpi\n        /* \"#utility.yul\":2760:2839   */\n      tag_180\n      tag_90\n      jump\t// in\n    tag_180:\n        /* \"#utility.yul\":2719:2841   */\n    tag_179:\n        /* \"#utility.yul\":2877:2883   */\n      dup2\n        /* \"#utility.yul\":2864:2884   */\n      calldataload\n        /* \"#utility.yul\":2902:2981   */\n      tag_181\n        /* \"#utility.yul\":2977:2980   */\n      dup5\n        /* \"#utility.yul\":2969:2975   */\n      dup3\n        /* \"#utility.yul\":2962:2966   */\n      0x20\n        /* \"#utility.yul\":2954:2960   */\n      dup7\n        /* \"#utility.yul\":2950:2967   */\n      add\n        /* \"#utility.yul\":2902:2981   */\n      tag_98\n      jump\t// in\n    tag_181:\n        /* \"#utility.yul\":2893:2981   */\n      swap2\n      pop\n        /* \"#utility.yul\":2709:2987   */\n      pop\n        /* \"#utility.yul\":2647:2987   */\n      swap3\n      swap2\n      pop\n      pop\n      jump\t// out\n        /* \"#utility.yul\":2993:3827   */\n    tag_15:\n        /* \"#utility.yul\":3081:3087   */\n      0x00\n        /* \"#utility.yul\":3089:3095   */\n      dup1\n        /* \"#utility.yul\":3138:3140   */\n      0x40\n        /* \"#utility.yul\":3126:3135   */\n      dup4\n        /* \"#utility.yul\":3117:3124   */\n      dup6\n        /* \"#utility.yul\":3113:3136   */\n      sub\n        /* \"#utility.yul\":3109:3141   */\n      slt\n        /* \"#utility.yul\":3106:3225   */\n      iszero\n      tag_183\n      jumpi\n        /* \"#utility.yul\":3144:3223   */\n      tag_184\n      tag_88\n      jump\t// in\n    tag_184:\n        /* \"#utility.yul\":3106:3225   */\n    tag_183:\n        /* \"#utility.yul\":3292:3293   */\n      0x00\n        /* \"#utility.yul\":3281:3290   */\n      dup4\n        /* \"#utility.yul\":3277:3294   */\n      add\n        /* \"#utility.yul\":3264:3295   */\n      calldataload\n        /* \"#utility.yul\":3322:3340   */\n      0xffffffffffffffff\n        /* \"#utility.yul\":3314:3320   */\n      dup2\n        /* \"#utility.yul\":3311:3341   */\n      gt\n        /* \"#utility.yul\":3308:3425   */\n      iszero\n      tag_185\n      jumpi\n        /* \"#utility.yul\":3344:3423   */\n      tag_186\n      tag_89\n      jump\t// in\n    tag_186:\n        /* \"#utility.yul\":3308:3425   */\n    tag_185:\n        /* \"#utility.yul\":3449:3512   */\n      tag_187\n        /* \"#utility.yul\":3504:3511   */\n      dup6\n        /* \"#utility.yul\":3495:3501   */\n      dup3\n        /* \"#utility.yul\":3484:3493   */\n      dup7\n        /* \"#utility.yul\":3480:3502   */\n      add\n        /* \"#utility.yul\":3449:3512   */\n      tag_99\n      jump\t// in\n    tag_187:\n        /* \"#utility.yul\":3439:3512   */\n      swap3\n      pop\n        /* \"#utility.yul\":3235:3522   */\n      pop\n        /* \"#utility.yul\":3589:3591   */\n      0x20\n        /* \"#utility.yul\":3578:3587   */\n      dup4\n        /* \"#utility.yul\":3574:3592   */\n      add\n        /* \"#utility.yul\":3561:3593   */\n      calldataload\n        /* \"#utility.yul\":3620:3638   */\n      0xffffffffffffffff\n        /* \"#utility.yul\":3612:3618   */\n      dup2\n        /* \"#utility.yul\":3609:3639   */\n      gt\n        /* \"#utility.yul\":3606:3723   */\n      iszero\n      tag_188\n      jumpi\n        /* \"#utility.yul\":3642:3721   */\n      tag_189\n      tag_89\n      jump\t// in\n    tag_189:\n        /* \"#utility.yul\":3606:3723   */\n    tag_188:\n        /* \"#utility.yul\":3747:3810   */\n      tag_190\n        /* \"#utility.yul\":3802:3809   */\n      dup6\n        /* \"#utility.yul\":3793:3799   */\n      dup3\n        /* \"#utility.yul\":3782:3791   */\n      dup7\n        /* \"#utility.yul\":3778:3800   */\n      add\n        /* \"#utility.yul\":3747:3810   */\n      tag_99\n      jump\t// in\n    tag_190:\n        /* \"#utility.yul\":3737:3810   */\n      swap2\n      pop\n        /* \"#utility.yul\":3532:3820   */\n      pop\n        /* \"#utility.yul\":2993:3827   */\n      swap3\n      pop\n      swap3\n      swap1\n      pop\n      jump\t// out\n        /* \"#utility.yul\":3833:3910   */\n    tag_100:\n        /* \"#utility.yul\":3870:3877   */\n      0x00\n        /* \"#utility.yul\":3899:3904   */\n      dup2\n        /* \"#utility.yul\":3888:3904   */\n      swap1\n      pop\n        /* \"#utility.yul\":3833:3910   */\n      swap2\n      swap1\n      pop\n      jump\t// out\n        /* \"#utility.yul\":3916:4038   */\n    tag_101:\n        /* \"#utility.yul\":3989:4013   */\n      tag_193\n        /* \"#utility.yul\":4007:4012   */\n      dup2\n        /* \"#utility.yul\":3989:4013   */\n      tag_100\n      jump\t// in\n    tag_193:\n        /* \"#utility.yul\":3982:3987   */\n      dup2\n        /* \"#utility.yul\":3979:4014   */\n      eq\n        /* \"#utility.yul\":3969:4032   */\n      tag_194\n      jumpi\n        /* \"#utility.yul\":4028:4029   */\n      0x00\n        /* \"#utility.yul\":4025:4026   */\n      dup1\n        /* \"#utility.yul\":4018:4030   */\n      revert\n        /* \"#utility.yul\":3969:4032   */\n    tag_194:\n        /* \"#utility.yul\":3916:4038   */\n      pop\n      jump\t// out\n        /* \"#utility.yul\":4044:4183   */\n    tag_102:\n        /* \"#utility.yul\":4090:4095   */\n      0x00\n        /* \"#utility.yul\":4128:4134   */\n      dup2\n        /* \"#utility.yul\":4115:4135   */\n      calldataload\n        /* \"#utility.yul\":4106:4135   */\n      swap1\n      pop\n        /* \"#utility.yul\":4144:4177   */\n      tag_196\n        /* \"#utility.yul\":4171:4176   */\n      dup2\n        /* \"#utility.yul\":4144:4177   */\n      tag_101\n      jump\t// in\n    tag_196:\n        /* \"#utility.yul\":4044:4183   */\n      swap3\n      swap2\n      pop\n      pop\n      jump\t// out\n        /* \"#utility.yul\":4189:4518   */\n    tag_19:\n        /* \"#utility.yul\":4248:4254   */\n      0x00\n        /* \"#utility.yul\":4297:4299   */\n      0x20\n        /* \"#utility.yul\":4285:4294   */\n      dup3\n        /* \"#utility.yul\":4276:4283   */\n      dup5\n        /* \"#utility.yul\":4272:4295   */\n      sub\n        /* \"#utility.yul\":4268:4300   */\n      slt\n        /* \"#utility.yul\":4265:4384   */\n      iszero\n      tag_198\n      jumpi\n        /* \"#utility.yul\":4303:4382   */\n      tag_199\n      tag_88\n      jump\t// in\n    tag_199:\n        /* \"#utility.yul\":4265:4384   */\n    tag_198:\n        /* \"#utility.yul\":4423:4424   */\n      0x00\n        /* \"#utility.yul\":4448:4501   */\n      tag_200\n        /* \"#utility.yul\":4493:4500   */\n      dup5\n        /* \"#utility.yul\":4484:4490   */\n      dup3\n        /* \"#utility.yul\":4473:4482   */\n      dup6\n        /* \"#utility.yul\":4469:4491   */\n      add\n        /* \"#utility.yul\":4448:4501   */\n      tag_102\n      jump\t// in\n    tag_200:\n        /* \"#utility.yul\":4438:4501   */\n      swap2\n      pop\n        /* \"#utility.yul\":4394:4511   */\n      pop\n        /* \"#utility.yul\":4189:4518   */\n      swap3\n      swap2\n      pop\n      pop\n      jump\t// out\n        /* \"#utility.yul\":4524:4650   */\n    tag_103:\n        /* \"#utility.yul\":4561:4568   */\n      0x00\n        /* \"#utility.yul\":4601:4643   */\n      0xffffffffffffffffffffffffffffffffffffffff\n        /* \"#utility.yul\":4594:4599   */\n      dup3\n        /* \"#utility.yul\":4590:4644   */\n      and\n        /* \"#utility.yul\":4579:4644   */\n      swap1\n      pop\n        /* \"#utility.yul\":4524:4650   */\n      swap2\n      swap1\n      pop\n      jump\t// out\n        /* \"#utility.yul\":4656:4752   */\n    tag_104:\n        /* \"#utility.yul\":4693:4700   */\n      0x00\n        /* \"#utility.yul\":4722:4746   */\n      tag_203\n        /* \"#utility.yul\":4740:4745   */\n      dup3\n        /* \"#utility.yul\":4722:4746   */\n      tag_103\n      jump\t// in\n    tag_203:\n        /* \"#utility.yul\":4711:4746   */\n      swap1\n      pop\n        /* \"#utility.yul\":4656:4752   */\n      swap2\n      swap1\n      pop\n      jump\t// out\n        /* \"#utility.yul\":4758:4866   */\n    tag_105:\n        /* \"#utility.yul\":4835:4859   */\n      tag_205\n        /* \"#utility.yul\":4853:4858   */\n      dup2\n        /* \"#utility.yul\":4835:4859   */\n      tag_104\n      jump\t// in\n    tag_205:\n        /* \"#utility.yul\":4830:4833   */\n      dup3\n        /* \"#utility.yul\":4823:4860   */\n      mstore\n        /* \"#utility.yul\":4758:4866   */\n      pop\n      pop\n      jump\t// out\n        /* \"#utility.yul\":4872:4971   */\n    tag_106:\n        /* \"#utility.yul\":4924:4930   */\n      0x00\n        /* \"#utility.yul\":4958:4963   */\n      dup2\n        /* \"#utility.yul\":4952:4964   */\n      mload\n        /* \"#utility.yul\":4942:4964   */\n      swap1\n      pop\n        /* \"#utility.yul\":4872:4971   */\n      swap2\n      swap1\n      pop\n      jump\t// out\n        /* \"#utility.yul\":4977:5136   */\n    tag_107:\n        /* \"#utility.yul\":5051:5062   */\n      0x00\n        /* \"#utility.yul\":5085:5091   */\n      dup3\n        /* \"#utility.yul\":5080:5083   */\n      dup3\n        /* \"#utility.yul\":5073:5092   */\n      mstore\n        /* \"#utility.yul\":5125:5129   */\n      0x20\n        /* \"#utility.yul\":5120:5123   */\n      dup3\n        /* \"#utility.yul\":5116:5130   */\n      add\n        /* \"#utility.yul\":5101:5130   */\n      swap1\n      pop\n        /* \"#utility.yul\":4977:5136   */\n      swap3\n      swap2\n      pop\n      pop\n      jump\t// out\n        /* \"#utility.yul\":5142:5388   */\n    tag_108:\n        /* \"#utility.yul\":5223:5224   */\n      0x00\n        /* \"#utility.yul\":5233:5346   */\n    tag_209:\n        /* \"#utility.yul\":5247:5253   */\n      dup4\n        /* \"#utility.yul\":5244:5245   */\n      dup2\n        /* \"#utility.yul\":5241:5254   */\n      lt\n        /* \"#utility.yul\":5233:5346   */\n      iszero\n      tag_211\n      jumpi\n        /* \"#utility.yul\":5332:5333   */\n      dup1\n        /* \"#utility.yul\":5327:5330   */\n      dup3\n        /* \"#utility.yul\":5323:5334   */\n      add\n        /* \"#utility.yul\":5317:5335   */\n      mload\n        /* \"#utility.yul\":5313:5314   */\n      dup2\n        /* \"#utility.yul\":5308:5311   */\n      dup5\n        /* \"#utility.yul\":5304:5315   */\n      add\n        /* \"#utility.yul\":5297:5336   */\n      mstore\n        /* \"#utility.yul\":5269:5271   */\n      0x20\n        /* \"#utility.yul\":5266:5267   */\n      dup2\n        /* \"#utility.yul\":5262:5272   */\n      add\n        /* \"#utility.yul\":5257:5272   */\n      swap1\n      pop\n        /* \"#utility.yul\":5233:5346   */\n      jump(tag_209)\n    tag_211:\n        /* \"#utility.yul\":5380:5381   */\n      0x00\n        /* \"#utility.yul\":5371:5377   */\n      dup5\n        /* \"#utility.yul\":5366:5369   */\n      dup5\n        /* \"#utility.yul\":5362:5378   */\n      add\n        /* \"#utility.yul\":5355:5382   */\n      mstore\n        /* \"#utility.yul\":5204:5388   */\n      pop\n        /* \"#utility.yul\":5142:5388   */\n      pop\n      pop\n      pop\n      jump\t// out\n        /* \"#utility.yul\":5394:5751   */\n    tag_109:\n        /* \"#utility.yul\":5472:5475   */\n      0x00\n        /* \"#utility.yul\":5500:5539   */\n      tag_213\n        /* \"#utility.yul\":5533:5538   */\n      dup3\n        /* \"#utility.yul\":5500:5539   */\n      tag_106\n      jump\t// in\n    tag_213:\n        /* \"#utility.yul\":5555:5616   */\n      tag_214\n        /* \"#utility.yul\":5609:5615   */\n      dup2\n        /* \"#utility.yul\":5604:5607   */\n      dup6\n        /* \"#utility.yul\":5555:5616   */\n      tag_107\n      jump\t// in\n    tag_214:\n        /* \"#utility.yul\":5548:5616   */\n      swap4\n      pop\n        /* \"#utility.yul\":5625:5690   */\n      tag_215\n        /* \"#utility.yul\":5683:5689   */\n      dup2\n        /* \"#utility.yul\":5678:5681   */\n      dup6\n        /* \"#utility.yul\":5671:5675   */\n      0x20\n        /* \"#utility.yul\":5664:5669   */\n      dup7\n        /* \"#utility.yul\":5660:5676   */\n      add\n        /* \"#utility.yul\":5625:5690   */\n      tag_108\n      jump\t// in\n    tag_215:\n        /* \"#utility.yul\":5715:5744   */\n      tag_216\n        /* \"#utility.yul\":5737:5743   */\n      dup2\n        /* \"#utility.yul\":5715:5744   */\n      tag_92\n      jump\t// in\n    tag_216:\n        /* \"#utility.yul\":5710:5713   */\n      dup5\n        /* \"#utility.yul\":5706:5745   */\n      add\n        /* \"#utility.yul\":5699:5745   */\n      swap2\n      pop\n        /* \"#utility.yul\":5476:5751   */\n      pop\n        /* \"#utility.yul\":5394:5751   */\n      swap3\n      swap2\n      pop\n      pop\n      jump\t// out\n        /* \"#utility.yul\":5757:5865   */\n    tag_110:\n        /* \"#utility.yul\":5834:5858   */\n      tag_218\n        /* \"#utility.yul\":5852:5857   */\n      dup2\n        /* \"#utility.yul\":5834:5858   */\n      tag_100\n      jump\t// in\n    tag_218:\n        /* \"#utility.yul\":5829:5832   */\n      dup3\n        /* \"#utility.yul\":5822:5859   */\n      mstore\n        /* \"#utility.yul\":5757:5865   */\n      pop\n      pop\n      jump\t// out\n        /* \"#utility.yul\":5915:7116   */\n    tag_111:\n        /* \"#utility.yul\":6024:6027   */\n      0x00\n        /* \"#utility.yul\":6060:6064   */\n      0xa0\n        /* \"#utility.yul\":6055:6058   */\n      dup4\n        /* \"#utility.yul\":6051:6065   */\n      add\n        /* \"#utility.yul\":6149:6153   */\n      0x00\n        /* \"#utility.yul\":6142:6147   */\n      dup4\n        /* \"#utility.yul\":6138:6154   */\n      add\n        /* \"#utility.yul\":6132:6155   */\n      mload\n        /* \"#utility.yul\":6168:6231   */\n      tag_220\n        /* \"#utility.yul\":6225:6229   */\n      0x00\n        /* \"#utility.yul\":6220:6223   */\n      dup7\n        /* \"#utility.yul\":6216:6230   */\n      add\n        /* \"#utility.yul\":6202:6214   */\n      dup3\n        /* \"#utility.yul\":6168:6231   */\n      tag_105\n      jump\t// in\n    tag_220:\n        /* \"#utility.yul\":6075:6241   */\n      pop\n        /* \"#utility.yul\":6324:6328   */\n      0x20\n        /* \"#utility.yul\":6317:6322   */\n      dup4\n        /* \"#utility.yul\":6313:6329   */\n      add\n        /* \"#utility.yul\":6307:6330   */\n      mload\n        /* \"#utility.yul\":6377:6380   */\n      dup5\n        /* \"#utility.yul\":6371:6375   */\n      dup3\n        /* \"#utility.yul\":6367:6381   */\n      sub\n        /* \"#utility.yul\":6360:6364   */\n      0x20\n        /* \"#utility.yul\":6355:6358   */\n      dup7\n        /* \"#utility.yul\":6351:6365   */\n      add\n        /* \"#utility.yul\":6344:6382   */\n      mstore\n        /* \"#utility.yul\":6403:6476   */\n      tag_221\n        /* \"#utility.yul\":6471:6475   */\n      dup3\n        /* \"#utility.yul\":6457:6469   */\n      dup3\n        /* \"#utility.yul\":6403:6476   */\n      tag_109\n      jump\t// in\n    tag_221:\n        /* \"#utility.yul\":6395:6476   */\n      swap2\n      pop\n        /* \"#utility.yul\":6251:6487   */\n      pop\n        /* \"#utility.yul\":6572:6576   */\n      0x40\n        /* \"#utility.yul\":6565:6570   */\n      dup4\n        /* \"#utility.yul\":6561:6577   */\n      add\n        /* \"#utility.yul\":6555:6578   */\n      mload\n        /* \"#utility.yul\":6625:6628   */\n      dup5\n        /* \"#utility.yul\":6619:6623   */\n      dup3\n        /* \"#utility.yul\":6615:6629   */\n      sub\n        /* \"#utility.yul\":6608:6612   */\n      0x40\n        /* \"#utility.yul\":6603:6606   */\n      dup7\n        /* \"#utility.yul\":6599:6613   */\n      add\n        /* \"#utility.yul\":6592:6630   */\n      mstore\n        /* \"#utility.yul\":6651:6724   */\n      tag_222\n        /* \"#utility.yul\":6719:6723   */\n      dup3\n        /* \"#utility.yul\":6705:6717   */\n      dup3\n        /* \"#utility.yul\":6651:6724   */\n      tag_109\n      jump\t// in\n    tag_222:\n        /* \"#utility.yul\":6643:6724   */\n      swap2\n      pop\n        /* \"#utility.yul\":6497:6735   */\n      pop\n        /* \"#utility.yul\":6822:6826   */\n      0x60\n        /* \"#utility.yul\":6815:6820   */\n      dup4\n        /* \"#utility.yul\":6811:6827   */\n      add\n        /* \"#utility.yul\":6805:6828   */\n      mload\n        /* \"#utility.yul\":6841:6904   */\n      tag_223\n        /* \"#utility.yul\":6898:6902   */\n      0x60\n        /* \"#utility.yul\":6893:6896   */\n      dup7\n        /* \"#utility.yul\":6889:6903   */\n      add\n        /* \"#utility.yul\":6875:6887   */\n      dup3\n        /* \"#utility.yul\":6841:6904   */\n      tag_110\n      jump\t// in\n    tag_223:\n        /* \"#utility.yul\":6745:6914   */\n      pop\n        /* \"#utility.yul\":6997:7001   */\n      0x80\n        /* \"#utility.yul\":6990:6995   */\n      dup4\n        /* \"#utility.yul\":6986:7002   */\n      add\n        /* \"#utility.yul\":6980:7003   */\n      mload\n        /* \"#utility.yul\":7016:7079   */\n      tag_224\n        /* \"#utility.yul\":7073:7077   */\n      0x80\n        /* \"#utility.yul\":7068:7071   */\n      dup7\n        /* \"#utility.yul\":7064:7078   */\n      add\n        /* \"#utility.yul\":7050:7062   */\n      dup3\n        /* \"#utility.yul\":7016:7079   */\n      tag_110\n      jump\t// in\n    tag_224:\n        /* \"#utility.yul\":6924:7089   */\n      pop\n        /* \"#utility.yul\":7106:7110   */\n      dup1\n        /* \"#utility.yul\":7099:7110   */\n      swap2\n      pop\n        /* \"#utility.yul\":6029:7116   */\n      pop\n        /* \"#utility.yul\":5915:7116   */\n      swap3\n      swap2\n      pop\n      pop\n      jump\t// out\n        /* \"#utility.yul\":7122:7475   */\n    tag_22:\n        /* \"#utility.yul\":7255:7259   */\n      0x00\n        /* \"#utility.yul\":7293:7295   */\n      0x20\n        /* \"#utility.yul\":7282:7291   */\n      dup3\n        /* \"#utility.yul\":7278:7296   */\n      add\n        /* \"#utility.yul\":7270:7296   */\n      swap1\n      pop\n        /* \"#utility.yul\":7342:7351   */\n      dup2\n        /* \"#utility.yul\":7336:7340   */\n      dup2\n        /* \"#utility.yul\":7332:7352   */\n      sub\n        /* \"#utility.yul\":7328:7329   */\n      0x00\n        /* \"#utility.yul\":7317:7326   */\n      dup4\n        /* \"#utility.yul\":7313:7330   */\n      add\n        /* \"#utility.yul\":7306:7353   */\n      mstore\n        /* \"#utility.yul\":7370:7468   */\n      tag_226\n        /* \"#utility.yul\":7463:7467   */\n      dup2\n        /* \"#utility.yul\":7454:7460   */\n      dup5\n        /* \"#utility.yul\":7370:7468   */\n      tag_111\n      jump\t// in\n    tag_226:\n        /* \"#utility.yul\":7362:7468   */\n      swap1\n      pop\n        /* \"#utility.yul\":7122:7475   */\n      swap3\n      swap2\n      pop\n      pop\n      jump\t// out\n        /* \"#utility.yul\":7481:7603   */\n    tag_112:\n        /* \"#utility.yul\":7554:7578   */\n      tag_228\n        /* \"#utility.yul\":7572:7577   */\n      dup2\n        /* \"#utility.yul\":7554:7578   */\n      tag_104\n      jump\t// in\n    tag_228:\n        /* \"#utility.yul\":7547:7552   */\n      dup2\n        /* \"#utility.yul\":7544:7579   */\n      eq\n        /* \"#utility.yul\":7534:7597   */\n      tag_229\n      jumpi\n        /* \"#utility.yul\":7593:7594   */\n      0x00\n        /* \"#utility.yul\":7590:7591   */\n      dup1\n        /* \"#utility.yul\":7583:7595   */\n      revert\n        /* \"#utility.yul\":7534:7597   */\n    tag_229:\n        /* \"#utility.yul\":7481:7603   */\n      pop\n      jump\t// out\n        /* \"#utility.yul\":7609:7748   */\n    tag_113:\n        /* \"#utility.yul\":7655:7660   */\n      0x00\n        /* \"#utility.yul\":7693:7699   */\n      dup2\n        /* \"#utility.yul\":7680:7700   */\n      calldataload\n        /* \"#utility.yul\":7671:7700   */\n      swap1\n      pop\n        /* \"#utility.yul\":7709:7742   */\n      tag_231\n        /* \"#utility.yul\":7736:7741   */\n      dup2\n        /* \"#utility.yul\":7709:7742   */\n      tag_112\n      jump\t// in\n    tag_231:\n        /* \"#utility.yul\":7609:7748   */\n      swap3\n      swap2\n      pop\n      pop\n      jump\t// out\n        /* \"#utility.yul\":7754:8083   */\n    tag_25:\n        /* \"#utility.yul\":7813:7819   */\n      0x00\n        /* \"#utility.yul\":7862:7864   */\n      0x20\n        /* \"#utility.yul\":7850:7859   */\n      dup3\n        /* \"#utility.yul\":7841:7848   */\n      dup5\n        /* \"#utility.yul\":7837:7860   */\n      sub\n        /* \"#utility.yul\":7833:7865   */\n      slt\n        /* \"#utility.yul\":7830:7949   */\n      iszero\n      tag_233\n      jumpi\n        /* \"#utility.yul\":7868:7947   */\n      tag_234\n      tag_88\n      jump\t// in\n    tag_234:\n        /* \"#utility.yul\":7830:7949   */\n    tag_233:\n        /* \"#utility.yul\":7988:7989   */\n      0x00\n        /* \"#utility.yul\":8013:8066   */\n      tag_235\n        /* \"#utility.yul\":8058:8065   */\n      dup5\n        /* \"#utility.yul\":8049:8055   */\n      dup3\n        /* \"#utility.yul\":8038:8047   */\n      dup6\n        /* \"#utility.yul\":8034:8056   */\n      add\n        /* \"#utility.yul\":8013:8066   */\n      tag_113\n      jump\t// in\n    tag_235:\n        /* \"#utility.yul\":8003:8066   */\n      swap2\n      pop\n        /* \"#utility.yul\":7959:8076   */\n      pop\n        /* \"#utility.yul\":7754:8083   */\n      swap3\n      swap2\n      pop\n      pop\n      jump\t// out\n        /* \"#utility.yul\":8089:8223   */\n    tag_114:\n        /* \"#utility.yul\":8176:8182   */\n      0x00\n        /* \"#utility.yul\":8210:8215   */\n      dup2\n        /* \"#utility.yul\":8204:8216   */\n      mload\n        /* \"#utility.yul\":8194:8216   */\n      swap1\n      pop\n        /* \"#utility.yul\":8089:8223   */\n      swap2\n      swap1\n      pop\n      jump\t// out\n        /* \"#utility.yul\":8229:8433   */\n    tag_115:\n        /* \"#utility.yul\":8348:8359   */\n      0x00\n        /* \"#utility.yul\":8382:8388   */\n      dup3\n        /* \"#utility.yul\":8377:8380   */\n      dup3\n        /* \"#utility.yul\":8370:8389   */\n      mstore\n        /* \"#utility.yul\":8422:8426   */\n      0x20\n        /* \"#utility.yul\":8417:8420   */\n      dup3\n        /* \"#utility.yul\":8413:8427   */\n      add\n        /* \"#utility.yul\":8398:8427   */\n      swap1\n      pop\n        /* \"#utility.yul\":8229:8433   */\n      swap3\n      swap2\n      pop\n      pop\n      jump\t// out\n        /* \"#utility.yul\":8439:8591   */\n    tag_116:\n        /* \"#utility.yul\":8526:8530   */\n      0x00\n        /* \"#utility.yul\":8549:8552   */\n      dup2\n        /* \"#utility.yul\":8541:8552   */\n      swap1\n      pop\n        /* \"#utility.yul\":8579:8583   */\n      0x20\n        /* \"#utility.yul\":8574:8577   */\n      dup3\n        /* \"#utility.yul\":8570:8584   */\n      add\n        /* \"#utility.yul\":8562:8584   */\n      swap1\n      pop\n        /* \"#utility.yul\":8439:8591   */\n      swap2\n      swap1\n      pop\n      jump\t// out\n        /* \"#utility.yul\":8641:9832   */\n    tag_117:\n        /* \"#utility.yul\":8740:8743   */\n      0x00\n        /* \"#utility.yul\":8776:8780   */\n      0xa0\n        /* \"#utility.yul\":8771:8774   */\n      dup4\n        /* \"#utility.yul\":8767:8781   */\n      add\n        /* \"#utility.yul\":8865:8869   */\n      0x00\n        /* \"#utility.yul\":8858:8863   */\n      dup4\n        /* \"#utility.yul\":8854:8870   */\n      add\n        /* \"#utility.yul\":8848:8871   */\n      mload\n        /* \"#utility.yul\":8884:8947   */\n      tag_240\n        /* \"#utility.yul\":8941:8945   */\n      0x00\n        /* \"#utility.yul\":8936:8939   */\n      dup7\n        /* \"#utility.yul\":8932:8946   */\n      add\n        /* \"#utility.yul\":8918:8930   */\n      dup3\n        /* \"#utility.yul\":8884:8947   */\n      tag_105\n      jump\t// in\n    tag_240:\n        /* \"#utility.yul\":8791:8957   */\n      pop\n        /* \"#utility.yul\":9040:9044   */\n      0x20\n        /* \"#utility.yul\":9033:9038   */\n      dup4\n        /* \"#utility.yul\":9029:9045   */\n      add\n        /* \"#utility.yul\":9023:9046   */\n      mload\n        /* \"#utility.yul\":9093:9096   */\n      dup5\n        /* \"#utility.yul\":9087:9091   */\n      dup3\n        /* \"#utility.yul\":9083:9097   */\n      sub\n        /* \"#utility.yul\":9076:9080   */\n      0x20\n        /* \"#utility.yul\":9071:9074   */\n      dup7\n        /* \"#utility.yul\":9067:9081   */\n      add\n        /* \"#utility.yul\":9060:9098   */\n      mstore\n        /* \"#utility.yul\":9119:9192   */\n      tag_241\n        /* \"#utility.yul\":9187:9191   */\n      dup3\n        /* \"#utility.yul\":9173:9185   */\n      dup3\n        /* \"#utility.yul\":9119:9192   */\n      tag_109\n      jump\t// in\n    tag_241:\n        /* \"#utility.yul\":9111:9192   */\n      swap2\n      pop\n        /* \"#utility.yul\":8967:9203   */\n      pop\n        /* \"#utility.yul\":9288:9292   */\n      0x40\n        /* \"#utility.yul\":9281:9286   */\n      dup4\n        /* \"#utility.yul\":9277:9293   */\n      add\n        /* \"#utility.yul\":9271:9294   */\n      mload\n        /* \"#utility.yul\":9341:9344   */\n      dup5\n        /* \"#utility.yul\":9335:9339   */\n      dup3\n        /* \"#utility.yul\":9331:9345   */\n      sub\n        /* \"#utility.yul\":9324:9328   */\n      0x40\n        /* \"#utility.yul\":9319:9322   */\n      dup7\n        /* \"#utility.yul\":9315:9329   */\n      add\n        /* \"#utility.yul\":9308:9346   */\n      mstore\n        /* \"#utility.yul\":9367:9440   */\n      tag_242\n        /* \"#utility.yul\":9435:9439   */\n      dup3\n        /* \"#utility.yul\":9421:9433   */\n      dup3\n        /* \"#utility.yul\":9367:9440   */\n      tag_109\n      jump\t// in\n    tag_242:\n        /* \"#utility.yul\":9359:9440   */\n      swap2\n      pop\n        /* \"#utility.yul\":9213:9451   */\n      pop\n        /* \"#utility.yul\":9538:9542   */\n      0x60\n        /* \"#utility.yul\":9531:9536   */\n      dup4\n        /* \"#utility.yul\":9527:9543   */\n      add\n        /* \"#utility.yul\":9521:9544   */\n      mload\n        /* \"#utility.yul\":9557:9620   */\n      tag_243\n        /* \"#utility.yul\":9614:9618   */\n      0x60\n        /* \"#utility.yul\":9609:9612   */\n      dup7\n        /* \"#utility.yul\":9605:9619   */\n      add\n        /* \"#utility.yul\":9591:9603   */\n      dup3\n        /* \"#utility.yul\":9557:9620   */\n      tag_110\n      jump\t// in\n    tag_243:\n        /* \"#utility.yul\":9461:9630   */\n      pop\n        /* \"#utility.yul\":9713:9717   */\n      0x80\n        /* \"#utility.yul\":9706:9711   */\n      dup4\n        /* \"#utility.yul\":9702:9718   */\n      add\n        /* \"#utility.yul\":9696:9719   */\n      mload\n        /* \"#utility.yul\":9732:9795   */\n      tag_244\n        /* \"#utility.yul\":9789:9793   */\n      0x80\n        /* \"#utility.yul\":9784:9787   */\n      dup7\n        /* \"#utility.yul\":9780:9794   */\n      add\n        /* \"#utility.yul\":9766:9778   */\n      dup3\n        /* \"#utility.yul\":9732:9795   */\n      tag_110\n      jump\t// in\n    tag_244:\n        /* \"#utility.yul\":9640:9805   */\n      pop\n        /* \"#utility.yul\":9822:9826   */\n      dup1\n        /* \"#utility.yul\":9815:9826   */\n      swap2\n      pop\n        /* \"#utility.yul\":8745:9832   */\n      pop\n        /* \"#utility.yul\":8641:9832   */\n      swap3\n      swap2\n      pop\n      pop\n      jump\t// out\n        /* \"#utility.yul\":9838:10074   */\n    tag_118:\n        /* \"#utility.yul\":9947:9957   */\n      0x00\n        /* \"#utility.yul\":9982:10068   */\n      tag_246\n        /* \"#utility.yul\":10064:10067   */\n      dup4\n        /* \"#utility.yul\":10056:10062   */\n      dup4\n        /* \"#utility.yul\":9982:10068   */\n      tag_117\n      jump\t// in\n    tag_246:\n        /* \"#utility.yul\":9968:10068   */\n      swap1\n      pop\n        /* \"#utility.yul\":9838:10074   */\n      swap3\n      swap2\n      pop\n      pop\n      jump\t// out\n        /* \"#utility.yul\":10080:10213   */\n    tag_119:\n        /* \"#utility.yul\":10170:10174   */\n      0x00\n        /* \"#utility.yul\":10202:10206   */\n      0x20\n        /* \"#utility.yul\":10197:10200   */\n      dup3\n        /* \"#utility.yul\":10193:10207   */\n      add\n        /* \"#utility.yul\":10185:10207   */\n      swap1\n      pop\n        /* \"#utility.yul\":10080:10213   */\n      swap2\n      swap1\n      pop\n      jump\t// out\n        /* \"#utility.yul\":10267:11338   */\n    tag_120:\n        /* \"#utility.yul\":10426:10429   */\n      0x00\n        /* \"#utility.yul\":10455:10529   */\n      tag_249\n        /* \"#utility.yul\":10523:10528   */\n      dup3\n        /* \"#utility.yul\":10455:10529   */\n      tag_114\n      jump\t// in\n    tag_249:\n        /* \"#utility.yul\":10545:10651   */\n      tag_250\n        /* \"#utility.yul\":10644:10650   */\n      dup2\n        /* \"#utility.yul\":10639:10642   */\n      dup6\n        /* \"#utility.yul\":10545:10651   */\n      tag_115\n      jump\t// in\n    tag_250:\n        /* \"#utility.yul\":10538:10651   */\n      swap4\n      pop\n        /* \"#utility.yul\":10677:10680   */\n      dup4\n        /* \"#utility.yul\":10722:10726   */\n      0x20\n        /* \"#utility.yul\":10714:10720   */\n      dup3\n        /* \"#utility.yul\":10710:10727   */\n      mul\n        /* \"#utility.yul\":10705:10708   */\n      dup6\n        /* \"#utility.yul\":10701:10728   */\n      add\n        /* \"#utility.yul\":10752:10828   */\n      tag_251\n        /* \"#utility.yul\":10822:10827   */\n      dup6\n        /* \"#utility.yul\":10752:10828   */\n      tag_116\n      jump\t// in\n    tag_251:\n        /* \"#utility.yul\":10851:10858   */\n      dup1\n        /* \"#utility.yul\":10882:10883   */\n      0x00\n        /* \"#utility.yul\":10867:11293   */\n    tag_252:\n        /* \"#utility.yul\":10892:10898   */\n      dup6\n        /* \"#utility.yul\":10889:10890   */\n      dup2\n        /* \"#utility.yul\":10886:10899   */\n      lt\n        /* \"#utility.yul\":10867:11293   */\n      iszero\n      tag_254\n      jumpi\n        /* \"#utility.yul\":10963:10972   */\n      dup5\n        /* \"#utility.yul\":10957:10961   */\n      dup5\n        /* \"#utility.yul\":10953:10973   */\n      sub\n        /* \"#utility.yul\":10948:10951   */\n      dup10\n        /* \"#utility.yul\":10941:10974   */\n      mstore\n        /* \"#utility.yul\":11014:11020   */\n      dup2\n        /* \"#utility.yul\":11008:11021   */\n      mload\n        /* \"#utility.yul\":11042:11146   */\n      tag_255\n        /* \"#utility.yul\":11141:11145   */\n      dup6\n        /* \"#utility.yul\":11126:11139   */\n      dup3\n        /* \"#utility.yul\":11042:11146   */\n      tag_118\n      jump\t// in\n    tag_255:\n        /* \"#utility.yul\":11034:11146   */\n      swap5\n      pop\n        /* \"#utility.yul\":11169:11249   */\n      tag_256\n        /* \"#utility.yul\":11242:11248   */\n      dup4\n        /* \"#utility.yul\":11169:11249   */\n      tag_119\n      jump\t// in\n    tag_256:\n        /* \"#utility.yul\":11159:11249   */\n      swap3\n      pop\n        /* \"#utility.yul\":11278:11282   */\n      0x20\n        /* \"#utility.yul\":11273:11276   */\n      dup11\n        /* \"#utility.yul\":11269:11283   */\n      add\n        /* \"#utility.yul\":11262:11283   */\n      swap10\n      pop\n        /* \"#utility.yul\":10927:11293   */\n      pop\n        /* \"#utility.yul\":10914:10915   */\n      0x01\n        /* \"#utility.yul\":10911:10912   */\n      dup2\n        /* \"#utility.yul\":10907:10916   */\n      add\n        /* \"#utility.yul\":10902:10916   */\n      swap1\n      pop\n        /* \"#utility.yul\":10867:11293   */\n      jump(tag_252)\n    tag_254:\n        /* \"#utility.yul\":10871:10885   */\n      pop\n        /* \"#utility.yul\":11309:11313   */\n      dup3\n        /* \"#utility.yul\":11302:11313   */\n      swap8\n      pop\n        /* \"#utility.yul\":11329:11332   */\n      dup8\n        /* \"#utility.yul\":11322:11332   */\n      swap6\n      pop\n        /* \"#utility.yul\":10431:11338   */\n      pop\n      pop\n      pop\n      pop\n      pop\n        /* \"#utility.yul\":10267:11338   */\n      swap3\n      swap2\n      pop\n      pop\n      jump\t// out\n        /* \"#utility.yul\":11344:11797   */\n    tag_28:\n        /* \"#utility.yul\":11527:11531   */\n      0x00\n        /* \"#utility.yul\":11565:11567   */\n      0x20\n        /* \"#utility.yul\":11554:11563   */\n      dup3\n        /* \"#utility.yul\":11550:11568   */\n      add\n        /* \"#utility.yul\":11542:11568   */\n      swap1\n      pop\n        /* \"#utility.yul\":11614:11623   */\n      dup2\n        /* \"#utility.yul\":11608:11612   */\n      dup2\n        /* \"#utility.yul\":11604:11624   */\n      sub\n        /* \"#utility.yul\":11600:11601   */\n      0x00\n        /* \"#utility.yul\":11589:11598   */\n      dup4\n        /* \"#utility.yul\":11585:11602   */\n      add\n        /* \"#utility.yul\":11578:11625   */\n      mstore\n        /* \"#utility.yul\":11642:11790   */\n      tag_258\n        /* \"#utility.yul\":11785:11789   */\n      dup2\n        /* \"#utility.yul\":11776:11782   */\n      dup5\n        /* \"#utility.yul\":11642:11790   */\n      tag_120\n      jump\t// in\n    tag_258:\n        /* \"#utility.yul\":11634:11790   */\n      swap1\n      pop\n        /* \"#utility.yul\":11344:11797   */\n      swap3\n      swap2\n      pop\n      pop\n      jump\t// out\n        /* \"#utility.yul\":11803:11921   */\n    tag_121:\n        /* \"#utility.yul\":11890:11914   */\n      tag_260\n        /* \"#utility.yul\":11908:11913   */\n      dup2\n        /* \"#utility.yul\":11890:11914   */\n      tag_104\n      jump\t// in\n    tag_260:\n        /* \"#utility.yul\":11885:11888   */\n      dup3\n        /* \"#utility.yul\":11878:11915   */\n      mstore\n        /* \"#utility.yul\":11803:11921   */\n      pop\n      pop\n      jump\t// out\n        /* \"#utility.yul\":11927:12149   */\n    tag_32:\n        /* \"#utility.yul\":12020:12024   */\n      0x00\n        /* \"#utility.yul\":12058:12060   */\n      0x20\n        /* \"#utility.yul\":12047:12056   */\n      dup3\n        /* \"#utility.yul\":12043:12061   */\n      add\n        /* \"#utility.yul\":12035:12061   */\n      swap1\n      pop\n        /* \"#utility.yul\":12071:12142   */\n      tag_262\n        /* \"#utility.yul\":12139:12140   */\n      0x00\n        /* \"#utility.yul\":12128:12137   */\n      dup4\n        /* \"#utility.yul\":12124:12141   */\n      add\n        /* \"#utility.yul\":12115:12121   */\n      dup5\n        /* \"#utility.yul\":12071:12142   */\n      tag_121\n      jump\t// in\n    tag_262:\n        /* \"#utility.yul\":11927:12149   */\n      swap3\n      swap2\n      pop\n      pop\n      jump\t// out\n        /* \"#utility.yul\":12155:12275   */\n    tag_122:\n        /* \"#utility.yul\":12227:12250   */\n      tag_264\n        /* \"#utility.yul\":12244:12249   */\n      dup2\n        /* \"#utility.yul\":12227:12250   */\n      tag_85\n      jump\t// in\n    tag_264:\n        /* \"#utility.yul\":12220:12225   */\n      dup2\n        /* \"#utility.yul\":12217:12251   */\n      eq\n        /* \"#utility.yul\":12207:12269   */\n      tag_265\n      jumpi\n        /* \"#utility.yul\":12265:12266   */\n      0x00\n        /* \"#utility.yul\":12262:12263   */\n      dup1\n        /* \"#utility.yul\":12255:12267   */\n      revert\n        /* \"#utility.yul\":12207:12269   */\n    tag_265:\n        /* \"#utility.yul\":12155:12275   */\n      pop\n      jump\t// out\n        /* \"#utility.yul\":12281:12418   */\n    tag_123:\n        /* \"#utility.yul\":12326:12331   */\n      0x00\n        /* \"#utility.yul\":12364:12370   */\n      dup2\n        /* \"#utility.yul\":12351:12371   */\n      calldataload\n        /* \"#utility.yul\":12342:12371   */\n      swap1\n      pop\n        /* \"#utility.yul\":12380:12412   */\n      tag_267\n        /* \"#utility.yul\":12406:12411   */\n      dup2\n        /* \"#utility.yul\":12380:12412   */\n      tag_122\n      jump\t// in\n    tag_267:\n        /* \"#utility.yul\":12281:12418   */\n      swap3\n      swap2\n      pop\n      pop\n      jump\t// out\n        /* \"#utility.yul\":12424:12751   */\n    tag_35:\n        /* \"#utility.yul\":12482:12488   */\n      0x00\n        /* \"#utility.yul\":12531:12533   */\n      0x20\n        /* \"#utility.yul\":12519:12528   */\n      dup3\n        /* \"#utility.yul\":12510:12517   */\n      dup5\n        /* \"#utility.yul\":12506:12529   */\n      sub\n        /* \"#utility.yul\":12502:12534   */\n      slt\n        /* \"#utility.yul\":12499:12618   */\n      iszero\n      tag_269\n      jumpi\n        /* \"#utility.yul\":12537:12616   */\n      tag_270\n      tag_88\n      jump\t// in\n    tag_270:\n        /* \"#utility.yul\":12499:12618   */\n    tag_269:\n        /* \"#utility.yul\":12657:12658   */\n      0x00\n        /* \"#utility.yul\":12682:12734   */\n      tag_271\n        /* \"#utility.yul\":12726:12733   */\n      dup5\n        /* \"#utility.yul\":12717:12723   */\n      dup3\n        /* \"#utility.yul\":12706:12715   */\n      dup6\n        /* \"#utility.yul\":12702:12724   */\n      add\n        /* \"#utility.yul\":12682:12734   */\n      tag_123\n      jump\t// in\n    tag_271:\n        /* \"#utility.yul\":12672:12734   */\n      swap2\n      pop\n        /* \"#utility.yul\":12628:12744   */\n      pop\n        /* \"#utility.yul\":12424:12751   */\n      swap3\n      swap2\n      pop\n      pop\n      jump\t// out\n        /* \"#utility.yul\":12757:12926   */\n    tag_124:\n        /* \"#utility.yul\":12841:12852   */\n      0x00\n        /* \"#utility.yul\":12875:12881   */\n      dup3\n        /* \"#utility.yul\":12870:12873   */\n      dup3\n        /* \"#utility.yul\":12863:12882   */\n      mstore\n        /* \"#utility.yul\":12915:12919   */\n      0x20\n        /* \"#utility.yul\":12910:12913   */\n      dup3\n        /* \"#utility.yul\":12906:12920   */\n      add\n        /* \"#utility.yul\":12891:12920   */\n      swap1\n      pop\n        /* \"#utility.yul\":12757:12926   */\n      swap3\n      swap2\n      pop\n      pop\n      jump\t// out\n        /* \"#utility.yul\":12932:13096   */\n    tag_125:\n        /* \"#utility.yul\":13072:13088   */\n      0x5469746c6520746f6f206c6f6e67000000000000000000000000000000000000\n        /* \"#utility.yul\":13068:13069   */\n      0x00\n        /* \"#utility.yul\":13060:13066   */\n      dup3\n        /* \"#utility.yul\":13056:13070   */\n      add\n        /* \"#utility.yul\":13049:13089   */\n      mstore\n        /* \"#utility.yul\":12932:13096   */\n      pop\n      jump\t// out\n        /* \"#utility.yul\":13102:13468   */\n    tag_126:\n        /* \"#utility.yul\":13244:13247   */\n      0x00\n        /* \"#utility.yul\":13265:13332   */\n      tag_275\n        /* \"#utility.yul\":13329:13331   */\n      0x0e\n        /* \"#utility.yul\":13324:13327   */\n      dup4\n        /* \"#utility.yul\":13265:13332   */\n      tag_124\n      jump\t// in\n    tag_275:\n        /* \"#utility.yul\":13258:13332   */\n      swap2\n      pop\n        /* \"#utility.yul\":13341:13434   */\n      tag_276\n        /* \"#utility.yul\":13430:13433   */\n      dup3\n        /* \"#utility.yul\":13341:13434   */\n      tag_125\n      jump\t// in\n    tag_276:\n        /* \"#utility.yul\":13459:13461   */\n      0x20\n        /* \"#utility.yul\":13454:13457   */\n      dup3\n        /* \"#utility.yul\":13450:13462   */\n      add\n        /* \"#utility.yul\":13443:13462   */\n      swap1\n      pop\n        /* \"#utility.yul\":13102:13468   */\n      swap2\n      swap1\n      pop\n      jump\t// out\n        /* \"#utility.yul\":13474:13893   */\n    tag_40:\n        /* \"#utility.yul\":13640:13644   */\n      0x00\n        /* \"#utility.yul\":13678:13680   */\n      0x20\n        /* \"#utility.yul\":13667:13676   */\n      dup3\n        /* \"#utility.yul\":13663:13681   */\n      add\n        /* \"#utility.yul\":13655:13681   */\n      swap1\n      pop\n        /* \"#utility.yul\":13727:13736   */\n      dup2\n        /* \"#utility.yul\":13721:13725   */\n      dup2\n        /* \"#utility.yul\":13717:13737   */\n      sub\n        /* \"#utility.yul\":13713:13714   */\n      0x00\n        /* \"#utility.yul\":13702:13711   */\n      dup4\n        /* \"#utility.yul\":13698:13715   */\n      add\n        /* \"#utility.yul\":13691:13738   */\n      mstore\n        /* \"#utility.yul\":13755:13886   */\n      tag_278\n        /* \"#utility.yul\":13881:13885   */\n      dup2\n        /* \"#utility.yul\":13755:13886   */\n      tag_126\n      jump\t// in\n    tag_278:\n        /* \"#utility.yul\":13747:13886   */\n      swap1\n      pop\n        /* \"#utility.yul\":13474:13893   */\n      swap2\n      swap1\n      pop\n      jump\t// out\n        /* \"#utility.yul\":13899:14065   */\n    tag_127:\n        /* \"#utility.yul\":14039:14057   */\n      0x436f6e74656e7420746f6f206c6f6e6700000000000000000000000000000000\n        /* \"#utility.yul\":14035:14036   */\n      0x00\n        /* \"#utility.yul\":14027:14033   */\n      dup3\n        /* \"#utility.yul\":14023:14037   */\n      add\n        /* \"#utility.yul\":14016:14058   */\n      mstore\n        /* \"#utility.yul\":13899:14065   */\n      pop\n      jump\t// out\n        /* \"#utility.yul\":14071:14437   */\n    tag_128:\n        /* \"#utility.yul\":14213:14216   */\n      0x00\n        /* \"#utility.yul\":14234:14301   */\n      tag_281\n        /* \"#utility.yul\":14298:14300   */\n      0x10\n        /* \"#utility.yul\":14293:14296   */\n      dup4\n        /* \"#utility.yul\":14234:14301   */\n      tag_124\n      jump\t// in\n    tag_281:\n        /* \"#utility.yul\":14227:14301   */\n      swap2\n      pop\n        /* \"#utility.yul\":14310:14403   */\n      tag_282\n        /* \"#utility.yul\":14399:14402   */\n      dup3\n        /* \"#utility.yul\":14310:14403   */\n      tag_127\n      jump\t// in\n    tag_282:\n        /* \"#utility.yul\":14428:14430   */\n      0x20\n        /* \"#utility.yul\":14423:14426   */\n      dup3\n        /* \"#utility.yul\":14419:14431   */\n      add\n        /* \"#utility.yul\":14412:14431   */\n      swap1\n      pop\n        /* \"#utility.yul\":14071:14437   */\n      swap2\n      swap1\n      pop\n      jump\t// out\n        /* \"#utility.yul\":14443:14862   */\n    tag_43:\n        /* \"#utility.yul\":14609:14613   */\n      0x00\n        /* \"#utility.yul\":14647:14649   */\n      0x20\n        /* \"#utility.yul\":14636:14645   */\n      dup3\n        /* \"#utility.yul\":14632:14650   */\n      add\n        /* \"#utility.yul\":14624:14650   */\n      swap1\n      pop\n        /* \"#utility.yul\":14696:14705   */\n      dup2\n        /* \"#utility.yul\":14690:14694   */\n      dup2\n        /* \"#utility.yul\":14686:14706   */\n      sub\n        /* \"#utility.yul\":14682:14683   */\n      0x00\n        /* \"#utility.yul\":14671:14680   */\n      dup4\n        /* \"#utility.yul\":14667:14684   */\n      add\n        /* \"#utility.yul\":14660:14707   */\n      mstore\n        /* \"#utility.yul\":14724:14855   */\n      tag_284\n        /* \"#utility.yul\":14850:14854   */\n      dup2\n        /* \"#utility.yul\":14724:14855   */\n      tag_128\n      jump\t// in\n    tag_284:\n        /* \"#utility.yul\":14716:14855   */\n      swap1\n      pop\n        /* \"#utility.yul\":14443:14862   */\n      swap2\n      swap1\n      pop\n      jump\t// out\n        /* \"#utility.yul\":14868:15048   */\n    tag_129:\n        /* \"#utility.yul\":14916:14993   */\n      0x4e487b7100000000000000000000000000000000000000000000000000000000\n        /* \"#utility.yul\":14913:14914   */\n      0x00\n        /* \"#utility.yul\":14906:14994   */\n      mstore\n        /* \"#utility.yul\":15013:15017   */\n      0x22\n        /* \"#utility.yul\":15010:15011   */\n      0x04\n        /* \"#utility.yul\":15003:15018   */\n      mstore\n        /* \"#utility.yul\":15037:15041   */\n      0x24\n        /* \"#utility.yul\":15034:15035   */\n      0x00\n        /* \"#utility.yul\":15027:15042   */\n      revert\n        /* \"#utility.yul\":15054:15374   */\n    tag_56:\n        /* \"#utility.yul\":15098:15104   */\n      0x00\n        /* \"#utility.yul\":15135:15136   */\n      0x02\n        /* \"#utility.yul\":15129:15133   */\n      dup3\n        /* \"#utility.yul\":15125:15137   */\n      div\n        /* \"#utility.yul\":15115:15137   */\n      swap1\n      pop\n        /* \"#utility.yul\":15182:15183   */\n      0x01\n        /* \"#utility.yul\":15176:15180   */\n      dup3\n        /* \"#utility.yul\":15172:15184   */\n      and\n        /* \"#utility.yul\":15203:15221   */\n      dup1\n        /* \"#utility.yul\":15193:15274   */\n      tag_287\n      jumpi\n        /* \"#utility.yul\":15259:15263   */\n      0x7f\n        /* \"#utility.yul\":15251:15257   */\n      dup3\n        /* \"#utility.yul\":15247:15264   */\n      and\n        /* \"#utility.yul\":15237:15264   */\n      swap2\n      pop\n        /* \"#utility.yul\":15193:15274   */\n    tag_287:\n        /* \"#utility.yul\":15321:15323   */\n      0x20\n        /* \"#utility.yul\":15313:15319   */\n      dup3\n        /* \"#utility.yul\":15310:15324   */\n      lt\n        /* \"#utility.yul\":15290:15308   */\n      dup2\n        /* \"#utility.yul\":15287:15325   */\n      sub\n        /* \"#utility.yul\":15284:15368   */\n      tag_288\n      jumpi\n        /* \"#utility.yul\":15340:15358   */\n      tag_289\n      tag_129\n      jump\t// in\n    tag_289:\n        /* \"#utility.yul\":15284:15368   */\n    tag_288:\n        /* \"#utility.yul\":15105:15374   */\n      pop\n        /* \"#utility.yul\":15054:15374   */\n      swap2\n      swap1\n      pop\n      jump\t// out\n        /* \"#utility.yul\":15380:15521   */\n    tag_130:\n        /* \"#utility.yul\":15429:15433   */\n      0x00\n        /* \"#utility.yul\":15452:15455   */\n      dup2\n        /* \"#utility.yul\":15444:15455   */\n      swap1\n      pop\n        /* \"#utility.yul\":15475:15478   */\n      dup2\n        /* \"#utility.yul\":15472:15473   */\n      0x00\n        /* \"#utility.yul\":15465:15479   */\n      mstore\n        /* \"#utility.yul\":15509:15513   */\n      0x20\n        /* \"#utility.yul\":15506:15507   */\n      0x00\n        /* \"#utility.yul\":15496:15514   */\n      keccak256\n        /* \"#utility.yul\":15488:15514   */\n      swap1\n      pop\n        /* \"#utility.yul\":15380:15521   */\n      swap2\n      swap1\n      pop\n      jump\t// out\n        /* \"#utility.yul\":15527:15620   */\n    tag_131:\n        /* \"#utility.yul\":15564:15570   */\n      0x00\n        /* \"#utility.yul\":15611:15613   */\n      0x20\n        /* \"#utility.yul\":15606:15608   */\n      0x1f\n        /* \"#utility.yul\":15599:15604   */\n      dup4\n        /* \"#utility.yul\":15595:15609   */\n      add\n        /* \"#utility.yul\":15591:15614   */\n      div\n        /* \"#utility.yul\":15581:15614   */\n      swap1\n      pop\n        /* \"#utility.yul\":15527:15620   */\n      swap2\n      swap1\n      pop\n      jump\t// out\n        /* \"#utility.yul\":15626:15733   */\n    tag_132:\n        /* \"#utility.yul\":15670:15678   */\n      0x00\n        /* \"#utility.yul\":15720:15725   */\n      dup3\n        /* \"#utility.yul\":15714:15718   */\n      dup3\n        /* \"#utility.yul\":15710:15726   */\n      shl\n        /* \"#utility.yul\":15689:15726   */\n      swap1\n      pop\n        /* \"#utility.yul\":15626:15733   */\n      swap3\n      swap2\n      pop\n      pop\n      jump\t// out\n        /* \"#utility.yul\":15739:16132   */\n    tag_133:\n        /* \"#utility.yul\":15808:15814   */\n      0x00\n        /* \"#utility.yul\":15858:15859   */\n      0x08\n        /* \"#utility.yul\":15846:15856   */\n      dup4\n        /* \"#utility.yul\":15842:15860   */\n      mul\n        /* \"#utility.yul\":15881:15978   */\n      tag_294\n        /* \"#utility.yul\":15911:15977   */\n      0xffffffffffffffffffffffffffffffffffffffffffffffffffffffffffffffff\n        /* \"#utility.yul\":15900:15909   */\n      dup3\n        /* \"#utility.yul\":15881:15978   */\n      tag_132\n      jump\t// in\n    tag_294:\n        /* \"#utility.yul\":15999:16038   */\n      tag_295\n        /* \"#utility.yul\":16029:16037   */\n      dup7\n        /* \"#utility.yul\":16018:16027   */\n      dup4\n        /* \"#utility.yul\":15999:16038   */\n      tag_132\n      jump\t// in\n    tag_295:\n        /* \"#utility.yul\":15987:16038   */\n      swap6\n      pop\n        /* \"#utility.yul\":16071:16075   */\n      dup1\n        /* \"#utility.yul\":16067:16076   */\n      not\n        /* \"#utility.yul\":16060:16065   */\n      dup5\n        /* \"#utility.yul\":16056:16077   */\n      and\n        /* \"#utility.yul\":16047:16077   */\n      swap4\n      pop\n        /* \"#utility.yul\":16120:16124   */\n      dup1\n        /* \"#utility.yul\":16110:16118   */\n      dup7\n        /* \"#utility.yul\":16106:16125   */\n      and\n        /* \"#utility.yul\":16099:16104   */\n      dup5\n        /* \"#utility.yul\":16096:16126   */\n      or\n        /* \"#utility.yul\":16086:16126   */\n      swap3\n      pop\n        /* \"#utility.yul\":15815:16132   */\n      pop\n      pop\n        /* \"#utility.yul\":15739:16132   */\n      swap4\n      swap3\n      pop\n      pop\n      pop\n      jump\t// out\n        /* \"#utility.yul\":16138:16198   */\n    tag_134:\n        /* \"#utility.yul\":16166:16169   */\n      0x00\n        /* \"#utility.yul\":16187:16192   */\n      dup2\n        /* \"#utility.yul\":16180:16192   */\n      swap1\n      pop\n        /* \"#utility.yul\":16138:16198   */\n      swap2\n      swap1\n      pop\n      jump\t// out\n        /* \"#utility.yul\":16204:16346   */\n    tag_135:\n        /* \"#utility.yul\":16254:16263   */\n      0x00\n        /* \"#utility.yul\":16287:16340   */\n      tag_298\n        /* \"#utility.yul\":16305:16339   */\n      tag_299\n        /* \"#utility.yul\":16314:16338   */\n      tag_300\n        /* \"#utility.yul\":16332:16337   */\n      dup5\n        /* \"#utility.yul\":16314:16338   */\n      tag_100\n      jump\t// in\n    tag_300:\n        /* \"#utility.yul\":16305:16339   */\n      tag_134\n      jump\t// in\n    tag_299:\n        /* \"#utility.yul\":16287:16340   */\n      tag_100\n      jump\t// in\n    tag_298:\n        /* \"#utility.yul\":16274:16340   */\n      swap1\n      pop\n        /* \"#utility.yul\":16204:16346   */\n      swap2\n      swap1\n      pop\n      jump\t// out\n        /* \"#utility.yul\":16352:16427   */\n    tag_136:\n        /* \"#utility.yul\":16395:16398   */\n      0x00\n        /* \"#utility.yul\":16416:16421   */\n      dup2\n        /* \"#utility.yul\":16409:16421   */\n      swap1\n      pop\n        /* \"#utility.yul\":16352:16427   */\n      swap2\n      swap1\n      pop\n      jump\t// out\n        /* \"#utility.yul\":16433:16702   */\n    tag_137:\n        /* \"#utility.yul\":16543:16582   */\n      tag_303\n        /* \"#utility.yul\":16574:16581   */\n      dup4\n        /* \"#utility.yul\":16543:16582   */\n      tag_135\n      jump\t// in\n    tag_303:\n        /* \"#utility.yul\":16604:16695   */\n      tag_304\n        /* \"#utility.yul\":16653:16694   */\n      tag_305\n        /* \"#utility.yul\":16677:16693   */\n      dup3\n        /* \"#utility.yul\":16653:16694   */\n      tag_136\n      jump\t// in\n    tag_305:\n        /* \"#utility.yul\":16645:16651   */\n      dup5\n        /* \"#utility.yul\":16638:16642   */\n      dup5\n        /* \"#utility.yul\":16632:16643   */\n      sload\n        /* \"#utility.yul\":16604:16695   */\n      tag_133\n      jump\t// in\n    tag_304:\n        /* \"#utility.yul\":16598:16602   */\n      dup3\n        /* \"#utility.yul\":16591:16696   */\n      sstore\n        /* \"#utility.yul\":16509:16702   */\n      pop\n        /* \"#utility.yul\":16433:16702   */\n      pop\n      pop\n      pop\n      jump\t// out\n        /* \"#utility.yul\":16708:16781   */\n    tag_138:\n        /* \"#utility.yul\":16753:16756   */\n      0x00\n        /* \"#utility.yul\":16708:16781   */\n      swap1\n      jump\t// out\n        /* \"#utility.yul\":16787:16976   */\n    tag_139:\n        /* \"#utility.yul\":16864:16896   */\n      tag_308\n      tag_138\n      jump\t// in\n    tag_308:\n        /* \"#utility.yul\":16905:16970   */\n      tag_309\n        /* \"#utility.yul\":16963:16969   */\n      dup2\n        /* \"#utility.yul\":16955:16961   */\n      dup5\n        /* \"#utility.yul\":16949:16953   */\n      dup5\n        /* \"#utility.yul\":16905:16970   */\n      tag_137\n      jump\t// in\n    tag_309:\n        /* \"#utility.yul\":16840:16976   */\n      pop\n        /* \"#utility.yul\":16787:16976   */\n      pop\n      pop\n      jump\t// out\n        /* \"#utility.yul\":16982:17168   */\n    tag_140:\n        /* \"#utility.yul\":17042:17162   */\n    tag_311:\n        /* \"#utility.yul\":17059:17062   */\n      dup2\n        /* \"#utility.yul\":17052:17057   */\n      dup2\n        /* \"#utility.yul\":17049:17063   */\n      lt\n        /* \"#utility.yul\":17042:17162   */\n      iszero\n      tag_313\n      jumpi\n        /* \"#utility.yul\":17113:17152   */\n      tag_314\n        /* \"#utility.yul\":17150:17151   */\n      0x00\n        /* \"#utility.yul\":17143:17148   */\n      dup3\n        /* \"#utility.yul\":17113:17152   */\n      tag_139\n      jump\t// in\n    tag_314:\n        /* \"#utility.yul\":17086:17087   */\n      0x01\n        /* \"#utility.yul\":17079:17084   */\n      dup2\n        /* \"#utility.yul\":17075:17088   */\n      add\n        /* \"#utility.yul\":17066:17088   */\n      swap1\n      pop\n        /* \"#utility.yul\":17042:17162   */\n      jump(tag_311)\n    tag_313:\n        /* \"#utility.yul\":16982:17168   */\n      pop\n      pop\n      jump\t// out\n        /* \"#utility.yul\":17174:17717   */\n    tag_141:\n        /* \"#utility.yul\":17275:17277   */\n      0x1f\n        /* \"#utility.yul\":17270:17273   */\n      dup3\n        /* \"#utility.yul\":17267:17278   */\n      gt\n        /* \"#utility.yul\":17264:17710   */\n      iszero\n      tag_316\n      jumpi\n        /* \"#utility.yul\":17309:17347   */\n      tag_317\n        /* \"#utility.yul\":17341:17346   */\n      dup2\n        /* \"#utility.yul\":17309:17347   */\n      tag_130\n      jump\t// in\n    tag_317:\n        /* \"#utility.yul\":17393:17422   */\n      tag_318\n        /* \"#utility.yul\":17411:17421   */\n      dup5\n        /* \"#utility.yul\":17393:17422   */\n      tag_131\n      jump\t// in\n    tag_318:\n        /* \"#utility.yul\":17383:17391   */\n      dup2\n        /* \"#utility.yul\":17379:17423   */\n      add\n        /* \"#utility.yul\":17576:17578   */\n      0x20\n        /* \"#utility.yul\":17564:17574   */\n      dup6\n        /* \"#utility.yul\":17561:17579   */\n      lt\n        /* \"#utility.yul\":17558:17607   */\n      iszero\n      tag_319\n      jumpi\n        /* \"#utility.yul\":17597:17605   */\n      dup2\n        /* \"#utility.yul\":17582:17605   */\n      swap1\n      pop\n        /* \"#utility.yul\":17558:17607   */\n    tag_319:\n        /* \"#utility.yul\":17620:17700   */\n      tag_320\n        /* \"#utility.yul\":17676:17698   */\n      tag_321\n        /* \"#utility.yul\":17694:17697   */\n      dup6\n        /* \"#utility.yul\":17676:17698   */\n      tag_131\n      jump\t// in\n    tag_321:\n        /* \"#utility.yul\":17666:17674   */\n      dup4\n        /* \"#utility.yul\":17662:17699   */\n      add\n        /* \"#utility.yul\":17649:17660   */\n      dup3\n        /* \"#utility.yul\":17620:17700   */\n      tag_140\n      jump\t// in\n    tag_320:\n        /* \"#utility.yul\":17279:17710   */\n      pop\n      pop\n        /* \"#utility.yul\":17264:17710   */\n    tag_316:\n        /* \"#utility.yul\":17174:17717   */\n      pop\n      pop\n      pop\n      jump\t// out\n        /* \"#utility.yul\":17723:17840   */\n    tag_142:\n        /* \"#utility.yul\":17777:17785   */\n      0x00\n        /* \"#utility.yul\":17827:17832   */\n      dup3\n        /* \"#utility.yul\":17821:17825   */\n      dup3\n        /* \"#utility.yul\":17817:17833   */\n      shr\n        /* \"#utility.yul\":17796:17833   */\n      swap1\n      pop\n        /* \"#utility.yul\":17723:17840   */\n      swap3\n      swap2\n      pop\n      pop\n      jump\t// out\n        /* \"#utility.yul\":17846:18015   */\n    tag_143:\n        /* \"#utility.yul\":17890:17896   */\n      0x00\n        /* \"#utility.yul\":17923:17974   */\n      tag_324\n        /* \"#utility.yul\":17971:17972   */\n      0x00\n        /* \"#utility.yul\":17967:17973   */\n      not\n        /* \"#utility.yul\":17959:17964   */\n      dup5\n        /* \"#utility.yul\":17956:17957   */\n      0x08\n        /* \"#utility.yul\":17952:17965   */\n      mul\n        /* \"#utility.yul\":17923:17974   */\n      tag_142\n      jump\t// in\n    tag_324:\n        /* \"#utility.yul\":17919:17975   */\n      not\n        /* \"#utility.yul\":18004:18008   */\n      dup1\n        /* \"#utility.yul\":17998:18002   */\n      dup4\n        /* \"#utility.yul\":17994:18009   */\n      and\n        /* \"#utility.yul\":17984:18009   */\n      swap2\n      pop\n        /* \"#utility.yul\":17897:18015   */\n      pop\n        /* \"#utility.yul\":17846:18015   */\n      swap3\n      swap2\n      pop\n      pop\n      jump\t// out\n        /* \"#utility.yul\":18020:18315   */\n    tag_144:\n        /* \"#utility.yul\":18096:18100   */\n      0x00\n        /* \"#utility.yul\":18242:18271   */\n      tag_326\n        /* \"#utility.yul\":18267:18270   */\n      dup4\n        /* \"#utility.yul\":18261:18265   */\n      dup4\n        /* \"#utility.yul\":18242:18271   */\n      tag_143\n      jump\t// in\n    tag_326:\n        /* \"#utility.yul\":18234:18271   */\n      swap2\n      pop\n        /* \"#utility.yul\":18304:18307   */\n      dup3\n        /* \"#utility.yul\":18301:18302   */\n      0x02\n        /* \"#utility.yul\":18297:18308   */\n      mul\n        /* \"#utility.yul\":18291:18295   */\n      dup3\n        /* \"#utility.yul\":18288:18309   */\n      or\n        /* \"#utility.yul\":18280:18309   */\n      swap1\n      pop\n        /* \"#utility.yul\":18020:18315   */\n      swap3\n      swap2\n      pop\n      pop\n      jump\t// out\n        /* \"#utility.yul\":18320:19715   */\n    tag_46:\n        /* \"#utility.yul\":18437:18474   */\n      tag_328\n        /* \"#utility.yul\":18470:18473   */\n      dup3\n        /* \"#utility.yul\":18437:18474   */\n      tag_106\n      jump\t// in\n    tag_328:\n        /* \"#utility.yul\":18539:18557   */\n      0xffffffffffffffff\n        /* \"#utility.yul\":18531:18537   */\n      dup2\n        /* \"#utility.yul\":18528:18558   */\n      gt\n        /* \"#utility.yul\":18525:18581   */\n      iszero\n      tag_329\n      jumpi\n        /* \"#utility.yul\":18561:18579   */\n      tag_330\n      tag_93\n      jump\t// in\n    tag_330:\n        /* \"#utility.yul\":18525:18581   */\n    tag_329:\n        /* \"#utility.yul\":18605:18643   */\n      tag_331\n        /* \"#utility.yul\":18637:18641   */\n      dup3\n        /* \"#utility.yul\":18631:18642   */\n      sload\n        /* \"#utility.yul\":18605:18643   */\n      tag_56\n      jump\t// in\n    tag_331:\n        /* \"#utility.yul\":18690:18757   */\n      tag_332\n        /* \"#utility.yul\":18750:18756   */\n      dup3\n        /* \"#utility.yul\":18742:18748   */\n      dup3\n        /* \"#utility.yul\":18736:18740   */\n      dup6\n        /* \"#utility.yul\":18690:18757   */\n      tag_141\n      jump\t// in\n    tag_332:\n        /* \"#utility.yul\":18784:18785   */\n      0x00\n        /* \"#utility.yul\":18808:18812   */\n      0x20\n        /* \"#utility.yul\":18795:18812   */\n      swap1\n      pop\n        /* \"#utility.yul\":18840:18842   */\n      0x1f\n        /* \"#utility.yul\":18832:18838   */\n      dup4\n        /* \"#utility.yul\":18829:18843   */\n      gt\n        /* \"#utility.yul\":18857:18858   */\n      0x01\n        /* \"#utility.yul\":18852:19470   */\n      dup2\n      eq\n      tag_334\n      jumpi\n        /* \"#utility.yul\":19514:19515   */\n      0x00\n        /* \"#utility.yul\":19531:19537   */\n      dup5\n        /* \"#utility.yul\":19528:19605   */\n      iszero\n      tag_335\n      jumpi\n        /* \"#utility.yul\":19580:19589   */\n      dup3\n        /* \"#utility.yul\":19575:19578   */\n      dup8\n        /* \"#utility.yul\":19571:19590   */\n      add\n        /* \"#utility.yul\":19565:19591   */\n      mload\n        /* \"#utility.yul\":19556:19591   */\n      swap1\n      pop\n        /* \"#utility.yul\":19528:19605   */\n    tag_335:\n        /* \"#utility.yul\":19631:19698   */\n      tag_336\n        /* \"#utility.yul\":19691:19697   */\n      dup6\n        /* \"#utility.yul\":19684:19689   */\n      dup3\n        /* \"#utility.yul\":19631:19698   */\n      tag_144\n      jump\t// in\n    tag_336:\n        /* \"#utility.yul\":19625:19629   */\n      dup7\n        /* \"#utility.yul\":19618:19699   */\n      sstore\n        /* \"#utility.yul\":19487:19709   */\n      pop\n        /* \"#utility.yul\":18822:19709   */\n      jump(tag_333)\n        /* \"#utility.yul\":18852:19470   */\n    tag_334:\n        /* \"#utility.yul\":18904:18908   */\n      0x1f\n        /* \"#utility.yul\":18900:18909   */\n      not\n        /* \"#utility.yul\":18892:18898   */\n      dup5\n        /* \"#utility.yul\":18888:18910   */\n      and\n        /* \"#utility.yul\":18938:18975   */\n      tag_337\n        /* \"#utility.yul\":18970:18974   */\n      dup7\n        /* \"#utility.yul\":18938:18975   */\n      tag_130\n      jump\t// in\n    tag_337:\n        /* \"#utility.yul\":18997:18998   */\n      0x00\n        /* \"#utility.yul\":19011:19219   */\n    tag_338:\n        /* \"#utility.yul\":19025:19032   */\n      dup3\n        /* \"#utility.yul\":19022:19023   */\n      dup2\n        /* \"#utility.yul\":19019:19033   */\n      lt\n        /* \"#utility.yul\":19011:19219   */\n      iszero\n      tag_340\n      jumpi\n        /* \"#utility.yul\":19104:19113   */\n      dup5\n        /* \"#utility.yul\":19099:19102   */\n      dup10\n        /* \"#utility.yul\":19095:19114   */\n      add\n        /* \"#utility.yul\":19089:19115   */\n      mload\n        /* \"#utility.yul\":19081:19087   */\n      dup3\n        /* \"#utility.yul\":19074:19116   */\n      sstore\n        /* \"#utility.yul\":19155:19156   */\n      0x01\n        /* \"#utility.yul\":19147:19153   */\n      dup3\n        /* \"#utility.yul\":19143:19157   */\n      add\n        /* \"#utility.yul\":19133:19157   */\n      swap2\n      pop\n        /* \"#utility.yul\":19202:19204   */\n      0x20\n        /* \"#utility.yul\":19191:19200   */\n      dup6\n        /* \"#utility.yul\":19187:19205   */\n      add\n        /* \"#utility.yul\":19174:19205   */\n      swap5\n      pop\n        /* \"#utility.yul\":19048:19052   */\n      0x20\n        /* \"#utility.yul\":19045:19046   */\n      dup2\n        /* \"#utility.yul\":19041:19053   */\n      add\n        /* \"#utility.yul\":19036:19053   */\n      swap1\n      pop\n        /* \"#utility.yul\":19011:19219   */\n      jump(tag_338)\n    tag_340:\n        /* \"#utility.yul\":19247:19253   */\n      dup7\n        /* \"#utility.yul\":19238:19245   */\n      dup4\n        /* \"#utility.yul\":19235:19254   */\n      lt\n        /* \"#utility.yul\":19232:19411   */\n      iszero\n      tag_341\n      jumpi\n        /* \"#utility.yul\":19305:19314   */\n      dup5\n        /* \"#utility.yul\":19300:19303   */\n      dup10\n        /* \"#utility.yul\":19296:19315   */\n      add\n        /* \"#utility.yul\":19290:19316   */\n      mload\n        /* \"#utility.yul\":19348:19396   */\n      tag_342\n        /* \"#utility.yul\":19390:19394   */\n      0x1f\n        /* \"#utility.yul\":19382:19388   */\n      dup10\n        /* \"#utility.yul\":19378:19395   */\n      and\n        /* \"#utility.yul\":19367:19376   */\n      dup3\n        /* \"#utility.yul\":19348:19396   */\n      tag_143\n      jump\t// in\n    tag_342:\n        /* \"#utility.yul\":19340:19346   */\n      dup4\n        /* \"#utility.yul\":19333:19397   */\n      sstore\n        /* \"#utility.yul\":19255:19411   */\n      pop\n        /* \"#utility.yul\":19232:19411   */\n    tag_341:\n        /* \"#utility.yul\":19457:19458   */\n      0x01\n        /* \"#utility.yul\":19453:19454   */\n      0x02\n        /* \"#utility.yul\":19445:19451   */\n      dup9\n        /* \"#utility.yul\":19441:19455   */\n      mul\n        /* \"#utility.yul\":19437:19459   */\n      add\n        /* \"#utility.yul\":19431:19435   */\n      dup9\n        /* \"#utility.yul\":19424:19460   */\n      sstore\n        /* \"#utility.yul\":18859:19470   */\n      pop\n      pop\n      pop\n        /* \"#utility.yul\":18822:19709   */\n    tag_333:\n      pop\n        /* \"#utility.yul\":18412:19715   */\n      pop\n      pop\n      pop\n        /* \"#utility.yul\":18320:19715   */\n      pop\n      pop\n      jump\t// out\n        /* \"#utility.yul\":19721:19901   */\n    tag_53:\n        /* \"#utility.yul\":19769:19846   */\n      0x4e487b7100000000000000000000000000000000000000000000000000000000\n        /* \"#utility.yul\":19766:19767   */\n      0x00\n        /* \"#utility.yul\":19759:19847   */\n      mstore\n        /* \"#utility.yul\":19866:19870   */\n      0x32\n        /* \"#utility.yul\":19863:19864   */\n      0x04\n        /* \"#utility.yul\":19856:19871   */\n      mstore\n        /* \"#utility.yul\":19890:19894   */\n      0x24\n        /* \"#utility.yul\":19887:19888   */\n      0x00\n        /* \"#utility.yul\":19880:19895   */\n      revert\n        /* \"#utility.yul\":19907:20132   */\n    tag_145:\n        /* \"#utility.yul\":20047:20081   */\n      0x4d75737420626520636f6e7472616374206f776e657220666f72207468697320\n        /* \"#utility.yul\":20043:20044   */\n      0x00\n        /* \"#utility.yul\":20035:20041   */\n      dup3\n        /* \"#utility.yul\":20031:20045   */\n      add\n        /* \"#utility.yul\":20024:20082   */\n      mstore\n        /* \"#utility.yul\":20116:20124   */\n      0x616374696f6e0000000000000000000000000000000000000000000000000000\n        /* \"#utility.yul\":20111:20113   */\n      0x20\n        /* \"#utility.yul\":20103:20109   */\n      dup3\n        /* \"#utility.yul\":20099:20114   */\n      add\n        /* \"#utility.yul\":20092:20125   */\n      mstore\n        /* \"#utility.yul\":19907:20132   */\n      pop\n      jump\t// out\n        /* \"#utility.yul\":20138:20504   */\n    tag_146:\n        /* \"#utility.yul\":20280:20283   */\n      0x00\n        /* \"#utility.yul\":20301:20368   */\n      tag_346\n        /* \"#utility.yul\":20365:20367   */\n      0x26\n        /* \"#utility.yul\":20360:20363   */\n      dup4\n        /* \"#utility.yul\":20301:20368   */\n      tag_124\n      jump\t// in\n    tag_346:\n        /* \"#utility.yul\":20294:20368   */\n      swap2\n      pop\n        /* \"#utility.yul\":20377:20470   */\n      tag_347\n        /* \"#utility.yul\":20466:20469   */\n      dup3\n        /* \"#utility.yul\":20377:20470   */\n      tag_145\n      jump\t// in\n    tag_347:\n        /* \"#utility.yul\":20495:20497   */\n      0x40\n        /* \"#utility.yul\":20490:20493   */\n      dup3\n        /* \"#utility.yul\":20486:20498   */\n      add\n        /* \"#utility.yul\":20479:20498   */\n      swap1\n      pop\n        /* \"#utility.yul\":20138:20504   */\n      swap2\n      swap1\n      pop\n      jump\t// out\n        /* \"#utility.yul\":20510:20929   */\n    tag_83:\n        /* \"#utility.yul\":20676:20680   */\n      0x00\n        /* \"#utility.yul\":20714:20716   */\n      0x20\n        /* \"#utility.yul\":20703:20712   */\n      dup3\n        /* \"#utility.yul\":20699:20717   */\n      add\n        /* \"#utility.yul\":20691:20717   */\n      swap1\n      pop\n        /* \"#utility.yul\":20763:20772   */\n      dup2\n        /* \"#utility.yul\":20757:20761   */\n      dup2\n        /* \"#utility.yul\":20753:20773   */\n      sub\n        /* \"#utility.yul\":20749:20750   */\n      0x00\n        /* \"#utility.yul\":20738:20747   */\n      dup4\n        /* \"#utility.yul\":20734:20751   */\n      add\n        /* \"#utility.yul\":20727:20774   */\n      mstore\n        /* \"#utility.yul\":20791:20922   */\n      tag_349\n        /* \"#utility.yul\":20917:20921   */\n      dup2\n        /* \"#utility.yul\":20791:20922   */\n      tag_146\n      jump\t// in\n    tag_349:\n        /* \"#utility.yul\":20783:20922   */\n      swap1\n      pop\n        /* \"#utility.yul\":20510:20929   */\n      swap2\n      swap1\n      pop\n      jump\t// out\n\n    auxdata: 0xa2646970667358221220ece1a4143babccaaf9a4152c101494e304987d766e31193f27e85b8d886ce74464736f6c63430008120033\n}\n",
				"bytecode": {
					"linkReferences": {},
					"object": "6080604052336000806101000a81548173ffffffffffffffffffffffffffffffffffffffff021916908373ffffffffffffffffffffffffffffffffffffffff160217905550611770600060146101000a81548161ffff021916908361ffff16021790555034801561006f57600080fd5b506113488061007f6000396000f3fe608060405234801561001057600080fd5b50600436106100625760003560e01c806305b746b514610067578063392338f51461008557806340731c24146100a157806377d2765c146100d15780638da5cb5b14610101578063fd6a99e11461011f575b600080fd5b61006f61013b565b60405161007c919061088f565b60405180910390f35b61009f600480360381019061009a9190610a04565b61014f565b005b6100bb60048036038101906100b69190610ab2565b610328565b6040516100c89190610c2b565b60405180910390f35b6100eb60048036038101906100e69190610c79565b61052f565b6040516100f89190610de5565b60405180910390f35b61010961075b565b6040516101169190610e16565b60405180910390f35b61013960048036038101906101349190610e5d565b61077f565b005b600060149054906101000a900461ffff1681565b608060ff1682511115610197576040517f08c379a000000000000000000000000000000000000000000000000000000000815260040161018e90610ee7565b60405180910390fd5b600060149054906101000a900461ffff1661ffff16815111156101ef576040517f08c379a00000000000000000000000000000000000000000000000000000000081526004016101e690610f53565b60405180910390fd5b60006040518060a001604052803373ffffffffffffffffffffffffffffffffffffffff16815260200184815260200183815260200142815260200160008152509050600160003373ffffffffffffffffffffffffffffffffffffffff1673ffffffffffffffffffffffffffffffffffffffff16815260200190815260200160002081908060018154018082558091505060019003906000526020600020906005020160009091909190915060008201518160000160006101000a81548173ffffffffffffffffffffffffffffffffffffffff021916908373ffffffffffffffffffffffffffffffffffffffff16021790555060208201518160010190816102f6919061117f565b50604082015181600201908161030c919061117f565b5060608201518160030155608082015181600401555050505050565b61033061082d565b600160003373ffffffffffffffffffffffffffffffffffffffff1673ffffffffffffffffffffffffffffffffffffffff168152602001908152602001600020828154811061038157610380611251565b5b90600052602060002090600502016040518060a00160405290816000820160009054906101000a900473ffffffffffffffffffffffffffffffffffffffff1673ffffffffffffffffffffffffffffffffffffffff1673ffffffffffffffffffffffffffffffffffffffff16815260200160018201805461040090610fa2565b80601f016020809104026020016040519081016040528092919081815260200182805461042c90610fa2565b80156104795780601f1061044e57610100808354040283529160200191610479565b820191906000526020600020905b81548152906001019060200180831161045c57829003601f168201915b5050505050815260200160028201805461049290610fa2565b80601f01602080910402602001604051908101604052809291908181526020018280546104be90610fa2565b801561050b5780601f106104e05761010080835404028352916020019161050b565b820191906000526020600020905b8154815290600101906020018083116104ee57829003601f168201915b50505050508152602001600382015481526020016004820154815250509050919050565b6060600160008373ffffffffffffffffffffffffffffffffffffffff1673ffffffffffffffffffffffffffffffffffffffff168152602001908152602001600020805480602002602001604051908101604052809291908181526020016000905b8282101561075057838290600052602060002090600502016040518060a00160405290816000820160009054906101000a900473ffffffffffffffffffffffffffffffffffffffff1673ffffffffffffffffffffffffffffffffffffffff1673ffffffffffffffffffffffffffffffffffffffff16815260200160018201805461061990610fa2565b80601f016020809104026020016040519081016040528092919081815260200182805461064590610fa2565b80156106925780601f1061066757610100808354040283529160200191610692565b820191906000526020600020905b81548152906001019060200180831161067557829003601f168201915b505050505081526020016002820180546106ab90610fa2565b80601f01602080910402602001604051908101604052809291908181526020018280546106d790610fa2565b80156107245780601f106106f957610100808354040283529160200191610724565b820191906000526020600020905b81548152906001019060200180831161070757829003601f168201915b505050505081526020016003820154815260200160048201548152505081526020019060010190610590565b505050509050919050565b60008054906101000a900473ffffffffffffffffffffffffffffffffffffffff1681565b3373ffffffffffffffffffffffffffffffffffffffff1660008054906101000a900473ffffffffffffffffffffffffffffffffffffffff1673ffffffffffffffffffffffffffffffffffffffff161461080d576040517f08c379a0000000000000000000000000000000000000000000000000000000008152600401610804906112f2565b60405180910390fd5b80600060146101000a81548161ffff021916908361ffff16021790555050565b6040518060a00160405280600073ffffffffffffffffffffffffffffffffffffffff168152602001606081526020016060815260200160008152602001600081525090565b600061ffff82169050919050565b61088981610872565b82525050565b60006020820190506108a46000830184610880565b92915050565b6000604051905090565b600080fd5b600080fd5b600080fd5b600080fd5b6000601f19601f8301169050919050565b7f4e487b7100000000000000000000000000000000000000000000000000000000600052604160045260246000fd5b610911826108c8565b810181811067ffffffffffffffff821117156109305761092f6108d9565b5b80604052505050565b60006109436108aa565b905061094f8282610908565b919050565b600067ffffffffffffffff82111561096f5761096e6108d9565b5b610978826108c8565b9050602081019050919050565b82818337600083830152505050565b60006109a76109a284610954565b610939565b9050828152602081018484840111156109c3576109c26108c3565b5b6109ce848285610985565b509392505050565b600082601f8301126109eb576109ea6108be565b5b81356109fb848260208601610994565b91505092915050565b60008060408385031215610a1b57610a1a6108b4565b5b600083013567ffffffffffffffff811115610a3957610a386108b9565b5b610a45858286016109d6565b925050602083013567ffffffffffffffff811115610a6657610a656108b9565b5b610a72858286016109d6565b9150509250929050565b6000819050919050565b610a8f81610a7c565b8114610a9a57600080fd5b50565b600081359050610aac81610a86565b92915050565b600060208284031215610ac857610ac76108b4565b5b6000610ad684828501610a9d565b91505092915050565b600073ffffffffffffffffffffffffffffffffffffffff82169050919050565b6000610b0a82610adf565b9050919050565b610b1a81610aff565b82525050565b600081519050919050565b600082825260208201905092915050565b60005b83811015610b5a578082015181840152602081019050610b3f565b60008484015250505050565b6000610b7182610b20565b610b7b8185610b2b565b9350610b8b818560208601610b3c565b610b94816108c8565b840191505092915050565b610ba881610a7c565b82525050565b600060a083016000830151610bc66000860182610b11565b5060208301518482036020860152610bde8282610b66565b91505060408301518482036040860152610bf88282610b66565b9150506060830151610c0d6060860182610b9f565b506080830151610c206080860182610b9f565b508091505092915050565b60006020820190508181036000830152610c458184610bae565b905092915050565b610c5681610aff565b8114610c6157600080fd5b50565b600081359050610c7381610c4d565b92915050565b600060208284031215610c8f57610c8e6108b4565b5b6000610c9d84828501610c64565b91505092915050565b600081519050919050565b600082825260208201905092915050565b6000819050602082019050919050565b600060a083016000830151610cea6000860182610b11565b5060208301518482036020860152610d028282610b66565b91505060408301518482036040860152610d1c8282610b66565b9150506060830151610d316060860182610b9f565b506080830151610d446080860182610b9f565b508091505092915050565b6000610d5b8383610cd2565b905092915050565b6000602082019050919050565b6000610d7b82610ca6565b610d858185610cb1565b935083602082028501610d9785610cc2565b8060005b85811015610dd35784840389528151610db48582610d4f565b9450610dbf83610d63565b925060208a01995050600181019050610d9b565b50829750879550505050505092915050565b60006020820190508181036000830152610dff8184610d70565b905092915050565b610e1081610aff565b82525050565b6000602082019050610e2b6000830184610e07565b92915050565b610e3a81610872565b8114610e4557600080fd5b50565b600081359050610e5781610e31565b92915050565b600060208284031215610e7357610e726108b4565b5b6000610e8184828501610e48565b91505092915050565b600082825260208201905092915050565b7f5469746c6520746f6f206c6f6e67000000000000000000000000000000000000600082015250565b6000610ed1600e83610e8a565b9150610edc82610e9b565b602082019050919050565b60006020820190508181036000830152610f0081610ec4565b9050919050565b7f436f6e74656e7420746f6f206c6f6e6700000000000000000000000000000000600082015250565b6000610f3d601083610e8a565b9150610f4882610f07565b602082019050919050565b60006020820190508181036000830152610f6c81610f30565b9050919050565b7f4e487b7100000000000000000000000000000000000000000000000000000000600052602260045260246000fd5b60006002820490506001821680610fba57607f821691505b602082108103610fcd57610fcc610f73565b5b50919050565b60008190508160005260206000209050919050565b60006020601f8301049050919050565b600082821b905092915050565b6000600883026110357fffffffffffffffffffffffffffffffffffffffffffffffffffffffffffffffff82610ff8565b61103f8683610ff8565b95508019841693508086168417925050509392505050565b6000819050919050565b600061107c61107761107284610a7c565b611057565b610a7c565b9050919050565b6000819050919050565b61109683611061565b6110aa6110a282611083565b848454611005565b825550505050565b600090565b6110bf6110b2565b6110ca81848461108d565b505050565b5b818110156110ee576110e36000826110b7565b6001810190506110d0565b5050565b601f8211156111335761110481610fd3565b61110d84610fe8565b8101602085101561111c578190505b61113061112885610fe8565b8301826110cf565b50505b505050565b600082821c905092915050565b600061115660001984600802611138565b1980831691505092915050565b600061116f8383611145565b9150826002028217905092915050565b61118882610b20565b67ffffffffffffffff8111156111a1576111a06108d9565b5b6111ab8254610fa2565b6111b68282856110f2565b600060209050601f8311600181146111e957600084156111d7578287015190505b6111e18582611163565b865550611249565b601f1984166111f786610fd3565b60005b8281101561121f578489015182556001820191506020850194506020810190506111fa565b8683101561123c5784890151611238601f891682611145565b8355505b6001600288020188555050505b505050505050565b7f4e487b7100000000000000000000000000000000000000000000000000000000600052603260045260246000fd5b7f4d75737420626520636f6e7472616374206f776e657220666f7220746869732060008201527f616374696f6e0000000000000000000000000000000000000000000000000000602082015250565b60006112dc602683610e8a565b91506112e782611280565b604082019050919050565b6000602082019050818103600083015261130b816112cf565b905091905056fea2646970667358221220ece1a4143babccaaf9a4152c101494e304987d766e31193f27e85b8d886ce74464736f6c63430008120033",
					"opcodes": "PUSH1 0x80 PUSH1 0x40 MSTORE CALLER PUSH1 0x0 DUP1 PUSH2 0x100 EXP DUP2 SLOAD DUP2 PUSH20 0xFFFFFFFFFFFFFFFFFFFFFFFFFFFFFFFFFFFFFFFF MUL NOT AND SWAP1 DUP4 PUSH20 0xFFFFFFFFFFFFFFFFFFFFFFFFFFFFFFFFFFFFFFFF AND MUL OR SWAP1 SSTORE POP PUSH2 0x1770 PUSH1 0x0 PUSH1 0x14 PUSH2 0x100 EXP DUP2 SLOAD DUP2 PUSH2 0xFFFF MUL NOT AND SWAP1 DUP4 PUSH2 0xFFFF AND MUL OR SWAP1 SSTORE POP CALLVALUE DUP1 ISZERO PUSH2 0x6F JUMPI PUSH1 0x0 DUP1 REVERT JUMPDEST POP PUSH2 0x1348 DUP1 PUSH2 0x7F PUSH1 0x0 CODECOPY PUSH1 0x0 RETURN INVALID PUSH1 0x80 PUSH1 0x40 MSTORE CALLVALUE DUP1 ISZERO PUSH2 0x10 JUMPI PUSH1 0x0 DUP1 REVERT JUMPDEST POP PUSH1 0x4 CALLDATASIZE LT PUSH2 0x62 JUMPI PUSH1 0x0 CALLDATALOAD PUSH1 0xE0 SHR DUP1 PUSH4 0x5B746B5 EQ PUSH2 0x67 JUMPI DUP1 PUSH4 0x392338F5 EQ PUSH2 0x85 JUMPI DUP1 PUSH4 0x40731C24 EQ PUSH2 0xA1 JUMPI DUP1 PUSH4 0x77D2765C EQ PUSH2 0xD1 JUMPI DUP1 PUSH4 0x8DA5CB5B EQ PUSH2 0x101 JUMPI DUP1 PUSH4 0xFD6A99E1 EQ PUSH2 0x11F JUMPI JUMPDEST PUSH1 0x0 DUP1 REVERT JUMPDEST PUSH2 0x6F PUSH2 0x13B JUMP JUMPDEST PUSH1 0x40 MLOAD PUSH2 0x7C SWAP2 SWAP1 PUSH2 0x88F JUMP JUMPDEST PUSH1 0x40 MLOAD DUP1 SWAP2 SUB SWAP1 RETURN JUMPDEST PUSH2 0x9F PUSH1 0x4 DUP1 CALLDATASIZE SUB DUP2 ADD SWAP1 PUSH2 0x9A SWAP2 SWAP1 PUSH2 0xA04 JUMP JUMPDEST PUSH2 0x14F JUMP JUMPDEST STOP JUMPDEST PUSH2 0xBB PUSH1 0x4 DUP1 CALLDATASIZE SUB DUP2 ADD SWAP1 PUSH2 0xB6 SWAP2 SWAP1 PUSH2 0xAB2 JUMP JUMPDEST PUSH2 0x328 JUMP JUMPDEST PUSH1 0x40 MLOAD PUSH2 0xC8 SWAP2 SWAP1 PUSH2 0xC2B JUMP JUMPDEST PUSH1 0x40 MLOAD DUP1 SWAP2 SUB SWAP1 RETURN JUMPDEST PUSH2 0xEB PUSH1 0x4 DUP1 CALLDATASIZE SUB DUP2 ADD SWAP1 PUSH2 0xE6 SWAP2 SWAP1 PUSH2 0xC79 JUMP JUMPDEST PUSH2 0x52F JUMP JUMPDEST PUSH1 0x40 MLOAD PUSH2 0xF8 SWAP2 SWAP1 PUSH2 0xDE5 JUMP JUMPDEST PUSH1 0x40 MLOAD DUP1 SWAP2 SUB SWAP1 RETURN JUMPDEST PUSH2 0x109 PUSH2 0x75B JUMP JUMPDEST PUSH1 0x40 MLOAD PUSH2 0x116 SWAP2 SWAP1 PUSH2 0xE16 JUMP JUMPDEST PUSH1 0x40 MLOAD DUP1 SWAP2 SUB SWAP1 RETURN JUMPDEST PUSH2 0x139 PUSH1 0x4 DUP1 CALLDATASIZE SUB DUP2 ADD SWAP1 PUSH2 0x134 SWAP2 SWAP1 PUSH2 0xE5D JUMP JUMPDEST PUSH2 0x77F JUMP JUMPDEST STOP JUMPDEST PUSH1 0x0 PUSH1 0x14 SWAP1 SLOAD SWAP1 PUSH2 0x100 EXP SWAP1 DIV PUSH2 0xFFFF AND DUP2 JUMP JUMPDEST PUSH1 0x80 PUSH1 0xFF AND DUP3 MLOAD GT ISZERO PUSH2 0x197 JUMPI PUSH1 0x40 MLOAD PUSH32 0x8C379A000000000000000000000000000000000000000000000000000000000 DUP2 MSTORE PUSH1 0x4 ADD PUSH2 0x18E SWAP1 PUSH2 0xEE7 JUMP JUMPDEST PUSH1 0x40 MLOAD DUP1 SWAP2 SUB SWAP1 REVERT JUMPDEST PUSH1 0x0 PUSH1 0x14 SWAP1 SLOAD SWAP1 PUSH2 0x100 EXP SWAP1 DIV PUSH2 0xFFFF AND PUSH2 0xFFFF AND DUP2 MLOAD GT ISZERO PUSH2 0x1EF JUMPI PUSH1 0x40 MLOAD PUSH32 0x8C379A000000000000000000000000000000000000000000000000000000000 DUP2 MSTORE PUSH1 0x4 ADD PUSH2 0x1E6 SWAP1 PUSH2 0xF53 JUMP JUMPDEST PUSH1 0x40 MLOAD DUP1 SWAP2 SUB SWAP1 REVERT JUMPDEST PUSH1 0x0 PUSH1 0x40 MLOAD DUP1 PUSH1 0xA0 ADD PUSH1 0x40 MSTORE DUP1 CALLER PUSH20 0xFFFFFFFFFFFFFFFFFFFFFFFFFFFFFFFFFFFFFFFF AND DUP2 MSTORE PUSH1 0x20 ADD DUP5 DUP2 MSTORE PUSH1 0x20 ADD DUP4 DUP2 MSTORE PUSH1 0x20 ADD TIMESTAMP DUP2 MSTORE PUSH1 0x20 ADD PUSH1 0x0 DUP2 MSTORE POP SWAP1 POP PUSH1 0x1 PUSH1 0x0 CALLER PUSH20 0xFFFFFFFFFFFFFFFFFFFFFFFFFFFFFFFFFFFFFFFF AND PUSH20 0xFFFFFFFFFFFFFFFFFFFFFFFFFFFFFFFFFFFFFFFF AND DUP2 MSTORE PUSH1 0x20 ADD SWAP1 DUP2 MSTORE PUSH1 0x20 ADD PUSH1 0x0 KECCAK256 DUP2 SWAP1 DUP1 PUSH1 0x1 DUP2 SLOAD ADD DUP1 DUP3 SSTORE DUP1 SWAP2 POP POP PUSH1 0x1 SWAP1 SUB SWAP1 PUSH1 0x0 MSTORE PUSH1 0x20 PUSH1 0x0 KECCAK256 SWAP1 PUSH1 0x5 MUL ADD PUSH1 0x0 SWAP1 SWAP2 SWAP1 SWAP2 SWAP1 SWAP2 POP PUSH1 0x0 DUP3 ADD MLOAD DUP2 PUSH1 0x0 ADD PUSH1 0x0 PUSH2 0x100 EXP DUP2 SLOAD DUP2 PUSH20 0xFFFFFFFFFFFFFFFFFFFFFFFFFFFFFFFFFFFFFFFF MUL NOT AND SWAP1 DUP4 PUSH20 0xFFFFFFFFFFFFFFFFFFFFFFFFFFFFFFFFFFFFFFFF AND MUL OR SWAP1 SSTORE POP PUSH1 0x20 DUP3 ADD MLOAD DUP2 PUSH1 0x1 ADD SWAP1 DUP2 PUSH2 0x2F6 SWAP2 SWAP1 PUSH2 0x117F JUMP JUMPDEST POP PUSH1 0x40 DUP3 ADD MLOAD DUP2 PUSH1 0x2 ADD SWAP1 DUP2 PUSH2 0x30C SWAP2 SWAP1 PUSH2 0x117F JUMP JUMPDEST POP PUSH1 0x60 DUP3 ADD MLOAD DUP2 PUSH1 0x3 ADD SSTORE PUSH1 0x80 DUP3 ADD MLOAD DUP2 PUSH1 0x4 ADD SSTORE POP POP POP POP POP JUMP JUMPDEST PUSH2 0x330 PUSH2 0x82D JUMP JUMPDEST PUSH1 0x1 PUSH1 0x0 CALLER PUSH20 0xFFFFFFFFFFFFFFFFFFFFFFFFFFFFFFFFFFFFFFFF AND PUSH20 0xFFFFFFFFFFFFFFFFFFFFFFFFFFFFFFFFFFFFFFFF AND DUP2 MSTORE PUSH1 0x20 ADD SWAP1 DUP2 MSTORE PUSH1 0x20 ADD PUSH1 0x0 KECCAK256 DUP3 DUP2 SLOAD DUP2 LT PUSH2 0x381 JUMPI PUSH2 0x380 PUSH2 0x1251 JUMP JUMPDEST JUMPDEST SWAP1 PUSH1 0x0 MSTORE PUSH1 0x20 PUSH1 0x0 KECCAK256 SWAP1 PUSH1 0x5 MUL ADD PUSH1 0x40 MLOAD DUP1 PUSH1 0xA0 ADD PUSH1 0x40 MSTORE SWAP1 DUP2 PUSH1 0x0 DUP3 ADD PUSH1 0x0 SWAP1 SLOAD SWAP1 PUSH2 0x100 EXP SWAP1 DIV PUSH20 0xFFFFFFFFFFFFFFFFFFFFFFFFFFFFFFFFFFFFFFFF AND PUSH20 0xFFFFFFFFFFFFFFFFFFFFFFFFFFFFFFFFFFFFFFFF AND PUSH20 0xFFFFFFFFFFFFFFFFFFFFFFFFFFFFFFFFFFFFFFFF AND DUP2 MSTORE PUSH1 0x20 ADD PUSH1 0x1 DUP3 ADD DUP1 SLOAD PUSH2 0x400 SWAP1 PUSH2 0xFA2 JUMP JUMPDEST DUP1 PUSH1 0x1F ADD PUSH1 0x20 DUP1 SWAP2 DIV MUL PUSH1 0x20 ADD PUSH1 0x40 MLOAD SWAP1 DUP2 ADD PUSH1 0x40 MSTORE DUP1 SWAP3 SWAP2 SWAP1 DUP2 DUP2 MSTORE PUSH1 0x20 ADD DUP3 DUP1 SLOAD PUSH2 0x42C SWAP1 PUSH2 0xFA2 JUMP JUMPDEST DUP1 ISZERO PUSH2 0x479 JUMPI DUP1 PUSH1 0x1F LT PUSH2 0x44E JUMPI PUSH2 0x100 DUP1 DUP4 SLOAD DIV MUL DUP4 MSTORE SWAP2 PUSH1 0x20 ADD SWAP2 PUSH2 0x479 JUMP JUMPDEST DUP3 ADD SWAP2 SWAP1 PUSH1 0x0 MSTORE PUSH1 0x20 PUSH1 0x0 KECCAK256 SWAP1 JUMPDEST DUP2 SLOAD DUP2 MSTORE SWAP1 PUSH1 0x1 ADD SWAP1 PUSH1 0x20 ADD DUP1 DUP4 GT PUSH2 0x45C JUMPI DUP3 SWAP1 SUB PUSH1 0x1F AND DUP3 ADD SWAP2 JUMPDEST POP POP POP POP POP DUP2 MSTORE PUSH1 0x20 ADD PUSH1 0x2 DUP3 ADD DUP1 SLOAD PUSH2 0x492 SWAP1 PUSH2 0xFA2 JUMP JUMPDEST DUP1 PUSH1 0x1F ADD PUSH1 0x20 DUP1 SWAP2 DIV MUL PUSH1 0x20 ADD PUSH1 0x40 MLOAD SWAP1 DUP2 ADD PUSH1 0x40 MSTORE DUP1 SWAP3 SWAP2 SWAP1 DUP2 DUP2 MSTORE PUSH1 0x20 ADD DUP3 DUP1 SLOAD PUSH2 0x4BE SWAP1 PUSH2 0xFA2 JUMP JUMPDEST DUP1 ISZERO PUSH2 0x50B JUMPI DUP1 PUSH1 0x1F LT PUSH2 0x4E0 JUMPI PUSH2 0x100 DUP1 DUP4 SLOAD DIV MUL DUP4 MSTORE SWAP2 PUSH1 0x20 ADD SWAP2 PUSH2 0x50B JUMP JUMPDEST DUP3 ADD SWAP2 SWAP1 PUSH1 0x0 MSTORE PUSH1 0x20 PUSH1 0x0 KECCAK256 SWAP1 JUMPDEST DUP2 SLOAD DUP2 MSTORE SWAP1 PUSH1 0x1 ADD SWAP1 PUSH1 0x20 ADD DUP1 DUP4 GT PUSH2 0x4EE JUMPI DUP3 SWAP1 SUB PUSH1 0x1F AND DUP3 ADD SWAP2 JUMPDEST POP POP POP POP POP DUP2 MSTORE PUSH1 0x20 ADD PUSH1 0x3 DUP3 ADD SLOAD DUP2 MSTORE PUSH1 0x20 ADD PUSH1 0x4 DUP3 ADD SLOAD DUP2 MSTORE POP POP SWAP1 POP SWAP2 SWAP1 POP JUMP JUMPDEST PUSH1 0x60 PUSH1 0x1 PUSH1 0x0 DUP4 PUSH20 0xFFFFFFFFFFFFFFFFFFFFFFFFFFFFFFFFFFFFFFFF AND PUSH20 0xFFFFFFFFFFFFFFFFFFFFFFFFFFFFFFFFFFFFFFFF AND DUP2 MSTORE PUSH1 0x20 ADD SWAP1 DUP2 MSTORE PUSH1 0x20 ADD PUSH1 0x0 KECCAK256 DUP1 SLOAD DUP1 PUSH1 0x20 MUL PUSH1 0x20 ADD PUSH1 0x40 MLOAD SWAP1 DUP2 ADD PUSH1 0x40 MSTORE DUP1 SWAP3 SWAP2 SWAP1 DUP2 DUP2 MSTORE PUSH1 0x20 ADD PUSH1 0x0 SWAP1 JUMPDEST DUP3 DUP3 LT ISZERO PUSH2 0x750 JUMPI DUP4 DUP3 SWAP1 PUSH1 0x0 MSTORE PUSH1 0x20 PUSH1 0x0 KECCAK256 SWAP1 PUSH1 0x5 MUL ADD PUSH1 0x40 MLOAD DUP1 PUSH1 0xA0 ADD PUSH1 0x40 MSTORE SWAP1 DUP2 PUSH1 0x0 DUP3 ADD PUSH1 0x0 SWAP1 SLOAD SWAP1 PUSH2 0x100 EXP SWAP1 DIV PUSH20 0xFFFFFFFFFFFFFFFFFFFFFFFFFFFFFFFFFFFFFFFF AND PUSH20 0xFFFFFFFFFFFFFFFFFFFFFFFFFFFFFFFFFFFFFFFF AND PUSH20 0xFFFFFFFFFFFFFFFFFFFFFFFFFFFFFFFFFFFFFFFF AND DUP2 MSTORE PUSH1 0x20 ADD PUSH1 0x1 DUP3 ADD DUP1 SLOAD PUSH2 0x619 SWAP1 PUSH2 0xFA2 JUMP JUMPDEST DUP1 PUSH1 0x1F ADD PUSH1 0x20 DUP1 SWAP2 DIV MUL PUSH1 0x20 ADD PUSH1 0x40 MLOAD SWAP1 DUP2 ADD PUSH1 0x40 MSTORE DUP1 SWAP3 SWAP2 SWAP1 DUP2 DUP2 MSTORE PUSH1 0x20 ADD DUP3 DUP1 SLOAD PUSH2 0x645 SWAP1 PUSH2 0xFA2 JUMP JUMPDEST DUP1 ISZERO PUSH2 0x692 JUMPI DUP1 PUSH1 0x1F LT PUSH2 0x667 JUMPI PUSH2 0x100 DUP1 DUP4 SLOAD DIV MUL DUP4 MSTORE SWAP2 PUSH1 0x20 ADD SWAP2 PUSH2 0x692 JUMP JUMPDEST DUP3 ADD SWAP2 SWAP1 PUSH1 0x0 MSTORE PUSH1 0x20 PUSH1 0x0 KECCAK256 SWAP1 JUMPDEST DUP2 SLOAD DUP2 MSTORE SWAP1 PUSH1 0x1 ADD SWAP1 PUSH1 0x20 ADD DUP1 DUP4 GT PUSH2 0x675 JUMPI DUP3 SWAP1 SUB PUSH1 0x1F AND DUP3 ADD SWAP2 JUMPDEST POP POP POP POP POP DUP2 MSTORE PUSH1 0x20 ADD PUSH1 0x2 DUP3 ADD DUP1 SLOAD PUSH2 0x6AB SWAP1 PUSH2 0xFA2 JUMP JUMPDEST DUP1 PUSH1 0x1F ADD PUSH1 0x20 DUP1 SWAP2 DIV MUL PUSH1 0x20 ADD PUSH1 0x40 MLOAD SWAP1 DUP2 ADD PUSH1 0x40 MSTORE DUP1 SWAP3 SWAP2 SWAP1 DUP2 DUP2 MSTORE PUSH1 0x20 ADD DUP3 DUP1 SLOAD PUSH2 0x6D7 SWAP1 PUSH2 0xFA2 JUMP JUMPDEST DUP1 ISZERO PUSH2 0x724 JUMPI DUP1 PUSH1 0x1F LT PUSH2 0x6F9 JUMPI PUSH2 0x100 DUP1 DUP4 SLOAD DIV MUL DUP4 MSTORE SWAP2 PUSH1 0x20 ADD SWAP2 PUSH2 0x724 JUMP JUMPDEST DUP3 ADD SWAP2 SWAP1 PUSH1 0x0 MSTORE PUSH1 0x20 PUSH1 0x0 KECCAK256 SWAP1 JUMPDEST DUP2 SLOAD DUP2 MSTORE SWAP1 PUSH1 0x1 ADD SWAP1 PUSH1 0x20 ADD DUP1 DUP4 GT PUSH2 0x707 JUMPI DUP3 SWAP1 SUB PUSH1 0x1F AND DUP3 ADD SWAP2 JUMPDEST POP POP POP POP POP DUP2 MSTORE PUSH1 0x20 ADD PUSH1 0x3 DUP3 ADD SLOAD DUP2 MSTORE PUSH1 0x20 ADD PUSH1 0x4 DUP3 ADD SLOAD DUP2 MSTORE POP POP DUP2 MSTORE PUSH1 0x20 ADD SWAP1 PUSH1 0x1 ADD SWAP1 PUSH2 0x590 JUMP JUMPDEST POP POP POP POP SWAP1 POP SWAP2 SWAP1 POP JUMP JUMPDEST PUSH1 0x0 DUP1 SLOAD SWAP1 PUSH2 0x100 EXP SWAP1 DIV PUSH20 0xFFFFFFFFFFFFFFFFFFFFFFFFFFFFFFFFFFFFFFFF AND DUP2 JUMP JUMPDEST CALLER PUSH20 0xFFFFFFFFFFFFFFFFFFFFFFFFFFFFFFFFFFFFFFFF AND PUSH1 0x0 DUP1 SLOAD SWAP1 PUSH2 0x100 EXP SWAP1 DIV PUSH20 0xFFFFFFFFFFFFFFFFFFFFFFFFFFFFFFFFFFFFFFFF AND PUSH20 0xFFFFFFFFFFFFFFFFFFFFFFFFFFFFFFFFFFFFFFFF AND EQ PUSH2 0x80D JUMPI PUSH1 0x40 MLOAD PUSH32 0x8C379A000000000000000000000000000000000000000000000000000000000 DUP2 MSTORE PUSH1 0x4 ADD PUSH2 0x804 SWAP1 PUSH2 0x12F2 JUMP JUMPDEST PUSH1 0x40 MLOAD DUP1 SWAP2 SUB SWAP1 REVERT JUMPDEST DUP1 PUSH1 0x0 PUSH1 0x14 PUSH2 0x100 EXP DUP2 SLOAD DUP2 PUSH2 0xFFFF MUL NOT AND SWAP1 DUP4 PUSH2 0xFFFF AND MUL OR SWAP1 SSTORE POP POP JUMP JUMPDEST PUSH1 0x40 MLOAD DUP1 PUSH1 0xA0 ADD PUSH1 0x40 MSTORE DUP1 PUSH1 0x0 PUSH20 0xFFFFFFFFFFFFFFFFFFFFFFFFFFFFFFFFFFFFFFFF AND DUP2 MSTORE PUSH1 0x20 ADD PUSH1 0x60 DUP2 MSTORE PUSH1 0x20 ADD PUSH1 0x60 DUP2 MSTORE PUSH1 0x20 ADD PUSH1 0x0 DUP2 MSTORE PUSH1 0x20 ADD PUSH1 0x0 DUP2 MSTORE POP SWAP1 JUMP JUMPDEST PUSH1 0x0 PUSH2 0xFFFF DUP3 AND SWAP1 POP SWAP2 SWAP1 POP JUMP JUMPDEST PUSH2 0x889 DUP2 PUSH2 0x872 JUMP JUMPDEST DUP3 MSTORE POP POP JUMP JUMPDEST PUSH1 0x0 PUSH1 0x20 DUP3 ADD SWAP1 POP PUSH2 0x8A4 PUSH1 0x0 DUP4 ADD DUP5 PUSH2 0x880 JUMP JUMPDEST SWAP3 SWAP2 POP POP JUMP JUMPDEST PUSH1 0x0 PUSH1 0x40 MLOAD SWAP1 POP SWAP1 JUMP JUMPDEST PUSH1 0x0 DUP1 REVERT JUMPDEST PUSH1 0x0 DUP1 REVERT JUMPDEST PUSH1 0x0 DUP1 REVERT JUMPDEST PUSH1 0x0 DUP1 REVERT JUMPDEST PUSH1 0x0 PUSH1 0x1F NOT PUSH1 0x1F DUP4 ADD AND SWAP1 POP SWAP2 SWAP1 POP JUMP JUMPDEST PUSH32 0x4E487B7100000000000000000000000000000000000000000000000000000000 PUSH1 0x0 MSTORE PUSH1 0x41 PUSH1 0x4 MSTORE PUSH1 0x24 PUSH1 0x0 REVERT JUMPDEST PUSH2 0x911 DUP3 PUSH2 0x8C8 JUMP JUMPDEST DUP2 ADD DUP2 DUP2 LT PUSH8 0xFFFFFFFFFFFFFFFF DUP3 GT OR ISZERO PUSH2 0x930 JUMPI PUSH2 0x92F PUSH2 0x8D9 JUMP JUMPDEST JUMPDEST DUP1 PUSH1 0x40 MSTORE POP POP POP JUMP JUMPDEST PUSH1 0x0 PUSH2 0x943 PUSH2 0x8AA JUMP JUMPDEST SWAP1 POP PUSH2 0x94F DUP3 DUP3 PUSH2 0x908 JUMP JUMPDEST SWAP2 SWAP1 POP JUMP JUMPDEST PUSH1 0x0 PUSH8 0xFFFFFFFFFFFFFFFF DUP3 GT ISZERO PUSH2 0x96F JUMPI PUSH2 0x96E PUSH2 0x8D9 JUMP JUMPDEST JUMPDEST PUSH2 0x978 DUP3 PUSH2 0x8C8 JUMP JUMPDEST SWAP1 POP PUSH1 0x20 DUP2 ADD SWAP1 POP SWAP2 SWAP1 POP JUMP JUMPDEST DUP3 DUP2 DUP4 CALLDATACOPY PUSH1 0x0 DUP4 DUP4 ADD MSTORE POP POP POP JUMP JUMPDEST PUSH1 0x0 PUSH2 0x9A7 PUSH2 0x9A2 DUP5 PUSH2 0x954 JUMP JUMPDEST PUSH2 0x939 JUMP JUMPDEST SWAP1 POP DUP3 DUP2 MSTORE PUSH1 0x20 DUP2 ADD DUP5 DUP5 DUP5 ADD GT ISZERO PUSH2 0x9C3 JUMPI PUSH2 0x9C2 PUSH2 0x8C3 JUMP JUMPDEST JUMPDEST PUSH2 0x9CE DUP5 DUP3 DUP6 PUSH2 0x985 JUMP JUMPDEST POP SWAP4 SWAP3 POP POP POP JUMP JUMPDEST PUSH1 0x0 DUP3 PUSH1 0x1F DUP4 ADD SLT PUSH2 0x9EB JUMPI PUSH2 0x9EA PUSH2 0x8BE JUMP JUMPDEST JUMPDEST DUP2 CALLDATALOAD PUSH2 0x9FB DUP5 DUP3 PUSH1 0x20 DUP7 ADD PUSH2 0x994 JUMP JUMPDEST SWAP2 POP POP SWAP3 SWAP2 POP POP JUMP JUMPDEST PUSH1 0x0 DUP1 PUSH1 0x40 DUP4 DUP6 SUB SLT ISZERO PUSH2 0xA1B JUMPI PUSH2 0xA1A PUSH2 0x8B4 JUMP JUMPDEST JUMPDEST PUSH1 0x0 DUP4 ADD CALLDATALOAD PUSH8 0xFFFFFFFFFFFFFFFF DUP2 GT ISZERO PUSH2 0xA39 JUMPI PUSH2 0xA38 PUSH2 0x8B9 JUMP JUMPDEST JUMPDEST PUSH2 0xA45 DUP6 DUP3 DUP7 ADD PUSH2 0x9D6 JUMP JUMPDEST SWAP3 POP POP PUSH1 0x20 DUP4 ADD CALLDATALOAD PUSH8 0xFFFFFFFFFFFFFFFF DUP2 GT ISZERO PUSH2 0xA66 JUMPI PUSH2 0xA65 PUSH2 0x8B9 JUMP JUMPDEST JUMPDEST PUSH2 0xA72 DUP6 DUP3 DUP7 ADD PUSH2 0x9D6 JUMP JUMPDEST SWAP2 POP POP SWAP3 POP SWAP3 SWAP1 POP JUMP JUMPDEST PUSH1 0x0 DUP2 SWAP1 POP SWAP2 SWAP1 POP JUMP JUMPDEST PUSH2 0xA8F DUP2 PUSH2 0xA7C JUMP JUMPDEST DUP2 EQ PUSH2 0xA9A JUMPI PUSH1 0x0 DUP1 REVERT JUMPDEST POP JUMP JUMPDEST PUSH1 0x0 DUP2 CALLDATALOAD SWAP1 POP PUSH2 0xAAC DUP2 PUSH2 0xA86 JUMP JUMPDEST SWAP3 SWAP2 POP POP JUMP JUMPDEST PUSH1 0x0 PUSH1 0x20 DUP3 DUP5 SUB SLT ISZERO PUSH2 0xAC8 JUMPI PUSH2 0xAC7 PUSH2 0x8B4 JUMP JUMPDEST JUMPDEST PUSH1 0x0 PUSH2 0xAD6 DUP5 DUP3 DUP6 ADD PUSH2 0xA9D JUMP JUMPDEST SWAP2 POP POP SWAP3 SWAP2 POP POP JUMP JUMPDEST PUSH1 0x0 PUSH20 0xFFFFFFFFFFFFFFFFFFFFFFFFFFFFFFFFFFFFFFFF DUP3 AND SWAP1 POP SWAP2 SWAP1 POP JUMP JUMPDEST PUSH1 0x0 PUSH2 0xB0A DUP3 PUSH2 0xADF JUMP JUMPDEST SWAP1 POP SWAP2 SWAP1 POP JUMP JUMPDEST PUSH2 0xB1A DUP2 PUSH2 0xAFF JUMP JUMPDEST DUP3 MSTORE POP POP JUMP JUMPDEST PUSH1 0x0 DUP2 MLOAD SWAP1 POP SWAP2 SWAP1 POP JUMP JUMPDEST PUSH1 0x0 DUP3 DUP3 MSTORE PUSH1 0x20 DUP3 ADD SWAP1 POP SWAP3 SWAP2 POP POP JUMP JUMPDEST PUSH1 0x0 JUMPDEST DUP4 DUP2 LT ISZERO PUSH2 0xB5A JUMPI DUP1 DUP3 ADD MLOAD DUP2 DUP5 ADD MSTORE PUSH1 0x20 DUP2 ADD SWAP1 POP PUSH2 0xB3F JUMP JUMPDEST PUSH1 0x0 DUP5 DUP5 ADD MSTORE POP POP POP POP JUMP JUMPDEST PUSH1 0x0 PUSH2 0xB71 DUP3 PUSH2 0xB20 JUMP JUMPDEST PUSH2 0xB7B DUP2 DUP6 PUSH2 0xB2B JUMP JUMPDEST SWAP4 POP PUSH2 0xB8B DUP2 DUP6 PUSH1 0x20 DUP7 ADD PUSH2 0xB3C JUMP JUMPDEST PUSH2 0xB94 DUP2 PUSH2 0x8C8 JUMP JUMPDEST DUP5 ADD SWAP2 POP POP SWAP3 SWAP2 POP POP JUMP JUMPDEST PUSH2 0xBA8 DUP2 PUSH2 0xA7C JUMP JUMPDEST DUP3 MSTORE POP POP JUMP JUMPDEST PUSH1 0x0 PUSH1 0xA0 DUP4 ADD PUSH1 0x0 DUP4 ADD MLOAD PUSH2 0xBC6 PUSH1 0x0 DUP7 ADD DUP3 PUSH2 0xB11 JUMP JUMPDEST POP PUSH1 0x20 DUP4 ADD MLOAD DUP5 DUP3 SUB PUSH1 0x20 DUP7 ADD MSTORE PUSH2 0xBDE DUP3 DUP3 PUSH2 0xB66 JUMP JUMPDEST SWAP2 POP POP PUSH1 0x40 DUP4 ADD MLOAD DUP5 DUP3 SUB PUSH1 0x40 DUP7 ADD MSTORE PUSH2 0xBF8 DUP3 DUP3 PUSH2 0xB66 JUMP JUMPDEST SWAP2 POP POP PUSH1 0x60 DUP4 ADD MLOAD PUSH2 0xC0D PUSH1 0x60 DUP7 ADD DUP3 PUSH2 0xB9F JUMP JUMPDEST POP PUSH1 0x80 DUP4 ADD MLOAD PUSH2 0xC20 PUSH1 0x80 DUP7 ADD DUP3 PUSH2 0xB9F JUMP JUMPDEST POP DUP1 SWAP2 POP POP SWAP3 SWAP2 POP POP JUMP JUMPDEST PUSH1 0x0 PUSH1 0x20 DUP3 ADD SWAP1 POP DUP2 DUP2 SUB PUSH1 0x0 DUP4 ADD MSTORE PUSH2 0xC45 DUP2 DUP5 PUSH2 0xBAE JUMP JUMPDEST SWAP1 POP SWAP3 SWAP2 POP POP JUMP JUMPDEST PUSH2 0xC56 DUP2 PUSH2 0xAFF JUMP JUMPDEST DUP2 EQ PUSH2 0xC61 JUMPI PUSH1 0x0 DUP1 REVERT JUMPDEST POP JUMP JUMPDEST PUSH1 0x0 DUP2 CALLDATALOAD SWAP1 POP PUSH2 0xC73 DUP2 PUSH2 0xC4D JUMP JUMPDEST SWAP3 SWAP2 POP POP JUMP JUMPDEST PUSH1 0x0 PUSH1 0x20 DUP3 DUP5 SUB SLT ISZERO PUSH2 0xC8F JUMPI PUSH2 0xC8E PUSH2 0x8B4 JUMP JUMPDEST JUMPDEST PUSH1 0x0 PUSH2 0xC9D DUP5 DUP3 DUP6 ADD PUSH2 0xC64 JUMP JUMPDEST SWAP2 POP POP SWAP3 SWAP2 POP POP JUMP JUMPDEST PUSH1 0x0 DUP2 MLOAD SWAP1 POP SWAP2 SWAP1 POP JUMP JUMPDEST PUSH1 0x0 DUP3 DUP3 MSTORE PUSH1 0x20 DUP3 ADD SWAP1 POP SWAP3 SWAP2 POP POP JUMP JUMPDEST PUSH1 0x0 DUP2 SWAP1 POP PUSH1 0x20 DUP3 ADD SWAP1 POP SWAP2 SWAP1 POP JUMP JUMPDEST PUSH1 0x0 PUSH1 0xA0 DUP4 ADD PUSH1 0x0 DUP4 ADD MLOAD PUSH2 0xCEA PUSH1 0x0 DUP7 ADD DUP3 PUSH2 0xB11 JUMP JUMPDEST POP PUSH1 0x20 DUP4 ADD MLOAD DUP5 DUP3 SUB PUSH1 0x20 DUP7 ADD MSTORE PUSH2 0xD02 DUP3 DUP3 PUSH2 0xB66 JUMP JUMPDEST SWAP2 POP POP PUSH1 0x40 DUP4 ADD MLOAD DUP5 DUP3 SUB PUSH1 0x40 DUP7 ADD MSTORE PUSH2 0xD1C DUP3 DUP3 PUSH2 0xB66 JUMP JUMPDEST SWAP2 POP POP PUSH1 0x60 DUP4 ADD MLOAD PUSH2 0xD31 PUSH1 0x60 DUP7 ADD DUP3 PUSH2 0xB9F JUMP JUMPDEST POP PUSH1 0x80 DUP4 ADD MLOAD PUSH2 0xD44 PUSH1 0x80 DUP7 ADD DUP3 PUSH2 0xB9F JUMP JUMPDEST POP DUP1 SWAP2 POP POP SWAP3 SWAP2 POP POP JUMP JUMPDEST PUSH1 0x0 PUSH2 0xD5B DUP4 DUP4 PUSH2 0xCD2 JUMP JUMPDEST SWAP1 POP SWAP3 SWAP2 POP POP JUMP JUMPDEST PUSH1 0x0 PUSH1 0x20 DUP3 ADD SWAP1 POP SWAP2 SWAP1 POP JUMP JUMPDEST PUSH1 0x0 PUSH2 0xD7B DUP3 PUSH2 0xCA6 JUMP JUMPDEST PUSH2 0xD85 DUP2 DUP6 PUSH2 0xCB1 JUMP JUMPDEST SWAP4 POP DUP4 PUSH1 0x20 DUP3 MUL DUP6 ADD PUSH2 0xD97 DUP6 PUSH2 0xCC2 JUMP JUMPDEST DUP1 PUSH1 0x0 JUMPDEST DUP6 DUP2 LT ISZERO PUSH2 0xDD3 JUMPI DUP5 DUP5 SUB DUP10 MSTORE DUP2 MLOAD PUSH2 0xDB4 DUP6 DUP3 PUSH2 0xD4F JUMP JUMPDEST SWAP5 POP PUSH2 0xDBF DUP4 PUSH2 0xD63 JUMP JUMPDEST SWAP3 POP PUSH1 0x20 DUP11 ADD SWAP10 POP POP PUSH1 0x1 DUP2 ADD SWAP1 POP PUSH2 0xD9B JUMP JUMPDEST POP DUP3 SWAP8 POP DUP8 SWAP6 POP POP POP POP POP POP SWAP3 SWAP2 POP POP JUMP JUMPDEST PUSH1 0x0 PUSH1 0x20 DUP3 ADD SWAP1 POP DUP2 DUP2 SUB PUSH1 0x0 DUP4 ADD MSTORE PUSH2 0xDFF DUP2 DUP5 PUSH2 0xD70 JUMP JUMPDEST SWAP1 POP SWAP3 SWAP2 POP POP JUMP JUMPDEST PUSH2 0xE10 DUP2 PUSH2 0xAFF JUMP JUMPDEST DUP3 MSTORE POP POP JUMP JUMPDEST PUSH1 0x0 PUSH1 0x20 DUP3 ADD SWAP1 POP PUSH2 0xE2B PUSH1 0x0 DUP4 ADD DUP5 PUSH2 0xE07 JUMP JUMPDEST SWAP3 SWAP2 POP POP JUMP JUMPDEST PUSH2 0xE3A DUP2 PUSH2 0x872 JUMP JUMPDEST DUP2 EQ PUSH2 0xE45 JUMPI PUSH1 0x0 DUP1 REVERT JUMPDEST POP JUMP JUMPDEST PUSH1 0x0 DUP2 CALLDATALOAD SWAP1 POP PUSH2 0xE57 DUP2 PUSH2 0xE31 JUMP JUMPDEST SWAP3 SWAP2 POP POP JUMP JUMPDEST PUSH1 0x0 PUSH1 0x20 DUP3 DUP5 SUB SLT ISZERO PUSH2 0xE73 JUMPI PUSH2 0xE72 PUSH2 0x8B4 JUMP JUMPDEST JUMPDEST PUSH1 0x0 PUSH2 0xE81 DUP5 DUP3 DUP6 ADD PUSH2 0xE48 JUMP JUMPDEST SWAP2 POP POP SWAP3 SWAP2 POP POP JUMP JUMPDEST PUSH1 0x0 DUP3 DUP3 MSTORE PUSH1 0x20 DUP3 ADD SWAP1 POP SWAP3 SWAP2 POP POP JUMP JUMPDEST PUSH32 0x5469746C6520746F6F206C6F6E67000000000000000000000000000000000000 PUSH1 0x0 DUP3 ADD MSTORE POP JUMP JUMPDEST PUSH1 0x0 PUSH2 0xED1 PUSH1 0xE DUP4 PUSH2 0xE8A JUMP JUMPDEST SWAP2 POP PUSH2 0xEDC DUP3 PUSH2 0xE9B JUMP JUMPDEST PUSH1 0x20 DUP3 ADD SWAP1 POP SWAP2 SWAP1 POP JUMP JUMPDEST PUSH1 0x0 PUSH1 0x20 DUP3 ADD SWAP1 POP DUP2 DUP2 SUB PUSH1 0x0 DUP4 ADD MSTORE PUSH2 0xF00 DUP2 PUSH2 0xEC4 JUMP JUMPDEST SWAP1 POP SWAP2 SWAP1 POP JUMP JUMPDEST PUSH32 0x436F6E74656E7420746F6F206C6F6E6700000000000000000000000000000000 PUSH1 0x0 DUP3 ADD MSTORE POP JUMP JUMPDEST PUSH1 0x0 PUSH2 0xF3D PUSH1 0x10 DUP4 PUSH2 0xE8A JUMP JUMPDEST SWAP2 POP PUSH2 0xF48 DUP3 PUSH2 0xF07 JUMP JUMPDEST PUSH1 0x20 DUP3 ADD SWAP1 POP SWAP2 SWAP1 POP JUMP JUMPDEST PUSH1 0x0 PUSH1 0x20 DUP3 ADD SWAP1 POP DUP2 DUP2 SUB PUSH1 0x0 DUP4 ADD MSTORE PUSH2 0xF6C DUP2 PUSH2 0xF30 JUMP JUMPDEST SWAP1 POP SWAP2 SWAP1 POP JUMP JUMPDEST PUSH32 0x4E487B7100000000000000000000000000000000000000000000000000000000 PUSH1 0x0 MSTORE PUSH1 0x22 PUSH1 0x4 MSTORE PUSH1 0x24 PUSH1 0x0 REVERT JUMPDEST PUSH1 0x0 PUSH1 0x2 DUP3 DIV SWAP1 POP PUSH1 0x1 DUP3 AND DUP1 PUSH2 0xFBA JUMPI PUSH1 0x7F DUP3 AND SWAP2 POP JUMPDEST PUSH1 0x20 DUP3 LT DUP2 SUB PUSH2 0xFCD JUMPI PUSH2 0xFCC PUSH2 0xF73 JUMP JUMPDEST JUMPDEST POP SWAP2 SWAP1 POP JUMP JUMPDEST PUSH1 0x0 DUP2 SWAP1 POP DUP2 PUSH1 0x0 MSTORE PUSH1 0x20 PUSH1 0x0 KECCAK256 SWAP1 POP SWAP2 SWAP1 POP JUMP JUMPDEST PUSH1 0x0 PUSH1 0x20 PUSH1 0x1F DUP4 ADD DIV SWAP1 POP SWAP2 SWAP1 POP JUMP JUMPDEST PUSH1 0x0 DUP3 DUP3 SHL SWAP1 POP SWAP3 SWAP2 POP POP JUMP JUMPDEST PUSH1 0x0 PUSH1 0x8 DUP4 MUL PUSH2 0x1035 PUSH32 0xFFFFFFFFFFFFFFFFFFFFFFFFFFFFFFFFFFFFFFFFFFFFFFFFFFFFFFFFFFFFFFFF DUP3 PUSH2 0xFF8 JUMP JUMPDEST PUSH2 0x103F DUP7 DUP4 PUSH2 0xFF8 JUMP JUMPDEST SWAP6 POP DUP1 NOT DUP5 AND SWAP4 POP DUP1 DUP7 AND DUP5 OR SWAP3 POP POP POP SWAP4 SWAP3 POP POP POP JUMP JUMPDEST PUSH1 0x0 DUP2 SWAP1 POP SWAP2 SWAP1 POP JUMP JUMPDEST PUSH1 0x0 PUSH2 0x107C PUSH2 0x1077 PUSH2 0x1072 DUP5 PUSH2 0xA7C JUMP JUMPDEST PUSH2 0x1057 JUMP JUMPDEST PUSH2 0xA7C JUMP JUMPDEST SWAP1 POP SWAP2 SWAP1 POP JUMP JUMPDEST PUSH1 0x0 DUP2 SWAP1 POP SWAP2 SWAP1 POP JUMP JUMPDEST PUSH2 0x1096 DUP4 PUSH2 0x1061 JUMP JUMPDEST PUSH2 0x10AA PUSH2 0x10A2 DUP3 PUSH2 0x1083 JUMP JUMPDEST DUP5 DUP5 SLOAD PUSH2 0x1005 JUMP JUMPDEST DUP3 SSTORE POP POP POP POP JUMP JUMPDEST PUSH1 0x0 SWAP1 JUMP JUMPDEST PUSH2 0x10BF PUSH2 0x10B2 JUMP JUMPDEST PUSH2 0x10CA DUP2 DUP5 DUP5 PUSH2 0x108D JUMP JUMPDEST POP POP POP JUMP JUMPDEST JUMPDEST DUP2 DUP2 LT ISZERO PUSH2 0x10EE JUMPI PUSH2 0x10E3 PUSH1 0x0 DUP3 PUSH2 0x10B7 JUMP JUMPDEST PUSH1 0x1 DUP2 ADD SWAP1 POP PUSH2 0x10D0 JUMP JUMPDEST POP POP JUMP JUMPDEST PUSH1 0x1F DUP3 GT ISZERO PUSH2 0x1133 JUMPI PUSH2 0x1104 DUP2 PUSH2 0xFD3 JUMP JUMPDEST PUSH2 0x110D DUP5 PUSH2 0xFE8 JUMP JUMPDEST DUP2 ADD PUSH1 0x20 DUP6 LT ISZERO PUSH2 0x111C JUMPI DUP2 SWAP1 POP JUMPDEST PUSH2 0x1130 PUSH2 0x1128 DUP6 PUSH2 0xFE8 JUMP JUMPDEST DUP4 ADD DUP3 PUSH2 0x10CF JUMP JUMPDEST POP POP JUMPDEST POP POP POP JUMP JUMPDEST PUSH1 0x0 DUP3 DUP3 SHR SWAP1 POP SWAP3 SWAP2 POP POP JUMP JUMPDEST PUSH1 0x0 PUSH2 0x1156 PUSH1 0x0 NOT DUP5 PUSH1 0x8 MUL PUSH2 0x1138 JUMP JUMPDEST NOT DUP1 DUP4 AND SWAP2 POP POP SWAP3 SWAP2 POP POP JUMP JUMPDEST PUSH1 0x0 PUSH2 0x116F DUP4 DUP4 PUSH2 0x1145 JUMP JUMPDEST SWAP2 POP DUP3 PUSH1 0x2 MUL DUP3 OR SWAP1 POP SWAP3 SWAP2 POP POP JUMP JUMPDEST PUSH2 0x1188 DUP3 PUSH2 0xB20 JUMP JUMPDEST PUSH8 0xFFFFFFFFFFFFFFFF DUP2 GT ISZERO PUSH2 0x11A1 JUMPI PUSH2 0x11A0 PUSH2 0x8D9 JUMP JUMPDEST JUMPDEST PUSH2 0x11AB DUP3 SLOAD PUSH2 0xFA2 JUMP JUMPDEST PUSH2 0x11B6 DUP3 DUP3 DUP6 PUSH2 0x10F2 JUMP JUMPDEST PUSH1 0x0 PUSH1 0x20 SWAP1 POP PUSH1 0x1F DUP4 GT PUSH1 0x1 DUP2 EQ PUSH2 0x11E9 JUMPI PUSH1 0x0 DUP5 ISZERO PUSH2 0x11D7 JUMPI DUP3 DUP8 ADD MLOAD SWAP1 POP JUMPDEST PUSH2 0x11E1 DUP6 DUP3 PUSH2 0x1163 JUMP JUMPDEST DUP7 SSTORE POP PUSH2 0x1249 JUMP JUMPDEST PUSH1 0x1F NOT DUP5 AND PUSH2 0x11F7 DUP7 PUSH2 0xFD3 JUMP JUMPDEST PUSH1 0x0 JUMPDEST DUP3 DUP2 LT ISZERO PUSH2 0x121F JUMPI DUP5 DUP10 ADD MLOAD DUP3 SSTORE PUSH1 0x1 DUP3 ADD SWAP2 POP PUSH1 0x20 DUP6 ADD SWAP5 POP PUSH1 0x20 DUP2 ADD SWAP1 POP PUSH2 0x11FA JUMP JUMPDEST DUP7 DUP4 LT ISZERO PUSH2 0x123C JUMPI DUP5 DUP10 ADD MLOAD PUSH2 0x1238 PUSH1 0x1F DUP10 AND DUP3 PUSH2 0x1145 JUMP JUMPDEST DUP4 SSTORE POP JUMPDEST PUSH1 0x1 PUSH1 0x2 DUP9 MUL ADD DUP9 SSTORE POP POP POP JUMPDEST POP POP POP POP POP POP JUMP JUMPDEST PUSH32 0x4E487B7100000000000000000000000000000000000000000000000000000000 PUSH1 0x0 MSTORE PUSH1 0x32 PUSH1 0x4 MSTORE PUSH1 0x24 PUSH1 0x0 REVERT JUMPDEST PUSH32 0x4D75737420626520636F6E7472616374206F776E657220666F72207468697320 PUSH1 0x0 DUP3 ADD MSTORE PUSH32 0x616374696F6E0000000000000000000000000000000000000000000000000000 PUSH1 0x20 DUP3 ADD MSTORE POP JUMP JUMPDEST PUSH1 0x0 PUSH2 0x12DC PUSH1 0x26 DUP4 PUSH2 0xE8A JUMP JUMPDEST SWAP2 POP PUSH2 0x12E7 DUP3 PUSH2 0x1280 JUMP JUMPDEST PUSH1 0x40 DUP3 ADD SWAP1 POP SWAP2 SWAP1 POP JUMP JUMPDEST PUSH1 0x0 PUSH1 0x20 DUP3 ADD SWAP1 POP DUP2 DUP2 SUB PUSH1 0x0 DUP4 ADD MSTORE PUSH2 0x130B DUP2 PUSH2 0x12CF JUMP JUMPDEST SWAP1 POP SWAP2 SWAP1 POP JUMP INVALID LOG2 PUSH5 0x6970667358 0x22 SLT KECCAK256 0xEC 0xE1 LOG4 EQ EXTCODESIZE 0xAB 0xCC 0xAA 0xF9 LOG4 ISZERO 0x2C LT EQ SWAP5 0xE3 DIV SWAP9 PUSH30 0x766E31193F27E85B8D886CE74464736F6C63430008120033000000000000 "
				},
				"gasEstimates": {
					"creation": {
						"codeDepositCost": "987200",
						"executionCost": "49610",
						"totalCost": "1036810"
					},
					"external": {
						"MAX_CONTENT_LENGTH()": "2499",
						"changeContentLength(uint16)": "26984",
						"createPost(string,string)": "infinite",
						"getAllPosts(address)": "infinite",
						"getPost(uint256)": "infinite",
						"owner()": "2577"
					}
				},
				"methodIdentifiers": {
					"MAX_CONTENT_LENGTH()": "05b746b5",
					"changeContentLength(uint16)": "fd6a99e1",
					"createPost(string,string)": "392338f5",
					"getAllPosts(address)": "77d2765c",
					"getPost(uint256)": "40731c24",
					"owner()": "8da5cb5b"
				}
			},
			"storageLayout": {
				"storage": [
					{
						"astId": 5,
						"contract": "contracts/Blog-Modifiers.sol:Blog",
						"label": "owner",
						"offset": 0,
						"slot": "0",
						"type": "t_address"
					},
					{
						"astId": 11,
						"contract": "contracts/Blog-Modifiers.sol:Blog",
						"label": "MAX_CONTENT_LENGTH",
						"offset": 20,
						"slot": "0",
						"type": "t_uint16"
					},
					{
						"astId": 28,
						"contract": "contracts/Blog-Modifiers.sol:Blog",
						"label": "posts",
						"offset": 0,
						"slot": "1",
						"type": "t_mapping(t_address,t_array(t_struct(Post)22_storage)dyn_storage)"
					}
				],
				"types": {
					"t_address": {
						"encoding": "inplace",
						"label": "address",
						"numberOfBytes": "20"
					},
					"t_array(t_struct(Post)22_storage)dyn_storage": {
						"base": "t_struct(Post)22_storage",
						"encoding": "dynamic_array",
						"label": "struct Blog.Post[]",
						"numberOfBytes": "32"
					},
					"t_mapping(t_address,t_array(t_struct(Post)22_storage)dyn_storage)": {
						"encoding": "mapping",
						"key": "t_address",
						"label": "mapping(address => struct Blog.Post[])",
						"numberOfBytes": "32",
						"value": "t_array(t_struct(Post)22_storage)dyn_storage"
					},
					"t_string_storage": {
						"encoding": "bytes",
						"label": "string",
						"numberOfBytes": "32"
					},
					"t_struct(Post)22_storage": {
						"encoding": "inplace",
						"label": "struct Blog.Post",
						"members": [
							{
								"astId": 13,
								"contract": "contracts/Blog-Modifiers.sol:Blog",
								"label": "author",
								"offset": 0,
								"slot": "0",
								"type": "t_address"
							},
							{
								"astId": 15,
								"contract": "contracts/Blog-Modifiers.sol:Blog",
								"label": "title",
								"offset": 0,
								"slot": "1",
								"type": "t_string_storage"
							},
							{
								"astId": 17,
								"contract": "contracts/Blog-Modifiers.sol:Blog",
								"label": "content",
								"offset": 0,
								"slot": "2",
								"type": "t_string_storage"
							},
							{
								"astId": 19,
								"contract": "contracts/Blog-Modifiers.sol:Blog",
								"label": "timestamp",
								"offset": 0,
								"slot": "3",
								"type": "t_uint256"
							},
							{
								"astId": 21,
								"contract": "contracts/Blog-Modifiers.sol:Blog",
								"label": "likes",
								"offset": 0,
								"slot": "4",
								"type": "t_uint256"
							}
						],
						"numberOfBytes": "160"
					},
					"t_uint16": {
						"encoding": "inplace",
						"label": "uint16",
						"numberOfBytes": "2"
					},
					"t_uint256": {
						"encoding": "inplace",
						"label": "uint256",
						"numberOfBytes": "32"
					}
				}
			},
			"userdoc": {
				"kind": "user",
				"methods": {},
				"version": 1
			}
		}
	}
}